{
	"WTFPractice/ERC721/WTFApe.sol": {
		"WTFApe": {
			"abi": [
				{
					"inputs": [
						{
							"internalType": "string",
							"name": "_name",
							"type": "string"
						},
						{
							"internalType": "string",
							"name": "_symbol",
							"type": "string"
						}
					],
					"stateMutability": "nonpayable",
					"type": "constructor"
				},
				{
					"anonymous": false,
					"inputs": [
						{
							"indexed": true,
							"internalType": "address",
							"name": "owner",
							"type": "address"
						},
						{
							"indexed": true,
							"internalType": "address",
							"name": "approved",
							"type": "address"
						},
						{
							"indexed": true,
							"internalType": "uint256",
							"name": "tokenId",
							"type": "uint256"
						}
					],
					"name": "Approval",
					"type": "event"
				},
				{
					"anonymous": false,
					"inputs": [
						{
							"indexed": true,
							"internalType": "address",
							"name": "owner",
							"type": "address"
						},
						{
							"indexed": true,
							"internalType": "address",
							"name": "operator",
							"type": "address"
						},
						{
							"indexed": false,
							"internalType": "bool",
							"name": "approved",
							"type": "bool"
						}
					],
					"name": "ApprovalForAll",
					"type": "event"
				},
				{
					"anonymous": false,
					"inputs": [
						{
							"indexed": true,
							"internalType": "address",
							"name": "from",
							"type": "address"
						},
						{
							"indexed": true,
							"internalType": "address",
							"name": "to",
							"type": "address"
						},
						{
							"indexed": true,
							"internalType": "uint256",
							"name": "tokenId",
							"type": "uint256"
						}
					],
					"name": "Transfer",
					"type": "event"
				},
				{
					"inputs": [],
					"name": "MAX_APES",
					"outputs": [
						{
							"internalType": "uint256",
							"name": "",
							"type": "uint256"
						}
					],
					"stateMutability": "view",
					"type": "function"
				},
				{
					"inputs": [
						{
							"internalType": "address",
							"name": "to",
							"type": "address"
						},
						{
							"internalType": "uint256",
							"name": "tokenId",
							"type": "uint256"
						}
					],
					"name": "approve",
					"outputs": [],
					"stateMutability": "nonpayable",
					"type": "function"
				},
				{
					"inputs": [
						{
							"internalType": "address",
							"name": "owner",
							"type": "address"
						}
					],
					"name": "balanceOf",
					"outputs": [
						{
							"internalType": "uint256",
							"name": "",
							"type": "uint256"
						}
					],
					"stateMutability": "view",
					"type": "function"
				},
				{
					"inputs": [
						{
							"internalType": "uint256",
							"name": "tokenId",
							"type": "uint256"
						}
					],
					"name": "getApproved",
					"outputs": [
						{
							"internalType": "address",
							"name": "",
							"type": "address"
						}
					],
					"stateMutability": "view",
					"type": "function"
				},
				{
					"inputs": [
						{
							"internalType": "address",
							"name": "owner",
							"type": "address"
						},
						{
							"internalType": "address",
							"name": "operator",
							"type": "address"
						}
					],
					"name": "isApprovedForAll",
					"outputs": [
						{
							"internalType": "bool",
							"name": "",
							"type": "bool"
						}
					],
					"stateMutability": "view",
					"type": "function"
				},
				{
					"inputs": [
						{
							"internalType": "address",
							"name": "to",
							"type": "address"
						},
						{
							"internalType": "uint256",
							"name": "tokenId",
							"type": "uint256"
						}
					],
					"name": "mint",
					"outputs": [],
					"stateMutability": "nonpayable",
					"type": "function"
				},
				{
					"inputs": [],
					"name": "name",
					"outputs": [
						{
							"internalType": "string",
							"name": "",
							"type": "string"
						}
					],
					"stateMutability": "view",
					"type": "function"
				},
				{
					"inputs": [
						{
							"internalType": "uint256",
							"name": "tokenId",
							"type": "uint256"
						}
					],
					"name": "ownerOf",
					"outputs": [
						{
							"internalType": "address",
							"name": "owner",
							"type": "address"
						}
					],
					"stateMutability": "view",
					"type": "function"
				},
				{
					"inputs": [
						{
							"internalType": "address",
							"name": "from",
							"type": "address"
						},
						{
							"internalType": "address",
							"name": "to",
							"type": "address"
						},
						{
							"internalType": "uint256",
							"name": "tokenId",
							"type": "uint256"
						}
					],
					"name": "safeTransferFrom",
					"outputs": [],
					"stateMutability": "nonpayable",
					"type": "function"
				},
				{
					"inputs": [
						{
							"internalType": "address",
							"name": "from",
							"type": "address"
						},
						{
							"internalType": "address",
							"name": "to",
							"type": "address"
						},
						{
							"internalType": "uint256",
							"name": "tokenId",
							"type": "uint256"
						},
						{
							"internalType": "bytes",
							"name": "_data",
							"type": "bytes"
						}
					],
					"name": "safeTransferFrom",
					"outputs": [],
					"stateMutability": "nonpayable",
					"type": "function"
				},
				{
					"inputs": [
						{
							"internalType": "address",
							"name": "operator",
							"type": "address"
						},
						{
							"internalType": "bool",
							"name": "approved",
							"type": "bool"
						}
					],
					"name": "setApprovalForAll",
					"outputs": [],
					"stateMutability": "nonpayable",
					"type": "function"
				},
				{
					"inputs": [
						{
							"internalType": "bytes4",
							"name": "interfaceId",
							"type": "bytes4"
						}
					],
					"name": "supportsInterface",
					"outputs": [
						{
							"internalType": "bool",
							"name": "",
							"type": "bool"
						}
					],
					"stateMutability": "pure",
					"type": "function"
				},
				{
					"inputs": [],
					"name": "symbol",
					"outputs": [
						{
							"internalType": "string",
							"name": "",
							"type": "string"
						}
					],
					"stateMutability": "view",
					"type": "function"
				},
				{
					"inputs": [
						{
							"internalType": "uint256",
							"name": "tokenId",
							"type": "uint256"
						}
					],
					"name": "tokenURI",
					"outputs": [
						{
							"internalType": "string",
							"name": "",
							"type": "string"
						}
					],
					"stateMutability": "view",
					"type": "function"
				},
				{
					"inputs": [
						{
							"internalType": "address",
							"name": "from",
							"type": "address"
						},
						{
							"internalType": "address",
							"name": "to",
							"type": "address"
						},
						{
							"internalType": "uint256",
							"name": "tokenId",
							"type": "uint256"
						}
					],
					"name": "transferFrom",
					"outputs": [],
					"stateMutability": "nonpayable",
					"type": "function"
				}
			],
			"devdoc": {
				"kind": "dev",
				"methods": {
					"supportsInterface(bytes4)": {
						"details": "如果合约实现了查询的`interfaceId`，则返回true 规则详见：https://eips.ethereum.org/EIPS/eip-165#how-interfaces-are-identified[EIP section]"
					}
				},
				"version": 1
			},
			"evm": {
				"assembly": "    /* \"WTFPractice/ERC721/WTFApe.sol\":80:549  contract WTFApe is ERC721 {... */\n  mstore(0x40, 0x80)\n    /* \"WTFPractice/ERC721/WTFApe.sol\":136:140  1000 */\n  0x03e8\n    /* \"WTFPractice/ERC721/WTFApe.sol\":113:140  uint public MAX_APES = 1000 */\n  0x06\n  sstore\n    /* \"WTFPractice/ERC721/WTFApe.sol\":147:228  constructor(string memory _name, string memory _symbol) ERC721(_name, _symbol) {} */\n  callvalue\n  dup1\n  iszero\n  tag_1\n  jumpi\n  0x00\n  dup1\n  revert\ntag_1:\n  pop\n  mload(0x40)\n  sub(codesize, bytecodeSize)\n  dup1\n  bytecodeSize\n  dup4\n  codecopy\n  dup2\n  dup2\n  add\n  0x40\n  mstore\n  dup2\n  add\n  swap1\n  tag_2\n  swap2\n  swap1\n  tag_3\n  jump\t// in\ntag_2:\n    /* \"WTFPractice/ERC721/WTFApe.sol\":210:215  _name */\n  dup2\n    /* \"WTFPractice/ERC721/WTFApe.sol\":217:224  _symbol */\n  dup2\n    /* \"WTFPractice/ERC721/ERC721.sol\":816:821  _name */\n  dup2\n    /* \"WTFPractice/ERC721/ERC721.sol\":809:813  name */\n  0x00\n    /* \"WTFPractice/ERC721/ERC721.sol\":809:821  name = _name */\n  swap1\n  dup2\n  tag_7\n  swap2\n  swap1\n  tag_8\n  jump\t// in\ntag_7:\n  pop\n    /* \"WTFPractice/ERC721/ERC721.sol\":840:847  _symbol */\n  dup1\n    /* \"WTFPractice/ERC721/ERC721.sol\":831:837  symbol */\n  0x01\n    /* \"WTFPractice/ERC721/ERC721.sol\":831:847  symbol = _symbol */\n  swap1\n  dup2\n  tag_9\n  swap2\n  swap1\n  tag_8\n  jump\t// in\ntag_9:\n  pop\n    /* \"WTFPractice/ERC721/ERC721.sol\":743:854  constructor(string memory _name, string memory _symbol) {... */\n  pop\n  pop\n    /* \"WTFPractice/ERC721/WTFApe.sol\":147:228  constructor(string memory _name, string memory _symbol) ERC721(_name, _symbol) {} */\n  pop\n  pop\n    /* \"WTFPractice/ERC721/WTFApe.sol\":80:549  contract WTFApe is ERC721 {... */\n  jump(tag_11)\n    /* \"#utility.yul\":7:82   */\ntag_12:\n    /* \"#utility.yul\":40:46   */\n  0x00\n    /* \"#utility.yul\":73:75   */\n  0x40\n    /* \"#utility.yul\":67:76   */\n  mload\n    /* \"#utility.yul\":57:76   */\n  swap1\n  pop\n    /* \"#utility.yul\":7:82   */\n  swap1\n  jump\t// out\n    /* \"#utility.yul\":88:205   */\ntag_13:\n    /* \"#utility.yul\":197:198   */\n  0x00\n    /* \"#utility.yul\":194:195   */\n  dup1\n    /* \"#utility.yul\":187:199   */\n  revert\n    /* \"#utility.yul\":211:328   */\ntag_14:\n    /* \"#utility.yul\":320:321   */\n  0x00\n    /* \"#utility.yul\":317:318   */\n  dup1\n    /* \"#utility.yul\":310:322   */\n  revert\n    /* \"#utility.yul\":334:451   */\ntag_15:\n    /* \"#utility.yul\":443:444   */\n  0x00\n    /* \"#utility.yul\":440:441   */\n  dup1\n    /* \"#utility.yul\":433:445   */\n  revert\n    /* \"#utility.yul\":457:574   */\ntag_16:\n    /* \"#utility.yul\":566:567   */\n  0x00\n    /* \"#utility.yul\":563:564   */\n  dup1\n    /* \"#utility.yul\":556:568   */\n  revert\n    /* \"#utility.yul\":580:682   */\ntag_17:\n    /* \"#utility.yul\":621:627   */\n  0x00\n    /* \"#utility.yul\":672:674   */\n  0x1f\n    /* \"#utility.yul\":668:675   */\n  not\n    /* \"#utility.yul\":663:665   */\n  0x1f\n    /* \"#utility.yul\":656:661   */\n  dup4\n    /* \"#utility.yul\":652:666   */\n  add\n    /* \"#utility.yul\":648:676   */\n  and\n    /* \"#utility.yul\":638:676   */\n  swap1\n  pop\n    /* \"#utility.yul\":580:682   */\n  swap2\n  swap1\n  pop\n  jump\t// out\n    /* \"#utility.yul\":688:868   */\ntag_18:\n    /* \"#utility.yul\":736:813   */\n  0x4e487b7100000000000000000000000000000000000000000000000000000000\n    /* \"#utility.yul\":733:734   */\n  0x00\n    /* \"#utility.yul\":726:814   */\n  mstore\n    /* \"#utility.yul\":833:837   */\n  0x41\n    /* \"#utility.yul\":830:831   */\n  0x04\n    /* \"#utility.yul\":823:838   */\n  mstore\n    /* \"#utility.yul\":857:861   */\n  0x24\n    /* \"#utility.yul\":854:855   */\n  0x00\n    /* \"#utility.yul\":847:862   */\n  revert\n    /* \"#utility.yul\":874:1155   */\ntag_19:\n    /* \"#utility.yul\":957:984   */\n  tag_53\n    /* \"#utility.yul\":979:983   */\n  dup3\n    /* \"#utility.yul\":957:984   */\n  tag_17\n  jump\t// in\ntag_53:\n    /* \"#utility.yul\":949:955   */\n  dup2\n    /* \"#utility.yul\":945:985   */\n  add\n    /* \"#utility.yul\":1087:1093   */\n  dup2\n    /* \"#utility.yul\":1075:1085   */\n  dup2\n    /* \"#utility.yul\":1072:1094   */\n  lt\n    /* \"#utility.yul\":1051:1069   */\n  0xffffffffffffffff\n    /* \"#utility.yul\":1039:1049   */\n  dup3\n    /* \"#utility.yul\":1036:1070   */\n  gt\n    /* \"#utility.yul\":1033:1095   */\n  or\n    /* \"#utility.yul\":1030:1118   */\n  iszero\n  tag_54\n  jumpi\n    /* \"#utility.yul\":1098:1116   */\n  tag_55\n  tag_18\n  jump\t// in\ntag_55:\n    /* \"#utility.yul\":1030:1118   */\ntag_54:\n    /* \"#utility.yul\":1138:1148   */\n  dup1\n    /* \"#utility.yul\":1134:1136   */\n  0x40\n    /* \"#utility.yul\":1127:1149   */\n  mstore\n    /* \"#utility.yul\":917:1155   */\n  pop\n    /* \"#utility.yul\":874:1155   */\n  pop\n  pop\n  jump\t// out\n    /* \"#utility.yul\":1161:1290   */\ntag_20:\n    /* \"#utility.yul\":1195:1201   */\n  0x00\n    /* \"#utility.yul\":1222:1242   */\n  tag_57\n  tag_12\n  jump\t// in\ntag_57:\n    /* \"#utility.yul\":1212:1242   */\n  swap1\n  pop\n    /* \"#utility.yul\":1251:1284   */\n  tag_58\n    /* \"#utility.yul\":1279:1283   */\n  dup3\n    /* \"#utility.yul\":1271:1277   */\n  dup3\n    /* \"#utility.yul\":1251:1284   */\n  tag_19\n  jump\t// in\ntag_58:\n    /* \"#utility.yul\":1161:1290   */\n  swap2\n  swap1\n  pop\n  jump\t// out\n    /* \"#utility.yul\":1296:1604   */\ntag_21:\n    /* \"#utility.yul\":1358:1362   */\n  0x00\n    /* \"#utility.yul\":1448:1466   */\n  0xffffffffffffffff\n    /* \"#utility.yul\":1440:1446   */\n  dup3\n    /* \"#utility.yul\":1437:1467   */\n  gt\n    /* \"#utility.yul\":1434:1490   */\n  iszero\n  tag_60\n  jumpi\n    /* \"#utility.yul\":1470:1488   */\n  tag_61\n  tag_18\n  jump\t// in\ntag_61:\n    /* \"#utility.yul\":1434:1490   */\ntag_60:\n    /* \"#utility.yul\":1508:1537   */\n  tag_62\n    /* \"#utility.yul\":1530:1536   */\n  dup3\n    /* \"#utility.yul\":1508:1537   */\n  tag_17\n  jump\t// in\ntag_62:\n    /* \"#utility.yul\":1500:1537   */\n  swap1\n  pop\n    /* \"#utility.yul\":1592:1596   */\n  0x20\n    /* \"#utility.yul\":1586:1590   */\n  dup2\n    /* \"#utility.yul\":1582:1597   */\n  add\n    /* \"#utility.yul\":1574:1597   */\n  swap1\n  pop\n    /* \"#utility.yul\":1296:1604   */\n  swap2\n  swap1\n  pop\n  jump\t// out\n    /* \"#utility.yul\":1610:1856   */\ntag_22:\n    /* \"#utility.yul\":1691:1692   */\n  0x00\n    /* \"#utility.yul\":1701:1814   */\ntag_64:\n    /* \"#utility.yul\":1715:1721   */\n  dup4\n    /* \"#utility.yul\":1712:1713   */\n  dup2\n    /* \"#utility.yul\":1709:1722   */\n  lt\n    /* \"#utility.yul\":1701:1814   */\n  iszero\n  tag_66\n  jumpi\n    /* \"#utility.yul\":1800:1801   */\n  dup1\n    /* \"#utility.yul\":1795:1798   */\n  dup3\n    /* \"#utility.yul\":1791:1802   */\n  add\n    /* \"#utility.yul\":1785:1803   */\n  mload\n    /* \"#utility.yul\":1781:1782   */\n  dup2\n    /* \"#utility.yul\":1776:1779   */\n  dup5\n    /* \"#utility.yul\":1772:1783   */\n  add\n    /* \"#utility.yul\":1765:1804   */\n  mstore\n    /* \"#utility.yul\":1737:1739   */\n  0x20\n    /* \"#utility.yul\":1734:1735   */\n  dup2\n    /* \"#utility.yul\":1730:1740   */\n  add\n    /* \"#utility.yul\":1725:1740   */\n  swap1\n  pop\n    /* \"#utility.yul\":1701:1814   */\n  jump(tag_64)\ntag_66:\n    /* \"#utility.yul\":1848:1849   */\n  0x00\n    /* \"#utility.yul\":1839:1845   */\n  dup5\n    /* \"#utility.yul\":1834:1837   */\n  dup5\n    /* \"#utility.yul\":1830:1846   */\n  add\n    /* \"#utility.yul\":1823:1850   */\n  mstore\n    /* \"#utility.yul\":1672:1856   */\n  pop\n    /* \"#utility.yul\":1610:1856   */\n  pop\n  pop\n  pop\n  jump\t// out\n    /* \"#utility.yul\":1862:2296   */\ntag_23:\n    /* \"#utility.yul\":1951:1956   */\n  0x00\n    /* \"#utility.yul\":1976:2042   */\n  tag_68\n    /* \"#utility.yul\":1992:2041   */\n  tag_69\n    /* \"#utility.yul\":2034:2040   */\n  dup5\n    /* \"#utility.yul\":1992:2041   */\n  tag_21\n  jump\t// in\ntag_69:\n    /* \"#utility.yul\":1976:2042   */\n  tag_20\n  jump\t// in\ntag_68:\n    /* \"#utility.yul\":1967:2042   */\n  swap1\n  pop\n    /* \"#utility.yul\":2065:2071   */\n  dup3\n    /* \"#utility.yul\":2058:2063   */\n  dup2\n    /* \"#utility.yul\":2051:2072   */\n  mstore\n    /* \"#utility.yul\":2103:2107   */\n  0x20\n    /* \"#utility.yul\":2096:2101   */\n  dup2\n    /* \"#utility.yul\":2092:2108   */\n  add\n    /* \"#utility.yul\":2141:2144   */\n  dup5\n    /* \"#utility.yul\":2132:2138   */\n  dup5\n    /* \"#utility.yul\":2127:2130   */\n  dup5\n    /* \"#utility.yul\":2123:2139   */\n  add\n    /* \"#utility.yul\":2120:2145   */\n  gt\n    /* \"#utility.yul\":2117:2229   */\n  iszero\n  tag_70\n  jumpi\n    /* \"#utility.yul\":2148:2227   */\n  tag_71\n  tag_16\n  jump\t// in\ntag_71:\n    /* \"#utility.yul\":2117:2229   */\ntag_70:\n    /* \"#utility.yul\":2238:2290   */\n  tag_72\n    /* \"#utility.yul\":2283:2289   */\n  dup5\n    /* \"#utility.yul\":2278:2281   */\n  dup3\n    /* \"#utility.yul\":2273:2276   */\n  dup6\n    /* \"#utility.yul\":2238:2290   */\n  tag_22\n  jump\t// in\ntag_72:\n    /* \"#utility.yul\":1957:2296   */\n  pop\n    /* \"#utility.yul\":1862:2296   */\n  swap4\n  swap3\n  pop\n  pop\n  pop\n  jump\t// out\n    /* \"#utility.yul\":2316:2671   */\ntag_24:\n    /* \"#utility.yul\":2383:2388   */\n  0x00\n    /* \"#utility.yul\":2432:2435   */\n  dup3\n    /* \"#utility.yul\":2425:2429   */\n  0x1f\n    /* \"#utility.yul\":2417:2423   */\n  dup4\n    /* \"#utility.yul\":2413:2430   */\n  add\n    /* \"#utility.yul\":2409:2436   */\n  slt\n    /* \"#utility.yul\":2399:2521   */\n  tag_74\n  jumpi\n    /* \"#utility.yul\":2440:2519   */\n  tag_75\n  tag_15\n  jump\t// in\ntag_75:\n    /* \"#utility.yul\":2399:2521   */\ntag_74:\n    /* \"#utility.yul\":2550:2556   */\n  dup2\n    /* \"#utility.yul\":2544:2557   */\n  mload\n    /* \"#utility.yul\":2575:2665   */\n  tag_76\n    /* \"#utility.yul\":2661:2664   */\n  dup5\n    /* \"#utility.yul\":2653:2659   */\n  dup3\n    /* \"#utility.yul\":2646:2650   */\n  0x20\n    /* \"#utility.yul\":2638:2644   */\n  dup7\n    /* \"#utility.yul\":2634:2651   */\n  add\n    /* \"#utility.yul\":2575:2665   */\n  tag_23\n  jump\t// in\ntag_76:\n    /* \"#utility.yul\":2566:2665   */\n  swap2\n  pop\n    /* \"#utility.yul\":2389:2671   */\n  pop\n    /* \"#utility.yul\":2316:2671   */\n  swap3\n  swap2\n  pop\n  pop\n  jump\t// out\n    /* \"#utility.yul\":2677:3530   */\ntag_3:\n    /* \"#utility.yul\":2776:2782   */\n  0x00\n    /* \"#utility.yul\":2784:2790   */\n  dup1\n    /* \"#utility.yul\":2833:2835   */\n  0x40\n    /* \"#utility.yul\":2821:2830   */\n  dup4\n    /* \"#utility.yul\":2812:2819   */\n  dup6\n    /* \"#utility.yul\":2808:2831   */\n  sub\n    /* \"#utility.yul\":2804:2836   */\n  slt\n    /* \"#utility.yul\":2801:2920   */\n  iszero\n  tag_78\n  jumpi\n    /* \"#utility.yul\":2839:2918   */\n  tag_79\n  tag_13\n  jump\t// in\ntag_79:\n    /* \"#utility.yul\":2801:2920   */\ntag_78:\n    /* \"#utility.yul\":2980:2981   */\n  0x00\n    /* \"#utility.yul\":2969:2978   */\n  dup4\n    /* \"#utility.yul\":2965:2982   */\n  add\n    /* \"#utility.yul\":2959:2983   */\n  mload\n    /* \"#utility.yul\":3010:3028   */\n  0xffffffffffffffff\n    /* \"#utility.yul\":3002:3008   */\n  dup2\n    /* \"#utility.yul\":2999:3029   */\n  gt\n    /* \"#utility.yul\":2996:3113   */\n  iszero\n  tag_80\n  jumpi\n    /* \"#utility.yul\":3032:3111   */\n  tag_81\n  tag_14\n  jump\t// in\ntag_81:\n    /* \"#utility.yul\":2996:3113   */\ntag_80:\n    /* \"#utility.yul\":3137:3211   */\n  tag_82\n    /* \"#utility.yul\":3203:3210   */\n  dup6\n    /* \"#utility.yul\":3194:3200   */\n  dup3\n    /* \"#utility.yul\":3183:3192   */\n  dup7\n    /* \"#utility.yul\":3179:3201   */\n  add\n    /* \"#utility.yul\":3137:3211   */\n  tag_24\n  jump\t// in\ntag_82:\n    /* \"#utility.yul\":3127:3211   */\n  swap3\n  pop\n    /* \"#utility.yul\":2930:3221   */\n  pop\n    /* \"#utility.yul\":3281:3283   */\n  0x20\n    /* \"#utility.yul\":3270:3279   */\n  dup4\n    /* \"#utility.yul\":3266:3284   */\n  add\n    /* \"#utility.yul\":3260:3285   */\n  mload\n    /* \"#utility.yul\":3312:3330   */\n  0xffffffffffffffff\n    /* \"#utility.yul\":3304:3310   */\n  dup2\n    /* \"#utility.yul\":3301:3331   */\n  gt\n    /* \"#utility.yul\":3298:3415   */\n  iszero\n  tag_83\n  jumpi\n    /* \"#utility.yul\":3334:3413   */\n  tag_84\n  tag_14\n  jump\t// in\ntag_84:\n    /* \"#utility.yul\":3298:3415   */\ntag_83:\n    /* \"#utility.yul\":3439:3513   */\n  tag_85\n    /* \"#utility.yul\":3505:3512   */\n  dup6\n    /* \"#utility.yul\":3496:3502   */\n  dup3\n    /* \"#utility.yul\":3485:3494   */\n  dup7\n    /* \"#utility.yul\":3481:3503   */\n  add\n    /* \"#utility.yul\":3439:3513   */\n  tag_24\n  jump\t// in\ntag_85:\n    /* \"#utility.yul\":3429:3513   */\n  swap2\n  pop\n    /* \"#utility.yul\":3231:3523   */\n  pop\n    /* \"#utility.yul\":2677:3530   */\n  swap3\n  pop\n  swap3\n  swap1\n  pop\n  jump\t// out\n    /* \"#utility.yul\":3536:3635   */\ntag_25:\n    /* \"#utility.yul\":3588:3594   */\n  0x00\n    /* \"#utility.yul\":3622:3627   */\n  dup2\n    /* \"#utility.yul\":3616:3628   */\n  mload\n    /* \"#utility.yul\":3606:3628   */\n  swap1\n  pop\n    /* \"#utility.yul\":3536:3635   */\n  swap2\n  swap1\n  pop\n  jump\t// out\n    /* \"#utility.yul\":3641:3821   */\ntag_26:\n    /* \"#utility.yul\":3689:3766   */\n  0x4e487b7100000000000000000000000000000000000000000000000000000000\n    /* \"#utility.yul\":3686:3687   */\n  0x00\n    /* \"#utility.yul\":3679:3767   */\n  mstore\n    /* \"#utility.yul\":3786:3790   */\n  0x22\n    /* \"#utility.yul\":3783:3784   */\n  0x04\n    /* \"#utility.yul\":3776:3791   */\n  mstore\n    /* \"#utility.yul\":3810:3814   */\n  0x24\n    /* \"#utility.yul\":3807:3808   */\n  0x00\n    /* \"#utility.yul\":3800:3815   */\n  revert\n    /* \"#utility.yul\":3827:4147   */\ntag_27:\n    /* \"#utility.yul\":3871:3877   */\n  0x00\n    /* \"#utility.yul\":3908:3909   */\n  0x02\n    /* \"#utility.yul\":3902:3906   */\n  dup3\n    /* \"#utility.yul\":3898:3910   */\n  div\n    /* \"#utility.yul\":3888:3910   */\n  swap1\n  pop\n    /* \"#utility.yul\":3955:3956   */\n  0x01\n    /* \"#utility.yul\":3949:3953   */\n  dup3\n    /* \"#utility.yul\":3945:3957   */\n  and\n    /* \"#utility.yul\":3976:3994   */\n  dup1\n    /* \"#utility.yul\":3966:4047   */\n  tag_89\n  jumpi\n    /* \"#utility.yul\":4032:4036   */\n  0x7f\n    /* \"#utility.yul\":4024:4030   */\n  dup3\n    /* \"#utility.yul\":4020:4037   */\n  and\n    /* \"#utility.yul\":4010:4037   */\n  swap2\n  pop\n    /* \"#utility.yul\":3966:4047   */\ntag_89:\n    /* \"#utility.yul\":4094:4096   */\n  0x20\n    /* \"#utility.yul\":4086:4092   */\n  dup3\n    /* \"#utility.yul\":4083:4097   */\n  lt\n    /* \"#utility.yul\":4063:4081   */\n  dup2\n    /* \"#utility.yul\":4060:4098   */\n  sub\n    /* \"#utility.yul\":4057:4141   */\n  tag_90\n  jumpi\n    /* \"#utility.yul\":4113:4131   */\n  tag_91\n  tag_26\n  jump\t// in\ntag_91:\n    /* \"#utility.yul\":4057:4141   */\ntag_90:\n    /* \"#utility.yul\":3878:4147   */\n  pop\n    /* \"#utility.yul\":3827:4147   */\n  swap2\n  swap1\n  pop\n  jump\t// out\n    /* \"#utility.yul\":4153:4294   */\ntag_28:\n    /* \"#utility.yul\":4202:4206   */\n  0x00\n    /* \"#utility.yul\":4225:4228   */\n  dup2\n    /* \"#utility.yul\":4217:4228   */\n  swap1\n  pop\n    /* \"#utility.yul\":4248:4251   */\n  dup2\n    /* \"#utility.yul\":4245:4246   */\n  0x00\n    /* \"#utility.yul\":4238:4252   */\n  mstore\n    /* \"#utility.yul\":4282:4286   */\n  0x20\n    /* \"#utility.yul\":4279:4280   */\n  0x00\n    /* \"#utility.yul\":4269:4287   */\n  keccak256\n    /* \"#utility.yul\":4261:4287   */\n  swap1\n  pop\n    /* \"#utility.yul\":4153:4294   */\n  swap2\n  swap1\n  pop\n  jump\t// out\n    /* \"#utility.yul\":4300:4393   */\ntag_29:\n    /* \"#utility.yul\":4337:4343   */\n  0x00\n    /* \"#utility.yul\":4384:4386   */\n  0x20\n    /* \"#utility.yul\":4379:4381   */\n  0x1f\n    /* \"#utility.yul\":4372:4377   */\n  dup4\n    /* \"#utility.yul\":4368:4382   */\n  add\n    /* \"#utility.yul\":4364:4387   */\n  div\n    /* \"#utility.yul\":4354:4387   */\n  swap1\n  pop\n    /* \"#utility.yul\":4300:4393   */\n  swap2\n  swap1\n  pop\n  jump\t// out\n    /* \"#utility.yul\":4399:4506   */\ntag_30:\n    /* \"#utility.yul\":4443:4451   */\n  0x00\n    /* \"#utility.yul\":4493:4498   */\n  dup3\n    /* \"#utility.yul\":4487:4491   */\n  dup3\n    /* \"#utility.yul\":4483:4499   */\n  shl\n    /* \"#utility.yul\":4462:4499   */\n  swap1\n  pop\n    /* \"#utility.yul\":4399:4506   */\n  swap3\n  swap2\n  pop\n  pop\n  jump\t// out\n    /* \"#utility.yul\":4512:4905   */\ntag_31:\n    /* \"#utility.yul\":4581:4587   */\n  0x00\n    /* \"#utility.yul\":4631:4632   */\n  0x08\n    /* \"#utility.yul\":4619:4629   */\n  dup4\n    /* \"#utility.yul\":4615:4633   */\n  mul\n    /* \"#utility.yul\":4654:4751   */\n  tag_96\n    /* \"#utility.yul\":4684:4750   */\n  0xffffffffffffffffffffffffffffffffffffffffffffffffffffffffffffffff\n    /* \"#utility.yul\":4673:4682   */\n  dup3\n    /* \"#utility.yul\":4654:4751   */\n  tag_30\n  jump\t// in\ntag_96:\n    /* \"#utility.yul\":4772:4811   */\n  tag_97\n    /* \"#utility.yul\":4802:4810   */\n  dup7\n    /* \"#utility.yul\":4791:4800   */\n  dup4\n    /* \"#utility.yul\":4772:4811   */\n  tag_30\n  jump\t// in\ntag_97:\n    /* \"#utility.yul\":4760:4811   */\n  swap6\n  pop\n    /* \"#utility.yul\":4844:4848   */\n  dup1\n    /* \"#utility.yul\":4840:4849   */\n  not\n    /* \"#utility.yul\":4833:4838   */\n  dup5\n    /* \"#utility.yul\":4829:4850   */\n  and\n    /* \"#utility.yul\":4820:4850   */\n  swap4\n  pop\n    /* \"#utility.yul\":4893:4897   */\n  dup1\n    /* \"#utility.yul\":4883:4891   */\n  dup7\n    /* \"#utility.yul\":4879:4898   */\n  and\n    /* \"#utility.yul\":4872:4877   */\n  dup5\n    /* \"#utility.yul\":4869:4899   */\n  or\n    /* \"#utility.yul\":4859:4899   */\n  swap3\n  pop\n    /* \"#utility.yul\":4588:4905   */\n  pop\n  pop\n    /* \"#utility.yul\":4512:4905   */\n  swap4\n  swap3\n  pop\n  pop\n  pop\n  jump\t// out\n    /* \"#utility.yul\":4911:4988   */\ntag_32:\n    /* \"#utility.yul\":4948:4955   */\n  0x00\n    /* \"#utility.yul\":4977:4982   */\n  dup2\n    /* \"#utility.yul\":4966:4982   */\n  swap1\n  pop\n    /* \"#utility.yul\":4911:4988   */\n  swap2\n  swap1\n  pop\n  jump\t// out\n    /* \"#utility.yul\":4994:5054   */\ntag_33:\n    /* \"#utility.yul\":5022:5025   */\n  0x00\n    /* \"#utility.yul\":5043:5048   */\n  dup2\n    /* \"#utility.yul\":5036:5048   */\n  swap1\n  pop\n    /* \"#utility.yul\":4994:5054   */\n  swap2\n  swap1\n  pop\n  jump\t// out\n    /* \"#utility.yul\":5060:5202   */\ntag_34:\n    /* \"#utility.yul\":5110:5119   */\n  0x00\n    /* \"#utility.yul\":5143:5196   */\n  tag_101\n    /* \"#utility.yul\":5161:5195   */\n  tag_102\n    /* \"#utility.yul\":5170:5194   */\n  tag_103\n    /* \"#utility.yul\":5188:5193   */\n  dup5\n    /* \"#utility.yul\":5170:5194   */\n  tag_32\n  jump\t// in\ntag_103:\n    /* \"#utility.yul\":5161:5195   */\n  tag_33\n  jump\t// in\ntag_102:\n    /* \"#utility.yul\":5143:5196   */\n  tag_32\n  jump\t// in\ntag_101:\n    /* \"#utility.yul\":5130:5196   */\n  swap1\n  pop\n    /* \"#utility.yul\":5060:5202   */\n  swap2\n  swap1\n  pop\n  jump\t// out\n    /* \"#utility.yul\":5208:5283   */\ntag_35:\n    /* \"#utility.yul\":5251:5254   */\n  0x00\n    /* \"#utility.yul\":5272:5277   */\n  dup2\n    /* \"#utility.yul\":5265:5277   */\n  swap1\n  pop\n    /* \"#utility.yul\":5208:5283   */\n  swap2\n  swap1\n  pop\n  jump\t// out\n    /* \"#utility.yul\":5289:5558   */\ntag_36:\n    /* \"#utility.yul\":5399:5438   */\n  tag_106\n    /* \"#utility.yul\":5430:5437   */\n  dup4\n    /* \"#utility.yul\":5399:5438   */\n  tag_34\n  jump\t// in\ntag_106:\n    /* \"#utility.yul\":5460:5551   */\n  tag_107\n    /* \"#utility.yul\":5509:5550   */\n  tag_108\n    /* \"#utility.yul\":5533:5549   */\n  dup3\n    /* \"#utility.yul\":5509:5550   */\n  tag_35\n  jump\t// in\ntag_108:\n    /* \"#utility.yul\":5501:5507   */\n  dup5\n    /* \"#utility.yul\":5494:5498   */\n  dup5\n    /* \"#utility.yul\":5488:5499   */\n  sload\n    /* \"#utility.yul\":5460:5551   */\n  tag_31\n  jump\t// in\ntag_107:\n    /* \"#utility.yul\":5454:5458   */\n  dup3\n    /* \"#utility.yul\":5447:5552   */\n  sstore\n    /* \"#utility.yul\":5365:5558   */\n  pop\n    /* \"#utility.yul\":5289:5558   */\n  pop\n  pop\n  pop\n  jump\t// out\n    /* \"#utility.yul\":5564:5637   */\ntag_37:\n    /* \"#utility.yul\":5609:5612   */\n  0x00\n    /* \"#utility.yul\":5564:5637   */\n  swap1\n  jump\t// out\n    /* \"#utility.yul\":5643:5832   */\ntag_38:\n    /* \"#utility.yul\":5720:5752   */\n  tag_111\n  tag_37\n  jump\t// in\ntag_111:\n    /* \"#utility.yul\":5761:5826   */\n  tag_112\n    /* \"#utility.yul\":5819:5825   */\n  dup2\n    /* \"#utility.yul\":5811:5817   */\n  dup5\n    /* \"#utility.yul\":5805:5809   */\n  dup5\n    /* \"#utility.yul\":5761:5826   */\n  tag_36\n  jump\t// in\ntag_112:\n    /* \"#utility.yul\":5696:5832   */\n  pop\n    /* \"#utility.yul\":5643:5832   */\n  pop\n  pop\n  jump\t// out\n    /* \"#utility.yul\":5838:6024   */\ntag_39:\n    /* \"#utility.yul\":5898:6018   */\ntag_114:\n    /* \"#utility.yul\":5915:5918   */\n  dup2\n    /* \"#utility.yul\":5908:5913   */\n  dup2\n    /* \"#utility.yul\":5905:5919   */\n  lt\n    /* \"#utility.yul\":5898:6018   */\n  iszero\n  tag_116\n  jumpi\n    /* \"#utility.yul\":5969:6008   */\n  tag_117\n    /* \"#utility.yul\":6006:6007   */\n  0x00\n    /* \"#utility.yul\":5999:6004   */\n  dup3\n    /* \"#utility.yul\":5969:6008   */\n  tag_38\n  jump\t// in\ntag_117:\n    /* \"#utility.yul\":5942:5943   */\n  0x01\n    /* \"#utility.yul\":5935:5940   */\n  dup2\n    /* \"#utility.yul\":5931:5944   */\n  add\n    /* \"#utility.yul\":5922:5944   */\n  swap1\n  pop\n    /* \"#utility.yul\":5898:6018   */\n  jump(tag_114)\ntag_116:\n    /* \"#utility.yul\":5838:6024   */\n  pop\n  pop\n  jump\t// out\n    /* \"#utility.yul\":6030:6573   */\ntag_40:\n    /* \"#utility.yul\":6131:6133   */\n  0x1f\n    /* \"#utility.yul\":6126:6129   */\n  dup3\n    /* \"#utility.yul\":6123:6134   */\n  gt\n    /* \"#utility.yul\":6120:6566   */\n  iszero\n  tag_119\n  jumpi\n    /* \"#utility.yul\":6165:6203   */\n  tag_120\n    /* \"#utility.yul\":6197:6202   */\n  dup2\n    /* \"#utility.yul\":6165:6203   */\n  tag_28\n  jump\t// in\ntag_120:\n    /* \"#utility.yul\":6249:6278   */\n  tag_121\n    /* \"#utility.yul\":6267:6277   */\n  dup5\n    /* \"#utility.yul\":6249:6278   */\n  tag_29\n  jump\t// in\ntag_121:\n    /* \"#utility.yul\":6239:6247   */\n  dup2\n    /* \"#utility.yul\":6235:6279   */\n  add\n    /* \"#utility.yul\":6432:6434   */\n  0x20\n    /* \"#utility.yul\":6420:6430   */\n  dup6\n    /* \"#utility.yul\":6417:6435   */\n  lt\n    /* \"#utility.yul\":6414:6463   */\n  iszero\n  tag_122\n  jumpi\n    /* \"#utility.yul\":6453:6461   */\n  dup2\n    /* \"#utility.yul\":6438:6461   */\n  swap1\n  pop\n    /* \"#utility.yul\":6414:6463   */\ntag_122:\n    /* \"#utility.yul\":6476:6556   */\n  tag_123\n    /* \"#utility.yul\":6532:6554   */\n  tag_124\n    /* \"#utility.yul\":6550:6553   */\n  dup6\n    /* \"#utility.yul\":6532:6554   */\n  tag_29\n  jump\t// in\ntag_124:\n    /* \"#utility.yul\":6522:6530   */\n  dup4\n    /* \"#utility.yul\":6518:6555   */\n  add\n    /* \"#utility.yul\":6505:6516   */\n  dup3\n    /* \"#utility.yul\":6476:6556   */\n  tag_39\n  jump\t// in\ntag_123:\n    /* \"#utility.yul\":6135:6566   */\n  pop\n  pop\n    /* \"#utility.yul\":6120:6566   */\ntag_119:\n    /* \"#utility.yul\":6030:6573   */\n  pop\n  pop\n  pop\n  jump\t// out\n    /* \"#utility.yul\":6579:6696   */\ntag_41:\n    /* \"#utility.yul\":6633:6641   */\n  0x00\n    /* \"#utility.yul\":6683:6688   */\n  dup3\n    /* \"#utility.yul\":6677:6681   */\n  dup3\n    /* \"#utility.yul\":6673:6689   */\n  shr\n    /* \"#utility.yul\":6652:6689   */\n  swap1\n  pop\n    /* \"#utility.yul\":6579:6696   */\n  swap3\n  swap2\n  pop\n  pop\n  jump\t// out\n    /* \"#utility.yul\":6702:6871   */\ntag_42:\n    /* \"#utility.yul\":6746:6752   */\n  0x00\n    /* \"#utility.yul\":6779:6830   */\n  tag_127\n    /* \"#utility.yul\":6827:6828   */\n  0x00\n    /* \"#utility.yul\":6823:6829   */\n  not\n    /* \"#utility.yul\":6815:6820   */\n  dup5\n    /* \"#utility.yul\":6812:6813   */\n  0x08\n    /* \"#utility.yul\":6808:6821   */\n  mul\n    /* \"#utility.yul\":6779:6830   */\n  tag_41\n  jump\t// in\ntag_127:\n    /* \"#utility.yul\":6775:6831   */\n  not\n    /* \"#utility.yul\":6860:6864   */\n  dup1\n    /* \"#utility.yul\":6854:6858   */\n  dup4\n    /* \"#utility.yul\":6850:6865   */\n  and\n    /* \"#utility.yul\":6840:6865   */\n  swap2\n  pop\n    /* \"#utility.yul\":6753:6871   */\n  pop\n    /* \"#utility.yul\":6702:6871   */\n  swap3\n  swap2\n  pop\n  pop\n  jump\t// out\n    /* \"#utility.yul\":6876:7171   */\ntag_43:\n    /* \"#utility.yul\":6952:6956   */\n  0x00\n    /* \"#utility.yul\":7098:7127   */\n  tag_129\n    /* \"#utility.yul\":7123:7126   */\n  dup4\n    /* \"#utility.yul\":7117:7121   */\n  dup4\n    /* \"#utility.yul\":7098:7127   */\n  tag_42\n  jump\t// in\ntag_129:\n    /* \"#utility.yul\":7090:7127   */\n  swap2\n  pop\n    /* \"#utility.yul\":7160:7163   */\n  dup3\n    /* \"#utility.yul\":7157:7158   */\n  0x02\n    /* \"#utility.yul\":7153:7164   */\n  mul\n    /* \"#utility.yul\":7147:7151   */\n  dup3\n    /* \"#utility.yul\":7144:7165   */\n  or\n    /* \"#utility.yul\":7136:7165   */\n  swap1\n  pop\n    /* \"#utility.yul\":6876:7171   */\n  swap3\n  swap2\n  pop\n  pop\n  jump\t// out\n    /* \"#utility.yul\":7176:8571   */\ntag_8:\n    /* \"#utility.yul\":7293:7330   */\n  tag_131\n    /* \"#utility.yul\":7326:7329   */\n  dup3\n    /* \"#utility.yul\":7293:7330   */\n  tag_25\n  jump\t// in\ntag_131:\n    /* \"#utility.yul\":7395:7413   */\n  0xffffffffffffffff\n    /* \"#utility.yul\":7387:7393   */\n  dup2\n    /* \"#utility.yul\":7384:7414   */\n  gt\n    /* \"#utility.yul\":7381:7437   */\n  iszero\n  tag_132\n  jumpi\n    /* \"#utility.yul\":7417:7435   */\n  tag_133\n  tag_18\n  jump\t// in\ntag_133:\n    /* \"#utility.yul\":7381:7437   */\ntag_132:\n    /* \"#utility.yul\":7461:7499   */\n  tag_134\n    /* \"#utility.yul\":7493:7497   */\n  dup3\n    /* \"#utility.yul\":7487:7498   */\n  sload\n    /* \"#utility.yul\":7461:7499   */\n  tag_27\n  jump\t// in\ntag_134:\n    /* \"#utility.yul\":7546:7613   */\n  tag_135\n    /* \"#utility.yul\":7606:7612   */\n  dup3\n    /* \"#utility.yul\":7598:7604   */\n  dup3\n    /* \"#utility.yul\":7592:7596   */\n  dup6\n    /* \"#utility.yul\":7546:7613   */\n  tag_40\n  jump\t// in\ntag_135:\n    /* \"#utility.yul\":7640:7641   */\n  0x00\n    /* \"#utility.yul\":7664:7668   */\n  0x20\n    /* \"#utility.yul\":7651:7668   */\n  swap1\n  pop\n    /* \"#utility.yul\":7696:7698   */\n  0x1f\n    /* \"#utility.yul\":7688:7694   */\n  dup4\n    /* \"#utility.yul\":7685:7699   */\n  gt\n    /* \"#utility.yul\":7713:7714   */\n  0x01\n    /* \"#utility.yul\":7708:8326   */\n  dup2\n  eq\n  tag_137\n  jumpi\n    /* \"#utility.yul\":8370:8371   */\n  0x00\n    /* \"#utility.yul\":8387:8393   */\n  dup5\n    /* \"#utility.yul\":8384:8461   */\n  iszero\n  tag_138\n  jumpi\n    /* \"#utility.yul\":8436:8445   */\n  dup3\n    /* \"#utility.yul\":8431:8434   */\n  dup8\n    /* \"#utility.yul\":8427:8446   */\n  add\n    /* \"#utility.yul\":8421:8447   */\n  mload\n    /* \"#utility.yul\":8412:8447   */\n  swap1\n  pop\n    /* \"#utility.yul\":8384:8461   */\ntag_138:\n    /* \"#utility.yul\":8487:8554   */\n  tag_139\n    /* \"#utility.yul\":8547:8553   */\n  dup6\n    /* \"#utility.yul\":8540:8545   */\n  dup3\n    /* \"#utility.yul\":8487:8554   */\n  tag_43\n  jump\t// in\ntag_139:\n    /* \"#utility.yul\":8481:8485   */\n  dup7\n    /* \"#utility.yul\":8474:8555   */\n  sstore\n    /* \"#utility.yul\":8343:8565   */\n  pop\n    /* \"#utility.yul\":7678:8565   */\n  jump(tag_136)\n    /* \"#utility.yul\":7708:8326   */\ntag_137:\n    /* \"#utility.yul\":7760:7764   */\n  0x1f\n    /* \"#utility.yul\":7756:7765   */\n  not\n    /* \"#utility.yul\":7748:7754   */\n  dup5\n    /* \"#utility.yul\":7744:7766   */\n  and\n    /* \"#utility.yul\":7794:7831   */\n  tag_140\n    /* \"#utility.yul\":7826:7830   */\n  dup7\n    /* \"#utility.yul\":7794:7831   */\n  tag_28\n  jump\t// in\ntag_140:\n    /* \"#utility.yul\":7853:7854   */\n  0x00\n    /* \"#utility.yul\":7867:8075   */\ntag_141:\n    /* \"#utility.yul\":7881:7888   */\n  dup3\n    /* \"#utility.yul\":7878:7879   */\n  dup2\n    /* \"#utility.yul\":7875:7889   */\n  lt\n    /* \"#utility.yul\":7867:8075   */\n  iszero\n  tag_143\n  jumpi\n    /* \"#utility.yul\":7960:7969   */\n  dup5\n    /* \"#utility.yul\":7955:7958   */\n  dup10\n    /* \"#utility.yul\":7951:7970   */\n  add\n    /* \"#utility.yul\":7945:7971   */\n  mload\n    /* \"#utility.yul\":7937:7943   */\n  dup3\n    /* \"#utility.yul\":7930:7972   */\n  sstore\n    /* \"#utility.yul\":8011:8012   */\n  0x01\n    /* \"#utility.yul\":8003:8009   */\n  dup3\n    /* \"#utility.yul\":7999:8013   */\n  add\n    /* \"#utility.yul\":7989:8013   */\n  swap2\n  pop\n    /* \"#utility.yul\":8058:8060   */\n  0x20\n    /* \"#utility.yul\":8047:8056   */\n  dup6\n    /* \"#utility.yul\":8043:8061   */\n  add\n    /* \"#utility.yul\":8030:8061   */\n  swap5\n  pop\n    /* \"#utility.yul\":7904:7908   */\n  0x20\n    /* \"#utility.yul\":7901:7902   */\n  dup2\n    /* \"#utility.yul\":7897:7909   */\n  add\n    /* \"#utility.yul\":7892:7909   */\n  swap1\n  pop\n    /* \"#utility.yul\":7867:8075   */\n  jump(tag_141)\ntag_143:\n    /* \"#utility.yul\":8103:8109   */\n  dup7\n    /* \"#utility.yul\":8094:8101   */\n  dup4\n    /* \"#utility.yul\":8091:8110   */\n  lt\n    /* \"#utility.yul\":8088:8267   */\n  iszero\n  tag_144\n  jumpi\n    /* \"#utility.yul\":8161:8170   */\n  dup5\n    /* \"#utility.yul\":8156:8159   */\n  dup10\n    /* \"#utility.yul\":8152:8171   */\n  add\n    /* \"#utility.yul\":8146:8172   */\n  mload\n    /* \"#utility.yul\":8204:8252   */\n  tag_145\n    /* \"#utility.yul\":8246:8250   */\n  0x1f\n    /* \"#utility.yul\":8238:8244   */\n  dup10\n    /* \"#utility.yul\":8234:8251   */\n  and\n    /* \"#utility.yul\":8223:8232   */\n  dup3\n    /* \"#utility.yul\":8204:8252   */\n  tag_42\n  jump\t// in\ntag_145:\n    /* \"#utility.yul\":8196:8202   */\n  dup4\n    /* \"#utility.yul\":8189:8253   */\n  sstore\n    /* \"#utility.yul\":8111:8267   */\n  pop\n    /* \"#utility.yul\":8088:8267   */\ntag_144:\n    /* \"#utility.yul\":8313:8314   */\n  0x01\n    /* \"#utility.yul\":8309:8310   */\n  0x02\n    /* \"#utility.yul\":8301:8307   */\n  dup9\n    /* \"#utility.yul\":8297:8311   */\n  mul\n    /* \"#utility.yul\":8293:8315   */\n  add\n    /* \"#utility.yul\":8287:8291   */\n  dup9\n    /* \"#utility.yul\":8280:8316   */\n  sstore\n    /* \"#utility.yul\":7715:8326   */\n  pop\n  pop\n  pop\n    /* \"#utility.yul\":7678:8565   */\ntag_136:\n  pop\n    /* \"#utility.yul\":7268:8571   */\n  pop\n  pop\n  pop\n    /* \"#utility.yul\":7176:8571   */\n  pop\n  pop\n  jump\t// out\n    /* \"WTFPractice/ERC721/WTFApe.sol\":80:549  contract WTFApe is ERC721 {... */\ntag_11:\n  dataSize(sub_0)\n  dup1\n  dataOffset(sub_0)\n  0x00\n  codecopy\n  0x00\n  return\nstop\n\nsub_0: assembly {\n        /* \"WTFPractice/ERC721/WTFApe.sol\":80:549  contract WTFApe is ERC721 {... */\n      mstore(0x40, 0x80)\n      callvalue\n      dup1\n      iszero\n      tag_1\n      jumpi\n      0x00\n      dup1\n      revert\n    tag_1:\n      pop\n      jumpi(tag_2, lt(calldatasize, 0x04))\n      shr(0xe0, calldataload(0x00))\n      dup1\n      0x6352211e\n      gt\n      tag_18\n      jumpi\n      dup1\n      0xb88d4fde\n      gt\n      tag_19\n      jumpi\n      dup1\n      0xb88d4fde\n      eq\n      tag_14\n      jumpi\n      dup1\n      0xbb8a16bd\n      eq\n      tag_15\n      jumpi\n      dup1\n      0xc87b56dd\n      eq\n      tag_16\n      jumpi\n      dup1\n      0xe985e9c5\n      eq\n      tag_17\n      jumpi\n      jump(tag_2)\n    tag_19:\n      dup1\n      0x6352211e\n      eq\n      tag_10\n      jumpi\n      dup1\n      0x70a08231\n      eq\n      tag_11\n      jumpi\n      dup1\n      0x95d89b41\n      eq\n      tag_12\n      jumpi\n      dup1\n      0xa22cb465\n      eq\n      tag_13\n      jumpi\n      jump(tag_2)\n    tag_18:\n      dup1\n      0x095ea7b3\n      gt\n      tag_20\n      jumpi\n      dup1\n      0x095ea7b3\n      eq\n      tag_6\n      jumpi\n      dup1\n      0x23b872dd\n      eq\n      tag_7\n      jumpi\n      dup1\n      0x40c10f19\n      eq\n      tag_8\n      jumpi\n      dup1\n      0x42842e0e\n      eq\n      tag_9\n      jumpi\n      jump(tag_2)\n    tag_20:\n      dup1\n      0x01ffc9a7\n      eq\n      tag_3\n      jumpi\n      dup1\n      0x06fdde03\n      eq\n      tag_4\n      jumpi\n      dup1\n      0x081812fc\n      eq\n      tag_5\n      jumpi\n    tag_2:\n      0x00\n      dup1\n      revert\n        /* \"WTFPractice/ERC721/ERC721.sol\":997:1291  function supportsInterface(bytes4  interfaceId) external pure override returns (bool) {... */\n    tag_3:\n      tag_21\n      0x04\n      dup1\n      calldatasize\n      sub\n      dup2\n      add\n      swap1\n      tag_22\n      swap2\n      swap1\n      tag_23\n      jump\t// in\n    tag_22:\n      tag_24\n      jump\t// in\n    tag_21:\n      mload(0x40)\n      tag_25\n      swap2\n      swap1\n      tag_26\n      jump\t// in\n    tag_25:\n      mload(0x40)\n      dup1\n      swap2\n      sub\n      swap1\n      return\n        /* \"WTFPractice/ERC721/ERC721.sol\":444:471  string public override name */\n    tag_4:\n      tag_27\n      tag_28\n      jump\t// in\n    tag_27:\n      mload(0x40)\n      tag_29\n      swap2\n      swap1\n      tag_30\n      jump\t// in\n    tag_29:\n      mload(0x40)\n      dup1\n      swap2\n      sub\n      swap1\n      return\n        /* \"WTFPractice/ERC721/ERC721.sol\":2523:2719  function getApproved(uint tokenId) external view override returns (address) {... */\n    tag_5:\n      tag_31\n      0x04\n      dup1\n      calldatasize\n      sub\n      dup2\n      add\n      swap1\n      tag_32\n      swap2\n      swap1\n      tag_33\n      jump\t// in\n    tag_32:\n      tag_34\n      jump\t// in\n    tag_31:\n      mload(0x40)\n      tag_35\n      swap2\n      swap1\n      tag_36\n      jump\t// in\n    tag_35:\n      mload(0x40)\n      dup1\n      swap2\n      sub\n      swap1\n      return\n        /* \"WTFPractice/ERC721/ERC721.sol\":3053:3315  function approve(address to, uint tokenId) external override {... */\n    tag_6:\n      tag_37\n      0x04\n      dup1\n      calldatasize\n      sub\n      dup2\n      add\n      swap1\n      tag_38\n      swap2\n      swap1\n      tag_39\n      jump\t// in\n    tag_38:\n      tag_40\n      jump\t// in\n    tag_37:\n      stop\n        /* \"WTFPractice/ERC721/ERC721.sol\":4339:4605  function transferFrom(address from, address to, uint tokenId) external override {... */\n    tag_7:\n      tag_41\n      0x04\n      dup1\n      calldatasize\n      sub\n      dup2\n      add\n      swap1\n      tag_42\n      swap2\n      swap1\n      tag_43\n      jump\t// in\n    tag_42:\n      tag_44\n      jump\t// in\n    tag_41:\n      stop\n        /* \"WTFPractice/ERC721/WTFApe.sol\":386:547  function mint(address to, uint tokenId) external {... */\n    tag_8:\n      tag_45\n      0x04\n      dup1\n      calldatasize\n      sub\n      dup2\n      add\n      swap1\n      tag_46\n      swap2\n      swap1\n      tag_39\n      jump\t// in\n    tag_46:\n      tag_47\n      jump\t// in\n    tag_45:\n      stop\n        /* \"WTFPractice/ERC721/ERC721.sol\":5661:5802  function safeTransferFrom( address from, address to, uint tokenId) external override {... */\n    tag_9:\n      tag_48\n      0x04\n      dup1\n      calldatasize\n      sub\n      dup2\n      add\n      swap1\n      tag_49\n      swap2\n      swap1\n      tag_43\n      jump\t// in\n    tag_49:\n      tag_50\n      jump\t// in\n    tag_48:\n      stop\n        /* \"WTFPractice/ERC721/ERC721.sol\":1638:1817  function ownerOf(uint tokenId) public view override returns (address owner) {... */\n    tag_10:\n      tag_51\n      0x04\n      dup1\n      calldatasize\n      sub\n      dup2\n      add\n      swap1\n      tag_52\n      swap2\n      swap1\n      tag_33\n      jump\t// in\n    tag_52:\n      tag_53\n      jump\t// in\n    tag_51:\n      mload(0x40)\n      tag_54\n      swap2\n      swap1\n      tag_36\n      jump\t// in\n    tag_54:\n      mload(0x40)\n      dup1\n      swap2\n      sub\n      swap1\n      return\n        /* \"WTFPractice/ERC721/ERC721.sol\":1384:1559  function balanceOf(address owner) external view override returns (uint) {... */\n    tag_11:\n      tag_55\n      0x04\n      dup1\n      calldatasize\n      sub\n      dup2\n      add\n      swap1\n      tag_56\n      swap2\n      swap1\n      tag_57\n      jump\t// in\n    tag_56:\n      tag_58\n      jump\t// in\n    tag_55:\n      mload(0x40)\n      tag_59\n      swap2\n      swap1\n      tag_60\n      jump\t// in\n    tag_59:\n      mload(0x40)\n      dup1\n      swap2\n      sub\n      swap1\n      return\n        /* \"WTFPractice/ERC721/ERC721.sol\":478:507  string public override symbol */\n    tag_12:\n      tag_61\n      tag_62\n      jump\t// in\n    tag_61:\n      mload(0x40)\n      tag_63\n      swap2\n      swap1\n      tag_30\n      jump\t// in\n    tag_63:\n      mload(0x40)\n      dup1\n      swap2\n      sub\n      swap1\n      return\n        /* \"WTFPractice/ERC721/ERC721.sol\":2218:2425  function setApprovalForAll(address operator, bool approved) external override {... */\n    tag_13:\n      tag_64\n      0x04\n      dup1\n      calldatasize\n      sub\n      dup2\n      add\n      swap1\n      tag_65\n      swap2\n      swap1\n      tag_66\n      jump\t// in\n    tag_65:\n      tag_67\n      jump\t// in\n    tag_64:\n      stop\n        /* \"WTFPractice/ERC721/ERC721.sol\":5317:5617  function safeTransferFrom( address from, address to, uint tokenId, bytes memory _data) public override {... */\n    tag_14:\n      tag_68\n      0x04\n      dup1\n      calldatasize\n      sub\n      dup2\n      add\n      swap1\n      tag_69\n      swap2\n      swap1\n      tag_70\n      jump\t// in\n    tag_69:\n      tag_71\n      jump\t// in\n    tag_68:\n      stop\n        /* \"WTFPractice/ERC721/WTFApe.sol\":113:140  uint public MAX_APES = 1000 */\n    tag_15:\n      tag_72\n      tag_73\n      jump\t// in\n    tag_72:\n      mload(0x40)\n      tag_74\n      swap2\n      swap1\n      tag_60\n      jump\t// in\n    tag_74:\n      mload(0x40)\n      dup1\n      swap2\n      sub\n      swap1\n      return\n        /* \"WTFPractice/ERC721/ERC721.sol\":7337:7648  function tokenURI(uint256 tokenId) public view virtual override returns (string memory) {... */\n    tag_16:\n      tag_75\n      0x04\n      dup1\n      calldatasize\n      sub\n      dup2\n      add\n      swap1\n      tag_76\n      swap2\n      swap1\n      tag_33\n      jump\t// in\n    tag_76:\n      tag_77\n      jump\t// in\n    tag_75:\n      mload(0x40)\n      tag_78\n      swap2\n      swap1\n      tag_30\n      jump\t// in\n    tag_78:\n      mload(0x40)\n      dup1\n      swap2\n      sub\n      swap1\n      return\n        /* \"WTFPractice/ERC721/ERC721.sol\":1962:2118  function isApprovedForAll(address owner, address operator) external view override returns (bool) {... */\n    tag_17:\n      tag_79\n      0x04\n      dup1\n      calldatasize\n      sub\n      dup2\n      add\n      swap1\n      tag_80\n      swap2\n      swap1\n      tag_81\n      jump\t// in\n    tag_80:\n      tag_82\n      jump\t// in\n    tag_79:\n      mload(0x40)\n      tag_83\n      swap2\n      swap1\n      tag_26\n      jump\t// in\n    tag_83:\n      mload(0x40)\n      dup1\n      swap2\n      sub\n      swap1\n      return\n        /* \"WTFPractice/ERC721/ERC721.sol\":997:1291  function supportsInterface(bytes4  interfaceId) external pure override returns (bool) {... */\n    tag_24:\n        /* \"WTFPractice/ERC721/ERC721.sol\":1077:1081  bool */\n      0x00\n        /* \"WTFPractice/ERC721/ERC721.sol\":1129:1154  type(IERC721).interfaceId */\n      0x80ac58cd00000000000000000000000000000000000000000000000000000000\n        /* \"WTFPractice/ERC721/ERC721.sol\":1114:1154  interfaceId == type(IERC721).interfaceId */\n      not(0xffffffffffffffffffffffffffffffffffffffffffffffffffffffff)\n      and\n        /* \"WTFPractice/ERC721/ERC721.sol\":1114:1125  interfaceId */\n      dup3\n        /* \"WTFPractice/ERC721/ERC721.sol\":1114:1154  interfaceId == type(IERC721).interfaceId */\n      not(0xffffffffffffffffffffffffffffffffffffffffffffffffffffffff)\n      and\n      eq\n        /* \"WTFPractice/ERC721/ERC721.sol\":1114:1210  interfaceId == type(IERC721).interfaceId ||... */\n      dup1\n      tag_85\n      jumpi\n      pop\n        /* \"WTFPractice/ERC721/ERC721.sol\":1185:1210  type(IERC165).interfaceId */\n      0x01ffc9a700000000000000000000000000000000000000000000000000000000\n        /* \"WTFPractice/ERC721/ERC721.sol\":1170:1210  interfaceId == type(IERC165).interfaceId */\n      not(0xffffffffffffffffffffffffffffffffffffffffffffffffffffffff)\n      and\n        /* \"WTFPractice/ERC721/ERC721.sol\":1170:1181  interfaceId */\n      dup3\n        /* \"WTFPractice/ERC721/ERC721.sol\":1170:1210  interfaceId == type(IERC165).interfaceId */\n      not(0xffffffffffffffffffffffffffffffffffffffffffffffffffffffff)\n      and\n      eq\n        /* \"WTFPractice/ERC721/ERC721.sol\":1114:1210  interfaceId == type(IERC721).interfaceId ||... */\n    tag_85:\n        /* \"WTFPractice/ERC721/ERC721.sol\":1114:1274  interfaceId == type(IERC721).interfaceId ||... */\n      dup1\n      tag_86\n      jumpi\n      pop\n        /* \"WTFPractice/ERC721/ERC721.sol\":1241:1274  type(IERC721Metadata).interfaceId */\n      0x5b5e139f00000000000000000000000000000000000000000000000000000000\n        /* \"WTFPractice/ERC721/ERC721.sol\":1226:1274  interfaceId == type(IERC721Metadata).interfaceId */\n      not(0xffffffffffffffffffffffffffffffffffffffffffffffffffffffff)\n      and\n        /* \"WTFPractice/ERC721/ERC721.sol\":1226:1237  interfaceId */\n      dup3\n        /* \"WTFPractice/ERC721/ERC721.sol\":1226:1274  interfaceId == type(IERC721Metadata).interfaceId */\n      not(0xffffffffffffffffffffffffffffffffffffffffffffffffffffffff)\n      and\n      eq\n        /* \"WTFPractice/ERC721/ERC721.sol\":1114:1274  interfaceId == type(IERC721).interfaceId ||... */\n    tag_86:\n        /* \"WTFPractice/ERC721/ERC721.sol\":1093:1284  return (... */\n      swap1\n      pop\n        /* \"WTFPractice/ERC721/ERC721.sol\":997:1291  function supportsInterface(bytes4  interfaceId) external pure override returns (bool) {... */\n      swap2\n      swap1\n      pop\n      jump\t// out\n        /* \"WTFPractice/ERC721/ERC721.sol\":444:471  string public override name */\n    tag_28:\n      0x00\n      dup1\n      sload\n      tag_87\n      swap1\n      tag_88\n      jump\t// in\n    tag_87:\n      dup1\n      0x1f\n      add\n      0x20\n      dup1\n      swap2\n      div\n      mul\n      0x20\n      add\n      mload(0x40)\n      swap1\n      dup2\n      add\n      0x40\n      mstore\n      dup1\n      swap3\n      swap2\n      swap1\n      dup2\n      dup2\n      mstore\n      0x20\n      add\n      dup3\n      dup1\n      sload\n      tag_89\n      swap1\n      tag_88\n      jump\t// in\n    tag_89:\n      dup1\n      iszero\n      tag_90\n      jumpi\n      dup1\n      0x1f\n      lt\n      tag_91\n      jumpi\n      0x0100\n      dup1\n      dup4\n      sload\n      div\n      mul\n      dup4\n      mstore\n      swap2\n      0x20\n      add\n      swap2\n      jump(tag_90)\n    tag_91:\n      dup3\n      add\n      swap2\n      swap1\n      0x00\n      mstore\n      keccak256(0x00, 0x20)\n      swap1\n    tag_92:\n      dup2\n      sload\n      dup2\n      mstore\n      swap1\n      0x01\n      add\n      swap1\n      0x20\n      add\n      dup1\n      dup4\n      gt\n      tag_92\n      jumpi\n      dup3\n      swap1\n      sub\n      0x1f\n      and\n      dup3\n      add\n      swap2\n    tag_90:\n      pop\n      pop\n      pop\n      pop\n      pop\n      dup2\n      jump\t// out\n        /* \"WTFPractice/ERC721/ERC721.sol\":2523:2719  function getApproved(uint tokenId) external view override returns (address) {... */\n    tag_34:\n        /* \"WTFPractice/ERC721/ERC721.sol\":2590:2597  address */\n      0x00\n        /* \"WTFPractice/ERC721/ERC721.sol\":2645:2646  0 */\n      dup1\n        /* \"WTFPractice/ERC721/ERC721.sol\":2617:2647  _owners[tokenId] != address(0) */\n      0xffffffffffffffffffffffffffffffffffffffff\n      and\n        /* \"WTFPractice/ERC721/ERC721.sol\":2617:2624  _owners */\n      0x02\n        /* \"WTFPractice/ERC721/ERC721.sol\":2617:2633  _owners[tokenId] */\n      0x00\n        /* \"WTFPractice/ERC721/ERC721.sol\":2625:2632  tokenId */\n      dup5\n        /* \"WTFPractice/ERC721/ERC721.sol\":2617:2633  _owners[tokenId] */\n      dup2\n      mstore\n      0x20\n      add\n      swap1\n      dup2\n      mstore\n      0x20\n      add\n      0x00\n      keccak256\n      0x00\n      swap1\n      sload\n      swap1\n      0x0100\n      exp\n      swap1\n      div\n      0xffffffffffffffffffffffffffffffffffffffff\n      and\n        /* \"WTFPractice/ERC721/ERC721.sol\":2617:2647  _owners[tokenId] != address(0) */\n      0xffffffffffffffffffffffffffffffffffffffff\n      and\n      sub\n        /* \"WTFPractice/ERC721/ERC721.sol\":2609:2671  require(_owners[tokenId] != address(0), \"token doesnot exist\") */\n      tag_94\n      jumpi\n      mload(0x40)\n      0x08c379a000000000000000000000000000000000000000000000000000000000\n      dup2\n      mstore\n      0x04\n      add\n      tag_95\n      swap1\n      tag_96\n      jump\t// in\n    tag_95:\n      mload(0x40)\n      dup1\n      swap2\n      sub\n      swap1\n      revert\n    tag_94:\n        /* \"WTFPractice/ERC721/ERC721.sol\":2688:2703  _tokenApprovals */\n      0x04\n        /* \"WTFPractice/ERC721/ERC721.sol\":2688:2712  _tokenApprovals[tokenId] */\n      0x00\n        /* \"WTFPractice/ERC721/ERC721.sol\":2704:2711  tokenId */\n      dup4\n        /* \"WTFPractice/ERC721/ERC721.sol\":2688:2712  _tokenApprovals[tokenId] */\n      dup2\n      mstore\n      0x20\n      add\n      swap1\n      dup2\n      mstore\n      0x20\n      add\n      0x00\n      keccak256\n      0x00\n      swap1\n      sload\n      swap1\n      0x0100\n      exp\n      swap1\n      div\n      0xffffffffffffffffffffffffffffffffffffffff\n      and\n        /* \"WTFPractice/ERC721/ERC721.sol\":2681:2712  return _tokenApprovals[tokenId] */\n      swap1\n      pop\n        /* \"WTFPractice/ERC721/ERC721.sol\":2523:2719  function getApproved(uint tokenId) external view override returns (address) {... */\n      swap2\n      swap1\n      pop\n      jump\t// out\n        /* \"WTFPractice/ERC721/ERC721.sol\":3053:3315  function approve(address to, uint tokenId) external override {... */\n    tag_40:\n        /* \"WTFPractice/ERC721/ERC721.sol\":3124:3137  address owner */\n      0x00\n        /* \"WTFPractice/ERC721/ERC721.sol\":3140:3147  _owners */\n      0x02\n        /* \"WTFPractice/ERC721/ERC721.sol\":3140:3156  _owners[tokenId] */\n      0x00\n        /* \"WTFPractice/ERC721/ERC721.sol\":3148:3155  tokenId */\n      dup4\n        /* \"WTFPractice/ERC721/ERC721.sol\":3140:3156  _owners[tokenId] */\n      dup2\n      mstore\n      0x20\n      add\n      swap1\n      dup2\n      mstore\n      0x20\n      add\n      0x00\n      keccak256\n      0x00\n      swap1\n      sload\n      swap1\n      0x0100\n      exp\n      swap1\n      div\n      0xffffffffffffffffffffffffffffffffffffffff\n      and\n        /* \"WTFPractice/ERC721/ERC721.sol\":3124:3156  address owner = _owners[tokenId] */\n      swap1\n      pop\n        /* \"WTFPractice/ERC721/ERC721.sol\":3189:3194  owner */\n      dup1\n        /* \"WTFPractice/ERC721/ERC721.sol\":3175:3194  msg.sender == owner */\n      0xffffffffffffffffffffffffffffffffffffffff\n      and\n        /* \"WTFPractice/ERC721/ERC721.sol\":3175:3185  msg.sender */\n      caller\n        /* \"WTFPractice/ERC721/ERC721.sol\":3175:3194  msg.sender == owner */\n      0xffffffffffffffffffffffffffffffffffffffff\n      and\n      eq\n        /* \"WTFPractice/ERC721/ERC721.sol\":3175:3235  msg.sender == owner || _operatorApprovals[owner][msg.sender] */\n      dup1\n      tag_98\n      jumpi\n      pop\n        /* \"WTFPractice/ERC721/ERC721.sol\":3198:3216  _operatorApprovals */\n      0x05\n        /* \"WTFPractice/ERC721/ERC721.sol\":3198:3223  _operatorApprovals[owner] */\n      0x00\n        /* \"WTFPractice/ERC721/ERC721.sol\":3217:3222  owner */\n      dup3\n        /* \"WTFPractice/ERC721/ERC721.sol\":3198:3223  _operatorApprovals[owner] */\n      0xffffffffffffffffffffffffffffffffffffffff\n      and\n      0xffffffffffffffffffffffffffffffffffffffff\n      and\n      dup2\n      mstore\n      0x20\n      add\n      swap1\n      dup2\n      mstore\n      0x20\n      add\n      0x00\n      keccak256\n        /* \"WTFPractice/ERC721/ERC721.sol\":3198:3235  _operatorApprovals[owner][msg.sender] */\n      0x00\n        /* \"WTFPractice/ERC721/ERC721.sol\":3224:3234  msg.sender */\n      caller\n        /* \"WTFPractice/ERC721/ERC721.sol\":3198:3235  _operatorApprovals[owner][msg.sender] */\n      0xffffffffffffffffffffffffffffffffffffffff\n      and\n      0xffffffffffffffffffffffffffffffffffffffff\n      and\n      dup2\n      mstore\n      0x20\n      add\n      swap1\n      dup2\n      mstore\n      0x20\n      add\n      0x00\n      keccak256\n      0x00\n      swap1\n      sload\n      swap1\n      0x0100\n      exp\n      swap1\n      div\n      0xff\n      and\n        /* \"WTFPractice/ERC721/ERC721.sol\":3175:3235  msg.sender == owner || _operatorApprovals[owner][msg.sender] */\n    tag_98:\n        /* \"WTFPractice/ERC721/ERC721.sol\":3166:3270  require( msg.sender == owner || _operatorApprovals[owner][msg.sender], \"not owner nor approved for all\") */\n      tag_99\n      jumpi\n      mload(0x40)\n      0x08c379a000000000000000000000000000000000000000000000000000000000\n      dup2\n      mstore\n      0x04\n      add\n      tag_100\n      swap1\n      tag_101\n      jump\t// in\n    tag_100:\n      mload(0x40)\n      dup1\n      swap2\n      sub\n      swap1\n      revert\n    tag_99:\n        /* \"WTFPractice/ERC721/ERC721.sol\":3280:3308  _approve(owner, to, tokenId) */\n      tag_102\n        /* \"WTFPractice/ERC721/ERC721.sol\":3289:3294  owner */\n      dup2\n        /* \"WTFPractice/ERC721/ERC721.sol\":3296:3298  to */\n      dup5\n        /* \"WTFPractice/ERC721/ERC721.sol\":3300:3307  tokenId */\n      dup5\n        /* \"WTFPractice/ERC721/ERC721.sol\":3280:3288  _approve */\n      tag_103\n        /* \"WTFPractice/ERC721/ERC721.sol\":3280:3308  _approve(owner, to, tokenId) */\n      jump\t// in\n    tag_102:\n        /* \"WTFPractice/ERC721/ERC721.sol\":3114:3315  {... */\n      pop\n        /* \"WTFPractice/ERC721/ERC721.sol\":3053:3315  function approve(address to, uint tokenId) external override {... */\n      pop\n      pop\n      jump\t// out\n        /* \"WTFPractice/ERC721/ERC721.sol\":4339:4605  function transferFrom(address from, address to, uint tokenId) external override {... */\n    tag_44:\n        /* \"WTFPractice/ERC721/ERC721.sol\":4429:4442  address owner */\n      0x00\n        /* \"WTFPractice/ERC721/ERC721.sol\":4445:4461  ownerOf(tokenId) */\n      tag_105\n        /* \"WTFPractice/ERC721/ERC721.sol\":4453:4460  tokenId */\n      dup3\n        /* \"WTFPractice/ERC721/ERC721.sol\":4445:4452  ownerOf */\n      tag_53\n        /* \"WTFPractice/ERC721/ERC721.sol\":4445:4461  ownerOf(tokenId) */\n      jump\t// in\n    tag_105:\n        /* \"WTFPractice/ERC721/ERC721.sol\":4429:4461  address owner = ownerOf(tokenId) */\n      swap1\n      pop\n        /* \"WTFPractice/ERC721/ERC721.sol\":4480:4526  _isApprovedOrOwner(owner, msg.sender, tokenId) */\n      tag_106\n        /* \"WTFPractice/ERC721/ERC721.sol\":4499:4504  owner */\n      dup2\n        /* \"WTFPractice/ERC721/ERC721.sol\":4506:4516  msg.sender */\n      caller\n        /* \"WTFPractice/ERC721/ERC721.sol\":4518:4525  tokenId */\n      dup5\n        /* \"WTFPractice/ERC721/ERC721.sol\":4480:4498  _isApprovedOrOwner */\n      tag_107\n        /* \"WTFPractice/ERC721/ERC721.sol\":4480:4526  _isApprovedOrOwner(owner, msg.sender, tokenId) */\n      jump\t// in\n    tag_106:\n        /* \"WTFPractice/ERC721/ERC721.sol\":4471:4553  require( _isApprovedOrOwner(owner, msg.sender, tokenId), \"not owner nor approved\") */\n      tag_108\n      jumpi\n      mload(0x40)\n      0x08c379a000000000000000000000000000000000000000000000000000000000\n      dup2\n      mstore\n      0x04\n      add\n      tag_109\n      swap1\n      tag_110\n      jump\t// in\n    tag_109:\n      mload(0x40)\n      dup1\n      swap2\n      sub\n      swap1\n      revert\n    tag_108:\n        /* \"WTFPractice/ERC721/ERC721.sol\":4563:4598  _transfer(owner, from, to, tokenId) */\n      tag_111\n        /* \"WTFPractice/ERC721/ERC721.sol\":4573:4578  owner */\n      dup2\n        /* \"WTFPractice/ERC721/ERC721.sol\":4580:4584  from */\n      dup6\n        /* \"WTFPractice/ERC721/ERC721.sol\":4586:4588  to */\n      dup6\n        /* \"WTFPractice/ERC721/ERC721.sol\":4590:4597  tokenId */\n      dup6\n        /* \"WTFPractice/ERC721/ERC721.sol\":4563:4572  _transfer */\n      tag_112\n        /* \"WTFPractice/ERC721/ERC721.sol\":4563:4598  _transfer(owner, from, to, tokenId) */\n      jump\t// in\n    tag_111:\n        /* \"WTFPractice/ERC721/ERC721.sol\":4419:4605  {... */\n      pop\n        /* \"WTFPractice/ERC721/ERC721.sol\":4339:4605  function transferFrom(address from, address to, uint tokenId) external override {... */\n      pop\n      pop\n      pop\n      jump\t// out\n        /* \"WTFPractice/ERC721/WTFApe.sol\":386:547  function mint(address to, uint tokenId) external {... */\n    tag_47:\n        /* \"WTFPractice/ERC721/WTFApe.sol\":464:465  0 */\n      0x00\n        /* \"WTFPractice/ERC721/WTFApe.sol\":453:460  tokenId */\n      dup2\n        /* \"WTFPractice/ERC721/WTFApe.sol\":453:465  tokenId >= 0 */\n      lt\n      iszero\n        /* \"WTFPractice/ERC721/WTFApe.sol\":453:487  tokenId >= 0 && tokenId < MAX_APES */\n      dup1\n      iszero\n      tag_114\n      jumpi\n      pop\n        /* \"WTFPractice/ERC721/WTFApe.sol\":479:487  MAX_APES */\n      sload(0x06)\n        /* \"WTFPractice/ERC721/WTFApe.sol\":469:476  tokenId */\n      dup2\n        /* \"WTFPractice/ERC721/WTFApe.sol\":469:487  tokenId < MAX_APES */\n      lt\n        /* \"WTFPractice/ERC721/WTFApe.sol\":453:487  tokenId >= 0 && tokenId < MAX_APES */\n    tag_114:\n        /* \"WTFPractice/ERC721/WTFApe.sol\":445:512  require(tokenId >= 0 && tokenId < MAX_APES, \"tokenId out of range\") */\n      tag_115\n      jumpi\n      mload(0x40)\n      0x08c379a000000000000000000000000000000000000000000000000000000000\n      dup2\n      mstore\n      0x04\n      add\n      tag_116\n      swap1\n      tag_117\n      jump\t// in\n    tag_116:\n      mload(0x40)\n      dup1\n      swap2\n      sub\n      swap1\n      revert\n    tag_115:\n        /* \"WTFPractice/ERC721/WTFApe.sol\":522:540  _mint(to, tokenId) */\n      tag_118\n        /* \"WTFPractice/ERC721/WTFApe.sol\":528:530  to */\n      dup3\n        /* \"WTFPractice/ERC721/WTFApe.sol\":532:539  tokenId */\n      dup3\n        /* \"WTFPractice/ERC721/WTFApe.sol\":522:527  _mint */\n      tag_119\n        /* \"WTFPractice/ERC721/WTFApe.sol\":522:540  _mint(to, tokenId) */\n      jump\t// in\n    tag_118:\n        /* \"WTFPractice/ERC721/WTFApe.sol\":386:547  function mint(address to, uint tokenId) external {... */\n      pop\n      pop\n      jump\t// out\n        /* \"WTFPractice/ERC721/ERC721.sol\":5661:5802  function safeTransferFrom( address from, address to, uint tokenId) external override {... */\n    tag_50:\n        /* \"WTFPractice/ERC721/ERC721.sol\":5756:5795  safeTransferFrom(from, to, tokenId, \"\") */\n      tag_121\n        /* \"WTFPractice/ERC721/ERC721.sol\":5773:5777  from */\n      dup4\n        /* \"WTFPractice/ERC721/ERC721.sol\":5779:5781  to */\n      dup4\n        /* \"WTFPractice/ERC721/ERC721.sol\":5783:5790  tokenId */\n      dup4\n        /* \"WTFPractice/ERC721/ERC721.sol\":5756:5795  safeTransferFrom(from, to, tokenId, \"\") */\n      mload(0x40)\n      dup1\n      0x20\n      add\n      0x40\n      mstore\n      dup1\n      0x00\n      dup2\n      mstore\n      pop\n        /* \"WTFPractice/ERC721/ERC721.sol\":5756:5772  safeTransferFrom */\n      tag_71\n        /* \"WTFPractice/ERC721/ERC721.sol\":5756:5795  safeTransferFrom(from, to, tokenId, \"\") */\n      jump\t// in\n    tag_121:\n        /* \"WTFPractice/ERC721/ERC721.sol\":5661:5802  function safeTransferFrom( address from, address to, uint tokenId) external override {... */\n      pop\n      pop\n      pop\n      jump\t// out\n        /* \"WTFPractice/ERC721/ERC721.sol\":1638:1817  function ownerOf(uint tokenId) public view override returns (address owner) {... */\n    tag_53:\n        /* \"WTFPractice/ERC721/ERC721.sol\":1699:1712  address owner */\n      0x00\n        /* \"WTFPractice/ERC721/ERC721.sol\":1732:1739  _owners */\n      0x02\n        /* \"WTFPractice/ERC721/ERC721.sol\":1732:1748  _owners[tokenId] */\n      0x00\n        /* \"WTFPractice/ERC721/ERC721.sol\":1740:1747  tokenId */\n      dup4\n        /* \"WTFPractice/ERC721/ERC721.sol\":1732:1748  _owners[tokenId] */\n      dup2\n      mstore\n      0x20\n      add\n      swap1\n      dup2\n      mstore\n      0x20\n      add\n      0x00\n      keccak256\n      0x00\n      swap1\n      sload\n      swap1\n      0x0100\n      exp\n      swap1\n      div\n      0xffffffffffffffffffffffffffffffffffffffff\n      and\n        /* \"WTFPractice/ERC721/ERC721.sol\":1724:1748  owner = _owners[tokenId] */\n      swap1\n      pop\n        /* \"WTFPractice/ERC721/ERC721.sol\":1784:1785  0 */\n      0x00\n        /* \"WTFPractice/ERC721/ERC721.sol\":1767:1786  owner != address(0) */\n      0xffffffffffffffffffffffffffffffffffffffff\n      and\n        /* \"WTFPractice/ERC721/ERC721.sol\":1767:1772  owner */\n      dup2\n        /* \"WTFPractice/ERC721/ERC721.sol\":1767:1786  owner != address(0) */\n      0xffffffffffffffffffffffffffffffffffffffff\n      and\n      sub\n        /* \"WTFPractice/ERC721/ERC721.sol\":1758:1810  require( owner != address(0), \"token doesnot exist\") */\n      tag_123\n      jumpi\n      mload(0x40)\n      0x08c379a000000000000000000000000000000000000000000000000000000000\n      dup2\n      mstore\n      0x04\n      add\n      tag_124\n      swap1\n      tag_96\n      jump\t// in\n    tag_124:\n      mload(0x40)\n      dup1\n      swap2\n      sub\n      swap1\n      revert\n    tag_123:\n        /* \"WTFPractice/ERC721/ERC721.sol\":1638:1817  function ownerOf(uint tokenId) public view override returns (address owner) {... */\n      swap2\n      swap1\n      pop\n      jump\t// out\n        /* \"WTFPractice/ERC721/ERC721.sol\":1384:1559  function balanceOf(address owner) external view override returns (uint) {... */\n    tag_58:\n        /* \"WTFPractice/ERC721/ERC721.sol\":1450:1454  uint */\n      0x00\n        /* \"WTFPractice/ERC721/ERC721.sol\":1492:1493  0 */\n      dup1\n        /* \"WTFPractice/ERC721/ERC721.sol\":1475:1494  owner != address(0) */\n      0xffffffffffffffffffffffffffffffffffffffff\n      and\n        /* \"WTFPractice/ERC721/ERC721.sol\":1475:1480  owner */\n      dup3\n        /* \"WTFPractice/ERC721/ERC721.sol\":1475:1494  owner != address(0) */\n      0xffffffffffffffffffffffffffffffffffffffff\n      and\n      sub\n        /* \"WTFPractice/ERC721/ERC721.sol\":1466:1519  require( owner != address(0), \"owner = zero address\") */\n      tag_126\n      jumpi\n      mload(0x40)\n      0x08c379a000000000000000000000000000000000000000000000000000000000\n      dup2\n      mstore\n      0x04\n      add\n      tag_127\n      swap1\n      tag_128\n      jump\t// in\n    tag_127:\n      mload(0x40)\n      dup1\n      swap2\n      sub\n      swap1\n      revert\n    tag_126:\n        /* \"WTFPractice/ERC721/ERC721.sol\":1536:1545  _balances */\n      0x03\n        /* \"WTFPractice/ERC721/ERC721.sol\":1536:1552  _balances[owner] */\n      0x00\n        /* \"WTFPractice/ERC721/ERC721.sol\":1546:1551  owner */\n      dup4\n        /* \"WTFPractice/ERC721/ERC721.sol\":1536:1552  _balances[owner] */\n      0xffffffffffffffffffffffffffffffffffffffff\n      and\n      0xffffffffffffffffffffffffffffffffffffffff\n      and\n      dup2\n      mstore\n      0x20\n      add\n      swap1\n      dup2\n      mstore\n      0x20\n      add\n      0x00\n      keccak256\n      sload\n        /* \"WTFPractice/ERC721/ERC721.sol\":1529:1552  return _balances[owner] */\n      swap1\n      pop\n        /* \"WTFPractice/ERC721/ERC721.sol\":1384:1559  function balanceOf(address owner) external view override returns (uint) {... */\n      swap2\n      swap1\n      pop\n      jump\t// out\n        /* \"WTFPractice/ERC721/ERC721.sol\":478:507  string public override symbol */\n    tag_62:\n      0x01\n      dup1\n      sload\n      tag_129\n      swap1\n      tag_88\n      jump\t// in\n    tag_129:\n      dup1\n      0x1f\n      add\n      0x20\n      dup1\n      swap2\n      div\n      mul\n      0x20\n      add\n      mload(0x40)\n      swap1\n      dup2\n      add\n      0x40\n      mstore\n      dup1\n      swap3\n      swap2\n      swap1\n      dup2\n      dup2\n      mstore\n      0x20\n      add\n      dup3\n      dup1\n      sload\n      tag_130\n      swap1\n      tag_88\n      jump\t// in\n    tag_130:\n      dup1\n      iszero\n      tag_131\n      jumpi\n      dup1\n      0x1f\n      lt\n      tag_132\n      jumpi\n      0x0100\n      dup1\n      dup4\n      sload\n      div\n      mul\n      dup4\n      mstore\n      swap2\n      0x20\n      add\n      swap2\n      jump(tag_131)\n    tag_132:\n      dup3\n      add\n      swap2\n      swap1\n      0x00\n      mstore\n      keccak256(0x00, 0x20)\n      swap1\n    tag_133:\n      dup2\n      sload\n      dup2\n      mstore\n      swap1\n      0x01\n      add\n      swap1\n      0x20\n      add\n      dup1\n      dup4\n      gt\n      tag_133\n      jumpi\n      dup3\n      swap1\n      sub\n      0x1f\n      and\n      dup3\n      add\n      swap2\n    tag_131:\n      pop\n      pop\n      pop\n      pop\n      pop\n      dup2\n      jump\t// out\n        /* \"WTFPractice/ERC721/ERC721.sol\":2218:2425  function setApprovalForAll(address operator, bool approved) external override {... */\n    tag_67:\n        /* \"WTFPractice/ERC721/ERC721.sol\":2349:2357  approved */\n      dup1\n        /* \"WTFPractice/ERC721/ERC721.sol\":2306:2324  _operatorApprovals */\n      0x05\n        /* \"WTFPractice/ERC721/ERC721.sol\":2306:2336  _operatorApprovals[msg.sender] */\n      0x00\n        /* \"WTFPractice/ERC721/ERC721.sol\":2325:2335  msg.sender */\n      caller\n        /* \"WTFPractice/ERC721/ERC721.sol\":2306:2336  _operatorApprovals[msg.sender] */\n      0xffffffffffffffffffffffffffffffffffffffff\n      and\n      0xffffffffffffffffffffffffffffffffffffffff\n      and\n      dup2\n      mstore\n      0x20\n      add\n      swap1\n      dup2\n      mstore\n      0x20\n      add\n      0x00\n      keccak256\n        /* \"WTFPractice/ERC721/ERC721.sol\":2306:2346  _operatorApprovals[msg.sender][operator] */\n      0x00\n        /* \"WTFPractice/ERC721/ERC721.sol\":2337:2345  operator */\n      dup5\n        /* \"WTFPractice/ERC721/ERC721.sol\":2306:2346  _operatorApprovals[msg.sender][operator] */\n      0xffffffffffffffffffffffffffffffffffffffff\n      and\n      0xffffffffffffffffffffffffffffffffffffffff\n      and\n      dup2\n      mstore\n      0x20\n      add\n      swap1\n      dup2\n      mstore\n      0x20\n      add\n      0x00\n      keccak256\n      0x00\n        /* \"WTFPractice/ERC721/ERC721.sol\":2306:2357  _operatorApprovals[msg.sender][operator] = approved */\n      0x0100\n      exp\n      dup2\n      sload\n      dup2\n      0xff\n      mul\n      not\n      and\n      swap1\n      dup4\n      iszero\n      iszero\n      mul\n      or\n      swap1\n      sstore\n      pop\n        /* \"WTFPractice/ERC721/ERC721.sol\":2399:2407  operator */\n      dup2\n        /* \"WTFPractice/ERC721/ERC721.sol\":2372:2418  ApprovalForAll(msg.sender, operator, approved) */\n      0xffffffffffffffffffffffffffffffffffffffff\n      and\n        /* \"WTFPractice/ERC721/ERC721.sol\":2387:2397  msg.sender */\n      caller\n        /* \"WTFPractice/ERC721/ERC721.sol\":2372:2418  ApprovalForAll(msg.sender, operator, approved) */\n      0xffffffffffffffffffffffffffffffffffffffff\n      and\n      0x17307eab39ab6107e8899845ad3d59bd9653f200f220920489ca2b5937696c31\n        /* \"WTFPractice/ERC721/ERC721.sol\":2409:2417  approved */\n      dup4\n        /* \"WTFPractice/ERC721/ERC721.sol\":2372:2418  ApprovalForAll(msg.sender, operator, approved) */\n      mload(0x40)\n      tag_135\n      swap2\n      swap1\n      tag_26\n      jump\t// in\n    tag_135:\n      mload(0x40)\n      dup1\n      swap2\n      sub\n      swap1\n      log3\n        /* \"WTFPractice/ERC721/ERC721.sol\":2218:2425  function setApprovalForAll(address operator, bool approved) external override {... */\n      pop\n      pop\n      jump\t// out\n        /* \"WTFPractice/ERC721/ERC721.sol\":5317:5617  function safeTransferFrom( address from, address to, uint tokenId, bytes memory _data) public override {... */\n    tag_71:\n        /* \"WTFPractice/ERC721/ERC721.sol\":5430:5443  address owner */\n      0x00\n        /* \"WTFPractice/ERC721/ERC721.sol\":5446:5462  ownerOf(tokenId) */\n      tag_137\n        /* \"WTFPractice/ERC721/ERC721.sol\":5454:5461  tokenId */\n      dup4\n        /* \"WTFPractice/ERC721/ERC721.sol\":5446:5453  ownerOf */\n      tag_53\n        /* \"WTFPractice/ERC721/ERC721.sol\":5446:5462  ownerOf(tokenId) */\n      jump\t// in\n    tag_137:\n        /* \"WTFPractice/ERC721/ERC721.sol\":5430:5462  address owner = ownerOf(tokenId) */\n      swap1\n      pop\n        /* \"WTFPractice/ERC721/ERC721.sol\":5481:5527  _isApprovedOrOwner(owner, msg.sender, tokenId) */\n      tag_138\n        /* \"WTFPractice/ERC721/ERC721.sol\":5500:5505  owner */\n      dup2\n        /* \"WTFPractice/ERC721/ERC721.sol\":5507:5517  msg.sender */\n      caller\n        /* \"WTFPractice/ERC721/ERC721.sol\":5519:5526  tokenId */\n      dup6\n        /* \"WTFPractice/ERC721/ERC721.sol\":5481:5499  _isApprovedOrOwner */\n      tag_107\n        /* \"WTFPractice/ERC721/ERC721.sol\":5481:5527  _isApprovedOrOwner(owner, msg.sender, tokenId) */\n      jump\t// in\n    tag_138:\n        /* \"WTFPractice/ERC721/ERC721.sol\":5472:5554  require( _isApprovedOrOwner(owner, msg.sender, tokenId), \"not owner nor approved\") */\n      tag_139\n      jumpi\n      mload(0x40)\n      0x08c379a000000000000000000000000000000000000000000000000000000000\n      dup2\n      mstore\n      0x04\n      add\n      tag_140\n      swap1\n      tag_110\n      jump\t// in\n    tag_140:\n      mload(0x40)\n      dup1\n      swap2\n      sub\n      swap1\n      revert\n    tag_139:\n        /* \"WTFPractice/ERC721/ERC721.sol\":5564:5610  _safeTransfer(owner, from, to, tokenId, _data) */\n      tag_141\n        /* \"WTFPractice/ERC721/ERC721.sol\":5578:5583  owner */\n      dup2\n        /* \"WTFPractice/ERC721/ERC721.sol\":5585:5589  from */\n      dup7\n        /* \"WTFPractice/ERC721/ERC721.sol\":5591:5593  to */\n      dup7\n        /* \"WTFPractice/ERC721/ERC721.sol\":5595:5602  tokenId */\n      dup7\n        /* \"WTFPractice/ERC721/ERC721.sol\":5604:5609  _data */\n      dup7\n        /* \"WTFPractice/ERC721/ERC721.sol\":5564:5577  _safeTransfer */\n      tag_142\n        /* \"WTFPractice/ERC721/ERC721.sol\":5564:5610  _safeTransfer(owner, from, to, tokenId, _data) */\n      jump\t// in\n    tag_141:\n        /* \"WTFPractice/ERC721/ERC721.sol\":5420:5617  {... */\n      pop\n        /* \"WTFPractice/ERC721/ERC721.sol\":5317:5617  function safeTransferFrom( address from, address to, uint tokenId, bytes memory _data) public override {... */\n      pop\n      pop\n      pop\n      pop\n      jump\t// out\n        /* \"WTFPractice/ERC721/WTFApe.sol\":113:140  uint public MAX_APES = 1000 */\n    tag_73:\n      sload(0x06)\n      dup2\n      jump\t// out\n        /* \"WTFPractice/ERC721/ERC721.sol\":7337:7648  function tokenURI(uint256 tokenId) public view virtual override returns (string memory) {... */\n    tag_77:\n        /* \"WTFPractice/ERC721/ERC721.sol\":7410:7423  string memory */\n      0x60\n        /* \"WTFPractice/ERC721/ERC721.sol\":7471:7472  0 */\n      0x00\n        /* \"WTFPractice/ERC721/ERC721.sol\":7443:7473  _owners[tokenId] != address(0) */\n      0xffffffffffffffffffffffffffffffffffffffff\n      and\n        /* \"WTFPractice/ERC721/ERC721.sol\":7443:7450  _owners */\n      0x02\n        /* \"WTFPractice/ERC721/ERC721.sol\":7443:7459  _owners[tokenId] */\n      0x00\n        /* \"WTFPractice/ERC721/ERC721.sol\":7451:7458  tokenId */\n      dup5\n        /* \"WTFPractice/ERC721/ERC721.sol\":7443:7459  _owners[tokenId] */\n      dup2\n      mstore\n      0x20\n      add\n      swap1\n      dup2\n      mstore\n      0x20\n      add\n      0x00\n      keccak256\n      0x00\n      swap1\n      sload\n      swap1\n      0x0100\n      exp\n      swap1\n      div\n      0xffffffffffffffffffffffffffffffffffffffff\n      and\n        /* \"WTFPractice/ERC721/ERC721.sol\":7443:7473  _owners[tokenId] != address(0) */\n      0xffffffffffffffffffffffffffffffffffffffff\n      and\n      sub\n        /* \"WTFPractice/ERC721/ERC721.sol\":7435:7493  require(_owners[tokenId] != address(0), \"Token Not Exist\") */\n      tag_144\n      jumpi\n      mload(0x40)\n      0x08c379a000000000000000000000000000000000000000000000000000000000\n      dup2\n      mstore\n      0x04\n      add\n      tag_145\n      swap1\n      tag_146\n      jump\t// in\n    tag_145:\n      mload(0x40)\n      dup1\n      swap2\n      sub\n      swap1\n      revert\n    tag_144:\n        /* \"WTFPractice/ERC721/ERC721.sol\":7504:7525  string memory baseURI */\n      0x00\n        /* \"WTFPractice/ERC721/ERC721.sol\":7528:7538  _baseURI() */\n      tag_147\n        /* \"WTFPractice/ERC721/ERC721.sol\":7528:7536  _baseURI */\n      tag_148\n        /* \"WTFPractice/ERC721/ERC721.sol\":7528:7538  _baseURI() */\n      jump\t// in\n    tag_147:\n        /* \"WTFPractice/ERC721/ERC721.sol\":7504:7538  string memory baseURI = _baseURI() */\n      swap1\n      pop\n        /* \"WTFPractice/ERC721/ERC721.sol\":7579:7580  0 */\n      0x00\n        /* \"WTFPractice/ERC721/ERC721.sol\":7561:7568  baseURI */\n      dup2\n        /* \"WTFPractice/ERC721/ERC721.sol\":7555:7576  bytes(baseURI).length */\n      mload\n        /* \"WTFPractice/ERC721/ERC721.sol\":7555:7580  bytes(baseURI).length > 0 */\n      gt\n        /* \"WTFPractice/ERC721/ERC721.sol\":7555:7641  bytes(baseURI).length > 0 ? string(abi.encodePacked(baseURI, tokenId.toString())) : \"\" */\n      tag_149\n      jumpi\n      mload(0x40)\n      dup1\n      0x20\n      add\n      0x40\n      mstore\n      dup1\n      0x00\n      dup2\n      mstore\n      pop\n      jump(tag_150)\n    tag_149:\n        /* \"WTFPractice/ERC721/ERC721.sol\":7607:7614  baseURI */\n      dup1\n        /* \"WTFPractice/ERC721/ERC721.sol\":7616:7634  tokenId.toString() */\n      tag_151\n        /* \"WTFPractice/ERC721/ERC721.sol\":7616:7623  tokenId */\n      dup5\n        /* \"WTFPractice/ERC721/ERC721.sol\":7616:7632  tokenId.toString */\n      tag_152\n        /* \"WTFPractice/ERC721/ERC721.sol\":7616:7634  tokenId.toString() */\n      jump\t// in\n    tag_151:\n        /* \"WTFPractice/ERC721/ERC721.sol\":7590:7635  abi.encodePacked(baseURI, tokenId.toString()) */\n      add(0x20, mload(0x40))\n      tag_153\n      swap3\n      swap2\n      swap1\n      tag_154\n      jump\t// in\n    tag_153:\n      mload(0x40)\n      0x20\n      dup2\n      dup4\n      sub\n      sub\n      dup2\n      mstore\n      swap1\n      0x40\n      mstore\n        /* \"WTFPractice/ERC721/ERC721.sol\":7555:7641  bytes(baseURI).length > 0 ? string(abi.encodePacked(baseURI, tokenId.toString())) : \"\" */\n    tag_150:\n        /* \"WTFPractice/ERC721/ERC721.sol\":7548:7641  return bytes(baseURI).length > 0 ? string(abi.encodePacked(baseURI, tokenId.toString())) : \"\" */\n      swap2\n      pop\n      pop\n        /* \"WTFPractice/ERC721/ERC721.sol\":7337:7648  function tokenURI(uint256 tokenId) public view virtual override returns (string memory) {... */\n      swap2\n      swap1\n      pop\n      jump\t// out\n        /* \"WTFPractice/ERC721/ERC721.sol\":1962:2118  function isApprovedForAll(address owner, address operator) external view override returns (bool) {... */\n    tag_82:\n        /* \"WTFPractice/ERC721/ERC721.sol\":2053:2057  bool */\n      0x00\n        /* \"WTFPractice/ERC721/ERC721.sol\":2076:2094  _operatorApprovals */\n      0x05\n        /* \"WTFPractice/ERC721/ERC721.sol\":2076:2101  _operatorApprovals[owner] */\n      0x00\n        /* \"WTFPractice/ERC721/ERC721.sol\":2095:2100  owner */\n      dup5\n        /* \"WTFPractice/ERC721/ERC721.sol\":2076:2101  _operatorApprovals[owner] */\n      0xffffffffffffffffffffffffffffffffffffffff\n      and\n      0xffffffffffffffffffffffffffffffffffffffff\n      and\n      dup2\n      mstore\n      0x20\n      add\n      swap1\n      dup2\n      mstore\n      0x20\n      add\n      0x00\n      keccak256\n        /* \"WTFPractice/ERC721/ERC721.sol\":2076:2111  _operatorApprovals[owner][operator] */\n      0x00\n        /* \"WTFPractice/ERC721/ERC721.sol\":2102:2110  operator */\n      dup4\n        /* \"WTFPractice/ERC721/ERC721.sol\":2076:2111  _operatorApprovals[owner][operator] */\n      0xffffffffffffffffffffffffffffffffffffffff\n      and\n      0xffffffffffffffffffffffffffffffffffffffff\n      and\n      dup2\n      mstore\n      0x20\n      add\n      swap1\n      dup2\n      mstore\n      0x20\n      add\n      0x00\n      keccak256\n      0x00\n      swap1\n      sload\n      swap1\n      0x0100\n      exp\n      swap1\n      div\n      0xff\n      and\n        /* \"WTFPractice/ERC721/ERC721.sol\":2069:2111  return _operatorApprovals[owner][operator] */\n      swap1\n      pop\n        /* \"WTFPractice/ERC721/ERC721.sol\":1962:2118  function isApprovedForAll(address owner, address operator) external view override returns (bool) {... */\n      swap3\n      swap2\n      pop\n      pop\n      jump\t// out\n        /* \"WTFPractice/ERC721/ERC721.sol\":2833:2989  function _approve(address owner, address to, uint tokenId) private {... */\n    tag_103:\n        /* \"WTFPractice/ERC721/ERC721.sol\":2937:2939  to */\n      dup2\n        /* \"WTFPractice/ERC721/ERC721.sol\":2910:2925  _tokenApprovals */\n      0x04\n        /* \"WTFPractice/ERC721/ERC721.sol\":2910:2934  _tokenApprovals[tokenId] */\n      0x00\n        /* \"WTFPractice/ERC721/ERC721.sol\":2926:2933  tokenId */\n      dup4\n        /* \"WTFPractice/ERC721/ERC721.sol\":2910:2934  _tokenApprovals[tokenId] */\n      dup2\n      mstore\n      0x20\n      add\n      swap1\n      dup2\n      mstore\n      0x20\n      add\n      0x00\n      keccak256\n      0x00\n        /* \"WTFPractice/ERC721/ERC721.sol\":2910:2939  _tokenApprovals[tokenId] = to */\n      0x0100\n      exp\n      dup2\n      sload\n      dup2\n      0xffffffffffffffffffffffffffffffffffffffff\n      mul\n      not\n      and\n      swap1\n      dup4\n      0xffffffffffffffffffffffffffffffffffffffff\n      and\n      mul\n      or\n      swap1\n      sstore\n      pop\n        /* \"WTFPractice/ERC721/ERC721.sol\":2974:2981  tokenId */\n      dup1\n        /* \"WTFPractice/ERC721/ERC721.sol\":2970:2972  to */\n      dup3\n        /* \"WTFPractice/ERC721/ERC721.sol\":2954:2982  Approval(owner, to, tokenId) */\n      0xffffffffffffffffffffffffffffffffffffffff\n      and\n        /* \"WTFPractice/ERC721/ERC721.sol\":2963:2968  owner */\n      dup5\n        /* \"WTFPractice/ERC721/ERC721.sol\":2954:2982  Approval(owner, to, tokenId) */\n      0xffffffffffffffffffffffffffffffffffffffff\n      and\n      0x8c5be1e5ebec7d5bd14f71427d1e84f3dd0314c0f7b2291e5b200ac8c7c3b925\n      mload(0x40)\n      mload(0x40)\n      dup1\n      swap2\n      sub\n      swap1\n      log4\n        /* \"WTFPractice/ERC721/ERC721.sol\":2833:2989  function _approve(address owner, address to, uint tokenId) private {... */\n      pop\n      pop\n      pop\n      jump\t// out\n        /* \"WTFPractice/ERC721/ERC721.sol\":3408:3674  function _isApprovedOrOwner(address owner, address spender, uint tokenId) private view returns(bool) {... */\n    tag_107:\n        /* \"WTFPractice/ERC721/ERC721.sol\":3503:3507  bool */\n      0x00\n        /* \"WTFPractice/ERC721/ERC721.sol\":3551:3556  owner */\n      dup4\n        /* \"WTFPractice/ERC721/ERC721.sol\":3540:3556  spender == owner */\n      0xffffffffffffffffffffffffffffffffffffffff\n      and\n        /* \"WTFPractice/ERC721/ERC721.sol\":3540:3547  spender */\n      dup4\n        /* \"WTFPractice/ERC721/ERC721.sol\":3540:3556  spender == owner */\n      0xffffffffffffffffffffffffffffffffffffffff\n      and\n      eq\n        /* \"WTFPractice/ERC721/ERC721.sol\":3540:3607  spender == owner ||... */\n      dup1\n      tag_158\n      jumpi\n      pop\n        /* \"WTFPractice/ERC721/ERC721.sol\":3600:3607  spender */\n      dup3\n        /* \"WTFPractice/ERC721/ERC721.sol\":3572:3607  _tokenApprovals[tokenId] == spender */\n      0xffffffffffffffffffffffffffffffffffffffff\n      and\n        /* \"WTFPractice/ERC721/ERC721.sol\":3572:3587  _tokenApprovals */\n      0x04\n        /* \"WTFPractice/ERC721/ERC721.sol\":3572:3596  _tokenApprovals[tokenId] */\n      0x00\n        /* \"WTFPractice/ERC721/ERC721.sol\":3588:3595  tokenId */\n      dup5\n        /* \"WTFPractice/ERC721/ERC721.sol\":3572:3596  _tokenApprovals[tokenId] */\n      dup2\n      mstore\n      0x20\n      add\n      swap1\n      dup2\n      mstore\n      0x20\n      add\n      0x00\n      keccak256\n      0x00\n      swap1\n      sload\n      swap1\n      0x0100\n      exp\n      swap1\n      div\n      0xffffffffffffffffffffffffffffffffffffffff\n      and\n        /* \"WTFPractice/ERC721/ERC721.sol\":3572:3607  _tokenApprovals[tokenId] == spender */\n      0xffffffffffffffffffffffffffffffffffffffff\n      and\n      eq\n        /* \"WTFPractice/ERC721/ERC721.sol\":3540:3607  spender == owner ||... */\n    tag_158:\n        /* \"WTFPractice/ERC721/ERC721.sol\":3540:3657  spender == owner ||... */\n      dup1\n      tag_159\n      jumpi\n      pop\n        /* \"WTFPractice/ERC721/ERC721.sol\":3623:3641  _operatorApprovals */\n      0x05\n        /* \"WTFPractice/ERC721/ERC721.sol\":3623:3648  _operatorApprovals[owner] */\n      0x00\n        /* \"WTFPractice/ERC721/ERC721.sol\":3642:3647  owner */\n      dup6\n        /* \"WTFPractice/ERC721/ERC721.sol\":3623:3648  _operatorApprovals[owner] */\n      0xffffffffffffffffffffffffffffffffffffffff\n      and\n      0xffffffffffffffffffffffffffffffffffffffff\n      and\n      dup2\n      mstore\n      0x20\n      add\n      swap1\n      dup2\n      mstore\n      0x20\n      add\n      0x00\n      keccak256\n        /* \"WTFPractice/ERC721/ERC721.sol\":3623:3657  _operatorApprovals[owner][spender] */\n      0x00\n        /* \"WTFPractice/ERC721/ERC721.sol\":3649:3656  spender */\n      dup5\n        /* \"WTFPractice/ERC721/ERC721.sol\":3623:3657  _operatorApprovals[owner][spender] */\n      0xffffffffffffffffffffffffffffffffffffffff\n      and\n      0xffffffffffffffffffffffffffffffffffffffff\n      and\n      dup2\n      mstore\n      0x20\n      add\n      swap1\n      dup2\n      mstore\n      0x20\n      add\n      0x00\n      keccak256\n      0x00\n      swap1\n      sload\n      swap1\n      0x0100\n      exp\n      swap1\n      div\n      0xff\n      and\n        /* \"WTFPractice/ERC721/ERC721.sol\":3540:3657  spender == owner ||... */\n    tag_159:\n        /* \"WTFPractice/ERC721/ERC721.sol\":3519:3667  return (... */\n      swap1\n      pop\n        /* \"WTFPractice/ERC721/ERC721.sol\":3408:3674  function _isApprovedOrOwner(address owner, address spender, uint tokenId) private view returns(bool) {... */\n      swap4\n      swap3\n      pop\n      pop\n      pop\n      jump\t// out\n        /* \"WTFPractice/ERC721/ERC721.sol\":3859:4238  function _transfer(address owner, address from, address to, uint tokenId) private {... */\n    tag_112:\n        /* \"WTFPractice/ERC721/ERC721.sol\":3967:3972  owner */\n      dup4\n        /* \"WTFPractice/ERC721/ERC721.sol\":3959:3972  from == owner */\n      0xffffffffffffffffffffffffffffffffffffffff\n      and\n        /* \"WTFPractice/ERC721/ERC721.sol\":3959:3963  from */\n      dup4\n        /* \"WTFPractice/ERC721/ERC721.sol\":3959:3972  from == owner */\n      0xffffffffffffffffffffffffffffffffffffffff\n      and\n      eq\n        /* \"WTFPractice/ERC721/ERC721.sol\":3951:3986  require(from == owner, \"not owner\") */\n      tag_161\n      jumpi\n      mload(0x40)\n      0x08c379a000000000000000000000000000000000000000000000000000000000\n      dup2\n      mstore\n      0x04\n      add\n      tag_162\n      swap1\n      tag_163\n      jump\t// in\n    tag_162:\n      mload(0x40)\n      dup1\n      swap2\n      sub\n      swap1\n      revert\n    tag_161:\n        /* \"WTFPractice/ERC721/ERC721.sol\":4018:4019  0 */\n      0x00\n        /* \"WTFPractice/ERC721/ERC721.sol\":4004:4020  to != address(0) */\n      0xffffffffffffffffffffffffffffffffffffffff\n      and\n        /* \"WTFPractice/ERC721/ERC721.sol\":4004:4006  to */\n      dup3\n        /* \"WTFPractice/ERC721/ERC721.sol\":4004:4020  to != address(0) */\n      0xffffffffffffffffffffffffffffffffffffffff\n      and\n      sub\n        /* \"WTFPractice/ERC721/ERC721.sol\":3996:4053  require(to != address(0), \"transfer to the zero address\") */\n      tag_164\n      jumpi\n      mload(0x40)\n      0x08c379a000000000000000000000000000000000000000000000000000000000\n      dup2\n      mstore\n      0x04\n      add\n      tag_165\n      swap1\n      tag_166\n      jump\t// in\n    tag_165:\n      mload(0x40)\n      dup1\n      swap2\n      sub\n      swap1\n      revert\n    tag_164:\n        /* \"WTFPractice/ERC721/ERC721.sol\":4064:4100  _approve(owner, address(0), tokenId) */\n      tag_167\n        /* \"WTFPractice/ERC721/ERC721.sol\":4073:4078  owner */\n      dup5\n        /* \"WTFPractice/ERC721/ERC721.sol\":4088:4089  0 */\n      0x00\n        /* \"WTFPractice/ERC721/ERC721.sol\":4092:4099  tokenId */\n      dup4\n        /* \"WTFPractice/ERC721/ERC721.sol\":4064:4072  _approve */\n      tag_103\n        /* \"WTFPractice/ERC721/ERC721.sol\":4064:4100  _approve(owner, address(0), tokenId) */\n      jump\t// in\n    tag_167:\n        /* \"WTFPractice/ERC721/ERC721.sol\":4128:4129  1 */\n      0x01\n        /* \"WTFPractice/ERC721/ERC721.sol\":4111:4120  _balances */\n      0x03\n        /* \"WTFPractice/ERC721/ERC721.sol\":4111:4124  _balances[to] */\n      0x00\n        /* \"WTFPractice/ERC721/ERC721.sol\":4121:4123  to */\n      dup5\n        /* \"WTFPractice/ERC721/ERC721.sol\":4111:4124  _balances[to] */\n      0xffffffffffffffffffffffffffffffffffffffff\n      and\n      0xffffffffffffffffffffffffffffffffffffffff\n      and\n      dup2\n      mstore\n      0x20\n      add\n      swap1\n      dup2\n      mstore\n      0x20\n      add\n      0x00\n      keccak256\n      0x00\n        /* \"WTFPractice/ERC721/ERC721.sol\":4111:4129  _balances[to] += 1 */\n      dup3\n      dup3\n      sload\n      tag_168\n      swap2\n      swap1\n      tag_169\n      jump\t// in\n    tag_168:\n      swap3\n      pop\n      pop\n      dup2\n      swap1\n      sstore\n      pop\n        /* \"WTFPractice/ERC721/ERC721.sol\":4156:4157  1 */\n      0x01\n        /* \"WTFPractice/ERC721/ERC721.sol\":4139:4148  _balances */\n      0x03\n        /* \"WTFPractice/ERC721/ERC721.sol\":4139:4152  _balances[to] */\n      0x00\n        /* \"WTFPractice/ERC721/ERC721.sol\":4149:4151  to */\n      dup5\n        /* \"WTFPractice/ERC721/ERC721.sol\":4139:4152  _balances[to] */\n      0xffffffffffffffffffffffffffffffffffffffff\n      and\n      0xffffffffffffffffffffffffffffffffffffffff\n      and\n      dup2\n      mstore\n      0x20\n      add\n      swap1\n      dup2\n      mstore\n      0x20\n      add\n      0x00\n      keccak256\n      0x00\n        /* \"WTFPractice/ERC721/ERC721.sol\":4139:4157  _balances[to] -= 1 */\n      dup3\n      dup3\n      sload\n      tag_170\n      swap2\n      swap1\n      tag_171\n      jump\t// in\n    tag_170:\n      swap3\n      pop\n      pop\n      dup2\n      swap1\n      sstore\n      pop\n        /* \"WTFPractice/ERC721/ERC721.sol\":4186:4188  to */\n      dup2\n        /* \"WTFPractice/ERC721/ERC721.sol\":4167:4174  _owners */\n      0x02\n        /* \"WTFPractice/ERC721/ERC721.sol\":4167:4183  _owners[tokenId] */\n      0x00\n        /* \"WTFPractice/ERC721/ERC721.sol\":4175:4182  tokenId */\n      dup4\n        /* \"WTFPractice/ERC721/ERC721.sol\":4167:4183  _owners[tokenId] */\n      dup2\n      mstore\n      0x20\n      add\n      swap1\n      dup2\n      mstore\n      0x20\n      add\n      0x00\n      keccak256\n      0x00\n        /* \"WTFPractice/ERC721/ERC721.sol\":4167:4188  _owners[tokenId] = to */\n      0x0100\n      exp\n      dup2\n      sload\n      dup2\n      0xffffffffffffffffffffffffffffffffffffffff\n      mul\n      not\n      and\n      swap1\n      dup4\n      0xffffffffffffffffffffffffffffffffffffffff\n      and\n      mul\n      or\n      swap1\n      sstore\n      pop\n        /* \"WTFPractice/ERC721/ERC721.sol\":4223:4230  tokenId */\n      dup1\n        /* \"WTFPractice/ERC721/ERC721.sol\":4219:4221  to */\n      dup3\n        /* \"WTFPractice/ERC721/ERC721.sol\":4204:4231  Transfer(from, to, tokenId) */\n      0xffffffffffffffffffffffffffffffffffffffff\n      and\n        /* \"WTFPractice/ERC721/ERC721.sol\":4213:4217  from */\n      dup5\n        /* \"WTFPractice/ERC721/ERC721.sol\":4204:4231  Transfer(from, to, tokenId) */\n      0xffffffffffffffffffffffffffffffffffffffff\n      and\n      0xddf252ad1be2c89b69c2b068fc378daa952ba7f163c4a11628f55a4df523b3ef\n      mload(0x40)\n      mload(0x40)\n      dup1\n      swap2\n      sub\n      swap1\n      log4\n        /* \"WTFPractice/ERC721/ERC721.sol\":3859:4238  function _transfer(address owner, address from, address to, uint tokenId) private {... */\n      pop\n      pop\n      pop\n      pop\n      jump\t// out\n        /* \"WTFPractice/ERC721/ERC721.sol\":6074:6383  function _mint(address to, uint tokenId) internal virtual {... */\n    tag_119:\n        /* \"WTFPractice/ERC721/ERC721.sol\":6165:6166  0 */\n      0x00\n        /* \"WTFPractice/ERC721/ERC721.sol\":6151:6167  to != address(0) */\n      0xffffffffffffffffffffffffffffffffffffffff\n      and\n        /* \"WTFPractice/ERC721/ERC721.sol\":6151:6153  to */\n      dup3\n        /* \"WTFPractice/ERC721/ERC721.sol\":6151:6167  to != address(0) */\n      0xffffffffffffffffffffffffffffffffffffffff\n      and\n      sub\n        /* \"WTFPractice/ERC721/ERC721.sol\":6142:6193  require( to != address(0), \"mint to zero address!\") */\n      tag_173\n      jumpi\n      mload(0x40)\n      0x08c379a000000000000000000000000000000000000000000000000000000000\n      dup2\n      mstore\n      0x04\n      add\n      tag_174\n      swap1\n      tag_175\n      jump\t// in\n    tag_174:\n      mload(0x40)\n      dup1\n      swap2\n      sub\n      swap1\n      revert\n    tag_173:\n        /* \"WTFPractice/ERC721/ERC721.sol\":6240:6241  0 */\n      0x00\n        /* \"WTFPractice/ERC721/ERC721.sol\":6212:6242  _owners[tokenId] == address(0) */\n      0xffffffffffffffffffffffffffffffffffffffff\n      and\n        /* \"WTFPractice/ERC721/ERC721.sol\":6212:6219  _owners */\n      0x02\n        /* \"WTFPractice/ERC721/ERC721.sol\":6212:6228  _owners[tokenId] */\n      0x00\n        /* \"WTFPractice/ERC721/ERC721.sol\":6220:6227  tokenId */\n      dup4\n        /* \"WTFPractice/ERC721/ERC721.sol\":6212:6228  _owners[tokenId] */\n      dup2\n      mstore\n      0x20\n      add\n      swap1\n      dup2\n      mstore\n      0x20\n      add\n      0x00\n      keccak256\n      0x00\n      swap1\n      sload\n      swap1\n      0x0100\n      exp\n      swap1\n      div\n      0xffffffffffffffffffffffffffffffffffffffff\n      and\n        /* \"WTFPractice/ERC721/ERC721.sol\":6212:6242  _owners[tokenId] == address(0) */\n      0xffffffffffffffffffffffffffffffffffffffff\n      and\n      eq\n        /* \"WTFPractice/ERC721/ERC721.sol\":6203:6267  require( _owners[tokenId] == address(0), \"token already minted\") */\n      tag_176\n      jumpi\n      mload(0x40)\n      0x08c379a000000000000000000000000000000000000000000000000000000000\n      dup2\n      mstore\n      0x04\n      add\n      tag_177\n      swap1\n      tag_178\n      jump\t// in\n    tag_177:\n      mload(0x40)\n      dup1\n      swap2\n      sub\n      swap1\n      revert\n    tag_176:\n        /* \"WTFPractice/ERC721/ERC721.sol\":6295:6296  1 */\n      0x01\n        /* \"WTFPractice/ERC721/ERC721.sol\":6278:6287  _balances */\n      0x03\n        /* \"WTFPractice/ERC721/ERC721.sol\":6278:6291  _balances[to] */\n      0x00\n        /* \"WTFPractice/ERC721/ERC721.sol\":6288:6290  to */\n      dup5\n        /* \"WTFPractice/ERC721/ERC721.sol\":6278:6291  _balances[to] */\n      0xffffffffffffffffffffffffffffffffffffffff\n      and\n      0xffffffffffffffffffffffffffffffffffffffff\n      and\n      dup2\n      mstore\n      0x20\n      add\n      swap1\n      dup2\n      mstore\n      0x20\n      add\n      0x00\n      keccak256\n      0x00\n        /* \"WTFPractice/ERC721/ERC721.sol\":6278:6296  _balances[to] += 1 */\n      dup3\n      dup3\n      sload\n      tag_179\n      swap2\n      swap1\n      tag_169\n      jump\t// in\n    tag_179:\n      swap3\n      pop\n      pop\n      dup2\n      swap1\n      sstore\n      pop\n        /* \"WTFPractice/ERC721/ERC721.sol\":6325:6327  to */\n      dup2\n        /* \"WTFPractice/ERC721/ERC721.sol\":6306:6313  _owners */\n      0x02\n        /* \"WTFPractice/ERC721/ERC721.sol\":6306:6322  _owners[tokenId] */\n      0x00\n        /* \"WTFPractice/ERC721/ERC721.sol\":6314:6321  tokenId */\n      dup4\n        /* \"WTFPractice/ERC721/ERC721.sol\":6306:6322  _owners[tokenId] */\n      dup2\n      mstore\n      0x20\n      add\n      swap1\n      dup2\n      mstore\n      0x20\n      add\n      0x00\n      keccak256\n      0x00\n        /* \"WTFPractice/ERC721/ERC721.sol\":6306:6327  _owners[tokenId] = to */\n      0x0100\n      exp\n      dup2\n      sload\n      dup2\n      0xffffffffffffffffffffffffffffffffffffffff\n      mul\n      not\n      and\n      swap1\n      dup4\n      0xffffffffffffffffffffffffffffffffffffffff\n      and\n      mul\n      or\n      swap1\n      sstore\n      pop\n        /* \"WTFPractice/ERC721/ERC721.sol\":6368:6375  tokenId */\n      dup1\n        /* \"WTFPractice/ERC721/ERC721.sol\":6364:6366  to */\n      dup3\n        /* \"WTFPractice/ERC721/ERC721.sol\":6343:6376  Transfer(address(0), to, tokenId) */\n      0xffffffffffffffffffffffffffffffffffffffff\n      and\n        /* \"WTFPractice/ERC721/ERC721.sol\":6360:6361  0 */\n      0x00\n        /* \"WTFPractice/ERC721/ERC721.sol\":6343:6376  Transfer(address(0), to, tokenId) */\n      0xffffffffffffffffffffffffffffffffffffffff\n      and\n      0xddf252ad1be2c89b69c2b068fc378daa952ba7f163c4a11628f55a4df523b3ef\n      mload(0x40)\n      mload(0x40)\n      dup1\n      swap2\n      sub\n      swap1\n      log4\n        /* \"WTFPractice/ERC721/ERC721.sol\":6074:6383  function _mint(address to, uint tokenId) internal virtual {... */\n      pop\n      pop\n      jump\t// out\n        /* \"WTFPractice/ERC721/ERC721.sol\":4975:5226  function _safeTransfer(address owner, address from, address to, uint tokenId, bytes memory _data) private {... */\n    tag_142:\n        /* \"WTFPractice/ERC721/ERC721.sol\":5109:5157  _checkOnERC721Received(from, to, tokenId, _data) */\n      tag_181\n        /* \"WTFPractice/ERC721/ERC721.sol\":5132:5136  from */\n      dup5\n        /* \"WTFPractice/ERC721/ERC721.sol\":5138:5140  to */\n      dup5\n        /* \"WTFPractice/ERC721/ERC721.sol\":5142:5149  tokenId */\n      dup5\n        /* \"WTFPractice/ERC721/ERC721.sol\":5151:5156  _data */\n      dup5\n        /* \"WTFPractice/ERC721/ERC721.sol\":5109:5131  _checkOnERC721Received */\n      tag_182\n        /* \"WTFPractice/ERC721/ERC721.sol\":5109:5157  _checkOnERC721Received(from, to, tokenId, _data) */\n      jump\t// in\n    tag_181:\n        /* \"WTFPractice/ERC721/ERC721.sol\":5100:5175  require( _checkOnERC721Received(from, to, tokenId, _data),  \"not Receiver\") */\n      tag_183\n      jumpi\n      mload(0x40)\n      0x08c379a000000000000000000000000000000000000000000000000000000000\n      dup2\n      mstore\n      0x04\n      add\n      tag_184\n      swap1\n      tag_185\n      jump\t// in\n    tag_184:\n      mload(0x40)\n      dup1\n      swap2\n      sub\n      swap1\n      revert\n    tag_183:\n        /* \"WTFPractice/ERC721/ERC721.sol\":5184:5219  _transfer(owner, from, to, tokenId) */\n      tag_186\n        /* \"WTFPractice/ERC721/ERC721.sol\":5194:5199  owner */\n      dup6\n        /* \"WTFPractice/ERC721/ERC721.sol\":5201:5205  from */\n      dup6\n        /* \"WTFPractice/ERC721/ERC721.sol\":5207:5209  to */\n      dup6\n        /* \"WTFPractice/ERC721/ERC721.sol\":5211:5218  tokenId */\n      dup6\n        /* \"WTFPractice/ERC721/ERC721.sol\":5184:5193  _transfer */\n      tag_112\n        /* \"WTFPractice/ERC721/ERC721.sol\":5184:5219  _transfer(owner, from, to, tokenId) */\n      jump\t// in\n    tag_186:\n        /* \"WTFPractice/ERC721/ERC721.sol\":4975:5226  function _safeTransfer(address owner, address from, address to, uint tokenId, bytes memory _data) private {... */\n      pop\n      pop\n      pop\n      pop\n      pop\n      jump\t// out\n        /* \"WTFPractice/ERC721/WTFApe.sol\":234:380  function _baseURI() internal pure override returns(string memory) {... */\n    tag_148:\n        /* \"WTFPractice/ERC721/WTFApe.sol\":285:298  string memory */\n      0x60\n        /* \"WTFPractice/ERC721/WTFApe.sol\":310:373  return \"ipfs://QmeSjSinHpPnmXmspMjwiXyN6zS4E9zccariGR3jxcaWtq/\" */\n      mload(0x40)\n      dup1\n      0x60\n      add\n      0x40\n      mstore\n      dup1\n      0x36\n      dup2\n      mstore\n      0x20\n      add\n      data_8382b382247cd07401a2ef2f394137c3f3b0972798bae0a9c78b0c261acbb56b\n      0x36\n      swap2\n      codecopy\n      swap1\n      pop\n        /* \"WTFPractice/ERC721/WTFApe.sol\":234:380  function _baseURI() internal pure override returns(string memory) {... */\n      swap1\n      jump\t// out\n        /* \"WTFPractice/ERC721/String.sol\":392:1095  function toString(uint256 value) internal pure returns (string memory) {... */\n    tag_152:\n        /* \"WTFPractice/ERC721/String.sol\":448:461  string memory */\n      0x60\n        /* \"WTFPractice/ERC721/String.sol\":674:675  0 */\n      0x00\n        /* \"WTFPractice/ERC721/String.sol\":665:670  value */\n      dup3\n        /* \"WTFPractice/ERC721/String.sol\":665:675  value == 0 */\n      sub\n        /* \"WTFPractice/ERC721/String.sol\":661:712  if (value == 0) {... */\n      tag_189\n      jumpi\n        /* \"WTFPractice/ERC721/String.sol\":691:701  return \"0\" */\n      mload(0x40)\n      dup1\n      0x40\n      add\n      0x40\n      mstore\n      dup1\n      0x01\n      dup2\n      mstore\n      0x20\n      add\n      0x3000000000000000000000000000000000000000000000000000000000000000\n      dup2\n      mstore\n      pop\n      swap1\n      pop\n      jump(tag_188)\n        /* \"WTFPractice/ERC721/String.sol\":661:712  if (value == 0) {... */\n    tag_189:\n        /* \"WTFPractice/ERC721/String.sol\":721:733  uint256 temp */\n      0x00\n        /* \"WTFPractice/ERC721/String.sol\":736:741  value */\n      dup3\n        /* \"WTFPractice/ERC721/String.sol\":721:741  uint256 temp = value */\n      swap1\n      pop\n        /* \"WTFPractice/ERC721/String.sol\":751:765  uint256 digits */\n      0x00\n        /* \"WTFPractice/ERC721/String.sol\":775:850  while (temp != 0) {... */\n    tag_190:\n        /* \"WTFPractice/ERC721/String.sol\":790:791  0 */\n      0x00\n        /* \"WTFPractice/ERC721/String.sol\":782:786  temp */\n      dup3\n        /* \"WTFPractice/ERC721/String.sol\":782:791  temp != 0 */\n      eq\n        /* \"WTFPractice/ERC721/String.sol\":775:850  while (temp != 0) {... */\n      tag_191\n      jumpi\n        /* \"WTFPractice/ERC721/String.sol\":807:815  digits++ */\n      dup1\n      dup1\n      tag_192\n      swap1\n      tag_193\n      jump\t// in\n    tag_192:\n      swap2\n      pop\n      pop\n        /* \"WTFPractice/ERC721/String.sol\":837:839  10 */\n      0x0a\n        /* \"WTFPractice/ERC721/String.sol\":829:839  temp /= 10 */\n      dup3\n      tag_194\n      swap2\n      swap1\n      tag_195\n      jump\t// in\n    tag_194:\n      swap2\n      pop\n        /* \"WTFPractice/ERC721/String.sol\":775:850  while (temp != 0) {... */\n      jump(tag_190)\n    tag_191:\n        /* \"WTFPractice/ERC721/String.sol\":859:878  bytes memory buffer */\n      0x00\n        /* \"WTFPractice/ERC721/String.sol\":891:897  digits */\n      dup2\n        /* \"WTFPractice/ERC721/String.sol\":881:898  new bytes(digits) */\n      0xffffffffffffffff\n      dup2\n      gt\n      iszero\n      tag_196\n      jumpi\n      tag_197\n      tag_198\n      jump\t// in\n    tag_197:\n    tag_196:\n      mload(0x40)\n      swap1\n      dup1\n      dup3\n      mstore\n      dup1\n      0x1f\n      add\n      not(0x1f)\n      and\n      0x20\n      add\n      dup3\n      add\n      0x40\n      mstore\n      dup1\n      iszero\n      tag_199\n      jumpi\n      dup2\n      0x20\n      add\n      0x01\n      dup3\n      mul\n      dup1\n      calldatasize\n      dup4\n      calldatacopy\n      dup1\n      dup3\n      add\n      swap2\n      pop\n      pop\n      swap1\n      pop\n    tag_199:\n      pop\n        /* \"WTFPractice/ERC721/String.sol\":859:898  bytes memory buffer = new bytes(digits) */\n      swap1\n      pop\n        /* \"WTFPractice/ERC721/String.sol\":908:1058  while (value != 0) {... */\n    tag_200:\n        /* \"WTFPractice/ERC721/String.sol\":924:925  0 */\n      0x00\n        /* \"WTFPractice/ERC721/String.sol\":915:920  value */\n      dup6\n        /* \"WTFPractice/ERC721/String.sol\":915:925  value != 0 */\n      eq\n        /* \"WTFPractice/ERC721/String.sol\":908:1058  while (value != 0) {... */\n      tag_201\n      jumpi\n        /* \"WTFPractice/ERC721/String.sol\":951:952  1 */\n      0x01\n        /* \"WTFPractice/ERC721/String.sol\":941:952  digits -= 1 */\n      dup3\n      tag_202\n      swap2\n      swap1\n      tag_171\n      jump\t// in\n    tag_202:\n      swap2\n      pop\n        /* \"WTFPractice/ERC721/String.sol\":1017:1019  10 */\n      0x0a\n        /* \"WTFPractice/ERC721/String.sol\":1009:1014  value */\n      dup6\n        /* \"WTFPractice/ERC721/String.sol\":1009:1019  value % 10 */\n      tag_203\n      swap2\n      swap1\n      tag_204\n      jump\t// in\n    tag_203:\n        /* \"WTFPractice/ERC721/String.sol\":996:998  48 */\n      0x30\n        /* \"WTFPractice/ERC721/String.sol\":996:1020  48 + uint256(value % 10) */\n      tag_205\n      swap2\n      swap1\n      tag_169\n      jump\t// in\n    tag_205:\n        /* \"WTFPractice/ERC721/String.sol\":983:1022  bytes1(uint8(48 + uint256(value % 10))) */\n      0xf8\n      shl\n        /* \"WTFPractice/ERC721/String.sol\":966:972  buffer */\n      dup2\n        /* \"WTFPractice/ERC721/String.sol\":973:979  digits */\n      dup4\n        /* \"WTFPractice/ERC721/String.sol\":966:980  buffer[digits] */\n      dup2\n      mload\n      dup2\n      lt\n      tag_206\n      jumpi\n      tag_207\n      tag_208\n      jump\t// in\n    tag_207:\n    tag_206:\n      0x20\n      add\n      add\n        /* \"WTFPractice/ERC721/String.sol\":966:1022  buffer[digits] = bytes1(uint8(48 + uint256(value % 10))) */\n      swap1\n      not(0xffffffffffffffffffffffffffffffffffffffffffffffffffffffffffffff)\n      and\n      swap1\n      dup2\n      0x00\n      byte\n      swap1\n      mstore8\n      pop\n        /* \"WTFPractice/ERC721/String.sol\":1045:1047  10 */\n      0x0a\n        /* \"WTFPractice/ERC721/String.sol\":1036:1047  value /= 10 */\n      dup6\n      tag_209\n      swap2\n      swap1\n      tag_195\n      jump\t// in\n    tag_209:\n      swap5\n      pop\n        /* \"WTFPractice/ERC721/String.sol\":908:1058  while (value != 0) {... */\n      jump(tag_200)\n    tag_201:\n        /* \"WTFPractice/ERC721/String.sol\":1081:1087  buffer */\n      dup1\n        /* \"WTFPractice/ERC721/String.sol\":1067:1088  return string(buffer) */\n      swap4\n      pop\n      pop\n      pop\n      pop\n        /* \"WTFPractice/ERC721/String.sol\":392:1095  function toString(uint256 value) internal pure returns (string memory) {... */\n    tag_188:\n      swap2\n      swap1\n      pop\n      jump\t// out\n        /* \"WTFPractice/ERC721/ERC721.sol\":6992:7330  function _checkOnERC721Received(address from, address to, uint tokenId, bytes memory _data) private returns (bool) {... */\n    tag_182:\n        /* \"WTFPractice/ERC721/ERC721.sol\":7101:7105  bool */\n      0x00\n        /* \"WTFPractice/ERC721/ERC721.sol\":7121:7136  to.isContract() */\n      tag_211\n        /* \"WTFPractice/ERC721/ERC721.sol\":7121:7123  to */\n      dup5\n        /* \"WTFPractice/ERC721/ERC721.sol\":7121:7134  to.isContract */\n      0xffffffffffffffffffffffffffffffffffffffff\n      and\n      tag_212\n        /* \"WTFPractice/ERC721/ERC721.sol\":7121:7136  to.isContract() */\n      jump\t// in\n    tag_211:\n        /* \"WTFPractice/ERC721/ERC721.sol\":7117:7324  if (to.isContract()) {... */\n      iszero\n      tag_213\n      jumpi\n        /* \"WTFPractice/ERC721/ERC721.sol\":7230:7271  IERC721Receiver.onERC721Received.selector */\n      shl(0xe0, 0x150b7a02)\n        /* \"WTFPractice/ERC721/ERC721.sol\":7159:7271  IERC721Receiver(to).onERC721Received(msg.sender,from,tokenId,_data) == IERC721Receiver.onERC721Received.selector */\n      not(0xffffffffffffffffffffffffffffffffffffffffffffffffffffffff)\n      and\n        /* \"WTFPractice/ERC721/ERC721.sol\":7175:7177  to */\n      dup5\n        /* \"WTFPractice/ERC721/ERC721.sol\":7159:7195  IERC721Receiver(to).onERC721Received */\n      0xffffffffffffffffffffffffffffffffffffffff\n      and\n      0x150b7a02\n        /* \"WTFPractice/ERC721/ERC721.sol\":7196:7206  msg.sender */\n      caller\n        /* \"WTFPractice/ERC721/ERC721.sol\":7207:7211  from */\n      dup9\n        /* \"WTFPractice/ERC721/ERC721.sol\":7212:7219  tokenId */\n      dup8\n        /* \"WTFPractice/ERC721/ERC721.sol\":7220:7225  _data */\n      dup8\n        /* \"WTFPractice/ERC721/ERC721.sol\":7159:7226  IERC721Receiver(to).onERC721Received(msg.sender,from,tokenId,_data) */\n      mload(0x40)\n      dup6\n      0xffffffff\n      and\n      0xe0\n      shl\n      dup2\n      mstore\n      0x04\n      add\n      tag_214\n      swap5\n      swap4\n      swap3\n      swap2\n      swap1\n      tag_215\n      jump\t// in\n    tag_214:\n      0x20\n      mload(0x40)\n      dup1\n      dup4\n      sub\n      dup2\n      0x00\n      dup8\n      gas\n      call\n      iszero\n      dup1\n      iszero\n      tag_217\n      jumpi\n      returndatasize\n      0x00\n      dup1\n      returndatacopy\n      revert(0x00, returndatasize)\n    tag_217:\n      pop\n      pop\n      pop\n      pop\n      mload(0x40)\n      returndatasize\n      not(0x1f)\n      0x1f\n      dup3\n      add\n      and\n      dup3\n      add\n      dup1\n      0x40\n      mstore\n      pop\n      dup2\n      add\n      swap1\n      tag_218\n      swap2\n      swap1\n      tag_219\n      jump\t// in\n    tag_218:\n        /* \"WTFPractice/ERC721/ERC721.sol\":7159:7271  IERC721Receiver(to).onERC721Received(msg.sender,from,tokenId,_data) == IERC721Receiver.onERC721Received.selector */\n      not(0xffffffffffffffffffffffffffffffffffffffffffffffffffffffff)\n      and\n      eq\n        /* \"WTFPractice/ERC721/ERC721.sol\":7152:7271  return IERC721Receiver(to).onERC721Received(msg.sender,from,tokenId,_data) == IERC721Receiver.onERC721Received.selector */\n      swap1\n      pop\n      jump(tag_210)\n        /* \"WTFPractice/ERC721/ERC721.sol\":7117:7324  if (to.isContract()) {... */\n    tag_213:\n        /* \"WTFPractice/ERC721/ERC721.sol\":7309:7313  true */\n      0x01\n        /* \"WTFPractice/ERC721/ERC721.sol\":7302:7313  return true */\n      swap1\n      pop\n        /* \"WTFPractice/ERC721/ERC721.sol\":6992:7330  function _checkOnERC721Received(address from, address to, uint tokenId, bytes memory _data) private returns (bool) {... */\n    tag_210:\n      swap5\n      swap4\n      pop\n      pop\n      pop\n      pop\n      jump\t// out\n        /* \"WTFPractice/ERC721/Address.sol\":157:344  function isContract(address account) internal view returns (bool) {... */\n    tag_212:\n        /* \"WTFPractice/ERC721/Address.sol\":217:221  bool */\n      0x00\n        /* \"WTFPractice/ERC721/Address.sol\":233:242  uint size */\n      dup1\n        /* \"WTFPractice/ERC721/Address.sol\":295:302  account */\n      dup3\n        /* \"WTFPractice/ERC721/Address.sol\":283:303  extcodesize(account) */\n      extcodesize\n        /* \"WTFPractice/ERC721/Address.sol\":275:303  size := extcodesize(account) */\n      swap1\n      pop\n        /* \"WTFPractice/ERC721/Address.sol\":336:337  0 */\n      0x00\n        /* \"WTFPractice/ERC721/Address.sol\":329:333  size */\n      dup2\n        /* \"WTFPractice/ERC721/Address.sol\":329:337  size > 0 */\n      gt\n        /* \"WTFPractice/ERC721/Address.sol\":322:337  return size > 0 */\n      swap2\n      pop\n      pop\n        /* \"WTFPractice/ERC721/Address.sol\":157:344  function isContract(address account) internal view returns (bool) {... */\n      swap2\n      swap1\n      pop\n      jump\t// out\n        /* \"#utility.yul\":7:82   */\n    tag_222:\n        /* \"#utility.yul\":40:46   */\n      0x00\n        /* \"#utility.yul\":73:75   */\n      0x40\n        /* \"#utility.yul\":67:76   */\n      mload\n        /* \"#utility.yul\":57:76   */\n      swap1\n      pop\n        /* \"#utility.yul\":7:82   */\n      swap1\n      jump\t// out\n        /* \"#utility.yul\":88:205   */\n    tag_223:\n        /* \"#utility.yul\":197:198   */\n      0x00\n        /* \"#utility.yul\":194:195   */\n      dup1\n        /* \"#utility.yul\":187:199   */\n      revert\n        /* \"#utility.yul\":211:328   */\n    tag_224:\n        /* \"#utility.yul\":320:321   */\n      0x00\n        /* \"#utility.yul\":317:318   */\n      dup1\n        /* \"#utility.yul\":310:322   */\n      revert\n        /* \"#utility.yul\":334:483   */\n    tag_225:\n        /* \"#utility.yul\":370:377   */\n      0x00\n        /* \"#utility.yul\":410:476   */\n      0xffffffff00000000000000000000000000000000000000000000000000000000\n        /* \"#utility.yul\":403:408   */\n      dup3\n        /* \"#utility.yul\":399:477   */\n      and\n        /* \"#utility.yul\":388:477   */\n      swap1\n      pop\n        /* \"#utility.yul\":334:483   */\n      swap2\n      swap1\n      pop\n      jump\t// out\n        /* \"#utility.yul\":489:609   */\n    tag_226:\n        /* \"#utility.yul\":561:584   */\n      tag_291\n        /* \"#utility.yul\":578:583   */\n      dup2\n        /* \"#utility.yul\":561:584   */\n      tag_225\n      jump\t// in\n    tag_291:\n        /* \"#utility.yul\":554:559   */\n      dup2\n        /* \"#utility.yul\":551:585   */\n      eq\n        /* \"#utility.yul\":541:603   */\n      tag_292\n      jumpi\n        /* \"#utility.yul\":599:600   */\n      0x00\n        /* \"#utility.yul\":596:597   */\n      dup1\n        /* \"#utility.yul\":589:601   */\n      revert\n        /* \"#utility.yul\":541:603   */\n    tag_292:\n        /* \"#utility.yul\":489:609   */\n      pop\n      jump\t// out\n        /* \"#utility.yul\":615:752   */\n    tag_227:\n        /* \"#utility.yul\":660:665   */\n      0x00\n        /* \"#utility.yul\":698:704   */\n      dup2\n        /* \"#utility.yul\":685:705   */\n      calldataload\n        /* \"#utility.yul\":676:705   */\n      swap1\n      pop\n        /* \"#utility.yul\":714:746   */\n      tag_294\n        /* \"#utility.yul\":740:745   */\n      dup2\n        /* \"#utility.yul\":714:746   */\n      tag_226\n      jump\t// in\n    tag_294:\n        /* \"#utility.yul\":615:752   */\n      swap3\n      swap2\n      pop\n      pop\n      jump\t// out\n        /* \"#utility.yul\":758:1085   */\n    tag_23:\n        /* \"#utility.yul\":816:822   */\n      0x00\n        /* \"#utility.yul\":865:867   */\n      0x20\n        /* \"#utility.yul\":853:862   */\n      dup3\n        /* \"#utility.yul\":844:851   */\n      dup5\n        /* \"#utility.yul\":840:863   */\n      sub\n        /* \"#utility.yul\":836:868   */\n      slt\n        /* \"#utility.yul\":833:952   */\n      iszero\n      tag_296\n      jumpi\n        /* \"#utility.yul\":871:950   */\n      tag_297\n      tag_223\n      jump\t// in\n    tag_297:\n        /* \"#utility.yul\":833:952   */\n    tag_296:\n        /* \"#utility.yul\":991:992   */\n      0x00\n        /* \"#utility.yul\":1016:1068   */\n      tag_298\n        /* \"#utility.yul\":1060:1067   */\n      dup5\n        /* \"#utility.yul\":1051:1057   */\n      dup3\n        /* \"#utility.yul\":1040:1049   */\n      dup6\n        /* \"#utility.yul\":1036:1058   */\n      add\n        /* \"#utility.yul\":1016:1068   */\n      tag_227\n      jump\t// in\n    tag_298:\n        /* \"#utility.yul\":1006:1068   */\n      swap2\n      pop\n        /* \"#utility.yul\":962:1078   */\n      pop\n        /* \"#utility.yul\":758:1085   */\n      swap3\n      swap2\n      pop\n      pop\n      jump\t// out\n        /* \"#utility.yul\":1091:1181   */\n    tag_228:\n        /* \"#utility.yul\":1125:1132   */\n      0x00\n        /* \"#utility.yul\":1168:1173   */\n      dup2\n        /* \"#utility.yul\":1161:1174   */\n      iszero\n        /* \"#utility.yul\":1154:1175   */\n      iszero\n        /* \"#utility.yul\":1143:1175   */\n      swap1\n      pop\n        /* \"#utility.yul\":1091:1181   */\n      swap2\n      swap1\n      pop\n      jump\t// out\n        /* \"#utility.yul\":1187:1296   */\n    tag_229:\n        /* \"#utility.yul\":1268:1289   */\n      tag_301\n        /* \"#utility.yul\":1283:1288   */\n      dup2\n        /* \"#utility.yul\":1268:1289   */\n      tag_228\n      jump\t// in\n    tag_301:\n        /* \"#utility.yul\":1263:1266   */\n      dup3\n        /* \"#utility.yul\":1256:1290   */\n      mstore\n        /* \"#utility.yul\":1187:1296   */\n      pop\n      pop\n      jump\t// out\n        /* \"#utility.yul\":1302:1512   */\n    tag_26:\n        /* \"#utility.yul\":1389:1393   */\n      0x00\n        /* \"#utility.yul\":1427:1429   */\n      0x20\n        /* \"#utility.yul\":1416:1425   */\n      dup3\n        /* \"#utility.yul\":1412:1430   */\n      add\n        /* \"#utility.yul\":1404:1430   */\n      swap1\n      pop\n        /* \"#utility.yul\":1440:1505   */\n      tag_303\n        /* \"#utility.yul\":1502:1503   */\n      0x00\n        /* \"#utility.yul\":1491:1500   */\n      dup4\n        /* \"#utility.yul\":1487:1504   */\n      add\n        /* \"#utility.yul\":1478:1484   */\n      dup5\n        /* \"#utility.yul\":1440:1505   */\n      tag_229\n      jump\t// in\n    tag_303:\n        /* \"#utility.yul\":1302:1512   */\n      swap3\n      swap2\n      pop\n      pop\n      jump\t// out\n        /* \"#utility.yul\":1518:1617   */\n    tag_230:\n        /* \"#utility.yul\":1570:1576   */\n      0x00\n        /* \"#utility.yul\":1604:1609   */\n      dup2\n        /* \"#utility.yul\":1598:1610   */\n      mload\n        /* \"#utility.yul\":1588:1610   */\n      swap1\n      pop\n        /* \"#utility.yul\":1518:1617   */\n      swap2\n      swap1\n      pop\n      jump\t// out\n        /* \"#utility.yul\":1623:1792   */\n    tag_231:\n        /* \"#utility.yul\":1707:1718   */\n      0x00\n        /* \"#utility.yul\":1741:1747   */\n      dup3\n        /* \"#utility.yul\":1736:1739   */\n      dup3\n        /* \"#utility.yul\":1729:1748   */\n      mstore\n        /* \"#utility.yul\":1781:1785   */\n      0x20\n        /* \"#utility.yul\":1776:1779   */\n      dup3\n        /* \"#utility.yul\":1772:1786   */\n      add\n        /* \"#utility.yul\":1757:1786   */\n      swap1\n      pop\n        /* \"#utility.yul\":1623:1792   */\n      swap3\n      swap2\n      pop\n      pop\n      jump\t// out\n        /* \"#utility.yul\":1798:2044   */\n    tag_232:\n        /* \"#utility.yul\":1879:1880   */\n      0x00\n        /* \"#utility.yul\":1889:2002   */\n    tag_307:\n        /* \"#utility.yul\":1903:1909   */\n      dup4\n        /* \"#utility.yul\":1900:1901   */\n      dup2\n        /* \"#utility.yul\":1897:1910   */\n      lt\n        /* \"#utility.yul\":1889:2002   */\n      iszero\n      tag_309\n      jumpi\n        /* \"#utility.yul\":1988:1989   */\n      dup1\n        /* \"#utility.yul\":1983:1986   */\n      dup3\n        /* \"#utility.yul\":1979:1990   */\n      add\n        /* \"#utility.yul\":1973:1991   */\n      mload\n        /* \"#utility.yul\":1969:1970   */\n      dup2\n        /* \"#utility.yul\":1964:1967   */\n      dup5\n        /* \"#utility.yul\":1960:1971   */\n      add\n        /* \"#utility.yul\":1953:1992   */\n      mstore\n        /* \"#utility.yul\":1925:1927   */\n      0x20\n        /* \"#utility.yul\":1922:1923   */\n      dup2\n        /* \"#utility.yul\":1918:1928   */\n      add\n        /* \"#utility.yul\":1913:1928   */\n      swap1\n      pop\n        /* \"#utility.yul\":1889:2002   */\n      jump(tag_307)\n    tag_309:\n        /* \"#utility.yul\":2036:2037   */\n      0x00\n        /* \"#utility.yul\":2027:2033   */\n      dup5\n        /* \"#utility.yul\":2022:2025   */\n      dup5\n        /* \"#utility.yul\":2018:2034   */\n      add\n        /* \"#utility.yul\":2011:2038   */\n      mstore\n        /* \"#utility.yul\":1860:2044   */\n      pop\n        /* \"#utility.yul\":1798:2044   */\n      pop\n      pop\n      pop\n      jump\t// out\n        /* \"#utility.yul\":2050:2152   */\n    tag_233:\n        /* \"#utility.yul\":2091:2097   */\n      0x00\n        /* \"#utility.yul\":2142:2144   */\n      0x1f\n        /* \"#utility.yul\":2138:2145   */\n      not\n        /* \"#utility.yul\":2133:2135   */\n      0x1f\n        /* \"#utility.yul\":2126:2131   */\n      dup4\n        /* \"#utility.yul\":2122:2136   */\n      add\n        /* \"#utility.yul\":2118:2146   */\n      and\n        /* \"#utility.yul\":2108:2146   */\n      swap1\n      pop\n        /* \"#utility.yul\":2050:2152   */\n      swap2\n      swap1\n      pop\n      jump\t// out\n        /* \"#utility.yul\":2158:2535   */\n    tag_234:\n        /* \"#utility.yul\":2246:2249   */\n      0x00\n        /* \"#utility.yul\":2274:2313   */\n      tag_312\n        /* \"#utility.yul\":2307:2312   */\n      dup3\n        /* \"#utility.yul\":2274:2313   */\n      tag_230\n      jump\t// in\n    tag_312:\n        /* \"#utility.yul\":2329:2400   */\n      tag_313\n        /* \"#utility.yul\":2393:2399   */\n      dup2\n        /* \"#utility.yul\":2388:2391   */\n      dup6\n        /* \"#utility.yul\":2329:2400   */\n      tag_231\n      jump\t// in\n    tag_313:\n        /* \"#utility.yul\":2322:2400   */\n      swap4\n      pop\n        /* \"#utility.yul\":2409:2474   */\n      tag_314\n        /* \"#utility.yul\":2467:2473   */\n      dup2\n        /* \"#utility.yul\":2462:2465   */\n      dup6\n        /* \"#utility.yul\":2455:2459   */\n      0x20\n        /* \"#utility.yul\":2448:2453   */\n      dup7\n        /* \"#utility.yul\":2444:2460   */\n      add\n        /* \"#utility.yul\":2409:2474   */\n      tag_232\n      jump\t// in\n    tag_314:\n        /* \"#utility.yul\":2499:2528   */\n      tag_315\n        /* \"#utility.yul\":2521:2527   */\n      dup2\n        /* \"#utility.yul\":2499:2528   */\n      tag_233\n      jump\t// in\n    tag_315:\n        /* \"#utility.yul\":2494:2497   */\n      dup5\n        /* \"#utility.yul\":2490:2529   */\n      add\n        /* \"#utility.yul\":2483:2529   */\n      swap2\n      pop\n        /* \"#utility.yul\":2250:2535   */\n      pop\n        /* \"#utility.yul\":2158:2535   */\n      swap3\n      swap2\n      pop\n      pop\n      jump\t// out\n        /* \"#utility.yul\":2541:2854   */\n    tag_30:\n        /* \"#utility.yul\":2654:2658   */\n      0x00\n        /* \"#utility.yul\":2692:2694   */\n      0x20\n        /* \"#utility.yul\":2681:2690   */\n      dup3\n        /* \"#utility.yul\":2677:2695   */\n      add\n        /* \"#utility.yul\":2669:2695   */\n      swap1\n      pop\n        /* \"#utility.yul\":2741:2750   */\n      dup2\n        /* \"#utility.yul\":2735:2739   */\n      dup2\n        /* \"#utility.yul\":2731:2751   */\n      sub\n        /* \"#utility.yul\":2727:2728   */\n      0x00\n        /* \"#utility.yul\":2716:2725   */\n      dup4\n        /* \"#utility.yul\":2712:2729   */\n      add\n        /* \"#utility.yul\":2705:2752   */\n      mstore\n        /* \"#utility.yul\":2769:2847   */\n      tag_317\n        /* \"#utility.yul\":2842:2846   */\n      dup2\n        /* \"#utility.yul\":2833:2839   */\n      dup5\n        /* \"#utility.yul\":2769:2847   */\n      tag_234\n      jump\t// in\n    tag_317:\n        /* \"#utility.yul\":2761:2847   */\n      swap1\n      pop\n        /* \"#utility.yul\":2541:2854   */\n      swap3\n      swap2\n      pop\n      pop\n      jump\t// out\n        /* \"#utility.yul\":2860:2937   */\n    tag_235:\n        /* \"#utility.yul\":2897:2904   */\n      0x00\n        /* \"#utility.yul\":2926:2931   */\n      dup2\n        /* \"#utility.yul\":2915:2931   */\n      swap1\n      pop\n        /* \"#utility.yul\":2860:2937   */\n      swap2\n      swap1\n      pop\n      jump\t// out\n        /* \"#utility.yul\":2943:3065   */\n    tag_236:\n        /* \"#utility.yul\":3016:3040   */\n      tag_320\n        /* \"#utility.yul\":3034:3039   */\n      dup2\n        /* \"#utility.yul\":3016:3040   */\n      tag_235\n      jump\t// in\n    tag_320:\n        /* \"#utility.yul\":3009:3014   */\n      dup2\n        /* \"#utility.yul\":3006:3041   */\n      eq\n        /* \"#utility.yul\":2996:3059   */\n      tag_321\n      jumpi\n        /* \"#utility.yul\":3055:3056   */\n      0x00\n        /* \"#utility.yul\":3052:3053   */\n      dup1\n        /* \"#utility.yul\":3045:3057   */\n      revert\n        /* \"#utility.yul\":2996:3059   */\n    tag_321:\n        /* \"#utility.yul\":2943:3065   */\n      pop\n      jump\t// out\n        /* \"#utility.yul\":3071:3210   */\n    tag_237:\n        /* \"#utility.yul\":3117:3122   */\n      0x00\n        /* \"#utility.yul\":3155:3161   */\n      dup2\n        /* \"#utility.yul\":3142:3162   */\n      calldataload\n        /* \"#utility.yul\":3133:3162   */\n      swap1\n      pop\n        /* \"#utility.yul\":3171:3204   */\n      tag_323\n        /* \"#utility.yul\":3198:3203   */\n      dup2\n        /* \"#utility.yul\":3171:3204   */\n      tag_236\n      jump\t// in\n    tag_323:\n        /* \"#utility.yul\":3071:3210   */\n      swap3\n      swap2\n      pop\n      pop\n      jump\t// out\n        /* \"#utility.yul\":3216:3545   */\n    tag_33:\n        /* \"#utility.yul\":3275:3281   */\n      0x00\n        /* \"#utility.yul\":3324:3326   */\n      0x20\n        /* \"#utility.yul\":3312:3321   */\n      dup3\n        /* \"#utility.yul\":3303:3310   */\n      dup5\n        /* \"#utility.yul\":3299:3322   */\n      sub\n        /* \"#utility.yul\":3295:3327   */\n      slt\n        /* \"#utility.yul\":3292:3411   */\n      iszero\n      tag_325\n      jumpi\n        /* \"#utility.yul\":3330:3409   */\n      tag_326\n      tag_223\n      jump\t// in\n    tag_326:\n        /* \"#utility.yul\":3292:3411   */\n    tag_325:\n        /* \"#utility.yul\":3450:3451   */\n      0x00\n        /* \"#utility.yul\":3475:3528   */\n      tag_327\n        /* \"#utility.yul\":3520:3527   */\n      dup5\n        /* \"#utility.yul\":3511:3517   */\n      dup3\n        /* \"#utility.yul\":3500:3509   */\n      dup6\n        /* \"#utility.yul\":3496:3518   */\n      add\n        /* \"#utility.yul\":3475:3528   */\n      tag_237\n      jump\t// in\n    tag_327:\n        /* \"#utility.yul\":3465:3528   */\n      swap2\n      pop\n        /* \"#utility.yul\":3421:3538   */\n      pop\n        /* \"#utility.yul\":3216:3545   */\n      swap3\n      swap2\n      pop\n      pop\n      jump\t// out\n        /* \"#utility.yul\":3551:3677   */\n    tag_238:\n        /* \"#utility.yul\":3588:3595   */\n      0x00\n        /* \"#utility.yul\":3628:3670   */\n      0xffffffffffffffffffffffffffffffffffffffff\n        /* \"#utility.yul\":3621:3626   */\n      dup3\n        /* \"#utility.yul\":3617:3671   */\n      and\n        /* \"#utility.yul\":3606:3671   */\n      swap1\n      pop\n        /* \"#utility.yul\":3551:3677   */\n      swap2\n      swap1\n      pop\n      jump\t// out\n        /* \"#utility.yul\":3683:3779   */\n    tag_239:\n        /* \"#utility.yul\":3720:3727   */\n      0x00\n        /* \"#utility.yul\":3749:3773   */\n      tag_330\n        /* \"#utility.yul\":3767:3772   */\n      dup3\n        /* \"#utility.yul\":3749:3773   */\n      tag_238\n      jump\t// in\n    tag_330:\n        /* \"#utility.yul\":3738:3773   */\n      swap1\n      pop\n        /* \"#utility.yul\":3683:3779   */\n      swap2\n      swap1\n      pop\n      jump\t// out\n        /* \"#utility.yul\":3785:3903   */\n    tag_240:\n        /* \"#utility.yul\":3872:3896   */\n      tag_332\n        /* \"#utility.yul\":3890:3895   */\n      dup2\n        /* \"#utility.yul\":3872:3896   */\n      tag_239\n      jump\t// in\n    tag_332:\n        /* \"#utility.yul\":3867:3870   */\n      dup3\n        /* \"#utility.yul\":3860:3897   */\n      mstore\n        /* \"#utility.yul\":3785:3903   */\n      pop\n      pop\n      jump\t// out\n        /* \"#utility.yul\":3909:4131   */\n    tag_36:\n        /* \"#utility.yul\":4002:4006   */\n      0x00\n        /* \"#utility.yul\":4040:4042   */\n      0x20\n        /* \"#utility.yul\":4029:4038   */\n      dup3\n        /* \"#utility.yul\":4025:4043   */\n      add\n        /* \"#utility.yul\":4017:4043   */\n      swap1\n      pop\n        /* \"#utility.yul\":4053:4124   */\n      tag_334\n        /* \"#utility.yul\":4121:4122   */\n      0x00\n        /* \"#utility.yul\":4110:4119   */\n      dup4\n        /* \"#utility.yul\":4106:4123   */\n      add\n        /* \"#utility.yul\":4097:4103   */\n      dup5\n        /* \"#utility.yul\":4053:4124   */\n      tag_240\n      jump\t// in\n    tag_334:\n        /* \"#utility.yul\":3909:4131   */\n      swap3\n      swap2\n      pop\n      pop\n      jump\t// out\n        /* \"#utility.yul\":4137:4259   */\n    tag_241:\n        /* \"#utility.yul\":4210:4234   */\n      tag_336\n        /* \"#utility.yul\":4228:4233   */\n      dup2\n        /* \"#utility.yul\":4210:4234   */\n      tag_239\n      jump\t// in\n    tag_336:\n        /* \"#utility.yul\":4203:4208   */\n      dup2\n        /* \"#utility.yul\":4200:4235   */\n      eq\n        /* \"#utility.yul\":4190:4253   */\n      tag_337\n      jumpi\n        /* \"#utility.yul\":4249:4250   */\n      0x00\n        /* \"#utility.yul\":4246:4247   */\n      dup1\n        /* \"#utility.yul\":4239:4251   */\n      revert\n        /* \"#utility.yul\":4190:4253   */\n    tag_337:\n        /* \"#utility.yul\":4137:4259   */\n      pop\n      jump\t// out\n        /* \"#utility.yul\":4265:4404   */\n    tag_242:\n        /* \"#utility.yul\":4311:4316   */\n      0x00\n        /* \"#utility.yul\":4349:4355   */\n      dup2\n        /* \"#utility.yul\":4336:4356   */\n      calldataload\n        /* \"#utility.yul\":4327:4356   */\n      swap1\n      pop\n        /* \"#utility.yul\":4365:4398   */\n      tag_339\n        /* \"#utility.yul\":4392:4397   */\n      dup2\n        /* \"#utility.yul\":4365:4398   */\n      tag_241\n      jump\t// in\n    tag_339:\n        /* \"#utility.yul\":4265:4404   */\n      swap3\n      swap2\n      pop\n      pop\n      jump\t// out\n        /* \"#utility.yul\":4410:4884   */\n    tag_39:\n        /* \"#utility.yul\":4478:4484   */\n      0x00\n        /* \"#utility.yul\":4486:4492   */\n      dup1\n        /* \"#utility.yul\":4535:4537   */\n      0x40\n        /* \"#utility.yul\":4523:4532   */\n      dup4\n        /* \"#utility.yul\":4514:4521   */\n      dup6\n        /* \"#utility.yul\":4510:4533   */\n      sub\n        /* \"#utility.yul\":4506:4538   */\n      slt\n        /* \"#utility.yul\":4503:4622   */\n      iszero\n      tag_341\n      jumpi\n        /* \"#utility.yul\":4541:4620   */\n      tag_342\n      tag_223\n      jump\t// in\n    tag_342:\n        /* \"#utility.yul\":4503:4622   */\n    tag_341:\n        /* \"#utility.yul\":4661:4662   */\n      0x00\n        /* \"#utility.yul\":4686:4739   */\n      tag_343\n        /* \"#utility.yul\":4731:4738   */\n      dup6\n        /* \"#utility.yul\":4722:4728   */\n      dup3\n        /* \"#utility.yul\":4711:4720   */\n      dup7\n        /* \"#utility.yul\":4707:4729   */\n      add\n        /* \"#utility.yul\":4686:4739   */\n      tag_242\n      jump\t// in\n    tag_343:\n        /* \"#utility.yul\":4676:4739   */\n      swap3\n      pop\n        /* \"#utility.yul\":4632:4749   */\n      pop\n        /* \"#utility.yul\":4788:4790   */\n      0x20\n        /* \"#utility.yul\":4814:4867   */\n      tag_344\n        /* \"#utility.yul\":4859:4866   */\n      dup6\n        /* \"#utility.yul\":4850:4856   */\n      dup3\n        /* \"#utility.yul\":4839:4848   */\n      dup7\n        /* \"#utility.yul\":4835:4857   */\n      add\n        /* \"#utility.yul\":4814:4867   */\n      tag_237\n      jump\t// in\n    tag_344:\n        /* \"#utility.yul\":4804:4867   */\n      swap2\n      pop\n        /* \"#utility.yul\":4759:4877   */\n      pop\n        /* \"#utility.yul\":4410:4884   */\n      swap3\n      pop\n      swap3\n      swap1\n      pop\n      jump\t// out\n        /* \"#utility.yul\":4890:5509   */\n    tag_43:\n        /* \"#utility.yul\":4967:4973   */\n      0x00\n        /* \"#utility.yul\":4975:4981   */\n      dup1\n        /* \"#utility.yul\":4983:4989   */\n      0x00\n        /* \"#utility.yul\":5032:5034   */\n      0x60\n        /* \"#utility.yul\":5020:5029   */\n      dup5\n        /* \"#utility.yul\":5011:5018   */\n      dup7\n        /* \"#utility.yul\":5007:5030   */\n      sub\n        /* \"#utility.yul\":5003:5035   */\n      slt\n        /* \"#utility.yul\":5000:5119   */\n      iszero\n      tag_346\n      jumpi\n        /* \"#utility.yul\":5038:5117   */\n      tag_347\n      tag_223\n      jump\t// in\n    tag_347:\n        /* \"#utility.yul\":5000:5119   */\n    tag_346:\n        /* \"#utility.yul\":5158:5159   */\n      0x00\n        /* \"#utility.yul\":5183:5236   */\n      tag_348\n        /* \"#utility.yul\":5228:5235   */\n      dup7\n        /* \"#utility.yul\":5219:5225   */\n      dup3\n        /* \"#utility.yul\":5208:5217   */\n      dup8\n        /* \"#utility.yul\":5204:5226   */\n      add\n        /* \"#utility.yul\":5183:5236   */\n      tag_242\n      jump\t// in\n    tag_348:\n        /* \"#utility.yul\":5173:5236   */\n      swap4\n      pop\n        /* \"#utility.yul\":5129:5246   */\n      pop\n        /* \"#utility.yul\":5285:5287   */\n      0x20\n        /* \"#utility.yul\":5311:5364   */\n      tag_349\n        /* \"#utility.yul\":5356:5363   */\n      dup7\n        /* \"#utility.yul\":5347:5353   */\n      dup3\n        /* \"#utility.yul\":5336:5345   */\n      dup8\n        /* \"#utility.yul\":5332:5354   */\n      add\n        /* \"#utility.yul\":5311:5364   */\n      tag_242\n      jump\t// in\n    tag_349:\n        /* \"#utility.yul\":5301:5364   */\n      swap3\n      pop\n        /* \"#utility.yul\":5256:5374   */\n      pop\n        /* \"#utility.yul\":5413:5415   */\n      0x40\n        /* \"#utility.yul\":5439:5492   */\n      tag_350\n        /* \"#utility.yul\":5484:5491   */\n      dup7\n        /* \"#utility.yul\":5475:5481   */\n      dup3\n        /* \"#utility.yul\":5464:5473   */\n      dup8\n        /* \"#utility.yul\":5460:5482   */\n      add\n        /* \"#utility.yul\":5439:5492   */\n      tag_237\n      jump\t// in\n    tag_350:\n        /* \"#utility.yul\":5429:5492   */\n      swap2\n      pop\n        /* \"#utility.yul\":5384:5502   */\n      pop\n        /* \"#utility.yul\":4890:5509   */\n      swap3\n      pop\n      swap3\n      pop\n      swap3\n      jump\t// out\n        /* \"#utility.yul\":5515:5844   */\n    tag_57:\n        /* \"#utility.yul\":5574:5580   */\n      0x00\n        /* \"#utility.yul\":5623:5625   */\n      0x20\n        /* \"#utility.yul\":5611:5620   */\n      dup3\n        /* \"#utility.yul\":5602:5609   */\n      dup5\n        /* \"#utility.yul\":5598:5621   */\n      sub\n        /* \"#utility.yul\":5594:5626   */\n      slt\n        /* \"#utility.yul\":5591:5710   */\n      iszero\n      tag_352\n      jumpi\n        /* \"#utility.yul\":5629:5708   */\n      tag_353\n      tag_223\n      jump\t// in\n    tag_353:\n        /* \"#utility.yul\":5591:5710   */\n    tag_352:\n        /* \"#utility.yul\":5749:5750   */\n      0x00\n        /* \"#utility.yul\":5774:5827   */\n      tag_354\n        /* \"#utility.yul\":5819:5826   */\n      dup5\n        /* \"#utility.yul\":5810:5816   */\n      dup3\n        /* \"#utility.yul\":5799:5808   */\n      dup6\n        /* \"#utility.yul\":5795:5817   */\n      add\n        /* \"#utility.yul\":5774:5827   */\n      tag_242\n      jump\t// in\n    tag_354:\n        /* \"#utility.yul\":5764:5827   */\n      swap2\n      pop\n        /* \"#utility.yul\":5720:5837   */\n      pop\n        /* \"#utility.yul\":5515:5844   */\n      swap3\n      swap2\n      pop\n      pop\n      jump\t// out\n        /* \"#utility.yul\":5850:5968   */\n    tag_243:\n        /* \"#utility.yul\":5937:5961   */\n      tag_356\n        /* \"#utility.yul\":5955:5960   */\n      dup2\n        /* \"#utility.yul\":5937:5961   */\n      tag_235\n      jump\t// in\n    tag_356:\n        /* \"#utility.yul\":5932:5935   */\n      dup3\n        /* \"#utility.yul\":5925:5962   */\n      mstore\n        /* \"#utility.yul\":5850:5968   */\n      pop\n      pop\n      jump\t// out\n        /* \"#utility.yul\":5974:6196   */\n    tag_60:\n        /* \"#utility.yul\":6067:6071   */\n      0x00\n        /* \"#utility.yul\":6105:6107   */\n      0x20\n        /* \"#utility.yul\":6094:6103   */\n      dup3\n        /* \"#utility.yul\":6090:6108   */\n      add\n        /* \"#utility.yul\":6082:6108   */\n      swap1\n      pop\n        /* \"#utility.yul\":6118:6189   */\n      tag_358\n        /* \"#utility.yul\":6186:6187   */\n      0x00\n        /* \"#utility.yul\":6175:6184   */\n      dup4\n        /* \"#utility.yul\":6171:6188   */\n      add\n        /* \"#utility.yul\":6162:6168   */\n      dup5\n        /* \"#utility.yul\":6118:6189   */\n      tag_243\n      jump\t// in\n    tag_358:\n        /* \"#utility.yul\":5974:6196   */\n      swap3\n      swap2\n      pop\n      pop\n      jump\t// out\n        /* \"#utility.yul\":6202:6318   */\n    tag_244:\n        /* \"#utility.yul\":6272:6293   */\n      tag_360\n        /* \"#utility.yul\":6287:6292   */\n      dup2\n        /* \"#utility.yul\":6272:6293   */\n      tag_228\n      jump\t// in\n    tag_360:\n        /* \"#utility.yul\":6265:6270   */\n      dup2\n        /* \"#utility.yul\":6262:6294   */\n      eq\n        /* \"#utility.yul\":6252:6312   */\n      tag_361\n      jumpi\n        /* \"#utility.yul\":6308:6309   */\n      0x00\n        /* \"#utility.yul\":6305:6306   */\n      dup1\n        /* \"#utility.yul\":6298:6310   */\n      revert\n        /* \"#utility.yul\":6252:6312   */\n    tag_361:\n        /* \"#utility.yul\":6202:6318   */\n      pop\n      jump\t// out\n        /* \"#utility.yul\":6324:6457   */\n    tag_245:\n        /* \"#utility.yul\":6367:6372   */\n      0x00\n        /* \"#utility.yul\":6405:6411   */\n      dup2\n        /* \"#utility.yul\":6392:6412   */\n      calldataload\n        /* \"#utility.yul\":6383:6412   */\n      swap1\n      pop\n        /* \"#utility.yul\":6421:6451   */\n      tag_363\n        /* \"#utility.yul\":6445:6450   */\n      dup2\n        /* \"#utility.yul\":6421:6451   */\n      tag_244\n      jump\t// in\n    tag_363:\n        /* \"#utility.yul\":6324:6457   */\n      swap3\n      swap2\n      pop\n      pop\n      jump\t// out\n        /* \"#utility.yul\":6463:6931   */\n    tag_66:\n        /* \"#utility.yul\":6528:6534   */\n      0x00\n        /* \"#utility.yul\":6536:6542   */\n      dup1\n        /* \"#utility.yul\":6585:6587   */\n      0x40\n        /* \"#utility.yul\":6573:6582   */\n      dup4\n        /* \"#utility.yul\":6564:6571   */\n      dup6\n        /* \"#utility.yul\":6560:6583   */\n      sub\n        /* \"#utility.yul\":6556:6588   */\n      slt\n        /* \"#utility.yul\":6553:6672   */\n      iszero\n      tag_365\n      jumpi\n        /* \"#utility.yul\":6591:6670   */\n      tag_366\n      tag_223\n      jump\t// in\n    tag_366:\n        /* \"#utility.yul\":6553:6672   */\n    tag_365:\n        /* \"#utility.yul\":6711:6712   */\n      0x00\n        /* \"#utility.yul\":6736:6789   */\n      tag_367\n        /* \"#utility.yul\":6781:6788   */\n      dup6\n        /* \"#utility.yul\":6772:6778   */\n      dup3\n        /* \"#utility.yul\":6761:6770   */\n      dup7\n        /* \"#utility.yul\":6757:6779   */\n      add\n        /* \"#utility.yul\":6736:6789   */\n      tag_242\n      jump\t// in\n    tag_367:\n        /* \"#utility.yul\":6726:6789   */\n      swap3\n      pop\n        /* \"#utility.yul\":6682:6799   */\n      pop\n        /* \"#utility.yul\":6838:6840   */\n      0x20\n        /* \"#utility.yul\":6864:6914   */\n      tag_368\n        /* \"#utility.yul\":6906:6913   */\n      dup6\n        /* \"#utility.yul\":6897:6903   */\n      dup3\n        /* \"#utility.yul\":6886:6895   */\n      dup7\n        /* \"#utility.yul\":6882:6904   */\n      add\n        /* \"#utility.yul\":6864:6914   */\n      tag_245\n      jump\t// in\n    tag_368:\n        /* \"#utility.yul\":6854:6914   */\n      swap2\n      pop\n        /* \"#utility.yul\":6809:6924   */\n      pop\n        /* \"#utility.yul\":6463:6931   */\n      swap3\n      pop\n      swap3\n      swap1\n      pop\n      jump\t// out\n        /* \"#utility.yul\":6937:7054   */\n    tag_246:\n        /* \"#utility.yul\":7046:7047   */\n      0x00\n        /* \"#utility.yul\":7043:7044   */\n      dup1\n        /* \"#utility.yul\":7036:7048   */\n      revert\n        /* \"#utility.yul\":7060:7177   */\n    tag_247:\n        /* \"#utility.yul\":7169:7170   */\n      0x00\n        /* \"#utility.yul\":7166:7167   */\n      dup1\n        /* \"#utility.yul\":7159:7171   */\n      revert\n        /* \"#utility.yul\":7183:7363   */\n    tag_198:\n        /* \"#utility.yul\":7231:7308   */\n      0x4e487b7100000000000000000000000000000000000000000000000000000000\n        /* \"#utility.yul\":7228:7229   */\n      0x00\n        /* \"#utility.yul\":7221:7309   */\n      mstore\n        /* \"#utility.yul\":7328:7332   */\n      0x41\n        /* \"#utility.yul\":7325:7326   */\n      0x04\n        /* \"#utility.yul\":7318:7333   */\n      mstore\n        /* \"#utility.yul\":7352:7356   */\n      0x24\n        /* \"#utility.yul\":7349:7350   */\n      0x00\n        /* \"#utility.yul\":7342:7357   */\n      revert\n        /* \"#utility.yul\":7369:7650   */\n    tag_248:\n        /* \"#utility.yul\":7452:7479   */\n      tag_373\n        /* \"#utility.yul\":7474:7478   */\n      dup3\n        /* \"#utility.yul\":7452:7479   */\n      tag_233\n      jump\t// in\n    tag_373:\n        /* \"#utility.yul\":7444:7450   */\n      dup2\n        /* \"#utility.yul\":7440:7480   */\n      add\n        /* \"#utility.yul\":7582:7588   */\n      dup2\n        /* \"#utility.yul\":7570:7580   */\n      dup2\n        /* \"#utility.yul\":7567:7589   */\n      lt\n        /* \"#utility.yul\":7546:7564   */\n      0xffffffffffffffff\n        /* \"#utility.yul\":7534:7544   */\n      dup3\n        /* \"#utility.yul\":7531:7565   */\n      gt\n        /* \"#utility.yul\":7528:7590   */\n      or\n        /* \"#utility.yul\":7525:7613   */\n      iszero\n      tag_374\n      jumpi\n        /* \"#utility.yul\":7593:7611   */\n      tag_375\n      tag_198\n      jump\t// in\n    tag_375:\n        /* \"#utility.yul\":7525:7613   */\n    tag_374:\n        /* \"#utility.yul\":7633:7643   */\n      dup1\n        /* \"#utility.yul\":7629:7631   */\n      0x40\n        /* \"#utility.yul\":7622:7644   */\n      mstore\n        /* \"#utility.yul\":7412:7650   */\n      pop\n        /* \"#utility.yul\":7369:7650   */\n      pop\n      pop\n      jump\t// out\n        /* \"#utility.yul\":7656:7785   */\n    tag_249:\n        /* \"#utility.yul\":7690:7696   */\n      0x00\n        /* \"#utility.yul\":7717:7737   */\n      tag_377\n      tag_222\n      jump\t// in\n    tag_377:\n        /* \"#utility.yul\":7707:7737   */\n      swap1\n      pop\n        /* \"#utility.yul\":7746:7779   */\n      tag_378\n        /* \"#utility.yul\":7774:7778   */\n      dup3\n        /* \"#utility.yul\":7766:7772   */\n      dup3\n        /* \"#utility.yul\":7746:7779   */\n      tag_248\n      jump\t// in\n    tag_378:\n        /* \"#utility.yul\":7656:7785   */\n      swap2\n      swap1\n      pop\n      jump\t// out\n        /* \"#utility.yul\":7791:8098   */\n    tag_250:\n        /* \"#utility.yul\":7852:7856   */\n      0x00\n        /* \"#utility.yul\":7942:7960   */\n      0xffffffffffffffff\n        /* \"#utility.yul\":7934:7940   */\n      dup3\n        /* \"#utility.yul\":7931:7961   */\n      gt\n        /* \"#utility.yul\":7928:7984   */\n      iszero\n      tag_380\n      jumpi\n        /* \"#utility.yul\":7964:7982   */\n      tag_381\n      tag_198\n      jump\t// in\n    tag_381:\n        /* \"#utility.yul\":7928:7984   */\n    tag_380:\n        /* \"#utility.yul\":8002:8031   */\n      tag_382\n        /* \"#utility.yul\":8024:8030   */\n      dup3\n        /* \"#utility.yul\":8002:8031   */\n      tag_233\n      jump\t// in\n    tag_382:\n        /* \"#utility.yul\":7994:8031   */\n      swap1\n      pop\n        /* \"#utility.yul\":8086:8090   */\n      0x20\n        /* \"#utility.yul\":8080:8084   */\n      dup2\n        /* \"#utility.yul\":8076:8091   */\n      add\n        /* \"#utility.yul\":8068:8091   */\n      swap1\n      pop\n        /* \"#utility.yul\":7791:8098   */\n      swap2\n      swap1\n      pop\n      jump\t// out\n        /* \"#utility.yul\":8104:8250   */\n    tag_251:\n        /* \"#utility.yul\":8201:8207   */\n      dup3\n        /* \"#utility.yul\":8196:8199   */\n      dup2\n        /* \"#utility.yul\":8191:8194   */\n      dup4\n        /* \"#utility.yul\":8178:8208   */\n      calldatacopy\n        /* \"#utility.yul\":8242:8243   */\n      0x00\n        /* \"#utility.yul\":8233:8239   */\n      dup4\n        /* \"#utility.yul\":8228:8231   */\n      dup4\n        /* \"#utility.yul\":8224:8240   */\n      add\n        /* \"#utility.yul\":8217:8244   */\n      mstore\n        /* \"#utility.yul\":8104:8250   */\n      pop\n      pop\n      pop\n      jump\t// out\n        /* \"#utility.yul\":8256:8679   */\n    tag_252:\n        /* \"#utility.yul\":8333:8338   */\n      0x00\n        /* \"#utility.yul\":8358:8423   */\n      tag_385\n        /* \"#utility.yul\":8374:8422   */\n      tag_386\n        /* \"#utility.yul\":8415:8421   */\n      dup5\n        /* \"#utility.yul\":8374:8422   */\n      tag_250\n      jump\t// in\n    tag_386:\n        /* \"#utility.yul\":8358:8423   */\n      tag_249\n      jump\t// in\n    tag_385:\n        /* \"#utility.yul\":8349:8423   */\n      swap1\n      pop\n        /* \"#utility.yul\":8446:8452   */\n      dup3\n        /* \"#utility.yul\":8439:8444   */\n      dup2\n        /* \"#utility.yul\":8432:8453   */\n      mstore\n        /* \"#utility.yul\":8484:8488   */\n      0x20\n        /* \"#utility.yul\":8477:8482   */\n      dup2\n        /* \"#utility.yul\":8473:8489   */\n      add\n        /* \"#utility.yul\":8522:8525   */\n      dup5\n        /* \"#utility.yul\":8513:8519   */\n      dup5\n        /* \"#utility.yul\":8508:8511   */\n      dup5\n        /* \"#utility.yul\":8504:8520   */\n      add\n        /* \"#utility.yul\":8501:8526   */\n      gt\n        /* \"#utility.yul\":8498:8610   */\n      iszero\n      tag_387\n      jumpi\n        /* \"#utility.yul\":8529:8608   */\n      tag_388\n      tag_247\n      jump\t// in\n    tag_388:\n        /* \"#utility.yul\":8498:8610   */\n    tag_387:\n        /* \"#utility.yul\":8619:8673   */\n      tag_389\n        /* \"#utility.yul\":8666:8672   */\n      dup5\n        /* \"#utility.yul\":8661:8664   */\n      dup3\n        /* \"#utility.yul\":8656:8659   */\n      dup6\n        /* \"#utility.yul\":8619:8673   */\n      tag_251\n      jump\t// in\n    tag_389:\n        /* \"#utility.yul\":8339:8679   */\n      pop\n        /* \"#utility.yul\":8256:8679   */\n      swap4\n      swap3\n      pop\n      pop\n      pop\n      jump\t// out\n        /* \"#utility.yul\":8698:9036   */\n    tag_253:\n        /* \"#utility.yul\":8753:8758   */\n      0x00\n        /* \"#utility.yul\":8802:8805   */\n      dup3\n        /* \"#utility.yul\":8795:8799   */\n      0x1f\n        /* \"#utility.yul\":8787:8793   */\n      dup4\n        /* \"#utility.yul\":8783:8800   */\n      add\n        /* \"#utility.yul\":8779:8806   */\n      slt\n        /* \"#utility.yul\":8769:8891   */\n      tag_391\n      jumpi\n        /* \"#utility.yul\":8810:8889   */\n      tag_392\n      tag_246\n      jump\t// in\n    tag_392:\n        /* \"#utility.yul\":8769:8891   */\n    tag_391:\n        /* \"#utility.yul\":8927:8933   */\n      dup2\n        /* \"#utility.yul\":8914:8934   */\n      calldataload\n        /* \"#utility.yul\":8952:9030   */\n      tag_393\n        /* \"#utility.yul\":9026:9029   */\n      dup5\n        /* \"#utility.yul\":9018:9024   */\n      dup3\n        /* \"#utility.yul\":9011:9015   */\n      0x20\n        /* \"#utility.yul\":9003:9009   */\n      dup7\n        /* \"#utility.yul\":8999:9016   */\n      add\n        /* \"#utility.yul\":8952:9030   */\n      tag_252\n      jump\t// in\n    tag_393:\n        /* \"#utility.yul\":8943:9030   */\n      swap2\n      pop\n        /* \"#utility.yul\":8759:9036   */\n      pop\n        /* \"#utility.yul\":8698:9036   */\n      swap3\n      swap2\n      pop\n      pop\n      jump\t// out\n        /* \"#utility.yul\":9042:9985   */\n    tag_70:\n        /* \"#utility.yul\":9137:9143   */\n      0x00\n        /* \"#utility.yul\":9145:9151   */\n      dup1\n        /* \"#utility.yul\":9153:9159   */\n      0x00\n        /* \"#utility.yul\":9161:9167   */\n      dup1\n        /* \"#utility.yul\":9210:9213   */\n      0x80\n        /* \"#utility.yul\":9198:9207   */\n      dup6\n        /* \"#utility.yul\":9189:9196   */\n      dup8\n        /* \"#utility.yul\":9185:9208   */\n      sub\n        /* \"#utility.yul\":9181:9214   */\n      slt\n        /* \"#utility.yul\":9178:9298   */\n      iszero\n      tag_395\n      jumpi\n        /* \"#utility.yul\":9217:9296   */\n      tag_396\n      tag_223\n      jump\t// in\n    tag_396:\n        /* \"#utility.yul\":9178:9298   */\n    tag_395:\n        /* \"#utility.yul\":9337:9338   */\n      0x00\n        /* \"#utility.yul\":9362:9415   */\n      tag_397\n        /* \"#utility.yul\":9407:9414   */\n      dup8\n        /* \"#utility.yul\":9398:9404   */\n      dup3\n        /* \"#utility.yul\":9387:9396   */\n      dup9\n        /* \"#utility.yul\":9383:9405   */\n      add\n        /* \"#utility.yul\":9362:9415   */\n      tag_242\n      jump\t// in\n    tag_397:\n        /* \"#utility.yul\":9352:9415   */\n      swap5\n      pop\n        /* \"#utility.yul\":9308:9425   */\n      pop\n        /* \"#utility.yul\":9464:9466   */\n      0x20\n        /* \"#utility.yul\":9490:9543   */\n      tag_398\n        /* \"#utility.yul\":9535:9542   */\n      dup8\n        /* \"#utility.yul\":9526:9532   */\n      dup3\n        /* \"#utility.yul\":9515:9524   */\n      dup9\n        /* \"#utility.yul\":9511:9533   */\n      add\n        /* \"#utility.yul\":9490:9543   */\n      tag_242\n      jump\t// in\n    tag_398:\n        /* \"#utility.yul\":9480:9543   */\n      swap4\n      pop\n        /* \"#utility.yul\":9435:9553   */\n      pop\n        /* \"#utility.yul\":9592:9594   */\n      0x40\n        /* \"#utility.yul\":9618:9671   */\n      tag_399\n        /* \"#utility.yul\":9663:9670   */\n      dup8\n        /* \"#utility.yul\":9654:9660   */\n      dup3\n        /* \"#utility.yul\":9643:9652   */\n      dup9\n        /* \"#utility.yul\":9639:9661   */\n      add\n        /* \"#utility.yul\":9618:9671   */\n      tag_237\n      jump\t// in\n    tag_399:\n        /* \"#utility.yul\":9608:9671   */\n      swap3\n      pop\n        /* \"#utility.yul\":9563:9681   */\n      pop\n        /* \"#utility.yul\":9748:9750   */\n      0x60\n        /* \"#utility.yul\":9737:9746   */\n      dup6\n        /* \"#utility.yul\":9733:9751   */\n      add\n        /* \"#utility.yul\":9720:9752   */\n      calldataload\n        /* \"#utility.yul\":9779:9797   */\n      0xffffffffffffffff\n        /* \"#utility.yul\":9771:9777   */\n      dup2\n        /* \"#utility.yul\":9768:9798   */\n      gt\n        /* \"#utility.yul\":9765:9882   */\n      iszero\n      tag_400\n      jumpi\n        /* \"#utility.yul\":9801:9880   */\n      tag_401\n      tag_224\n      jump\t// in\n    tag_401:\n        /* \"#utility.yul\":9765:9882   */\n    tag_400:\n        /* \"#utility.yul\":9906:9968   */\n      tag_402\n        /* \"#utility.yul\":9960:9967   */\n      dup8\n        /* \"#utility.yul\":9951:9957   */\n      dup3\n        /* \"#utility.yul\":9940:9949   */\n      dup9\n        /* \"#utility.yul\":9936:9958   */\n      add\n        /* \"#utility.yul\":9906:9968   */\n      tag_253\n      jump\t// in\n    tag_402:\n        /* \"#utility.yul\":9896:9968   */\n      swap2\n      pop\n        /* \"#utility.yul\":9691:9978   */\n      pop\n        /* \"#utility.yul\":9042:9985   */\n      swap3\n      swap6\n      swap2\n      swap5\n      pop\n      swap3\n      pop\n      jump\t// out\n        /* \"#utility.yul\":9991:10465   */\n    tag_81:\n        /* \"#utility.yul\":10059:10065   */\n      0x00\n        /* \"#utility.yul\":10067:10073   */\n      dup1\n        /* \"#utility.yul\":10116:10118   */\n      0x40\n        /* \"#utility.yul\":10104:10113   */\n      dup4\n        /* \"#utility.yul\":10095:10102   */\n      dup6\n        /* \"#utility.yul\":10091:10114   */\n      sub\n        /* \"#utility.yul\":10087:10119   */\n      slt\n        /* \"#utility.yul\":10084:10203   */\n      iszero\n      tag_404\n      jumpi\n        /* \"#utility.yul\":10122:10201   */\n      tag_405\n      tag_223\n      jump\t// in\n    tag_405:\n        /* \"#utility.yul\":10084:10203   */\n    tag_404:\n        /* \"#utility.yul\":10242:10243   */\n      0x00\n        /* \"#utility.yul\":10267:10320   */\n      tag_406\n        /* \"#utility.yul\":10312:10319   */\n      dup6\n        /* \"#utility.yul\":10303:10309   */\n      dup3\n        /* \"#utility.yul\":10292:10301   */\n      dup7\n        /* \"#utility.yul\":10288:10310   */\n      add\n        /* \"#utility.yul\":10267:10320   */\n      tag_242\n      jump\t// in\n    tag_406:\n        /* \"#utility.yul\":10257:10320   */\n      swap3\n      pop\n        /* \"#utility.yul\":10213:10330   */\n      pop\n        /* \"#utility.yul\":10369:10371   */\n      0x20\n        /* \"#utility.yul\":10395:10448   */\n      tag_407\n        /* \"#utility.yul\":10440:10447   */\n      dup6\n        /* \"#utility.yul\":10431:10437   */\n      dup3\n        /* \"#utility.yul\":10420:10429   */\n      dup7\n        /* \"#utility.yul\":10416:10438   */\n      add\n        /* \"#utility.yul\":10395:10448   */\n      tag_242\n      jump\t// in\n    tag_407:\n        /* \"#utility.yul\":10385:10448   */\n      swap2\n      pop\n        /* \"#utility.yul\":10340:10458   */\n      pop\n        /* \"#utility.yul\":9991:10465   */\n      swap3\n      pop\n      swap3\n      swap1\n      pop\n      jump\t// out\n        /* \"#utility.yul\":10471:10651   */\n    tag_254:\n        /* \"#utility.yul\":10519:10596   */\n      0x4e487b7100000000000000000000000000000000000000000000000000000000\n        /* \"#utility.yul\":10516:10517   */\n      0x00\n        /* \"#utility.yul\":10509:10597   */\n      mstore\n        /* \"#utility.yul\":10616:10620   */\n      0x22\n        /* \"#utility.yul\":10613:10614   */\n      0x04\n        /* \"#utility.yul\":10606:10621   */\n      mstore\n        /* \"#utility.yul\":10640:10644   */\n      0x24\n        /* \"#utility.yul\":10637:10638   */\n      0x00\n        /* \"#utility.yul\":10630:10645   */\n      revert\n        /* \"#utility.yul\":10657:10977   */\n    tag_88:\n        /* \"#utility.yul\":10701:10707   */\n      0x00\n        /* \"#utility.yul\":10738:10739   */\n      0x02\n        /* \"#utility.yul\":10732:10736   */\n      dup3\n        /* \"#utility.yul\":10728:10740   */\n      div\n        /* \"#utility.yul\":10718:10740   */\n      swap1\n      pop\n        /* \"#utility.yul\":10785:10786   */\n      0x01\n        /* \"#utility.yul\":10779:10783   */\n      dup3\n        /* \"#utility.yul\":10775:10787   */\n      and\n        /* \"#utility.yul\":10806:10824   */\n      dup1\n        /* \"#utility.yul\":10796:10877   */\n      tag_410\n      jumpi\n        /* \"#utility.yul\":10862:10866   */\n      0x7f\n        /* \"#utility.yul\":10854:10860   */\n      dup3\n        /* \"#utility.yul\":10850:10867   */\n      and\n        /* \"#utility.yul\":10840:10867   */\n      swap2\n      pop\n        /* \"#utility.yul\":10796:10877   */\n    tag_410:\n        /* \"#utility.yul\":10924:10926   */\n      0x20\n        /* \"#utility.yul\":10916:10922   */\n      dup3\n        /* \"#utility.yul\":10913:10927   */\n      lt\n        /* \"#utility.yul\":10893:10911   */\n      dup2\n        /* \"#utility.yul\":10890:10928   */\n      sub\n        /* \"#utility.yul\":10887:10971   */\n      tag_411\n      jumpi\n        /* \"#utility.yul\":10943:10961   */\n      tag_412\n      tag_254\n      jump\t// in\n    tag_412:\n        /* \"#utility.yul\":10887:10971   */\n    tag_411:\n        /* \"#utility.yul\":10708:10977   */\n      pop\n        /* \"#utility.yul\":10657:10977   */\n      swap2\n      swap1\n      pop\n      jump\t// out\n        /* \"#utility.yul\":10983:11152   */\n    tag_255:\n        /* \"#utility.yul\":11123:11144   */\n      0x746f6b656e20646f65736e6f7420657869737400000000000000000000000000\n        /* \"#utility.yul\":11119:11120   */\n      0x00\n        /* \"#utility.yul\":11111:11117   */\n      dup3\n        /* \"#utility.yul\":11107:11121   */\n      add\n        /* \"#utility.yul\":11100:11145   */\n      mstore\n        /* \"#utility.yul\":10983:11152   */\n      pop\n      jump\t// out\n        /* \"#utility.yul\":11158:11524   */\n    tag_256:\n        /* \"#utility.yul\":11300:11303   */\n      0x00\n        /* \"#utility.yul\":11321:11388   */\n      tag_415\n        /* \"#utility.yul\":11385:11387   */\n      0x13\n        /* \"#utility.yul\":11380:11383   */\n      dup4\n        /* \"#utility.yul\":11321:11388   */\n      tag_231\n      jump\t// in\n    tag_415:\n        /* \"#utility.yul\":11314:11388   */\n      swap2\n      pop\n        /* \"#utility.yul\":11397:11490   */\n      tag_416\n        /* \"#utility.yul\":11486:11489   */\n      dup3\n        /* \"#utility.yul\":11397:11490   */\n      tag_255\n      jump\t// in\n    tag_416:\n        /* \"#utility.yul\":11515:11517   */\n      0x20\n        /* \"#utility.yul\":11510:11513   */\n      dup3\n        /* \"#utility.yul\":11506:11518   */\n      add\n        /* \"#utility.yul\":11499:11518   */\n      swap1\n      pop\n        /* \"#utility.yul\":11158:11524   */\n      swap2\n      swap1\n      pop\n      jump\t// out\n        /* \"#utility.yul\":11530:11949   */\n    tag_96:\n        /* \"#utility.yul\":11696:11700   */\n      0x00\n        /* \"#utility.yul\":11734:11736   */\n      0x20\n        /* \"#utility.yul\":11723:11732   */\n      dup3\n        /* \"#utility.yul\":11719:11737   */\n      add\n        /* \"#utility.yul\":11711:11737   */\n      swap1\n      pop\n        /* \"#utility.yul\":11783:11792   */\n      dup2\n        /* \"#utility.yul\":11777:11781   */\n      dup2\n        /* \"#utility.yul\":11773:11793   */\n      sub\n        /* \"#utility.yul\":11769:11770   */\n      0x00\n        /* \"#utility.yul\":11758:11767   */\n      dup4\n        /* \"#utility.yul\":11754:11771   */\n      add\n        /* \"#utility.yul\":11747:11794   */\n      mstore\n        /* \"#utility.yul\":11811:11942   */\n      tag_418\n        /* \"#utility.yul\":11937:11941   */\n      dup2\n        /* \"#utility.yul\":11811:11942   */\n      tag_256\n      jump\t// in\n    tag_418:\n        /* \"#utility.yul\":11803:11942   */\n      swap1\n      pop\n        /* \"#utility.yul\":11530:11949   */\n      swap2\n      swap1\n      pop\n      jump\t// out\n        /* \"#utility.yul\":11955:12135   */\n    tag_257:\n        /* \"#utility.yul\":12095:12127   */\n      0x6e6f74206f776e6572206e6f7220617070726f76656420666f7220616c6c0000\n        /* \"#utility.yul\":12091:12092   */\n      0x00\n        /* \"#utility.yul\":12083:12089   */\n      dup3\n        /* \"#utility.yul\":12079:12093   */\n      add\n        /* \"#utility.yul\":12072:12128   */\n      mstore\n        /* \"#utility.yul\":11955:12135   */\n      pop\n      jump\t// out\n        /* \"#utility.yul\":12141:12507   */\n    tag_258:\n        /* \"#utility.yul\":12283:12286   */\n      0x00\n        /* \"#utility.yul\":12304:12371   */\n      tag_421\n        /* \"#utility.yul\":12368:12370   */\n      0x1e\n        /* \"#utility.yul\":12363:12366   */\n      dup4\n        /* \"#utility.yul\":12304:12371   */\n      tag_231\n      jump\t// in\n    tag_421:\n        /* \"#utility.yul\":12297:12371   */\n      swap2\n      pop\n        /* \"#utility.yul\":12380:12473   */\n      tag_422\n        /* \"#utility.yul\":12469:12472   */\n      dup3\n        /* \"#utility.yul\":12380:12473   */\n      tag_257\n      jump\t// in\n    tag_422:\n        /* \"#utility.yul\":12498:12500   */\n      0x20\n        /* \"#utility.yul\":12493:12496   */\n      dup3\n        /* \"#utility.yul\":12489:12501   */\n      add\n        /* \"#utility.yul\":12482:12501   */\n      swap1\n      pop\n        /* \"#utility.yul\":12141:12507   */\n      swap2\n      swap1\n      pop\n      jump\t// out\n        /* \"#utility.yul\":12513:12932   */\n    tag_101:\n        /* \"#utility.yul\":12679:12683   */\n      0x00\n        /* \"#utility.yul\":12717:12719   */\n      0x20\n        /* \"#utility.yul\":12706:12715   */\n      dup3\n        /* \"#utility.yul\":12702:12720   */\n      add\n        /* \"#utility.yul\":12694:12720   */\n      swap1\n      pop\n        /* \"#utility.yul\":12766:12775   */\n      dup2\n        /* \"#utility.yul\":12760:12764   */\n      dup2\n        /* \"#utility.yul\":12756:12776   */\n      sub\n        /* \"#utility.yul\":12752:12753   */\n      0x00\n        /* \"#utility.yul\":12741:12750   */\n      dup4\n        /* \"#utility.yul\":12737:12754   */\n      add\n        /* \"#utility.yul\":12730:12777   */\n      mstore\n        /* \"#utility.yul\":12794:12925   */\n      tag_424\n        /* \"#utility.yul\":12920:12924   */\n      dup2\n        /* \"#utility.yul\":12794:12925   */\n      tag_258\n      jump\t// in\n    tag_424:\n        /* \"#utility.yul\":12786:12925   */\n      swap1\n      pop\n        /* \"#utility.yul\":12513:12932   */\n      swap2\n      swap1\n      pop\n      jump\t// out\n        /* \"#utility.yul\":12938:13110   */\n    tag_259:\n        /* \"#utility.yul\":13078:13102   */\n      0x6e6f74206f776e6572206e6f7220617070726f76656400000000000000000000\n        /* \"#utility.yul\":13074:13075   */\n      0x00\n        /* \"#utility.yul\":13066:13072   */\n      dup3\n        /* \"#utility.yul\":13062:13076   */\n      add\n        /* \"#utility.yul\":13055:13103   */\n      mstore\n        /* \"#utility.yul\":12938:13110   */\n      pop\n      jump\t// out\n        /* \"#utility.yul\":13116:13482   */\n    tag_260:\n        /* \"#utility.yul\":13258:13261   */\n      0x00\n        /* \"#utility.yul\":13279:13346   */\n      tag_427\n        /* \"#utility.yul\":13343:13345   */\n      0x16\n        /* \"#utility.yul\":13338:13341   */\n      dup4\n        /* \"#utility.yul\":13279:13346   */\n      tag_231\n      jump\t// in\n    tag_427:\n        /* \"#utility.yul\":13272:13346   */\n      swap2\n      pop\n        /* \"#utility.yul\":13355:13448   */\n      tag_428\n        /* \"#utility.yul\":13444:13447   */\n      dup3\n        /* \"#utility.yul\":13355:13448   */\n      tag_259\n      jump\t// in\n    tag_428:\n        /* \"#utility.yul\":13473:13475   */\n      0x20\n        /* \"#utility.yul\":13468:13471   */\n      dup3\n        /* \"#utility.yul\":13464:13476   */\n      add\n        /* \"#utility.yul\":13457:13476   */\n      swap1\n      pop\n        /* \"#utility.yul\":13116:13482   */\n      swap2\n      swap1\n      pop\n      jump\t// out\n        /* \"#utility.yul\":13488:13907   */\n    tag_110:\n        /* \"#utility.yul\":13654:13658   */\n      0x00\n        /* \"#utility.yul\":13692:13694   */\n      0x20\n        /* \"#utility.yul\":13681:13690   */\n      dup3\n        /* \"#utility.yul\":13677:13695   */\n      add\n        /* \"#utility.yul\":13669:13695   */\n      swap1\n      pop\n        /* \"#utility.yul\":13741:13750   */\n      dup2\n        /* \"#utility.yul\":13735:13739   */\n      dup2\n        /* \"#utility.yul\":13731:13751   */\n      sub\n        /* \"#utility.yul\":13727:13728   */\n      0x00\n        /* \"#utility.yul\":13716:13725   */\n      dup4\n        /* \"#utility.yul\":13712:13729   */\n      add\n        /* \"#utility.yul\":13705:13752   */\n      mstore\n        /* \"#utility.yul\":13769:13900   */\n      tag_430\n        /* \"#utility.yul\":13895:13899   */\n      dup2\n        /* \"#utility.yul\":13769:13900   */\n      tag_260\n      jump\t// in\n    tag_430:\n        /* \"#utility.yul\":13761:13900   */\n      swap1\n      pop\n        /* \"#utility.yul\":13488:13907   */\n      swap2\n      swap1\n      pop\n      jump\t// out\n        /* \"#utility.yul\":13913:14083   */\n    tag_261:\n        /* \"#utility.yul\":14053:14075   */\n      0x746f6b656e4964206f7574206f662072616e6765000000000000000000000000\n        /* \"#utility.yul\":14049:14050   */\n      0x00\n        /* \"#utility.yul\":14041:14047   */\n      dup3\n        /* \"#utility.yul\":14037:14051   */\n      add\n        /* \"#utility.yul\":14030:14076   */\n      mstore\n        /* \"#utility.yul\":13913:14083   */\n      pop\n      jump\t// out\n        /* \"#utility.yul\":14089:14455   */\n    tag_262:\n        /* \"#utility.yul\":14231:14234   */\n      0x00\n        /* \"#utility.yul\":14252:14319   */\n      tag_433\n        /* \"#utility.yul\":14316:14318   */\n      0x14\n        /* \"#utility.yul\":14311:14314   */\n      dup4\n        /* \"#utility.yul\":14252:14319   */\n      tag_231\n      jump\t// in\n    tag_433:\n        /* \"#utility.yul\":14245:14319   */\n      swap2\n      pop\n        /* \"#utility.yul\":14328:14421   */\n      tag_434\n        /* \"#utility.yul\":14417:14420   */\n      dup3\n        /* \"#utility.yul\":14328:14421   */\n      tag_261\n      jump\t// in\n    tag_434:\n        /* \"#utility.yul\":14446:14448   */\n      0x20\n        /* \"#utility.yul\":14441:14444   */\n      dup3\n        /* \"#utility.yul\":14437:14449   */\n      add\n        /* \"#utility.yul\":14430:14449   */\n      swap1\n      pop\n        /* \"#utility.yul\":14089:14455   */\n      swap2\n      swap1\n      pop\n      jump\t// out\n        /* \"#utility.yul\":14461:14880   */\n    tag_117:\n        /* \"#utility.yul\":14627:14631   */\n      0x00\n        /* \"#utility.yul\":14665:14667   */\n      0x20\n        /* \"#utility.yul\":14654:14663   */\n      dup3\n        /* \"#utility.yul\":14650:14668   */\n      add\n        /* \"#utility.yul\":14642:14668   */\n      swap1\n      pop\n        /* \"#utility.yul\":14714:14723   */\n      dup2\n        /* \"#utility.yul\":14708:14712   */\n      dup2\n        /* \"#utility.yul\":14704:14724   */\n      sub\n        /* \"#utility.yul\":14700:14701   */\n      0x00\n        /* \"#utility.yul\":14689:14698   */\n      dup4\n        /* \"#utility.yul\":14685:14702   */\n      add\n        /* \"#utility.yul\":14678:14725   */\n      mstore\n        /* \"#utility.yul\":14742:14873   */\n      tag_436\n        /* \"#utility.yul\":14868:14872   */\n      dup2\n        /* \"#utility.yul\":14742:14873   */\n      tag_262\n      jump\t// in\n    tag_436:\n        /* \"#utility.yul\":14734:14873   */\n      swap1\n      pop\n        /* \"#utility.yul\":14461:14880   */\n      swap2\n      swap1\n      pop\n      jump\t// out\n        /* \"#utility.yul\":14886:15056   */\n    tag_263:\n        /* \"#utility.yul\":15026:15048   */\n      0x6f776e6572203d207a65726f2061646472657373000000000000000000000000\n        /* \"#utility.yul\":15022:15023   */\n      0x00\n        /* \"#utility.yul\":15014:15020   */\n      dup3\n        /* \"#utility.yul\":15010:15024   */\n      add\n        /* \"#utility.yul\":15003:15049   */\n      mstore\n        /* \"#utility.yul\":14886:15056   */\n      pop\n      jump\t// out\n        /* \"#utility.yul\":15062:15428   */\n    tag_264:\n        /* \"#utility.yul\":15204:15207   */\n      0x00\n        /* \"#utility.yul\":15225:15292   */\n      tag_439\n        /* \"#utility.yul\":15289:15291   */\n      0x14\n        /* \"#utility.yul\":15284:15287   */\n      dup4\n        /* \"#utility.yul\":15225:15292   */\n      tag_231\n      jump\t// in\n    tag_439:\n        /* \"#utility.yul\":15218:15292   */\n      swap2\n      pop\n        /* \"#utility.yul\":15301:15394   */\n      tag_440\n        /* \"#utility.yul\":15390:15393   */\n      dup3\n        /* \"#utility.yul\":15301:15394   */\n      tag_263\n      jump\t// in\n    tag_440:\n        /* \"#utility.yul\":15419:15421   */\n      0x20\n        /* \"#utility.yul\":15414:15417   */\n      dup3\n        /* \"#utility.yul\":15410:15422   */\n      add\n        /* \"#utility.yul\":15403:15422   */\n      swap1\n      pop\n        /* \"#utility.yul\":15062:15428   */\n      swap2\n      swap1\n      pop\n      jump\t// out\n        /* \"#utility.yul\":15434:15853   */\n    tag_128:\n        /* \"#utility.yul\":15600:15604   */\n      0x00\n        /* \"#utility.yul\":15638:15640   */\n      0x20\n        /* \"#utility.yul\":15627:15636   */\n      dup3\n        /* \"#utility.yul\":15623:15641   */\n      add\n        /* \"#utility.yul\":15615:15641   */\n      swap1\n      pop\n        /* \"#utility.yul\":15687:15696   */\n      dup2\n        /* \"#utility.yul\":15681:15685   */\n      dup2\n        /* \"#utility.yul\":15677:15697   */\n      sub\n        /* \"#utility.yul\":15673:15674   */\n      0x00\n        /* \"#utility.yul\":15662:15671   */\n      dup4\n        /* \"#utility.yul\":15658:15675   */\n      add\n        /* \"#utility.yul\":15651:15698   */\n      mstore\n        /* \"#utility.yul\":15715:15846   */\n      tag_442\n        /* \"#utility.yul\":15841:15845   */\n      dup2\n        /* \"#utility.yul\":15715:15846   */\n      tag_264\n      jump\t// in\n    tag_442:\n        /* \"#utility.yul\":15707:15846   */\n      swap1\n      pop\n        /* \"#utility.yul\":15434:15853   */\n      swap2\n      swap1\n      pop\n      jump\t// out\n        /* \"#utility.yul\":15859:16024   */\n    tag_265:\n        /* \"#utility.yul\":15999:16016   */\n      0x546f6b656e204e6f742045786973740000000000000000000000000000000000\n        /* \"#utility.yul\":15995:15996   */\n      0x00\n        /* \"#utility.yul\":15987:15993   */\n      dup3\n        /* \"#utility.yul\":15983:15997   */\n      add\n        /* \"#utility.yul\":15976:16017   */\n      mstore\n        /* \"#utility.yul\":15859:16024   */\n      pop\n      jump\t// out\n        /* \"#utility.yul\":16030:16396   */\n    tag_266:\n        /* \"#utility.yul\":16172:16175   */\n      0x00\n        /* \"#utility.yul\":16193:16260   */\n      tag_445\n        /* \"#utility.yul\":16257:16259   */\n      0x0f\n        /* \"#utility.yul\":16252:16255   */\n      dup4\n        /* \"#utility.yul\":16193:16260   */\n      tag_231\n      jump\t// in\n    tag_445:\n        /* \"#utility.yul\":16186:16260   */\n      swap2\n      pop\n        /* \"#utility.yul\":16269:16362   */\n      tag_446\n        /* \"#utility.yul\":16358:16361   */\n      dup3\n        /* \"#utility.yul\":16269:16362   */\n      tag_265\n      jump\t// in\n    tag_446:\n        /* \"#utility.yul\":16387:16389   */\n      0x20\n        /* \"#utility.yul\":16382:16385   */\n      dup3\n        /* \"#utility.yul\":16378:16390   */\n      add\n        /* \"#utility.yul\":16371:16390   */\n      swap1\n      pop\n        /* \"#utility.yul\":16030:16396   */\n      swap2\n      swap1\n      pop\n      jump\t// out\n        /* \"#utility.yul\":16402:16821   */\n    tag_146:\n        /* \"#utility.yul\":16568:16572   */\n      0x00\n        /* \"#utility.yul\":16606:16608   */\n      0x20\n        /* \"#utility.yul\":16595:16604   */\n      dup3\n        /* \"#utility.yul\":16591:16609   */\n      add\n        /* \"#utility.yul\":16583:16609   */\n      swap1\n      pop\n        /* \"#utility.yul\":16655:16664   */\n      dup2\n        /* \"#utility.yul\":16649:16653   */\n      dup2\n        /* \"#utility.yul\":16645:16665   */\n      sub\n        /* \"#utility.yul\":16641:16642   */\n      0x00\n        /* \"#utility.yul\":16630:16639   */\n      dup4\n        /* \"#utility.yul\":16626:16643   */\n      add\n        /* \"#utility.yul\":16619:16666   */\n      mstore\n        /* \"#utility.yul\":16683:16814   */\n      tag_448\n        /* \"#utility.yul\":16809:16813   */\n      dup2\n        /* \"#utility.yul\":16683:16814   */\n      tag_266\n      jump\t// in\n    tag_448:\n        /* \"#utility.yul\":16675:16814   */\n      swap1\n      pop\n        /* \"#utility.yul\":16402:16821   */\n      swap2\n      swap1\n      pop\n      jump\t// out\n        /* \"#utility.yul\":16827:16975   */\n    tag_267:\n        /* \"#utility.yul\":16929:16940   */\n      0x00\n        /* \"#utility.yul\":16966:16969   */\n      dup2\n        /* \"#utility.yul\":16951:16969   */\n      swap1\n      pop\n        /* \"#utility.yul\":16827:16975   */\n      swap3\n      swap2\n      pop\n      pop\n      jump\t// out\n        /* \"#utility.yul\":16981:17371   */\n    tag_268:\n        /* \"#utility.yul\":17087:17090   */\n      0x00\n        /* \"#utility.yul\":17115:17154   */\n      tag_451\n        /* \"#utility.yul\":17148:17153   */\n      dup3\n        /* \"#utility.yul\":17115:17154   */\n      tag_230\n      jump\t// in\n    tag_451:\n        /* \"#utility.yul\":17170:17259   */\n      tag_452\n        /* \"#utility.yul\":17252:17258   */\n      dup2\n        /* \"#utility.yul\":17247:17250   */\n      dup6\n        /* \"#utility.yul\":17170:17259   */\n      tag_267\n      jump\t// in\n    tag_452:\n        /* \"#utility.yul\":17163:17259   */\n      swap4\n      pop\n        /* \"#utility.yul\":17268:17333   */\n      tag_453\n        /* \"#utility.yul\":17326:17332   */\n      dup2\n        /* \"#utility.yul\":17321:17324   */\n      dup6\n        /* \"#utility.yul\":17314:17318   */\n      0x20\n        /* \"#utility.yul\":17307:17312   */\n      dup7\n        /* \"#utility.yul\":17303:17319   */\n      add\n        /* \"#utility.yul\":17268:17333   */\n      tag_232\n      jump\t// in\n    tag_453:\n        /* \"#utility.yul\":17358:17364   */\n      dup1\n        /* \"#utility.yul\":17353:17356   */\n      dup5\n        /* \"#utility.yul\":17349:17365   */\n      add\n        /* \"#utility.yul\":17342:17365   */\n      swap2\n      pop\n        /* \"#utility.yul\":17091:17371   */\n      pop\n        /* \"#utility.yul\":16981:17371   */\n      swap3\n      swap2\n      pop\n      pop\n      jump\t// out\n        /* \"#utility.yul\":17377:17812   */\n    tag_154:\n        /* \"#utility.yul\":17557:17560   */\n      0x00\n        /* \"#utility.yul\":17579:17674   */\n      tag_455\n        /* \"#utility.yul\":17670:17673   */\n      dup3\n        /* \"#utility.yul\":17661:17667   */\n      dup6\n        /* \"#utility.yul\":17579:17674   */\n      tag_268\n      jump\t// in\n    tag_455:\n        /* \"#utility.yul\":17572:17674   */\n      swap2\n      pop\n        /* \"#utility.yul\":17691:17786   */\n      tag_456\n        /* \"#utility.yul\":17782:17785   */\n      dup3\n        /* \"#utility.yul\":17773:17779   */\n      dup5\n        /* \"#utility.yul\":17691:17786   */\n      tag_268\n      jump\t// in\n    tag_456:\n        /* \"#utility.yul\":17684:17786   */\n      swap2\n      pop\n        /* \"#utility.yul\":17803:17806   */\n      dup2\n        /* \"#utility.yul\":17796:17806   */\n      swap1\n      pop\n        /* \"#utility.yul\":17377:17812   */\n      swap4\n      swap3\n      pop\n      pop\n      pop\n      jump\t// out\n        /* \"#utility.yul\":17818:17977   */\n    tag_269:\n        /* \"#utility.yul\":17958:17969   */\n      0x6e6f74206f776e65720000000000000000000000000000000000000000000000\n        /* \"#utility.yul\":17954:17955   */\n      0x00\n        /* \"#utility.yul\":17946:17952   */\n      dup3\n        /* \"#utility.yul\":17942:17956   */\n      add\n        /* \"#utility.yul\":17935:17970   */\n      mstore\n        /* \"#utility.yul\":17818:17977   */\n      pop\n      jump\t// out\n        /* \"#utility.yul\":17983:18348   */\n    tag_270:\n        /* \"#utility.yul\":18125:18128   */\n      0x00\n        /* \"#utility.yul\":18146:18212   */\n      tag_459\n        /* \"#utility.yul\":18210:18211   */\n      0x09\n        /* \"#utility.yul\":18205:18208   */\n      dup4\n        /* \"#utility.yul\":18146:18212   */\n      tag_231\n      jump\t// in\n    tag_459:\n        /* \"#utility.yul\":18139:18212   */\n      swap2\n      pop\n        /* \"#utility.yul\":18221:18314   */\n      tag_460\n        /* \"#utility.yul\":18310:18313   */\n      dup3\n        /* \"#utility.yul\":18221:18314   */\n      tag_269\n      jump\t// in\n    tag_460:\n        /* \"#utility.yul\":18339:18341   */\n      0x20\n        /* \"#utility.yul\":18334:18337   */\n      dup3\n        /* \"#utility.yul\":18330:18342   */\n      add\n        /* \"#utility.yul\":18323:18342   */\n      swap1\n      pop\n        /* \"#utility.yul\":17983:18348   */\n      swap2\n      swap1\n      pop\n      jump\t// out\n        /* \"#utility.yul\":18354:18773   */\n    tag_163:\n        /* \"#utility.yul\":18520:18524   */\n      0x00\n        /* \"#utility.yul\":18558:18560   */\n      0x20\n        /* \"#utility.yul\":18547:18556   */\n      dup3\n        /* \"#utility.yul\":18543:18561   */\n      add\n        /* \"#utility.yul\":18535:18561   */\n      swap1\n      pop\n        /* \"#utility.yul\":18607:18616   */\n      dup2\n        /* \"#utility.yul\":18601:18605   */\n      dup2\n        /* \"#utility.yul\":18597:18617   */\n      sub\n        /* \"#utility.yul\":18593:18594   */\n      0x00\n        /* \"#utility.yul\":18582:18591   */\n      dup4\n        /* \"#utility.yul\":18578:18595   */\n      add\n        /* \"#utility.yul\":18571:18618   */\n      mstore\n        /* \"#utility.yul\":18635:18766   */\n      tag_462\n        /* \"#utility.yul\":18761:18765   */\n      dup2\n        /* \"#utility.yul\":18635:18766   */\n      tag_270\n      jump\t// in\n    tag_462:\n        /* \"#utility.yul\":18627:18766   */\n      swap1\n      pop\n        /* \"#utility.yul\":18354:18773   */\n      swap2\n      swap1\n      pop\n      jump\t// out\n        /* \"#utility.yul\":18779:18957   */\n    tag_271:\n        /* \"#utility.yul\":18919:18949   */\n      0x7472616e7366657220746f20746865207a65726f206164647265737300000000\n        /* \"#utility.yul\":18915:18916   */\n      0x00\n        /* \"#utility.yul\":18907:18913   */\n      dup3\n        /* \"#utility.yul\":18903:18917   */\n      add\n        /* \"#utility.yul\":18896:18950   */\n      mstore\n        /* \"#utility.yul\":18779:18957   */\n      pop\n      jump\t// out\n        /* \"#utility.yul\":18963:19329   */\n    tag_272:\n        /* \"#utility.yul\":19105:19108   */\n      0x00\n        /* \"#utility.yul\":19126:19193   */\n      tag_465\n        /* \"#utility.yul\":19190:19192   */\n      0x1c\n        /* \"#utility.yul\":19185:19188   */\n      dup4\n        /* \"#utility.yul\":19126:19193   */\n      tag_231\n      jump\t// in\n    tag_465:\n        /* \"#utility.yul\":19119:19193   */\n      swap2\n      pop\n        /* \"#utility.yul\":19202:19295   */\n      tag_466\n        /* \"#utility.yul\":19291:19294   */\n      dup3\n        /* \"#utility.yul\":19202:19295   */\n      tag_271\n      jump\t// in\n    tag_466:\n        /* \"#utility.yul\":19320:19322   */\n      0x20\n        /* \"#utility.yul\":19315:19318   */\n      dup3\n        /* \"#utility.yul\":19311:19323   */\n      add\n        /* \"#utility.yul\":19304:19323   */\n      swap1\n      pop\n        /* \"#utility.yul\":18963:19329   */\n      swap2\n      swap1\n      pop\n      jump\t// out\n        /* \"#utility.yul\":19335:19754   */\n    tag_166:\n        /* \"#utility.yul\":19501:19505   */\n      0x00\n        /* \"#utility.yul\":19539:19541   */\n      0x20\n        /* \"#utility.yul\":19528:19537   */\n      dup3\n        /* \"#utility.yul\":19524:19542   */\n      add\n        /* \"#utility.yul\":19516:19542   */\n      swap1\n      pop\n        /* \"#utility.yul\":19588:19597   */\n      dup2\n        /* \"#utility.yul\":19582:19586   */\n      dup2\n        /* \"#utility.yul\":19578:19598   */\n      sub\n        /* \"#utility.yul\":19574:19575   */\n      0x00\n        /* \"#utility.yul\":19563:19572   */\n      dup4\n        /* \"#utility.yul\":19559:19576   */\n      add\n        /* \"#utility.yul\":19552:19599   */\n      mstore\n        /* \"#utility.yul\":19616:19747   */\n      tag_468\n        /* \"#utility.yul\":19742:19746   */\n      dup2\n        /* \"#utility.yul\":19616:19747   */\n      tag_272\n      jump\t// in\n    tag_468:\n        /* \"#utility.yul\":19608:19747   */\n      swap1\n      pop\n        /* \"#utility.yul\":19335:19754   */\n      swap2\n      swap1\n      pop\n      jump\t// out\n        /* \"#utility.yul\":19760:19940   */\n    tag_273:\n        /* \"#utility.yul\":19808:19885   */\n      0x4e487b7100000000000000000000000000000000000000000000000000000000\n        /* \"#utility.yul\":19805:19806   */\n      0x00\n        /* \"#utility.yul\":19798:19886   */\n      mstore\n        /* \"#utility.yul\":19905:19909   */\n      0x11\n        /* \"#utility.yul\":19902:19903   */\n      0x04\n        /* \"#utility.yul\":19895:19910   */\n      mstore\n        /* \"#utility.yul\":19929:19933   */\n      0x24\n        /* \"#utility.yul\":19926:19927   */\n      0x00\n        /* \"#utility.yul\":19919:19934   */\n      revert\n        /* \"#utility.yul\":19946:20137   */\n    tag_169:\n        /* \"#utility.yul\":19986:19989   */\n      0x00\n        /* \"#utility.yul\":20005:20025   */\n      tag_471\n        /* \"#utility.yul\":20023:20024   */\n      dup3\n        /* \"#utility.yul\":20005:20025   */\n      tag_235\n      jump\t// in\n    tag_471:\n        /* \"#utility.yul\":20000:20025   */\n      swap2\n      pop\n        /* \"#utility.yul\":20039:20059   */\n      tag_472\n        /* \"#utility.yul\":20057:20058   */\n      dup4\n        /* \"#utility.yul\":20039:20059   */\n      tag_235\n      jump\t// in\n    tag_472:\n        /* \"#utility.yul\":20034:20059   */\n      swap3\n      pop\n        /* \"#utility.yul\":20082:20083   */\n      dup3\n        /* \"#utility.yul\":20079:20080   */\n      dup3\n        /* \"#utility.yul\":20075:20084   */\n      add\n        /* \"#utility.yul\":20068:20084   */\n      swap1\n      pop\n        /* \"#utility.yul\":20103:20106   */\n      dup1\n        /* \"#utility.yul\":20100:20101   */\n      dup3\n        /* \"#utility.yul\":20097:20107   */\n      gt\n        /* \"#utility.yul\":20094:20130   */\n      iszero\n      tag_473\n      jumpi\n        /* \"#utility.yul\":20110:20128   */\n      tag_474\n      tag_273\n      jump\t// in\n    tag_474:\n        /* \"#utility.yul\":20094:20130   */\n    tag_473:\n        /* \"#utility.yul\":19946:20137   */\n      swap3\n      swap2\n      pop\n      pop\n      jump\t// out\n        /* \"#utility.yul\":20143:20337   */\n    tag_171:\n        /* \"#utility.yul\":20183:20187   */\n      0x00\n        /* \"#utility.yul\":20203:20223   */\n      tag_476\n        /* \"#utility.yul\":20221:20222   */\n      dup3\n        /* \"#utility.yul\":20203:20223   */\n      tag_235\n      jump\t// in\n    tag_476:\n        /* \"#utility.yul\":20198:20223   */\n      swap2\n      pop\n        /* \"#utility.yul\":20237:20257   */\n      tag_477\n        /* \"#utility.yul\":20255:20256   */\n      dup4\n        /* \"#utility.yul\":20237:20257   */\n      tag_235\n      jump\t// in\n    tag_477:\n        /* \"#utility.yul\":20232:20257   */\n      swap3\n      pop\n        /* \"#utility.yul\":20281:20282   */\n      dup3\n        /* \"#utility.yul\":20278:20279   */\n      dup3\n        /* \"#utility.yul\":20274:20283   */\n      sub\n        /* \"#utility.yul\":20266:20283   */\n      swap1\n      pop\n        /* \"#utility.yul\":20305:20306   */\n      dup2\n        /* \"#utility.yul\":20299:20303   */\n      dup2\n        /* \"#utility.yul\":20296:20307   */\n      gt\n        /* \"#utility.yul\":20293:20330   */\n      iszero\n      tag_478\n      jumpi\n        /* \"#utility.yul\":20310:20328   */\n      tag_479\n      tag_273\n      jump\t// in\n    tag_479:\n        /* \"#utility.yul\":20293:20330   */\n    tag_478:\n        /* \"#utility.yul\":20143:20337   */\n      swap3\n      swap2\n      pop\n      pop\n      jump\t// out\n        /* \"#utility.yul\":20343:20514   */\n    tag_274:\n        /* \"#utility.yul\":20483:20506   */\n      0x6d696e7420746f207a65726f2061646472657373210000000000000000000000\n        /* \"#utility.yul\":20479:20480   */\n      0x00\n        /* \"#utility.yul\":20471:20477   */\n      dup3\n        /* \"#utility.yul\":20467:20481   */\n      add\n        /* \"#utility.yul\":20460:20507   */\n      mstore\n        /* \"#utility.yul\":20343:20514   */\n      pop\n      jump\t// out\n        /* \"#utility.yul\":20520:20886   */\n    tag_275:\n        /* \"#utility.yul\":20662:20665   */\n      0x00\n        /* \"#utility.yul\":20683:20750   */\n      tag_482\n        /* \"#utility.yul\":20747:20749   */\n      0x15\n        /* \"#utility.yul\":20742:20745   */\n      dup4\n        /* \"#utility.yul\":20683:20750   */\n      tag_231\n      jump\t// in\n    tag_482:\n        /* \"#utility.yul\":20676:20750   */\n      swap2\n      pop\n        /* \"#utility.yul\":20759:20852   */\n      tag_483\n        /* \"#utility.yul\":20848:20851   */\n      dup3\n        /* \"#utility.yul\":20759:20852   */\n      tag_274\n      jump\t// in\n    tag_483:\n        /* \"#utility.yul\":20877:20879   */\n      0x20\n        /* \"#utility.yul\":20872:20875   */\n      dup3\n        /* \"#utility.yul\":20868:20880   */\n      add\n        /* \"#utility.yul\":20861:20880   */\n      swap1\n      pop\n        /* \"#utility.yul\":20520:20886   */\n      swap2\n      swap1\n      pop\n      jump\t// out\n        /* \"#utility.yul\":20892:21311   */\n    tag_175:\n        /* \"#utility.yul\":21058:21062   */\n      0x00\n        /* \"#utility.yul\":21096:21098   */\n      0x20\n        /* \"#utility.yul\":21085:21094   */\n      dup3\n        /* \"#utility.yul\":21081:21099   */\n      add\n        /* \"#utility.yul\":21073:21099   */\n      swap1\n      pop\n        /* \"#utility.yul\":21145:21154   */\n      dup2\n        /* \"#utility.yul\":21139:21143   */\n      dup2\n        /* \"#utility.yul\":21135:21155   */\n      sub\n        /* \"#utility.yul\":21131:21132   */\n      0x00\n        /* \"#utility.yul\":21120:21129   */\n      dup4\n        /* \"#utility.yul\":21116:21133   */\n      add\n        /* \"#utility.yul\":21109:21156   */\n      mstore\n        /* \"#utility.yul\":21173:21304   */\n      tag_485\n        /* \"#utility.yul\":21299:21303   */\n      dup2\n        /* \"#utility.yul\":21173:21304   */\n      tag_275\n      jump\t// in\n    tag_485:\n        /* \"#utility.yul\":21165:21304   */\n      swap1\n      pop\n        /* \"#utility.yul\":20892:21311   */\n      swap2\n      swap1\n      pop\n      jump\t// out\n        /* \"#utility.yul\":21317:21487   */\n    tag_276:\n        /* \"#utility.yul\":21457:21479   */\n      0x746f6b656e20616c7265616479206d696e746564000000000000000000000000\n        /* \"#utility.yul\":21453:21454   */\n      0x00\n        /* \"#utility.yul\":21445:21451   */\n      dup3\n        /* \"#utility.yul\":21441:21455   */\n      add\n        /* \"#utility.yul\":21434:21480   */\n      mstore\n        /* \"#utility.yul\":21317:21487   */\n      pop\n      jump\t// out\n        /* \"#utility.yul\":21493:21859   */\n    tag_277:\n        /* \"#utility.yul\":21635:21638   */\n      0x00\n        /* \"#utility.yul\":21656:21723   */\n      tag_488\n        /* \"#utility.yul\":21720:21722   */\n      0x14\n        /* \"#utility.yul\":21715:21718   */\n      dup4\n        /* \"#utility.yul\":21656:21723   */\n      tag_231\n      jump\t// in\n    tag_488:\n        /* \"#utility.yul\":21649:21723   */\n      swap2\n      pop\n        /* \"#utility.yul\":21732:21825   */\n      tag_489\n        /* \"#utility.yul\":21821:21824   */\n      dup3\n        /* \"#utility.yul\":21732:21825   */\n      tag_276\n      jump\t// in\n    tag_489:\n        /* \"#utility.yul\":21850:21852   */\n      0x20\n        /* \"#utility.yul\":21845:21848   */\n      dup3\n        /* \"#utility.yul\":21841:21853   */\n      add\n        /* \"#utility.yul\":21834:21853   */\n      swap1\n      pop\n        /* \"#utility.yul\":21493:21859   */\n      swap2\n      swap1\n      pop\n      jump\t// out\n        /* \"#utility.yul\":21865:22284   */\n    tag_178:\n        /* \"#utility.yul\":22031:22035   */\n      0x00\n        /* \"#utility.yul\":22069:22071   */\n      0x20\n        /* \"#utility.yul\":22058:22067   */\n      dup3\n        /* \"#utility.yul\":22054:22072   */\n      add\n        /* \"#utility.yul\":22046:22072   */\n      swap1\n      pop\n        /* \"#utility.yul\":22118:22127   */\n      dup2\n        /* \"#utility.yul\":22112:22116   */\n      dup2\n        /* \"#utility.yul\":22108:22128   */\n      sub\n        /* \"#utility.yul\":22104:22105   */\n      0x00\n        /* \"#utility.yul\":22093:22102   */\n      dup4\n        /* \"#utility.yul\":22089:22106   */\n      add\n        /* \"#utility.yul\":22082:22129   */\n      mstore\n        /* \"#utility.yul\":22146:22277   */\n      tag_491\n        /* \"#utility.yul\":22272:22276   */\n      dup2\n        /* \"#utility.yul\":22146:22277   */\n      tag_277\n      jump\t// in\n    tag_491:\n        /* \"#utility.yul\":22138:22277   */\n      swap1\n      pop\n        /* \"#utility.yul\":21865:22284   */\n      swap2\n      swap1\n      pop\n      jump\t// out\n        /* \"#utility.yul\":22290:22452   */\n    tag_278:\n        /* \"#utility.yul\":22430:22444   */\n      0x6e6f742052656365697665720000000000000000000000000000000000000000\n        /* \"#utility.yul\":22426:22427   */\n      0x00\n        /* \"#utility.yul\":22418:22424   */\n      dup3\n        /* \"#utility.yul\":22414:22428   */\n      add\n        /* \"#utility.yul\":22407:22445   */\n      mstore\n        /* \"#utility.yul\":22290:22452   */\n      pop\n      jump\t// out\n        /* \"#utility.yul\":22458:22824   */\n    tag_279:\n        /* \"#utility.yul\":22600:22603   */\n      0x00\n        /* \"#utility.yul\":22621:22688   */\n      tag_494\n        /* \"#utility.yul\":22685:22687   */\n      0x0c\n        /* \"#utility.yul\":22680:22683   */\n      dup4\n        /* \"#utility.yul\":22621:22688   */\n      tag_231\n      jump\t// in\n    tag_494:\n        /* \"#utility.yul\":22614:22688   */\n      swap2\n      pop\n        /* \"#utility.yul\":22697:22790   */\n      tag_495\n        /* \"#utility.yul\":22786:22789   */\n      dup3\n        /* \"#utility.yul\":22697:22790   */\n      tag_278\n      jump\t// in\n    tag_495:\n        /* \"#utility.yul\":22815:22817   */\n      0x20\n        /* \"#utility.yul\":22810:22813   */\n      dup3\n        /* \"#utility.yul\":22806:22818   */\n      add\n        /* \"#utility.yul\":22799:22818   */\n      swap1\n      pop\n        /* \"#utility.yul\":22458:22824   */\n      swap2\n      swap1\n      pop\n      jump\t// out\n        /* \"#utility.yul\":22830:23249   */\n    tag_185:\n        /* \"#utility.yul\":22996:23000   */\n      0x00\n        /* \"#utility.yul\":23034:23036   */\n      0x20\n        /* \"#utility.yul\":23023:23032   */\n      dup3\n        /* \"#utility.yul\":23019:23037   */\n      add\n        /* \"#utility.yul\":23011:23037   */\n      swap1\n      pop\n        /* \"#utility.yul\":23083:23092   */\n      dup2\n        /* \"#utility.yul\":23077:23081   */\n      dup2\n        /* \"#utility.yul\":23073:23093   */\n      sub\n        /* \"#utility.yul\":23069:23070   */\n      0x00\n        /* \"#utility.yul\":23058:23067   */\n      dup4\n        /* \"#utility.yul\":23054:23071   */\n      add\n        /* \"#utility.yul\":23047:23094   */\n      mstore\n        /* \"#utility.yul\":23111:23242   */\n      tag_497\n        /* \"#utility.yul\":23237:23241   */\n      dup2\n        /* \"#utility.yul\":23111:23242   */\n      tag_279\n      jump\t// in\n    tag_497:\n        /* \"#utility.yul\":23103:23242   */\n      swap1\n      pop\n        /* \"#utility.yul\":22830:23249   */\n      swap2\n      swap1\n      pop\n      jump\t// out\n        /* \"#utility.yul\":23255:23488   */\n    tag_193:\n        /* \"#utility.yul\":23294:23297   */\n      0x00\n        /* \"#utility.yul\":23317:23341   */\n      tag_499\n        /* \"#utility.yul\":23335:23340   */\n      dup3\n        /* \"#utility.yul\":23317:23341   */\n      tag_235\n      jump\t// in\n    tag_499:\n        /* \"#utility.yul\":23308:23341   */\n      swap2\n      pop\n        /* \"#utility.yul\":23363:23429   */\n      0xffffffffffffffffffffffffffffffffffffffffffffffffffffffffffffffff\n        /* \"#utility.yul\":23356:23361   */\n      dup3\n        /* \"#utility.yul\":23353:23430   */\n      sub\n        /* \"#utility.yul\":23350:23453   */\n      tag_500\n      jumpi\n        /* \"#utility.yul\":23433:23451   */\n      tag_501\n      tag_273\n      jump\t// in\n    tag_501:\n        /* \"#utility.yul\":23350:23453   */\n    tag_500:\n        /* \"#utility.yul\":23480:23481   */\n      0x01\n        /* \"#utility.yul\":23473:23478   */\n      dup3\n        /* \"#utility.yul\":23469:23482   */\n      add\n        /* \"#utility.yul\":23462:23482   */\n      swap1\n      pop\n        /* \"#utility.yul\":23255:23488   */\n      swap2\n      swap1\n      pop\n      jump\t// out\n        /* \"#utility.yul\":23494:23674   */\n    tag_280:\n        /* \"#utility.yul\":23542:23619   */\n      0x4e487b7100000000000000000000000000000000000000000000000000000000\n        /* \"#utility.yul\":23539:23540   */\n      0x00\n        /* \"#utility.yul\":23532:23620   */\n      mstore\n        /* \"#utility.yul\":23639:23643   */\n      0x12\n        /* \"#utility.yul\":23636:23637   */\n      0x04\n        /* \"#utility.yul\":23629:23644   */\n      mstore\n        /* \"#utility.yul\":23663:23667   */\n      0x24\n        /* \"#utility.yul\":23660:23661   */\n      0x00\n        /* \"#utility.yul\":23653:23668   */\n      revert\n        /* \"#utility.yul\":23680:23865   */\n    tag_195:\n        /* \"#utility.yul\":23720:23721   */\n      0x00\n        /* \"#utility.yul\":23737:23757   */\n      tag_504\n        /* \"#utility.yul\":23755:23756   */\n      dup3\n        /* \"#utility.yul\":23737:23757   */\n      tag_235\n      jump\t// in\n    tag_504:\n        /* \"#utility.yul\":23732:23757   */\n      swap2\n      pop\n        /* \"#utility.yul\":23771:23791   */\n      tag_505\n        /* \"#utility.yul\":23789:23790   */\n      dup4\n        /* \"#utility.yul\":23771:23791   */\n      tag_235\n      jump\t// in\n    tag_505:\n        /* \"#utility.yul\":23766:23791   */\n      swap3\n      pop\n        /* \"#utility.yul\":23810:23811   */\n      dup3\n        /* \"#utility.yul\":23800:23835   */\n      tag_506\n      jumpi\n        /* \"#utility.yul\":23815:23833   */\n      tag_507\n      tag_280\n      jump\t// in\n    tag_507:\n        /* \"#utility.yul\":23800:23835   */\n    tag_506:\n        /* \"#utility.yul\":23857:23858   */\n      dup3\n        /* \"#utility.yul\":23854:23855   */\n      dup3\n        /* \"#utility.yul\":23850:23859   */\n      div\n        /* \"#utility.yul\":23845:23859   */\n      swap1\n      pop\n        /* \"#utility.yul\":23680:23865   */\n      swap3\n      swap2\n      pop\n      pop\n      jump\t// out\n        /* \"#utility.yul\":23871:24047   */\n    tag_204:\n        /* \"#utility.yul\":23903:23904   */\n      0x00\n        /* \"#utility.yul\":23920:23940   */\n      tag_509\n        /* \"#utility.yul\":23938:23939   */\n      dup3\n        /* \"#utility.yul\":23920:23940   */\n      tag_235\n      jump\t// in\n    tag_509:\n        /* \"#utility.yul\":23915:23940   */\n      swap2\n      pop\n        /* \"#utility.yul\":23954:23974   */\n      tag_510\n        /* \"#utility.yul\":23972:23973   */\n      dup4\n        /* \"#utility.yul\":23954:23974   */\n      tag_235\n      jump\t// in\n    tag_510:\n        /* \"#utility.yul\":23949:23974   */\n      swap3\n      pop\n        /* \"#utility.yul\":23993:23994   */\n      dup3\n        /* \"#utility.yul\":23983:24018   */\n      tag_511\n      jumpi\n        /* \"#utility.yul\":23998:24016   */\n      tag_512\n      tag_280\n      jump\t// in\n    tag_512:\n        /* \"#utility.yul\":23983:24018   */\n    tag_511:\n        /* \"#utility.yul\":24039:24040   */\n      dup3\n        /* \"#utility.yul\":24036:24037   */\n      dup3\n        /* \"#utility.yul\":24032:24041   */\n      mod\n        /* \"#utility.yul\":24027:24041   */\n      swap1\n      pop\n        /* \"#utility.yul\":23871:24047   */\n      swap3\n      swap2\n      pop\n      pop\n      jump\t// out\n        /* \"#utility.yul\":24053:24233   */\n    tag_208:\n        /* \"#utility.yul\":24101:24178   */\n      0x4e487b7100000000000000000000000000000000000000000000000000000000\n        /* \"#utility.yul\":24098:24099   */\n      0x00\n        /* \"#utility.yul\":24091:24179   */\n      mstore\n        /* \"#utility.yul\":24198:24202   */\n      0x32\n        /* \"#utility.yul\":24195:24196   */\n      0x04\n        /* \"#utility.yul\":24188:24203   */\n      mstore\n        /* \"#utility.yul\":24222:24226   */\n      0x24\n        /* \"#utility.yul\":24219:24220   */\n      0x00\n        /* \"#utility.yul\":24212:24227   */\n      revert\n        /* \"#utility.yul\":24239:24337   */\n    tag_281:\n        /* \"#utility.yul\":24290:24296   */\n      0x00\n        /* \"#utility.yul\":24324:24329   */\n      dup2\n        /* \"#utility.yul\":24318:24330   */\n      mload\n        /* \"#utility.yul\":24308:24330   */\n      swap1\n      pop\n        /* \"#utility.yul\":24239:24337   */\n      swap2\n      swap1\n      pop\n      jump\t// out\n        /* \"#utility.yul\":24343:24511   */\n    tag_282:\n        /* \"#utility.yul\":24426:24437   */\n      0x00\n        /* \"#utility.yul\":24460:24466   */\n      dup3\n        /* \"#utility.yul\":24455:24458   */\n      dup3\n        /* \"#utility.yul\":24448:24467   */\n      mstore\n        /* \"#utility.yul\":24500:24504   */\n      0x20\n        /* \"#utility.yul\":24495:24498   */\n      dup3\n        /* \"#utility.yul\":24491:24505   */\n      add\n        /* \"#utility.yul\":24476:24505   */\n      swap1\n      pop\n        /* \"#utility.yul\":24343:24511   */\n      swap3\n      swap2\n      pop\n      pop\n      jump\t// out\n        /* \"#utility.yul\":24517:24890   */\n    tag_283:\n        /* \"#utility.yul\":24603:24606   */\n      0x00\n        /* \"#utility.yul\":24631:24669   */\n      tag_517\n        /* \"#utility.yul\":24663:24668   */\n      dup3\n        /* \"#utility.yul\":24631:24669   */\n      tag_281\n      jump\t// in\n    tag_517:\n        /* \"#utility.yul\":24685:24755   */\n      tag_518\n        /* \"#utility.yul\":24748:24754   */\n      dup2\n        /* \"#utility.yul\":24743:24746   */\n      dup6\n        /* \"#utility.yul\":24685:24755   */\n      tag_282\n      jump\t// in\n    tag_518:\n        /* \"#utility.yul\":24678:24755   */\n      swap4\n      pop\n        /* \"#utility.yul\":24764:24829   */\n      tag_519\n        /* \"#utility.yul\":24822:24828   */\n      dup2\n        /* \"#utility.yul\":24817:24820   */\n      dup6\n        /* \"#utility.yul\":24810:24814   */\n      0x20\n        /* \"#utility.yul\":24803:24808   */\n      dup7\n        /* \"#utility.yul\":24799:24815   */\n      add\n        /* \"#utility.yul\":24764:24829   */\n      tag_232\n      jump\t// in\n    tag_519:\n        /* \"#utility.yul\":24854:24883   */\n      tag_520\n        /* \"#utility.yul\":24876:24882   */\n      dup2\n        /* \"#utility.yul\":24854:24883   */\n      tag_233\n      jump\t// in\n    tag_520:\n        /* \"#utility.yul\":24849:24852   */\n      dup5\n        /* \"#utility.yul\":24845:24884   */\n      add\n        /* \"#utility.yul\":24838:24884   */\n      swap2\n      pop\n        /* \"#utility.yul\":24607:24890   */\n      pop\n        /* \"#utility.yul\":24517:24890   */\n      swap3\n      swap2\n      pop\n      pop\n      jump\t// out\n        /* \"#utility.yul\":24896:25536   */\n    tag_215:\n        /* \"#utility.yul\":25091:25095   */\n      0x00\n        /* \"#utility.yul\":25129:25132   */\n      0x80\n        /* \"#utility.yul\":25118:25127   */\n      dup3\n        /* \"#utility.yul\":25114:25133   */\n      add\n        /* \"#utility.yul\":25106:25133   */\n      swap1\n      pop\n        /* \"#utility.yul\":25143:25214   */\n      tag_522\n        /* \"#utility.yul\":25211:25212   */\n      0x00\n        /* \"#utility.yul\":25200:25209   */\n      dup4\n        /* \"#utility.yul\":25196:25213   */\n      add\n        /* \"#utility.yul\":25187:25193   */\n      dup8\n        /* \"#utility.yul\":25143:25214   */\n      tag_240\n      jump\t// in\n    tag_522:\n        /* \"#utility.yul\":25224:25296   */\n      tag_523\n        /* \"#utility.yul\":25292:25294   */\n      0x20\n        /* \"#utility.yul\":25281:25290   */\n      dup4\n        /* \"#utility.yul\":25277:25295   */\n      add\n        /* \"#utility.yul\":25268:25274   */\n      dup7\n        /* \"#utility.yul\":25224:25296   */\n      tag_240\n      jump\t// in\n    tag_523:\n        /* \"#utility.yul\":25306:25378   */\n      tag_524\n        /* \"#utility.yul\":25374:25376   */\n      0x40\n        /* \"#utility.yul\":25363:25372   */\n      dup4\n        /* \"#utility.yul\":25359:25377   */\n      add\n        /* \"#utility.yul\":25350:25356   */\n      dup6\n        /* \"#utility.yul\":25306:25378   */\n      tag_243\n      jump\t// in\n    tag_524:\n        /* \"#utility.yul\":25425:25434   */\n      dup2\n        /* \"#utility.yul\":25419:25423   */\n      dup2\n        /* \"#utility.yul\":25415:25435   */\n      sub\n        /* \"#utility.yul\":25410:25412   */\n      0x60\n        /* \"#utility.yul\":25399:25408   */\n      dup4\n        /* \"#utility.yul\":25395:25413   */\n      add\n        /* \"#utility.yul\":25388:25436   */\n      mstore\n        /* \"#utility.yul\":25453:25529   */\n      tag_525\n        /* \"#utility.yul\":25524:25528   */\n      dup2\n        /* \"#utility.yul\":25515:25521   */\n      dup5\n        /* \"#utility.yul\":25453:25529   */\n      tag_283\n      jump\t// in\n    tag_525:\n        /* \"#utility.yul\":25445:25529   */\n      swap1\n      pop\n        /* \"#utility.yul\":24896:25536   */\n      swap6\n      swap5\n      pop\n      pop\n      pop\n      pop\n      pop\n      jump\t// out\n        /* \"#utility.yul\":25542:25683   */\n    tag_284:\n        /* \"#utility.yul\":25598:25603   */\n      0x00\n        /* \"#utility.yul\":25629:25635   */\n      dup2\n        /* \"#utility.yul\":25623:25636   */\n      mload\n        /* \"#utility.yul\":25614:25636   */\n      swap1\n      pop\n        /* \"#utility.yul\":25645:25677   */\n      tag_527\n        /* \"#utility.yul\":25671:25676   */\n      dup2\n        /* \"#utility.yul\":25645:25677   */\n      tag_226\n      jump\t// in\n    tag_527:\n        /* \"#utility.yul\":25542:25683   */\n      swap3\n      swap2\n      pop\n      pop\n      jump\t// out\n        /* \"#utility.yul\":25689:26038   */\n    tag_219:\n        /* \"#utility.yul\":25758:25764   */\n      0x00\n        /* \"#utility.yul\":25807:25809   */\n      0x20\n        /* \"#utility.yul\":25795:25804   */\n      dup3\n        /* \"#utility.yul\":25786:25793   */\n      dup5\n        /* \"#utility.yul\":25782:25805   */\n      sub\n        /* \"#utility.yul\":25778:25810   */\n      slt\n        /* \"#utility.yul\":25775:25894   */\n      iszero\n      tag_529\n      jumpi\n        /* \"#utility.yul\":25813:25892   */\n      tag_530\n      tag_223\n      jump\t// in\n    tag_530:\n        /* \"#utility.yul\":25775:25894   */\n    tag_529:\n        /* \"#utility.yul\":25933:25934   */\n      0x00\n        /* \"#utility.yul\":25958:26021   */\n      tag_531\n        /* \"#utility.yul\":26013:26020   */\n      dup5\n        /* \"#utility.yul\":26004:26010   */\n      dup3\n        /* \"#utility.yul\":25993:26002   */\n      dup6\n        /* \"#utility.yul\":25989:26011   */\n      add\n        /* \"#utility.yul\":25958:26021   */\n      tag_284\n      jump\t// in\n    tag_531:\n        /* \"#utility.yul\":25948:26021   */\n      swap2\n      pop\n        /* \"#utility.yul\":25904:26031   */\n      pop\n        /* \"#utility.yul\":25689:26038   */\n      swap3\n      swap2\n      pop\n      pop\n      jump\t// out\n    stop\n    data_8382b382247cd07401a2ef2f394137c3f3b0972798bae0a9c78b0c261acbb56b 697066733a2f2f516d65536a53696e4870506e6d586d73704d6a776958794e367a533445397a63636172694752336a7863615774712f\n\n    auxdata: 0xa2646970667358221220b9ea38a51399fbdcee88e7071c4cc52fe116a81145b0f6c52751db82931ec96664736f6c63430008110033\n}\n",
				"bytecode": {
					"linkReferences": {},
					"object": "60806040526103e86006553480156200001757600080fd5b50604051620029f6380380620029f683398181016040528101906200003d919062000200565b81818160009081620000509190620004d0565b508060019081620000629190620004d0565b5050505050620005b7565b6000604051905090565b600080fd5b600080fd5b600080fd5b600080fd5b6000601f19601f8301169050919050565b7f4e487b7100000000000000000000000000000000000000000000000000000000600052604160045260246000fd5b620000d6826200008b565b810181811067ffffffffffffffff82111715620000f857620000f76200009c565b5b80604052505050565b60006200010d6200006d565b90506200011b8282620000cb565b919050565b600067ffffffffffffffff8211156200013e576200013d6200009c565b5b62000149826200008b565b9050602081019050919050565b60005b838110156200017657808201518184015260208101905062000159565b60008484015250505050565b600062000199620001938462000120565b62000101565b905082815260208101848484011115620001b857620001b762000086565b5b620001c584828562000156565b509392505050565b600082601f830112620001e557620001e462000081565b5b8151620001f784826020860162000182565b91505092915050565b600080604083850312156200021a576200021962000077565b5b600083015167ffffffffffffffff8111156200023b576200023a6200007c565b5b6200024985828601620001cd565b925050602083015167ffffffffffffffff8111156200026d576200026c6200007c565b5b6200027b85828601620001cd565b9150509250929050565b600081519050919050565b7f4e487b7100000000000000000000000000000000000000000000000000000000600052602260045260246000fd5b60006002820490506001821680620002d857607f821691505b602082108103620002ee57620002ed62000290565b5b50919050565b60008190508160005260206000209050919050565b60006020601f8301049050919050565b600082821b905092915050565b600060088302620003587fffffffffffffffffffffffffffffffffffffffffffffffffffffffffffffffff8262000319565b62000364868362000319565b95508019841693508086168417925050509392505050565b6000819050919050565b6000819050919050565b6000620003b1620003ab620003a5846200037c565b62000386565b6200037c565b9050919050565b6000819050919050565b620003cd8362000390565b620003e5620003dc82620003b8565b84845462000326565b825550505050565b600090565b620003fc620003ed565b62000409818484620003c2565b505050565b5b81811015620004315762000425600082620003f2565b6001810190506200040f565b5050565b601f82111562000480576200044a81620002f4565b620004558462000309565b8101602085101562000465578190505b6200047d620004748562000309565b8301826200040e565b50505b505050565b600082821c905092915050565b6000620004a56000198460080262000485565b1980831691505092915050565b6000620004c0838362000492565b9150826002028217905092915050565b620004db8262000285565b67ffffffffffffffff811115620004f757620004f66200009c565b5b620005038254620002bf565b6200051082828562000435565b600060209050601f83116001811462000548576000841562000533578287015190505b6200053f8582620004b2565b865550620005af565b601f1984166200055886620002f4565b60005b8281101562000582578489015182556001820191506020850194506020810190506200055b565b86831015620005a257848901516200059e601f89168262000492565b8355505b6001600288020188555050505b505050505050565b61242f80620005c76000396000f3fe608060405234801561001057600080fd5b50600436106100f55760003560e01c80636352211e11610097578063b88d4fde11610066578063b88d4fde14610282578063bb8a16bd1461029e578063c87b56dd146102bc578063e985e9c5146102ec576100f5565b80636352211e146101e857806370a082311461021857806395d89b4114610248578063a22cb46514610266576100f5565b8063095ea7b3116100d3578063095ea7b31461017857806323b872dd1461019457806340c10f19146101b057806342842e0e146101cc576100f5565b806301ffc9a7146100fa57806306fdde031461012a578063081812fc14610148575b600080fd5b610114600480360381019061010f919061168f565b61031c565b60405161012191906116d7565b60405180910390f35b610132610456565b60405161013f9190611782565b60405180910390f35b610162600480360381019061015d91906117da565b6104e4565b60405161016f9190611848565b60405180910390f35b610192600480360381019061018d919061188f565b6105c2565b005b6101ae60048036038101906101a991906118cf565b610709565b005b6101ca60048036038101906101c5919061188f565b610772565b005b6101e660048036038101906101e191906118cf565b6107d1565b005b61020260048036038101906101fd91906117da565b6107f1565b60405161020f9190611848565b60405180910390f35b610232600480360381019061022d9190611922565b61089d565b60405161023f919061195e565b60405180910390f35b610250610954565b60405161025d9190611782565b60405180910390f35b610280600480360381019061027b91906119a5565b6109e2565b005b61029c60048036038101906102979190611b1a565b610adf565b005b6102a6610b4a565b6040516102b3919061195e565b60405180910390f35b6102d660048036038101906102d191906117da565b610b50565b6040516102e39190611782565b60405180910390f35b61030660048036038101906103019190611b9d565b610c51565b60405161031391906116d7565b60405180910390f35b60007f80ac58cd000000000000000000000000000000000000000000000000000000007bffffffffffffffffffffffffffffffffffffffffffffffffffffffff1916827bffffffffffffffffffffffffffffffffffffffffffffffffffffffff191614806103e757507f01ffc9a7000000000000000000000000000000000000000000000000000000007bffffffffffffffffffffffffffffffffffffffffffffffffffffffff1916827bffffffffffffffffffffffffffffffffffffffffffffffffffffffff1916145b8061044f57507f5b5e139f000000000000000000000000000000000000000000000000000000007bffffffffffffffffffffffffffffffffffffffffffffffffffffffff1916827bffffffffffffffffffffffffffffffffffffffffffffffffffffffff1916145b9050919050565b6000805461046390611c0c565b80601f016020809104026020016040519081016040528092919081815260200182805461048f90611c0c565b80156104dc5780601f106104b1576101008083540402835291602001916104dc565b820191906000526020600020905b8154815290600101906020018083116104bf57829003601f168201915b505050505081565b60008073ffffffffffffffffffffffffffffffffffffffff166002600084815260200190815260200160002060009054906101000a900473ffffffffffffffffffffffffffffffffffffffff1673ffffffffffffffffffffffffffffffffffffffff1603610587576040517f08c379a000000000000000000000000000000000000000000000000000000000815260040161057e90611c89565b60405180910390fd5b6004600083815260200190815260200160002060009054906101000a900473ffffffffffffffffffffffffffffffffffffffff169050919050565b60006002600083815260200190815260200160002060009054906101000a900473ffffffffffffffffffffffffffffffffffffffff1690508073ffffffffffffffffffffffffffffffffffffffff163373ffffffffffffffffffffffffffffffffffffffff1614806106ba5750600560008273ffffffffffffffffffffffffffffffffffffffff1673ffffffffffffffffffffffffffffffffffffffff16815260200190815260200160002060003373ffffffffffffffffffffffffffffffffffffffff1673ffffffffffffffffffffffffffffffffffffffff16815260200190815260200160002060009054906101000a900460ff165b6106f9576040517f08c379a00000000000000000000000000000000000000000000000000000000081526004016106f090611cf5565b60405180910390fd5b610704818484610ce5565b505050565b6000610714826107f1565b9050610721813384610d97565b610760576040517f08c379a000000000000000000000000000000000000000000000000000000000815260040161075790611d61565b60405180910390fd5b61076c81858585610ecb565b50505050565b60008110158015610784575060065481105b6107c3576040517f08c379a00000000000000000000000000000000000000000000000000000000081526004016107ba90611dcd565b60405180910390fd5b6107cd8282611115565b5050565b6107ec83838360405180602001604052806000815250610adf565b505050565b60006002600083815260200190815260200160002060009054906101000a900473ffffffffffffffffffffffffffffffffffffffff169050600073ffffffffffffffffffffffffffffffffffffffff168173ffffffffffffffffffffffffffffffffffffffff1603610898576040517f08c379a000000000000000000000000000000000000000000000000000000000815260040161088f90611c89565b60405180910390fd5b919050565b60008073ffffffffffffffffffffffffffffffffffffffff168273ffffffffffffffffffffffffffffffffffffffff160361090d576040517f08c379a000000000000000000000000000000000000000000000000000000000815260040161090490611e39565b60405180910390fd5b600360008373ffffffffffffffffffffffffffffffffffffffff1673ffffffffffffffffffffffffffffffffffffffff168152602001908152602001600020549050919050565b6001805461096190611c0c565b80601f016020809104026020016040519081016040528092919081815260200182805461098d90611c0c565b80156109da5780601f106109af576101008083540402835291602001916109da565b820191906000526020600020905b8154815290600101906020018083116109bd57829003601f168201915b505050505081565b80600560003373ffffffffffffffffffffffffffffffffffffffff1673ffffffffffffffffffffffffffffffffffffffff16815260200190815260200160002060008473ffffffffffffffffffffffffffffffffffffffff1673ffffffffffffffffffffffffffffffffffffffff16815260200190815260200160002060006101000a81548160ff0219169083151502179055508173ffffffffffffffffffffffffffffffffffffffff163373ffffffffffffffffffffffffffffffffffffffff167f17307eab39ab6107e8899845ad3d59bd9653f200f220920489ca2b5937696c3183604051610ad391906116d7565b60405180910390a35050565b6000610aea836107f1565b9050610af7813385610d97565b610b36576040517f08c379a0000000000000000000000000000000000000000000000000000000008152600401610b2d90611d61565b60405180910390fd5b610b43818686868661132f565b5050505050565b60065481565b6060600073ffffffffffffffffffffffffffffffffffffffff166002600084815260200190815260200160002060009054906101000a900473ffffffffffffffffffffffffffffffffffffffff1673ffffffffffffffffffffffffffffffffffffffff1603610bf4576040517f08c379a0000000000000000000000000000000000000000000000000000000008152600401610beb90611ea5565b60405180910390fd5b6000610bfe61138d565b90506000815111610c1e5760405180602001604052806000815250610c49565b80610c28846113ad565b604051602001610c39929190611f01565b6040516020818303038152906040525b915050919050565b6000600560008473ffffffffffffffffffffffffffffffffffffffff1673ffffffffffffffffffffffffffffffffffffffff16815260200190815260200160002060008373ffffffffffffffffffffffffffffffffffffffff1673ffffffffffffffffffffffffffffffffffffffff16815260200190815260200160002060009054906101000a900460ff16905092915050565b816004600083815260200190815260200160002060006101000a81548173ffffffffffffffffffffffffffffffffffffffff021916908373ffffffffffffffffffffffffffffffffffffffff160217905550808273ffffffffffffffffffffffffffffffffffffffff168473ffffffffffffffffffffffffffffffffffffffff167f8c5be1e5ebec7d5bd14f71427d1e84f3dd0314c0f7b2291e5b200ac8c7c3b92560405160405180910390a4505050565b60008373ffffffffffffffffffffffffffffffffffffffff168373ffffffffffffffffffffffffffffffffffffffff161480610e3157508273ffffffffffffffffffffffffffffffffffffffff166004600084815260200190815260200160002060009054906101000a900473ffffffffffffffffffffffffffffffffffffffff1673ffffffffffffffffffffffffffffffffffffffff16145b80610ec25750600560008573ffffffffffffffffffffffffffffffffffffffff1673ffffffffffffffffffffffffffffffffffffffff16815260200190815260200160002060008473ffffffffffffffffffffffffffffffffffffffff1673ffffffffffffffffffffffffffffffffffffffff16815260200190815260200160002060009054906101000a900460ff165b90509392505050565b8373ffffffffffffffffffffffffffffffffffffffff168373ffffffffffffffffffffffffffffffffffffffff1614610f39576040517f08c379a0000000000000000000000000000000000000000000000000000000008152600401610f3090611f71565b60405180910390fd5b600073ffffffffffffffffffffffffffffffffffffffff168273ffffffffffffffffffffffffffffffffffffffff1603610fa8576040517f08c379a0000000000000000000000000000000000000000000000000000000008152600401610f9f90611fdd565b60405180910390fd5b610fb484600083610ce5565b6001600360008473ffffffffffffffffffffffffffffffffffffffff1673ffffffffffffffffffffffffffffffffffffffff1681526020019081526020016000206000828254611004919061202c565b925050819055506001600360008473ffffffffffffffffffffffffffffffffffffffff1673ffffffffffffffffffffffffffffffffffffffff168152602001908152602001600020600082825461105b9190612060565b92505081905550816002600083815260200190815260200160002060006101000a81548173ffffffffffffffffffffffffffffffffffffffff021916908373ffffffffffffffffffffffffffffffffffffffff160217905550808273ffffffffffffffffffffffffffffffffffffffff168473ffffffffffffffffffffffffffffffffffffffff167fddf252ad1be2c89b69c2b068fc378daa952ba7f163c4a11628f55a4df523b3ef60405160405180910390a450505050565b600073ffffffffffffffffffffffffffffffffffffffff168273ffffffffffffffffffffffffffffffffffffffff1603611184576040517f08c379a000000000000000000000000000000000000000000000000000000000815260040161117b906120e0565b60405180910390fd5b600073ffffffffffffffffffffffffffffffffffffffff166002600083815260200190815260200160002060009054906101000a900473ffffffffffffffffffffffffffffffffffffffff1673ffffffffffffffffffffffffffffffffffffffff1614611226576040517f08c379a000000000000000000000000000000000000000000000000000000000815260040161121d9061214c565b60405180910390fd5b6001600360008473ffffffffffffffffffffffffffffffffffffffff1673ffffffffffffffffffffffffffffffffffffffff1681526020019081526020016000206000828254611276919061202c565b92505081905550816002600083815260200190815260200160002060006101000a81548173ffffffffffffffffffffffffffffffffffffffff021916908373ffffffffffffffffffffffffffffffffffffffff160217905550808273ffffffffffffffffffffffffffffffffffffffff16600073ffffffffffffffffffffffffffffffffffffffff167fddf252ad1be2c89b69c2b068fc378daa952ba7f163c4a11628f55a4df523b3ef60405160405180910390a45050565b61133b8484848461150d565b61137a576040517f08c379a0000000000000000000000000000000000000000000000000000000008152600401611371906121b8565b60405180910390fd5b61138685858585610ecb565b5050505050565b60606040518060600160405280603681526020016123c460369139905090565b6060600082036113f4576040518060400160405280600181526020017f30000000000000000000000000000000000000000000000000000000000000008152509050611508565b600082905060005b6000821461142657808061140f906121d8565b915050600a8261141f919061224f565b91506113fc565b60008167ffffffffffffffff811115611442576114416119ef565b5b6040519080825280601f01601f1916602001820160405280156114745781602001600182028036833780820191505090505b5090505b600085146115015760018261148d9190612060565b9150600a8561149c9190612280565b60306114a8919061202c565b60f81b8183815181106114be576114bd6122b1565b5b60200101907effffffffffffffffffffffffffffffffffffffffffffffffffffffffffffff1916908160001a905350600a856114fa919061224f565b9450611478565b8093505050505b919050565b600061152e8473ffffffffffffffffffffffffffffffffffffffff16611610565b156116035763150b7a0260e01b7bffffffffffffffffffffffffffffffffffffffffffffffffffffffff19168473ffffffffffffffffffffffffffffffffffffffff1663150b7a02338887876040518563ffffffff1660e01b81526004016115999493929190612335565b6020604051808303816000875af11580156115b8573d6000803e3d6000fd5b505050506040513d601f19601f820116820180604052508101906115dc9190612396565b7bffffffffffffffffffffffffffffffffffffffffffffffffffffffff1916149050611608565b600190505b949350505050565b600080823b905060008111915050919050565b6000604051905090565b600080fd5b600080fd5b60007fffffffff0000000000000000000000000000000000000000000000000000000082169050919050565b61166c81611637565b811461167757600080fd5b50565b60008135905061168981611663565b92915050565b6000602082840312156116a5576116a461162d565b5b60006116b38482850161167a565b91505092915050565b60008115159050919050565b6116d1816116bc565b82525050565b60006020820190506116ec60008301846116c8565b92915050565b600081519050919050565b600082825260208201905092915050565b60005b8381101561172c578082015181840152602081019050611711565b60008484015250505050565b6000601f19601f8301169050919050565b6000611754826116f2565b61175e81856116fd565b935061176e81856020860161170e565b61177781611738565b840191505092915050565b6000602082019050818103600083015261179c8184611749565b905092915050565b6000819050919050565b6117b7816117a4565b81146117c257600080fd5b50565b6000813590506117d4816117ae565b92915050565b6000602082840312156117f0576117ef61162d565b5b60006117fe848285016117c5565b91505092915050565b600073ffffffffffffffffffffffffffffffffffffffff82169050919050565b600061183282611807565b9050919050565b61184281611827565b82525050565b600060208201905061185d6000830184611839565b92915050565b61186c81611827565b811461187757600080fd5b50565b60008135905061188981611863565b92915050565b600080604083850312156118a6576118a561162d565b5b60006118b48582860161187a565b92505060206118c5858286016117c5565b9150509250929050565b6000806000606084860312156118e8576118e761162d565b5b60006118f68682870161187a565b93505060206119078682870161187a565b9250506040611918868287016117c5565b9150509250925092565b6000602082840312156119385761193761162d565b5b60006119468482850161187a565b91505092915050565b611958816117a4565b82525050565b6000602082019050611973600083018461194f565b92915050565b611982816116bc565b811461198d57600080fd5b50565b60008135905061199f81611979565b92915050565b600080604083850312156119bc576119bb61162d565b5b60006119ca8582860161187a565b92505060206119db85828601611990565b9150509250929050565b600080fd5b600080fd5b7f4e487b7100000000000000000000000000000000000000000000000000000000600052604160045260246000fd5b611a2782611738565b810181811067ffffffffffffffff82111715611a4657611a456119ef565b5b80604052505050565b6000611a59611623565b9050611a658282611a1e565b919050565b600067ffffffffffffffff821115611a8557611a846119ef565b5b611a8e82611738565b9050602081019050919050565b82818337600083830152505050565b6000611abd611ab884611a6a565b611a4f565b905082815260208101848484011115611ad957611ad86119ea565b5b611ae4848285611a9b565b509392505050565b600082601f830112611b0157611b006119e5565b5b8135611b11848260208601611aaa565b91505092915050565b60008060008060808587031215611b3457611b3361162d565b5b6000611b428782880161187a565b9450506020611b538782880161187a565b9350506040611b64878288016117c5565b925050606085013567ffffffffffffffff811115611b8557611b84611632565b5b611b9187828801611aec565b91505092959194509250565b60008060408385031215611bb457611bb361162d565b5b6000611bc28582860161187a565b9250506020611bd38582860161187a565b9150509250929050565b7f4e487b7100000000000000000000000000000000000000000000000000000000600052602260045260246000fd5b60006002820490506001821680611c2457607f821691505b602082108103611c3757611c36611bdd565b5b50919050565b7f746f6b656e20646f65736e6f7420657869737400000000000000000000000000600082015250565b6000611c736013836116fd565b9150611c7e82611c3d565b602082019050919050565b60006020820190508181036000830152611ca281611c66565b9050919050565b7f6e6f74206f776e6572206e6f7220617070726f76656420666f7220616c6c0000600082015250565b6000611cdf601e836116fd565b9150611cea82611ca9565b602082019050919050565b60006020820190508181036000830152611d0e81611cd2565b9050919050565b7f6e6f74206f776e6572206e6f7220617070726f76656400000000000000000000600082015250565b6000611d4b6016836116fd565b9150611d5682611d15565b602082019050919050565b60006020820190508181036000830152611d7a81611d3e565b9050919050565b7f746f6b656e4964206f7574206f662072616e6765000000000000000000000000600082015250565b6000611db76014836116fd565b9150611dc282611d81565b602082019050919050565b60006020820190508181036000830152611de681611daa565b9050919050565b7f6f776e6572203d207a65726f2061646472657373000000000000000000000000600082015250565b6000611e236014836116fd565b9150611e2e82611ded565b602082019050919050565b60006020820190508181036000830152611e5281611e16565b9050919050565b7f546f6b656e204e6f742045786973740000000000000000000000000000000000600082015250565b6000611e8f600f836116fd565b9150611e9a82611e59565b602082019050919050565b60006020820190508181036000830152611ebe81611e82565b9050919050565b600081905092915050565b6000611edb826116f2565b611ee58185611ec5565b9350611ef581856020860161170e565b80840191505092915050565b6000611f0d8285611ed0565b9150611f198284611ed0565b91508190509392505050565b7f6e6f74206f776e65720000000000000000000000000000000000000000000000600082015250565b6000611f5b6009836116fd565b9150611f6682611f25565b602082019050919050565b60006020820190508181036000830152611f8a81611f4e565b9050919050565b7f7472616e7366657220746f20746865207a65726f206164647265737300000000600082015250565b6000611fc7601c836116fd565b9150611fd282611f91565b602082019050919050565b60006020820190508181036000830152611ff681611fba565b9050919050565b7f4e487b7100000000000000000000000000000000000000000000000000000000600052601160045260246000fd5b6000612037826117a4565b9150612042836117a4565b925082820190508082111561205a57612059611ffd565b5b92915050565b600061206b826117a4565b9150612076836117a4565b925082820390508181111561208e5761208d611ffd565b5b92915050565b7f6d696e7420746f207a65726f2061646472657373210000000000000000000000600082015250565b60006120ca6015836116fd565b91506120d582612094565b602082019050919050565b600060208201905081810360008301526120f9816120bd565b9050919050565b7f746f6b656e20616c7265616479206d696e746564000000000000000000000000600082015250565b60006121366014836116fd565b915061214182612100565b602082019050919050565b6000602082019050818103600083015261216581612129565b9050919050565b7f6e6f742052656365697665720000000000000000000000000000000000000000600082015250565b60006121a2600c836116fd565b91506121ad8261216c565b602082019050919050565b600060208201905081810360008301526121d181612195565b9050919050565b60006121e3826117a4565b91507fffffffffffffffffffffffffffffffffffffffffffffffffffffffffffffffff820361221557612214611ffd565b5b600182019050919050565b7f4e487b7100000000000000000000000000000000000000000000000000000000600052601260045260246000fd5b600061225a826117a4565b9150612265836117a4565b92508261227557612274612220565b5b828204905092915050565b600061228b826117a4565b9150612296836117a4565b9250826122a6576122a5612220565b5b828206905092915050565b7f4e487b7100000000000000000000000000000000000000000000000000000000600052603260045260246000fd5b600081519050919050565b600082825260208201905092915050565b6000612307826122e0565b61231181856122eb565b935061232181856020860161170e565b61232a81611738565b840191505092915050565b600060808201905061234a6000830187611839565b6123576020830186611839565b612364604083018561194f565b818103606083015261237681846122fc565b905095945050505050565b60008151905061239081611663565b92915050565b6000602082840312156123ac576123ab61162d565b5b60006123ba84828501612381565b9150509291505056fe697066733a2f2f516d65536a53696e4870506e6d586d73704d6a776958794e367a533445397a63636172694752336a7863615774712fa2646970667358221220b9ea38a51399fbdcee88e7071c4cc52fe116a81145b0f6c52751db82931ec96664736f6c63430008110033",
					"opcodes": "PUSH1 0x80 PUSH1 0x40 MSTORE PUSH2 0x3E8 PUSH1 0x6 SSTORE CALLVALUE DUP1 ISZERO PUSH3 0x17 JUMPI PUSH1 0x0 DUP1 REVERT JUMPDEST POP PUSH1 0x40 MLOAD PUSH3 0x29F6 CODESIZE SUB DUP1 PUSH3 0x29F6 DUP4 CODECOPY DUP2 DUP2 ADD PUSH1 0x40 MSTORE DUP2 ADD SWAP1 PUSH3 0x3D SWAP2 SWAP1 PUSH3 0x200 JUMP JUMPDEST DUP2 DUP2 DUP2 PUSH1 0x0 SWAP1 DUP2 PUSH3 0x50 SWAP2 SWAP1 PUSH3 0x4D0 JUMP JUMPDEST POP DUP1 PUSH1 0x1 SWAP1 DUP2 PUSH3 0x62 SWAP2 SWAP1 PUSH3 0x4D0 JUMP JUMPDEST POP POP POP POP POP PUSH3 0x5B7 JUMP JUMPDEST PUSH1 0x0 PUSH1 0x40 MLOAD SWAP1 POP SWAP1 JUMP JUMPDEST PUSH1 0x0 DUP1 REVERT JUMPDEST PUSH1 0x0 DUP1 REVERT JUMPDEST PUSH1 0x0 DUP1 REVERT JUMPDEST PUSH1 0x0 DUP1 REVERT JUMPDEST PUSH1 0x0 PUSH1 0x1F NOT PUSH1 0x1F DUP4 ADD AND SWAP1 POP SWAP2 SWAP1 POP JUMP JUMPDEST PUSH32 0x4E487B7100000000000000000000000000000000000000000000000000000000 PUSH1 0x0 MSTORE PUSH1 0x41 PUSH1 0x4 MSTORE PUSH1 0x24 PUSH1 0x0 REVERT JUMPDEST PUSH3 0xD6 DUP3 PUSH3 0x8B JUMP JUMPDEST DUP2 ADD DUP2 DUP2 LT PUSH8 0xFFFFFFFFFFFFFFFF DUP3 GT OR ISZERO PUSH3 0xF8 JUMPI PUSH3 0xF7 PUSH3 0x9C JUMP JUMPDEST JUMPDEST DUP1 PUSH1 0x40 MSTORE POP POP POP JUMP JUMPDEST PUSH1 0x0 PUSH3 0x10D PUSH3 0x6D JUMP JUMPDEST SWAP1 POP PUSH3 0x11B DUP3 DUP3 PUSH3 0xCB JUMP JUMPDEST SWAP2 SWAP1 POP JUMP JUMPDEST PUSH1 0x0 PUSH8 0xFFFFFFFFFFFFFFFF DUP3 GT ISZERO PUSH3 0x13E JUMPI PUSH3 0x13D PUSH3 0x9C JUMP JUMPDEST JUMPDEST PUSH3 0x149 DUP3 PUSH3 0x8B JUMP JUMPDEST SWAP1 POP PUSH1 0x20 DUP2 ADD SWAP1 POP SWAP2 SWAP1 POP JUMP JUMPDEST PUSH1 0x0 JUMPDEST DUP4 DUP2 LT ISZERO PUSH3 0x176 JUMPI DUP1 DUP3 ADD MLOAD DUP2 DUP5 ADD MSTORE PUSH1 0x20 DUP2 ADD SWAP1 POP PUSH3 0x159 JUMP JUMPDEST PUSH1 0x0 DUP5 DUP5 ADD MSTORE POP POP POP POP JUMP JUMPDEST PUSH1 0x0 PUSH3 0x199 PUSH3 0x193 DUP5 PUSH3 0x120 JUMP JUMPDEST PUSH3 0x101 JUMP JUMPDEST SWAP1 POP DUP3 DUP2 MSTORE PUSH1 0x20 DUP2 ADD DUP5 DUP5 DUP5 ADD GT ISZERO PUSH3 0x1B8 JUMPI PUSH3 0x1B7 PUSH3 0x86 JUMP JUMPDEST JUMPDEST PUSH3 0x1C5 DUP5 DUP3 DUP6 PUSH3 0x156 JUMP JUMPDEST POP SWAP4 SWAP3 POP POP POP JUMP JUMPDEST PUSH1 0x0 DUP3 PUSH1 0x1F DUP4 ADD SLT PUSH3 0x1E5 JUMPI PUSH3 0x1E4 PUSH3 0x81 JUMP JUMPDEST JUMPDEST DUP2 MLOAD PUSH3 0x1F7 DUP5 DUP3 PUSH1 0x20 DUP7 ADD PUSH3 0x182 JUMP JUMPDEST SWAP2 POP POP SWAP3 SWAP2 POP POP JUMP JUMPDEST PUSH1 0x0 DUP1 PUSH1 0x40 DUP4 DUP6 SUB SLT ISZERO PUSH3 0x21A JUMPI PUSH3 0x219 PUSH3 0x77 JUMP JUMPDEST JUMPDEST PUSH1 0x0 DUP4 ADD MLOAD PUSH8 0xFFFFFFFFFFFFFFFF DUP2 GT ISZERO PUSH3 0x23B JUMPI PUSH3 0x23A PUSH3 0x7C JUMP JUMPDEST JUMPDEST PUSH3 0x249 DUP6 DUP3 DUP7 ADD PUSH3 0x1CD JUMP JUMPDEST SWAP3 POP POP PUSH1 0x20 DUP4 ADD MLOAD PUSH8 0xFFFFFFFFFFFFFFFF DUP2 GT ISZERO PUSH3 0x26D JUMPI PUSH3 0x26C PUSH3 0x7C JUMP JUMPDEST JUMPDEST PUSH3 0x27B DUP6 DUP3 DUP7 ADD PUSH3 0x1CD JUMP JUMPDEST SWAP2 POP POP SWAP3 POP SWAP3 SWAP1 POP JUMP JUMPDEST PUSH1 0x0 DUP2 MLOAD SWAP1 POP SWAP2 SWAP1 POP JUMP JUMPDEST PUSH32 0x4E487B7100000000000000000000000000000000000000000000000000000000 PUSH1 0x0 MSTORE PUSH1 0x22 PUSH1 0x4 MSTORE PUSH1 0x24 PUSH1 0x0 REVERT JUMPDEST PUSH1 0x0 PUSH1 0x2 DUP3 DIV SWAP1 POP PUSH1 0x1 DUP3 AND DUP1 PUSH3 0x2D8 JUMPI PUSH1 0x7F DUP3 AND SWAP2 POP JUMPDEST PUSH1 0x20 DUP3 LT DUP2 SUB PUSH3 0x2EE JUMPI PUSH3 0x2ED PUSH3 0x290 JUMP JUMPDEST JUMPDEST POP SWAP2 SWAP1 POP JUMP JUMPDEST PUSH1 0x0 DUP2 SWAP1 POP DUP2 PUSH1 0x0 MSTORE PUSH1 0x20 PUSH1 0x0 KECCAK256 SWAP1 POP SWAP2 SWAP1 POP JUMP JUMPDEST PUSH1 0x0 PUSH1 0x20 PUSH1 0x1F DUP4 ADD DIV SWAP1 POP SWAP2 SWAP1 POP JUMP JUMPDEST PUSH1 0x0 DUP3 DUP3 SHL SWAP1 POP SWAP3 SWAP2 POP POP JUMP JUMPDEST PUSH1 0x0 PUSH1 0x8 DUP4 MUL PUSH3 0x358 PUSH32 0xFFFFFFFFFFFFFFFFFFFFFFFFFFFFFFFFFFFFFFFFFFFFFFFFFFFFFFFFFFFFFFFF DUP3 PUSH3 0x319 JUMP JUMPDEST PUSH3 0x364 DUP7 DUP4 PUSH3 0x319 JUMP JUMPDEST SWAP6 POP DUP1 NOT DUP5 AND SWAP4 POP DUP1 DUP7 AND DUP5 OR SWAP3 POP POP POP SWAP4 SWAP3 POP POP POP JUMP JUMPDEST PUSH1 0x0 DUP2 SWAP1 POP SWAP2 SWAP1 POP JUMP JUMPDEST PUSH1 0x0 DUP2 SWAP1 POP SWAP2 SWAP1 POP JUMP JUMPDEST PUSH1 0x0 PUSH3 0x3B1 PUSH3 0x3AB PUSH3 0x3A5 DUP5 PUSH3 0x37C JUMP JUMPDEST PUSH3 0x386 JUMP JUMPDEST PUSH3 0x37C JUMP JUMPDEST SWAP1 POP SWAP2 SWAP1 POP JUMP JUMPDEST PUSH1 0x0 DUP2 SWAP1 POP SWAP2 SWAP1 POP JUMP JUMPDEST PUSH3 0x3CD DUP4 PUSH3 0x390 JUMP JUMPDEST PUSH3 0x3E5 PUSH3 0x3DC DUP3 PUSH3 0x3B8 JUMP JUMPDEST DUP5 DUP5 SLOAD PUSH3 0x326 JUMP JUMPDEST DUP3 SSTORE POP POP POP POP JUMP JUMPDEST PUSH1 0x0 SWAP1 JUMP JUMPDEST PUSH3 0x3FC PUSH3 0x3ED JUMP JUMPDEST PUSH3 0x409 DUP2 DUP5 DUP5 PUSH3 0x3C2 JUMP JUMPDEST POP POP POP JUMP JUMPDEST JUMPDEST DUP2 DUP2 LT ISZERO PUSH3 0x431 JUMPI PUSH3 0x425 PUSH1 0x0 DUP3 PUSH3 0x3F2 JUMP JUMPDEST PUSH1 0x1 DUP2 ADD SWAP1 POP PUSH3 0x40F JUMP JUMPDEST POP POP JUMP JUMPDEST PUSH1 0x1F DUP3 GT ISZERO PUSH3 0x480 JUMPI PUSH3 0x44A DUP2 PUSH3 0x2F4 JUMP JUMPDEST PUSH3 0x455 DUP5 PUSH3 0x309 JUMP JUMPDEST DUP2 ADD PUSH1 0x20 DUP6 LT ISZERO PUSH3 0x465 JUMPI DUP2 SWAP1 POP JUMPDEST PUSH3 0x47D PUSH3 0x474 DUP6 PUSH3 0x309 JUMP JUMPDEST DUP4 ADD DUP3 PUSH3 0x40E JUMP JUMPDEST POP POP JUMPDEST POP POP POP JUMP JUMPDEST PUSH1 0x0 DUP3 DUP3 SHR SWAP1 POP SWAP3 SWAP2 POP POP JUMP JUMPDEST PUSH1 0x0 PUSH3 0x4A5 PUSH1 0x0 NOT DUP5 PUSH1 0x8 MUL PUSH3 0x485 JUMP JUMPDEST NOT DUP1 DUP4 AND SWAP2 POP POP SWAP3 SWAP2 POP POP JUMP JUMPDEST PUSH1 0x0 PUSH3 0x4C0 DUP4 DUP4 PUSH3 0x492 JUMP JUMPDEST SWAP2 POP DUP3 PUSH1 0x2 MUL DUP3 OR SWAP1 POP SWAP3 SWAP2 POP POP JUMP JUMPDEST PUSH3 0x4DB DUP3 PUSH3 0x285 JUMP JUMPDEST PUSH8 0xFFFFFFFFFFFFFFFF DUP2 GT ISZERO PUSH3 0x4F7 JUMPI PUSH3 0x4F6 PUSH3 0x9C JUMP JUMPDEST JUMPDEST PUSH3 0x503 DUP3 SLOAD PUSH3 0x2BF JUMP JUMPDEST PUSH3 0x510 DUP3 DUP3 DUP6 PUSH3 0x435 JUMP JUMPDEST PUSH1 0x0 PUSH1 0x20 SWAP1 POP PUSH1 0x1F DUP4 GT PUSH1 0x1 DUP2 EQ PUSH3 0x548 JUMPI PUSH1 0x0 DUP5 ISZERO PUSH3 0x533 JUMPI DUP3 DUP8 ADD MLOAD SWAP1 POP JUMPDEST PUSH3 0x53F DUP6 DUP3 PUSH3 0x4B2 JUMP JUMPDEST DUP7 SSTORE POP PUSH3 0x5AF JUMP JUMPDEST PUSH1 0x1F NOT DUP5 AND PUSH3 0x558 DUP7 PUSH3 0x2F4 JUMP JUMPDEST PUSH1 0x0 JUMPDEST DUP3 DUP2 LT ISZERO PUSH3 0x582 JUMPI DUP5 DUP10 ADD MLOAD DUP3 SSTORE PUSH1 0x1 DUP3 ADD SWAP2 POP PUSH1 0x20 DUP6 ADD SWAP5 POP PUSH1 0x20 DUP2 ADD SWAP1 POP PUSH3 0x55B JUMP JUMPDEST DUP7 DUP4 LT ISZERO PUSH3 0x5A2 JUMPI DUP5 DUP10 ADD MLOAD PUSH3 0x59E PUSH1 0x1F DUP10 AND DUP3 PUSH3 0x492 JUMP JUMPDEST DUP4 SSTORE POP JUMPDEST PUSH1 0x1 PUSH1 0x2 DUP9 MUL ADD DUP9 SSTORE POP POP POP JUMPDEST POP POP POP POP POP POP JUMP JUMPDEST PUSH2 0x242F DUP1 PUSH3 0x5C7 PUSH1 0x0 CODECOPY PUSH1 0x0 RETURN INVALID PUSH1 0x80 PUSH1 0x40 MSTORE CALLVALUE DUP1 ISZERO PUSH2 0x10 JUMPI PUSH1 0x0 DUP1 REVERT JUMPDEST POP PUSH1 0x4 CALLDATASIZE LT PUSH2 0xF5 JUMPI PUSH1 0x0 CALLDATALOAD PUSH1 0xE0 SHR DUP1 PUSH4 0x6352211E GT PUSH2 0x97 JUMPI DUP1 PUSH4 0xB88D4FDE GT PUSH2 0x66 JUMPI DUP1 PUSH4 0xB88D4FDE EQ PUSH2 0x282 JUMPI DUP1 PUSH4 0xBB8A16BD EQ PUSH2 0x29E JUMPI DUP1 PUSH4 0xC87B56DD EQ PUSH2 0x2BC JUMPI DUP1 PUSH4 0xE985E9C5 EQ PUSH2 0x2EC JUMPI PUSH2 0xF5 JUMP JUMPDEST DUP1 PUSH4 0x6352211E EQ PUSH2 0x1E8 JUMPI DUP1 PUSH4 0x70A08231 EQ PUSH2 0x218 JUMPI DUP1 PUSH4 0x95D89B41 EQ PUSH2 0x248 JUMPI DUP1 PUSH4 0xA22CB465 EQ PUSH2 0x266 JUMPI PUSH2 0xF5 JUMP JUMPDEST DUP1 PUSH4 0x95EA7B3 GT PUSH2 0xD3 JUMPI DUP1 PUSH4 0x95EA7B3 EQ PUSH2 0x178 JUMPI DUP1 PUSH4 0x23B872DD EQ PUSH2 0x194 JUMPI DUP1 PUSH4 0x40C10F19 EQ PUSH2 0x1B0 JUMPI DUP1 PUSH4 0x42842E0E EQ PUSH2 0x1CC JUMPI PUSH2 0xF5 JUMP JUMPDEST DUP1 PUSH4 0x1FFC9A7 EQ PUSH2 0xFA JUMPI DUP1 PUSH4 0x6FDDE03 EQ PUSH2 0x12A JUMPI DUP1 PUSH4 0x81812FC EQ PUSH2 0x148 JUMPI JUMPDEST PUSH1 0x0 DUP1 REVERT JUMPDEST PUSH2 0x114 PUSH1 0x4 DUP1 CALLDATASIZE SUB DUP2 ADD SWAP1 PUSH2 0x10F SWAP2 SWAP1 PUSH2 0x168F JUMP JUMPDEST PUSH2 0x31C JUMP JUMPDEST PUSH1 0x40 MLOAD PUSH2 0x121 SWAP2 SWAP1 PUSH2 0x16D7 JUMP JUMPDEST PUSH1 0x40 MLOAD DUP1 SWAP2 SUB SWAP1 RETURN JUMPDEST PUSH2 0x132 PUSH2 0x456 JUMP JUMPDEST PUSH1 0x40 MLOAD PUSH2 0x13F SWAP2 SWAP1 PUSH2 0x1782 JUMP JUMPDEST PUSH1 0x40 MLOAD DUP1 SWAP2 SUB SWAP1 RETURN JUMPDEST PUSH2 0x162 PUSH1 0x4 DUP1 CALLDATASIZE SUB DUP2 ADD SWAP1 PUSH2 0x15D SWAP2 SWAP1 PUSH2 0x17DA JUMP JUMPDEST PUSH2 0x4E4 JUMP JUMPDEST PUSH1 0x40 MLOAD PUSH2 0x16F SWAP2 SWAP1 PUSH2 0x1848 JUMP JUMPDEST PUSH1 0x40 MLOAD DUP1 SWAP2 SUB SWAP1 RETURN JUMPDEST PUSH2 0x192 PUSH1 0x4 DUP1 CALLDATASIZE SUB DUP2 ADD SWAP1 PUSH2 0x18D SWAP2 SWAP1 PUSH2 0x188F JUMP JUMPDEST PUSH2 0x5C2 JUMP JUMPDEST STOP JUMPDEST PUSH2 0x1AE PUSH1 0x4 DUP1 CALLDATASIZE SUB DUP2 ADD SWAP1 PUSH2 0x1A9 SWAP2 SWAP1 PUSH2 0x18CF JUMP JUMPDEST PUSH2 0x709 JUMP JUMPDEST STOP JUMPDEST PUSH2 0x1CA PUSH1 0x4 DUP1 CALLDATASIZE SUB DUP2 ADD SWAP1 PUSH2 0x1C5 SWAP2 SWAP1 PUSH2 0x188F JUMP JUMPDEST PUSH2 0x772 JUMP JUMPDEST STOP JUMPDEST PUSH2 0x1E6 PUSH1 0x4 DUP1 CALLDATASIZE SUB DUP2 ADD SWAP1 PUSH2 0x1E1 SWAP2 SWAP1 PUSH2 0x18CF JUMP JUMPDEST PUSH2 0x7D1 JUMP JUMPDEST STOP JUMPDEST PUSH2 0x202 PUSH1 0x4 DUP1 CALLDATASIZE SUB DUP2 ADD SWAP1 PUSH2 0x1FD SWAP2 SWAP1 PUSH2 0x17DA JUMP JUMPDEST PUSH2 0x7F1 JUMP JUMPDEST PUSH1 0x40 MLOAD PUSH2 0x20F SWAP2 SWAP1 PUSH2 0x1848 JUMP JUMPDEST PUSH1 0x40 MLOAD DUP1 SWAP2 SUB SWAP1 RETURN JUMPDEST PUSH2 0x232 PUSH1 0x4 DUP1 CALLDATASIZE SUB DUP2 ADD SWAP1 PUSH2 0x22D SWAP2 SWAP1 PUSH2 0x1922 JUMP JUMPDEST PUSH2 0x89D JUMP JUMPDEST PUSH1 0x40 MLOAD PUSH2 0x23F SWAP2 SWAP1 PUSH2 0x195E JUMP JUMPDEST PUSH1 0x40 MLOAD DUP1 SWAP2 SUB SWAP1 RETURN JUMPDEST PUSH2 0x250 PUSH2 0x954 JUMP JUMPDEST PUSH1 0x40 MLOAD PUSH2 0x25D SWAP2 SWAP1 PUSH2 0x1782 JUMP JUMPDEST PUSH1 0x40 MLOAD DUP1 SWAP2 SUB SWAP1 RETURN JUMPDEST PUSH2 0x280 PUSH1 0x4 DUP1 CALLDATASIZE SUB DUP2 ADD SWAP1 PUSH2 0x27B SWAP2 SWAP1 PUSH2 0x19A5 JUMP JUMPDEST PUSH2 0x9E2 JUMP JUMPDEST STOP JUMPDEST PUSH2 0x29C PUSH1 0x4 DUP1 CALLDATASIZE SUB DUP2 ADD SWAP1 PUSH2 0x297 SWAP2 SWAP1 PUSH2 0x1B1A JUMP JUMPDEST PUSH2 0xADF JUMP JUMPDEST STOP JUMPDEST PUSH2 0x2A6 PUSH2 0xB4A JUMP JUMPDEST PUSH1 0x40 MLOAD PUSH2 0x2B3 SWAP2 SWAP1 PUSH2 0x195E JUMP JUMPDEST PUSH1 0x40 MLOAD DUP1 SWAP2 SUB SWAP1 RETURN JUMPDEST PUSH2 0x2D6 PUSH1 0x4 DUP1 CALLDATASIZE SUB DUP2 ADD SWAP1 PUSH2 0x2D1 SWAP2 SWAP1 PUSH2 0x17DA JUMP JUMPDEST PUSH2 0xB50 JUMP JUMPDEST PUSH1 0x40 MLOAD PUSH2 0x2E3 SWAP2 SWAP1 PUSH2 0x1782 JUMP JUMPDEST PUSH1 0x40 MLOAD DUP1 SWAP2 SUB SWAP1 RETURN JUMPDEST PUSH2 0x306 PUSH1 0x4 DUP1 CALLDATASIZE SUB DUP2 ADD SWAP1 PUSH2 0x301 SWAP2 SWAP1 PUSH2 0x1B9D JUMP JUMPDEST PUSH2 0xC51 JUMP JUMPDEST PUSH1 0x40 MLOAD PUSH2 0x313 SWAP2 SWAP1 PUSH2 0x16D7 JUMP JUMPDEST PUSH1 0x40 MLOAD DUP1 SWAP2 SUB SWAP1 RETURN JUMPDEST PUSH1 0x0 PUSH32 0x80AC58CD00000000000000000000000000000000000000000000000000000000 PUSH28 0xFFFFFFFFFFFFFFFFFFFFFFFFFFFFFFFFFFFFFFFFFFFFFFFFFFFFFFFF NOT AND DUP3 PUSH28 0xFFFFFFFFFFFFFFFFFFFFFFFFFFFFFFFFFFFFFFFFFFFFFFFFFFFFFFFF NOT AND EQ DUP1 PUSH2 0x3E7 JUMPI POP PUSH32 0x1FFC9A700000000000000000000000000000000000000000000000000000000 PUSH28 0xFFFFFFFFFFFFFFFFFFFFFFFFFFFFFFFFFFFFFFFFFFFFFFFFFFFFFFFF NOT AND DUP3 PUSH28 0xFFFFFFFFFFFFFFFFFFFFFFFFFFFFFFFFFFFFFFFFFFFFFFFFFFFFFFFF NOT AND EQ JUMPDEST DUP1 PUSH2 0x44F JUMPI POP PUSH32 0x5B5E139F00000000000000000000000000000000000000000000000000000000 PUSH28 0xFFFFFFFFFFFFFFFFFFFFFFFFFFFFFFFFFFFFFFFFFFFFFFFFFFFFFFFF NOT AND DUP3 PUSH28 0xFFFFFFFFFFFFFFFFFFFFFFFFFFFFFFFFFFFFFFFFFFFFFFFFFFFFFFFF NOT AND EQ JUMPDEST SWAP1 POP SWAP2 SWAP1 POP JUMP JUMPDEST PUSH1 0x0 DUP1 SLOAD PUSH2 0x463 SWAP1 PUSH2 0x1C0C JUMP JUMPDEST DUP1 PUSH1 0x1F ADD PUSH1 0x20 DUP1 SWAP2 DIV MUL PUSH1 0x20 ADD PUSH1 0x40 MLOAD SWAP1 DUP2 ADD PUSH1 0x40 MSTORE DUP1 SWAP3 SWAP2 SWAP1 DUP2 DUP2 MSTORE PUSH1 0x20 ADD DUP3 DUP1 SLOAD PUSH2 0x48F SWAP1 PUSH2 0x1C0C JUMP JUMPDEST DUP1 ISZERO PUSH2 0x4DC JUMPI DUP1 PUSH1 0x1F LT PUSH2 0x4B1 JUMPI PUSH2 0x100 DUP1 DUP4 SLOAD DIV MUL DUP4 MSTORE SWAP2 PUSH1 0x20 ADD SWAP2 PUSH2 0x4DC JUMP JUMPDEST DUP3 ADD SWAP2 SWAP1 PUSH1 0x0 MSTORE PUSH1 0x20 PUSH1 0x0 KECCAK256 SWAP1 JUMPDEST DUP2 SLOAD DUP2 MSTORE SWAP1 PUSH1 0x1 ADD SWAP1 PUSH1 0x20 ADD DUP1 DUP4 GT PUSH2 0x4BF JUMPI DUP3 SWAP1 SUB PUSH1 0x1F AND DUP3 ADD SWAP2 JUMPDEST POP POP POP POP POP DUP2 JUMP JUMPDEST PUSH1 0x0 DUP1 PUSH20 0xFFFFFFFFFFFFFFFFFFFFFFFFFFFFFFFFFFFFFFFF AND PUSH1 0x2 PUSH1 0x0 DUP5 DUP2 MSTORE PUSH1 0x20 ADD SWAP1 DUP2 MSTORE PUSH1 0x20 ADD PUSH1 0x0 KECCAK256 PUSH1 0x0 SWAP1 SLOAD SWAP1 PUSH2 0x100 EXP SWAP1 DIV PUSH20 0xFFFFFFFFFFFFFFFFFFFFFFFFFFFFFFFFFFFFFFFF AND PUSH20 0xFFFFFFFFFFFFFFFFFFFFFFFFFFFFFFFFFFFFFFFF AND SUB PUSH2 0x587 JUMPI PUSH1 0x40 MLOAD PUSH32 0x8C379A000000000000000000000000000000000000000000000000000000000 DUP2 MSTORE PUSH1 0x4 ADD PUSH2 0x57E SWAP1 PUSH2 0x1C89 JUMP JUMPDEST PUSH1 0x40 MLOAD DUP1 SWAP2 SUB SWAP1 REVERT JUMPDEST PUSH1 0x4 PUSH1 0x0 DUP4 DUP2 MSTORE PUSH1 0x20 ADD SWAP1 DUP2 MSTORE PUSH1 0x20 ADD PUSH1 0x0 KECCAK256 PUSH1 0x0 SWAP1 SLOAD SWAP1 PUSH2 0x100 EXP SWAP1 DIV PUSH20 0xFFFFFFFFFFFFFFFFFFFFFFFFFFFFFFFFFFFFFFFF AND SWAP1 POP SWAP2 SWAP1 POP JUMP JUMPDEST PUSH1 0x0 PUSH1 0x2 PUSH1 0x0 DUP4 DUP2 MSTORE PUSH1 0x20 ADD SWAP1 DUP2 MSTORE PUSH1 0x20 ADD PUSH1 0x0 KECCAK256 PUSH1 0x0 SWAP1 SLOAD SWAP1 PUSH2 0x100 EXP SWAP1 DIV PUSH20 0xFFFFFFFFFFFFFFFFFFFFFFFFFFFFFFFFFFFFFFFF AND SWAP1 POP DUP1 PUSH20 0xFFFFFFFFFFFFFFFFFFFFFFFFFFFFFFFFFFFFFFFF AND CALLER PUSH20 0xFFFFFFFFFFFFFFFFFFFFFFFFFFFFFFFFFFFFFFFF AND EQ DUP1 PUSH2 0x6BA JUMPI POP PUSH1 0x5 PUSH1 0x0 DUP3 PUSH20 0xFFFFFFFFFFFFFFFFFFFFFFFFFFFFFFFFFFFFFFFF AND PUSH20 0xFFFFFFFFFFFFFFFFFFFFFFFFFFFFFFFFFFFFFFFF AND DUP2 MSTORE PUSH1 0x20 ADD SWAP1 DUP2 MSTORE PUSH1 0x20 ADD PUSH1 0x0 KECCAK256 PUSH1 0x0 CALLER PUSH20 0xFFFFFFFFFFFFFFFFFFFFFFFFFFFFFFFFFFFFFFFF AND PUSH20 0xFFFFFFFFFFFFFFFFFFFFFFFFFFFFFFFFFFFFFFFF AND DUP2 MSTORE PUSH1 0x20 ADD SWAP1 DUP2 MSTORE PUSH1 0x20 ADD PUSH1 0x0 KECCAK256 PUSH1 0x0 SWAP1 SLOAD SWAP1 PUSH2 0x100 EXP SWAP1 DIV PUSH1 0xFF AND JUMPDEST PUSH2 0x6F9 JUMPI PUSH1 0x40 MLOAD PUSH32 0x8C379A000000000000000000000000000000000000000000000000000000000 DUP2 MSTORE PUSH1 0x4 ADD PUSH2 0x6F0 SWAP1 PUSH2 0x1CF5 JUMP JUMPDEST PUSH1 0x40 MLOAD DUP1 SWAP2 SUB SWAP1 REVERT JUMPDEST PUSH2 0x704 DUP2 DUP5 DUP5 PUSH2 0xCE5 JUMP JUMPDEST POP POP POP JUMP JUMPDEST PUSH1 0x0 PUSH2 0x714 DUP3 PUSH2 0x7F1 JUMP JUMPDEST SWAP1 POP PUSH2 0x721 DUP2 CALLER DUP5 PUSH2 0xD97 JUMP JUMPDEST PUSH2 0x760 JUMPI PUSH1 0x40 MLOAD PUSH32 0x8C379A000000000000000000000000000000000000000000000000000000000 DUP2 MSTORE PUSH1 0x4 ADD PUSH2 0x757 SWAP1 PUSH2 0x1D61 JUMP JUMPDEST PUSH1 0x40 MLOAD DUP1 SWAP2 SUB SWAP1 REVERT JUMPDEST PUSH2 0x76C DUP2 DUP6 DUP6 DUP6 PUSH2 0xECB JUMP JUMPDEST POP POP POP POP JUMP JUMPDEST PUSH1 0x0 DUP2 LT ISZERO DUP1 ISZERO PUSH2 0x784 JUMPI POP PUSH1 0x6 SLOAD DUP2 LT JUMPDEST PUSH2 0x7C3 JUMPI PUSH1 0x40 MLOAD PUSH32 0x8C379A000000000000000000000000000000000000000000000000000000000 DUP2 MSTORE PUSH1 0x4 ADD PUSH2 0x7BA SWAP1 PUSH2 0x1DCD JUMP JUMPDEST PUSH1 0x40 MLOAD DUP1 SWAP2 SUB SWAP1 REVERT JUMPDEST PUSH2 0x7CD DUP3 DUP3 PUSH2 0x1115 JUMP JUMPDEST POP POP JUMP JUMPDEST PUSH2 0x7EC DUP4 DUP4 DUP4 PUSH1 0x40 MLOAD DUP1 PUSH1 0x20 ADD PUSH1 0x40 MSTORE DUP1 PUSH1 0x0 DUP2 MSTORE POP PUSH2 0xADF JUMP JUMPDEST POP POP POP JUMP JUMPDEST PUSH1 0x0 PUSH1 0x2 PUSH1 0x0 DUP4 DUP2 MSTORE PUSH1 0x20 ADD SWAP1 DUP2 MSTORE PUSH1 0x20 ADD PUSH1 0x0 KECCAK256 PUSH1 0x0 SWAP1 SLOAD SWAP1 PUSH2 0x100 EXP SWAP1 DIV PUSH20 0xFFFFFFFFFFFFFFFFFFFFFFFFFFFFFFFFFFFFFFFF AND SWAP1 POP PUSH1 0x0 PUSH20 0xFFFFFFFFFFFFFFFFFFFFFFFFFFFFFFFFFFFFFFFF AND DUP2 PUSH20 0xFFFFFFFFFFFFFFFFFFFFFFFFFFFFFFFFFFFFFFFF AND SUB PUSH2 0x898 JUMPI PUSH1 0x40 MLOAD PUSH32 0x8C379A000000000000000000000000000000000000000000000000000000000 DUP2 MSTORE PUSH1 0x4 ADD PUSH2 0x88F SWAP1 PUSH2 0x1C89 JUMP JUMPDEST PUSH1 0x40 MLOAD DUP1 SWAP2 SUB SWAP1 REVERT JUMPDEST SWAP2 SWAP1 POP JUMP JUMPDEST PUSH1 0x0 DUP1 PUSH20 0xFFFFFFFFFFFFFFFFFFFFFFFFFFFFFFFFFFFFFFFF AND DUP3 PUSH20 0xFFFFFFFFFFFFFFFFFFFFFFFFFFFFFFFFFFFFFFFF AND SUB PUSH2 0x90D JUMPI PUSH1 0x40 MLOAD PUSH32 0x8C379A000000000000000000000000000000000000000000000000000000000 DUP2 MSTORE PUSH1 0x4 ADD PUSH2 0x904 SWAP1 PUSH2 0x1E39 JUMP JUMPDEST PUSH1 0x40 MLOAD DUP1 SWAP2 SUB SWAP1 REVERT JUMPDEST PUSH1 0x3 PUSH1 0x0 DUP4 PUSH20 0xFFFFFFFFFFFFFFFFFFFFFFFFFFFFFFFFFFFFFFFF AND PUSH20 0xFFFFFFFFFFFFFFFFFFFFFFFFFFFFFFFFFFFFFFFF AND DUP2 MSTORE PUSH1 0x20 ADD SWAP1 DUP2 MSTORE PUSH1 0x20 ADD PUSH1 0x0 KECCAK256 SLOAD SWAP1 POP SWAP2 SWAP1 POP JUMP JUMPDEST PUSH1 0x1 DUP1 SLOAD PUSH2 0x961 SWAP1 PUSH2 0x1C0C JUMP JUMPDEST DUP1 PUSH1 0x1F ADD PUSH1 0x20 DUP1 SWAP2 DIV MUL PUSH1 0x20 ADD PUSH1 0x40 MLOAD SWAP1 DUP2 ADD PUSH1 0x40 MSTORE DUP1 SWAP3 SWAP2 SWAP1 DUP2 DUP2 MSTORE PUSH1 0x20 ADD DUP3 DUP1 SLOAD PUSH2 0x98D SWAP1 PUSH2 0x1C0C JUMP JUMPDEST DUP1 ISZERO PUSH2 0x9DA JUMPI DUP1 PUSH1 0x1F LT PUSH2 0x9AF JUMPI PUSH2 0x100 DUP1 DUP4 SLOAD DIV MUL DUP4 MSTORE SWAP2 PUSH1 0x20 ADD SWAP2 PUSH2 0x9DA JUMP JUMPDEST DUP3 ADD SWAP2 SWAP1 PUSH1 0x0 MSTORE PUSH1 0x20 PUSH1 0x0 KECCAK256 SWAP1 JUMPDEST DUP2 SLOAD DUP2 MSTORE SWAP1 PUSH1 0x1 ADD SWAP1 PUSH1 0x20 ADD DUP1 DUP4 GT PUSH2 0x9BD JUMPI DUP3 SWAP1 SUB PUSH1 0x1F AND DUP3 ADD SWAP2 JUMPDEST POP POP POP POP POP DUP2 JUMP JUMPDEST DUP1 PUSH1 0x5 PUSH1 0x0 CALLER PUSH20 0xFFFFFFFFFFFFFFFFFFFFFFFFFFFFFFFFFFFFFFFF AND PUSH20 0xFFFFFFFFFFFFFFFFFFFFFFFFFFFFFFFFFFFFFFFF AND DUP2 MSTORE PUSH1 0x20 ADD SWAP1 DUP2 MSTORE PUSH1 0x20 ADD PUSH1 0x0 KECCAK256 PUSH1 0x0 DUP5 PUSH20 0xFFFFFFFFFFFFFFFFFFFFFFFFFFFFFFFFFFFFFFFF AND PUSH20 0xFFFFFFFFFFFFFFFFFFFFFFFFFFFFFFFFFFFFFFFF AND DUP2 MSTORE PUSH1 0x20 ADD SWAP1 DUP2 MSTORE PUSH1 0x20 ADD PUSH1 0x0 KECCAK256 PUSH1 0x0 PUSH2 0x100 EXP DUP2 SLOAD DUP2 PUSH1 0xFF MUL NOT AND SWAP1 DUP4 ISZERO ISZERO MUL OR SWAP1 SSTORE POP DUP2 PUSH20 0xFFFFFFFFFFFFFFFFFFFFFFFFFFFFFFFFFFFFFFFF AND CALLER PUSH20 0xFFFFFFFFFFFFFFFFFFFFFFFFFFFFFFFFFFFFFFFF AND PUSH32 0x17307EAB39AB6107E8899845AD3D59BD9653F200F220920489CA2B5937696C31 DUP4 PUSH1 0x40 MLOAD PUSH2 0xAD3 SWAP2 SWAP1 PUSH2 0x16D7 JUMP JUMPDEST PUSH1 0x40 MLOAD DUP1 SWAP2 SUB SWAP1 LOG3 POP POP JUMP JUMPDEST PUSH1 0x0 PUSH2 0xAEA DUP4 PUSH2 0x7F1 JUMP JUMPDEST SWAP1 POP PUSH2 0xAF7 DUP2 CALLER DUP6 PUSH2 0xD97 JUMP JUMPDEST PUSH2 0xB36 JUMPI PUSH1 0x40 MLOAD PUSH32 0x8C379A000000000000000000000000000000000000000000000000000000000 DUP2 MSTORE PUSH1 0x4 ADD PUSH2 0xB2D SWAP1 PUSH2 0x1D61 JUMP JUMPDEST PUSH1 0x40 MLOAD DUP1 SWAP2 SUB SWAP1 REVERT JUMPDEST PUSH2 0xB43 DUP2 DUP7 DUP7 DUP7 DUP7 PUSH2 0x132F JUMP JUMPDEST POP POP POP POP POP JUMP JUMPDEST PUSH1 0x6 SLOAD DUP2 JUMP JUMPDEST PUSH1 0x60 PUSH1 0x0 PUSH20 0xFFFFFFFFFFFFFFFFFFFFFFFFFFFFFFFFFFFFFFFF AND PUSH1 0x2 PUSH1 0x0 DUP5 DUP2 MSTORE PUSH1 0x20 ADD SWAP1 DUP2 MSTORE PUSH1 0x20 ADD PUSH1 0x0 KECCAK256 PUSH1 0x0 SWAP1 SLOAD SWAP1 PUSH2 0x100 EXP SWAP1 DIV PUSH20 0xFFFFFFFFFFFFFFFFFFFFFFFFFFFFFFFFFFFFFFFF AND PUSH20 0xFFFFFFFFFFFFFFFFFFFFFFFFFFFFFFFFFFFFFFFF AND SUB PUSH2 0xBF4 JUMPI PUSH1 0x40 MLOAD PUSH32 0x8C379A000000000000000000000000000000000000000000000000000000000 DUP2 MSTORE PUSH1 0x4 ADD PUSH2 0xBEB SWAP1 PUSH2 0x1EA5 JUMP JUMPDEST PUSH1 0x40 MLOAD DUP1 SWAP2 SUB SWAP1 REVERT JUMPDEST PUSH1 0x0 PUSH2 0xBFE PUSH2 0x138D JUMP JUMPDEST SWAP1 POP PUSH1 0x0 DUP2 MLOAD GT PUSH2 0xC1E JUMPI PUSH1 0x40 MLOAD DUP1 PUSH1 0x20 ADD PUSH1 0x40 MSTORE DUP1 PUSH1 0x0 DUP2 MSTORE POP PUSH2 0xC49 JUMP JUMPDEST DUP1 PUSH2 0xC28 DUP5 PUSH2 0x13AD JUMP JUMPDEST PUSH1 0x40 MLOAD PUSH1 0x20 ADD PUSH2 0xC39 SWAP3 SWAP2 SWAP1 PUSH2 0x1F01 JUMP JUMPDEST PUSH1 0x40 MLOAD PUSH1 0x20 DUP2 DUP4 SUB SUB DUP2 MSTORE SWAP1 PUSH1 0x40 MSTORE JUMPDEST SWAP2 POP POP SWAP2 SWAP1 POP JUMP JUMPDEST PUSH1 0x0 PUSH1 0x5 PUSH1 0x0 DUP5 PUSH20 0xFFFFFFFFFFFFFFFFFFFFFFFFFFFFFFFFFFFFFFFF AND PUSH20 0xFFFFFFFFFFFFFFFFFFFFFFFFFFFFFFFFFFFFFFFF AND DUP2 MSTORE PUSH1 0x20 ADD SWAP1 DUP2 MSTORE PUSH1 0x20 ADD PUSH1 0x0 KECCAK256 PUSH1 0x0 DUP4 PUSH20 0xFFFFFFFFFFFFFFFFFFFFFFFFFFFFFFFFFFFFFFFF AND PUSH20 0xFFFFFFFFFFFFFFFFFFFFFFFFFFFFFFFFFFFFFFFF AND DUP2 MSTORE PUSH1 0x20 ADD SWAP1 DUP2 MSTORE PUSH1 0x20 ADD PUSH1 0x0 KECCAK256 PUSH1 0x0 SWAP1 SLOAD SWAP1 PUSH2 0x100 EXP SWAP1 DIV PUSH1 0xFF AND SWAP1 POP SWAP3 SWAP2 POP POP JUMP JUMPDEST DUP2 PUSH1 0x4 PUSH1 0x0 DUP4 DUP2 MSTORE PUSH1 0x20 ADD SWAP1 DUP2 MSTORE PUSH1 0x20 ADD PUSH1 0x0 KECCAK256 PUSH1 0x0 PUSH2 0x100 EXP DUP2 SLOAD DUP2 PUSH20 0xFFFFFFFFFFFFFFFFFFFFFFFFFFFFFFFFFFFFFFFF MUL NOT AND SWAP1 DUP4 PUSH20 0xFFFFFFFFFFFFFFFFFFFFFFFFFFFFFFFFFFFFFFFF AND MUL OR SWAP1 SSTORE POP DUP1 DUP3 PUSH20 0xFFFFFFFFFFFFFFFFFFFFFFFFFFFFFFFFFFFFFFFF AND DUP5 PUSH20 0xFFFFFFFFFFFFFFFFFFFFFFFFFFFFFFFFFFFFFFFF AND PUSH32 0x8C5BE1E5EBEC7D5BD14F71427D1E84F3DD0314C0F7B2291E5B200AC8C7C3B925 PUSH1 0x40 MLOAD PUSH1 0x40 MLOAD DUP1 SWAP2 SUB SWAP1 LOG4 POP POP POP JUMP JUMPDEST PUSH1 0x0 DUP4 PUSH20 0xFFFFFFFFFFFFFFFFFFFFFFFFFFFFFFFFFFFFFFFF AND DUP4 PUSH20 0xFFFFFFFFFFFFFFFFFFFFFFFFFFFFFFFFFFFFFFFF AND EQ DUP1 PUSH2 0xE31 JUMPI POP DUP3 PUSH20 0xFFFFFFFFFFFFFFFFFFFFFFFFFFFFFFFFFFFFFFFF AND PUSH1 0x4 PUSH1 0x0 DUP5 DUP2 MSTORE PUSH1 0x20 ADD SWAP1 DUP2 MSTORE PUSH1 0x20 ADD PUSH1 0x0 KECCAK256 PUSH1 0x0 SWAP1 SLOAD SWAP1 PUSH2 0x100 EXP SWAP1 DIV PUSH20 0xFFFFFFFFFFFFFFFFFFFFFFFFFFFFFFFFFFFFFFFF AND PUSH20 0xFFFFFFFFFFFFFFFFFFFFFFFFFFFFFFFFFFFFFFFF AND EQ JUMPDEST DUP1 PUSH2 0xEC2 JUMPI POP PUSH1 0x5 PUSH1 0x0 DUP6 PUSH20 0xFFFFFFFFFFFFFFFFFFFFFFFFFFFFFFFFFFFFFFFF AND PUSH20 0xFFFFFFFFFFFFFFFFFFFFFFFFFFFFFFFFFFFFFFFF AND DUP2 MSTORE PUSH1 0x20 ADD SWAP1 DUP2 MSTORE PUSH1 0x20 ADD PUSH1 0x0 KECCAK256 PUSH1 0x0 DUP5 PUSH20 0xFFFFFFFFFFFFFFFFFFFFFFFFFFFFFFFFFFFFFFFF AND PUSH20 0xFFFFFFFFFFFFFFFFFFFFFFFFFFFFFFFFFFFFFFFF AND DUP2 MSTORE PUSH1 0x20 ADD SWAP1 DUP2 MSTORE PUSH1 0x20 ADD PUSH1 0x0 KECCAK256 PUSH1 0x0 SWAP1 SLOAD SWAP1 PUSH2 0x100 EXP SWAP1 DIV PUSH1 0xFF AND JUMPDEST SWAP1 POP SWAP4 SWAP3 POP POP POP JUMP JUMPDEST DUP4 PUSH20 0xFFFFFFFFFFFFFFFFFFFFFFFFFFFFFFFFFFFFFFFF AND DUP4 PUSH20 0xFFFFFFFFFFFFFFFFFFFFFFFFFFFFFFFFFFFFFFFF AND EQ PUSH2 0xF39 JUMPI PUSH1 0x40 MLOAD PUSH32 0x8C379A000000000000000000000000000000000000000000000000000000000 DUP2 MSTORE PUSH1 0x4 ADD PUSH2 0xF30 SWAP1 PUSH2 0x1F71 JUMP JUMPDEST PUSH1 0x40 MLOAD DUP1 SWAP2 SUB SWAP1 REVERT JUMPDEST PUSH1 0x0 PUSH20 0xFFFFFFFFFFFFFFFFFFFFFFFFFFFFFFFFFFFFFFFF AND DUP3 PUSH20 0xFFFFFFFFFFFFFFFFFFFFFFFFFFFFFFFFFFFFFFFF AND SUB PUSH2 0xFA8 JUMPI PUSH1 0x40 MLOAD PUSH32 0x8C379A000000000000000000000000000000000000000000000000000000000 DUP2 MSTORE PUSH1 0x4 ADD PUSH2 0xF9F SWAP1 PUSH2 0x1FDD JUMP JUMPDEST PUSH1 0x40 MLOAD DUP1 SWAP2 SUB SWAP1 REVERT JUMPDEST PUSH2 0xFB4 DUP5 PUSH1 0x0 DUP4 PUSH2 0xCE5 JUMP JUMPDEST PUSH1 0x1 PUSH1 0x3 PUSH1 0x0 DUP5 PUSH20 0xFFFFFFFFFFFFFFFFFFFFFFFFFFFFFFFFFFFFFFFF AND PUSH20 0xFFFFFFFFFFFFFFFFFFFFFFFFFFFFFFFFFFFFFFFF AND DUP2 MSTORE PUSH1 0x20 ADD SWAP1 DUP2 MSTORE PUSH1 0x20 ADD PUSH1 0x0 KECCAK256 PUSH1 0x0 DUP3 DUP3 SLOAD PUSH2 0x1004 SWAP2 SWAP1 PUSH2 0x202C JUMP JUMPDEST SWAP3 POP POP DUP2 SWAP1 SSTORE POP PUSH1 0x1 PUSH1 0x3 PUSH1 0x0 DUP5 PUSH20 0xFFFFFFFFFFFFFFFFFFFFFFFFFFFFFFFFFFFFFFFF AND PUSH20 0xFFFFFFFFFFFFFFFFFFFFFFFFFFFFFFFFFFFFFFFF AND DUP2 MSTORE PUSH1 0x20 ADD SWAP1 DUP2 MSTORE PUSH1 0x20 ADD PUSH1 0x0 KECCAK256 PUSH1 0x0 DUP3 DUP3 SLOAD PUSH2 0x105B SWAP2 SWAP1 PUSH2 0x2060 JUMP JUMPDEST SWAP3 POP POP DUP2 SWAP1 SSTORE POP DUP2 PUSH1 0x2 PUSH1 0x0 DUP4 DUP2 MSTORE PUSH1 0x20 ADD SWAP1 DUP2 MSTORE PUSH1 0x20 ADD PUSH1 0x0 KECCAK256 PUSH1 0x0 PUSH2 0x100 EXP DUP2 SLOAD DUP2 PUSH20 0xFFFFFFFFFFFFFFFFFFFFFFFFFFFFFFFFFFFFFFFF MUL NOT AND SWAP1 DUP4 PUSH20 0xFFFFFFFFFFFFFFFFFFFFFFFFFFFFFFFFFFFFFFFF AND MUL OR SWAP1 SSTORE POP DUP1 DUP3 PUSH20 0xFFFFFFFFFFFFFFFFFFFFFFFFFFFFFFFFFFFFFFFF AND DUP5 PUSH20 0xFFFFFFFFFFFFFFFFFFFFFFFFFFFFFFFFFFFFFFFF AND PUSH32 0xDDF252AD1BE2C89B69C2B068FC378DAA952BA7F163C4A11628F55A4DF523B3EF PUSH1 0x40 MLOAD PUSH1 0x40 MLOAD DUP1 SWAP2 SUB SWAP1 LOG4 POP POP POP POP JUMP JUMPDEST PUSH1 0x0 PUSH20 0xFFFFFFFFFFFFFFFFFFFFFFFFFFFFFFFFFFFFFFFF AND DUP3 PUSH20 0xFFFFFFFFFFFFFFFFFFFFFFFFFFFFFFFFFFFFFFFF AND SUB PUSH2 0x1184 JUMPI PUSH1 0x40 MLOAD PUSH32 0x8C379A000000000000000000000000000000000000000000000000000000000 DUP2 MSTORE PUSH1 0x4 ADD PUSH2 0x117B SWAP1 PUSH2 0x20E0 JUMP JUMPDEST PUSH1 0x40 MLOAD DUP1 SWAP2 SUB SWAP1 REVERT JUMPDEST PUSH1 0x0 PUSH20 0xFFFFFFFFFFFFFFFFFFFFFFFFFFFFFFFFFFFFFFFF AND PUSH1 0x2 PUSH1 0x0 DUP4 DUP2 MSTORE PUSH1 0x20 ADD SWAP1 DUP2 MSTORE PUSH1 0x20 ADD PUSH1 0x0 KECCAK256 PUSH1 0x0 SWAP1 SLOAD SWAP1 PUSH2 0x100 EXP SWAP1 DIV PUSH20 0xFFFFFFFFFFFFFFFFFFFFFFFFFFFFFFFFFFFFFFFF AND PUSH20 0xFFFFFFFFFFFFFFFFFFFFFFFFFFFFFFFFFFFFFFFF AND EQ PUSH2 0x1226 JUMPI PUSH1 0x40 MLOAD PUSH32 0x8C379A000000000000000000000000000000000000000000000000000000000 DUP2 MSTORE PUSH1 0x4 ADD PUSH2 0x121D SWAP1 PUSH2 0x214C JUMP JUMPDEST PUSH1 0x40 MLOAD DUP1 SWAP2 SUB SWAP1 REVERT JUMPDEST PUSH1 0x1 PUSH1 0x3 PUSH1 0x0 DUP5 PUSH20 0xFFFFFFFFFFFFFFFFFFFFFFFFFFFFFFFFFFFFFFFF AND PUSH20 0xFFFFFFFFFFFFFFFFFFFFFFFFFFFFFFFFFFFFFFFF AND DUP2 MSTORE PUSH1 0x20 ADD SWAP1 DUP2 MSTORE PUSH1 0x20 ADD PUSH1 0x0 KECCAK256 PUSH1 0x0 DUP3 DUP3 SLOAD PUSH2 0x1276 SWAP2 SWAP1 PUSH2 0x202C JUMP JUMPDEST SWAP3 POP POP DUP2 SWAP1 SSTORE POP DUP2 PUSH1 0x2 PUSH1 0x0 DUP4 DUP2 MSTORE PUSH1 0x20 ADD SWAP1 DUP2 MSTORE PUSH1 0x20 ADD PUSH1 0x0 KECCAK256 PUSH1 0x0 PUSH2 0x100 EXP DUP2 SLOAD DUP2 PUSH20 0xFFFFFFFFFFFFFFFFFFFFFFFFFFFFFFFFFFFFFFFF MUL NOT AND SWAP1 DUP4 PUSH20 0xFFFFFFFFFFFFFFFFFFFFFFFFFFFFFFFFFFFFFFFF AND MUL OR SWAP1 SSTORE POP DUP1 DUP3 PUSH20 0xFFFFFFFFFFFFFFFFFFFFFFFFFFFFFFFFFFFFFFFF AND PUSH1 0x0 PUSH20 0xFFFFFFFFFFFFFFFFFFFFFFFFFFFFFFFFFFFFFFFF AND PUSH32 0xDDF252AD1BE2C89B69C2B068FC378DAA952BA7F163C4A11628F55A4DF523B3EF PUSH1 0x40 MLOAD PUSH1 0x40 MLOAD DUP1 SWAP2 SUB SWAP1 LOG4 POP POP JUMP JUMPDEST PUSH2 0x133B DUP5 DUP5 DUP5 DUP5 PUSH2 0x150D JUMP JUMPDEST PUSH2 0x137A JUMPI PUSH1 0x40 MLOAD PUSH32 0x8C379A000000000000000000000000000000000000000000000000000000000 DUP2 MSTORE PUSH1 0x4 ADD PUSH2 0x1371 SWAP1 PUSH2 0x21B8 JUMP JUMPDEST PUSH1 0x40 MLOAD DUP1 SWAP2 SUB SWAP1 REVERT JUMPDEST PUSH2 0x1386 DUP6 DUP6 DUP6 DUP6 PUSH2 0xECB JUMP JUMPDEST POP POP POP POP POP JUMP JUMPDEST PUSH1 0x60 PUSH1 0x40 MLOAD DUP1 PUSH1 0x60 ADD PUSH1 0x40 MSTORE DUP1 PUSH1 0x36 DUP2 MSTORE PUSH1 0x20 ADD PUSH2 0x23C4 PUSH1 0x36 SWAP2 CODECOPY SWAP1 POP SWAP1 JUMP JUMPDEST PUSH1 0x60 PUSH1 0x0 DUP3 SUB PUSH2 0x13F4 JUMPI PUSH1 0x40 MLOAD DUP1 PUSH1 0x40 ADD PUSH1 0x40 MSTORE DUP1 PUSH1 0x1 DUP2 MSTORE PUSH1 0x20 ADD PUSH32 0x3000000000000000000000000000000000000000000000000000000000000000 DUP2 MSTORE POP SWAP1 POP PUSH2 0x1508 JUMP JUMPDEST PUSH1 0x0 DUP3 SWAP1 POP PUSH1 0x0 JUMPDEST PUSH1 0x0 DUP3 EQ PUSH2 0x1426 JUMPI DUP1 DUP1 PUSH2 0x140F SWAP1 PUSH2 0x21D8 JUMP JUMPDEST SWAP2 POP POP PUSH1 0xA DUP3 PUSH2 0x141F SWAP2 SWAP1 PUSH2 0x224F JUMP JUMPDEST SWAP2 POP PUSH2 0x13FC JUMP JUMPDEST PUSH1 0x0 DUP2 PUSH8 0xFFFFFFFFFFFFFFFF DUP2 GT ISZERO PUSH2 0x1442 JUMPI PUSH2 0x1441 PUSH2 0x19EF JUMP JUMPDEST JUMPDEST PUSH1 0x40 MLOAD SWAP1 DUP1 DUP3 MSTORE DUP1 PUSH1 0x1F ADD PUSH1 0x1F NOT AND PUSH1 0x20 ADD DUP3 ADD PUSH1 0x40 MSTORE DUP1 ISZERO PUSH2 0x1474 JUMPI DUP2 PUSH1 0x20 ADD PUSH1 0x1 DUP3 MUL DUP1 CALLDATASIZE DUP4 CALLDATACOPY DUP1 DUP3 ADD SWAP2 POP POP SWAP1 POP JUMPDEST POP SWAP1 POP JUMPDEST PUSH1 0x0 DUP6 EQ PUSH2 0x1501 JUMPI PUSH1 0x1 DUP3 PUSH2 0x148D SWAP2 SWAP1 PUSH2 0x2060 JUMP JUMPDEST SWAP2 POP PUSH1 0xA DUP6 PUSH2 0x149C SWAP2 SWAP1 PUSH2 0x2280 JUMP JUMPDEST PUSH1 0x30 PUSH2 0x14A8 SWAP2 SWAP1 PUSH2 0x202C JUMP JUMPDEST PUSH1 0xF8 SHL DUP2 DUP4 DUP2 MLOAD DUP2 LT PUSH2 0x14BE JUMPI PUSH2 0x14BD PUSH2 0x22B1 JUMP JUMPDEST JUMPDEST PUSH1 0x20 ADD ADD SWAP1 PUSH31 0xFFFFFFFFFFFFFFFFFFFFFFFFFFFFFFFFFFFFFFFFFFFFFFFFFFFFFFFFFFFFFF NOT AND SWAP1 DUP2 PUSH1 0x0 BYTE SWAP1 MSTORE8 POP PUSH1 0xA DUP6 PUSH2 0x14FA SWAP2 SWAP1 PUSH2 0x224F JUMP JUMPDEST SWAP5 POP PUSH2 0x1478 JUMP JUMPDEST DUP1 SWAP4 POP POP POP POP JUMPDEST SWAP2 SWAP1 POP JUMP JUMPDEST PUSH1 0x0 PUSH2 0x152E DUP5 PUSH20 0xFFFFFFFFFFFFFFFFFFFFFFFFFFFFFFFFFFFFFFFF AND PUSH2 0x1610 JUMP JUMPDEST ISZERO PUSH2 0x1603 JUMPI PUSH4 0x150B7A02 PUSH1 0xE0 SHL PUSH28 0xFFFFFFFFFFFFFFFFFFFFFFFFFFFFFFFFFFFFFFFFFFFFFFFFFFFFFFFF NOT AND DUP5 PUSH20 0xFFFFFFFFFFFFFFFFFFFFFFFFFFFFFFFFFFFFFFFF AND PUSH4 0x150B7A02 CALLER DUP9 DUP8 DUP8 PUSH1 0x40 MLOAD DUP6 PUSH4 0xFFFFFFFF AND PUSH1 0xE0 SHL DUP2 MSTORE PUSH1 0x4 ADD PUSH2 0x1599 SWAP5 SWAP4 SWAP3 SWAP2 SWAP1 PUSH2 0x2335 JUMP JUMPDEST PUSH1 0x20 PUSH1 0x40 MLOAD DUP1 DUP4 SUB DUP2 PUSH1 0x0 DUP8 GAS CALL ISZERO DUP1 ISZERO PUSH2 0x15B8 JUMPI RETURNDATASIZE PUSH1 0x0 DUP1 RETURNDATACOPY RETURNDATASIZE PUSH1 0x0 REVERT JUMPDEST POP POP POP POP PUSH1 0x40 MLOAD RETURNDATASIZE PUSH1 0x1F NOT PUSH1 0x1F DUP3 ADD AND DUP3 ADD DUP1 PUSH1 0x40 MSTORE POP DUP2 ADD SWAP1 PUSH2 0x15DC SWAP2 SWAP1 PUSH2 0x2396 JUMP JUMPDEST PUSH28 0xFFFFFFFFFFFFFFFFFFFFFFFFFFFFFFFFFFFFFFFFFFFFFFFFFFFFFFFF NOT AND EQ SWAP1 POP PUSH2 0x1608 JUMP JUMPDEST PUSH1 0x1 SWAP1 POP JUMPDEST SWAP5 SWAP4 POP POP POP POP JUMP JUMPDEST PUSH1 0x0 DUP1 DUP3 EXTCODESIZE SWAP1 POP PUSH1 0x0 DUP2 GT SWAP2 POP POP SWAP2 SWAP1 POP JUMP JUMPDEST PUSH1 0x0 PUSH1 0x40 MLOAD SWAP1 POP SWAP1 JUMP JUMPDEST PUSH1 0x0 DUP1 REVERT JUMPDEST PUSH1 0x0 DUP1 REVERT JUMPDEST PUSH1 0x0 PUSH32 0xFFFFFFFF00000000000000000000000000000000000000000000000000000000 DUP3 AND SWAP1 POP SWAP2 SWAP1 POP JUMP JUMPDEST PUSH2 0x166C DUP2 PUSH2 0x1637 JUMP JUMPDEST DUP2 EQ PUSH2 0x1677 JUMPI PUSH1 0x0 DUP1 REVERT JUMPDEST POP JUMP JUMPDEST PUSH1 0x0 DUP2 CALLDATALOAD SWAP1 POP PUSH2 0x1689 DUP2 PUSH2 0x1663 JUMP JUMPDEST SWAP3 SWAP2 POP POP JUMP JUMPDEST PUSH1 0x0 PUSH1 0x20 DUP3 DUP5 SUB SLT ISZERO PUSH2 0x16A5 JUMPI PUSH2 0x16A4 PUSH2 0x162D JUMP JUMPDEST JUMPDEST PUSH1 0x0 PUSH2 0x16B3 DUP5 DUP3 DUP6 ADD PUSH2 0x167A JUMP JUMPDEST SWAP2 POP POP SWAP3 SWAP2 POP POP JUMP JUMPDEST PUSH1 0x0 DUP2 ISZERO ISZERO SWAP1 POP SWAP2 SWAP1 POP JUMP JUMPDEST PUSH2 0x16D1 DUP2 PUSH2 0x16BC JUMP JUMPDEST DUP3 MSTORE POP POP JUMP JUMPDEST PUSH1 0x0 PUSH1 0x20 DUP3 ADD SWAP1 POP PUSH2 0x16EC PUSH1 0x0 DUP4 ADD DUP5 PUSH2 0x16C8 JUMP JUMPDEST SWAP3 SWAP2 POP POP JUMP JUMPDEST PUSH1 0x0 DUP2 MLOAD SWAP1 POP SWAP2 SWAP1 POP JUMP JUMPDEST PUSH1 0x0 DUP3 DUP3 MSTORE PUSH1 0x20 DUP3 ADD SWAP1 POP SWAP3 SWAP2 POP POP JUMP JUMPDEST PUSH1 0x0 JUMPDEST DUP4 DUP2 LT ISZERO PUSH2 0x172C JUMPI DUP1 DUP3 ADD MLOAD DUP2 DUP5 ADD MSTORE PUSH1 0x20 DUP2 ADD SWAP1 POP PUSH2 0x1711 JUMP JUMPDEST PUSH1 0x0 DUP5 DUP5 ADD MSTORE POP POP POP POP JUMP JUMPDEST PUSH1 0x0 PUSH1 0x1F NOT PUSH1 0x1F DUP4 ADD AND SWAP1 POP SWAP2 SWAP1 POP JUMP JUMPDEST PUSH1 0x0 PUSH2 0x1754 DUP3 PUSH2 0x16F2 JUMP JUMPDEST PUSH2 0x175E DUP2 DUP6 PUSH2 0x16FD JUMP JUMPDEST SWAP4 POP PUSH2 0x176E DUP2 DUP6 PUSH1 0x20 DUP7 ADD PUSH2 0x170E JUMP JUMPDEST PUSH2 0x1777 DUP2 PUSH2 0x1738 JUMP JUMPDEST DUP5 ADD SWAP2 POP POP SWAP3 SWAP2 POP POP JUMP JUMPDEST PUSH1 0x0 PUSH1 0x20 DUP3 ADD SWAP1 POP DUP2 DUP2 SUB PUSH1 0x0 DUP4 ADD MSTORE PUSH2 0x179C DUP2 DUP5 PUSH2 0x1749 JUMP JUMPDEST SWAP1 POP SWAP3 SWAP2 POP POP JUMP JUMPDEST PUSH1 0x0 DUP2 SWAP1 POP SWAP2 SWAP1 POP JUMP JUMPDEST PUSH2 0x17B7 DUP2 PUSH2 0x17A4 JUMP JUMPDEST DUP2 EQ PUSH2 0x17C2 JUMPI PUSH1 0x0 DUP1 REVERT JUMPDEST POP JUMP JUMPDEST PUSH1 0x0 DUP2 CALLDATALOAD SWAP1 POP PUSH2 0x17D4 DUP2 PUSH2 0x17AE JUMP JUMPDEST SWAP3 SWAP2 POP POP JUMP JUMPDEST PUSH1 0x0 PUSH1 0x20 DUP3 DUP5 SUB SLT ISZERO PUSH2 0x17F0 JUMPI PUSH2 0x17EF PUSH2 0x162D JUMP JUMPDEST JUMPDEST PUSH1 0x0 PUSH2 0x17FE DUP5 DUP3 DUP6 ADD PUSH2 0x17C5 JUMP JUMPDEST SWAP2 POP POP SWAP3 SWAP2 POP POP JUMP JUMPDEST PUSH1 0x0 PUSH20 0xFFFFFFFFFFFFFFFFFFFFFFFFFFFFFFFFFFFFFFFF DUP3 AND SWAP1 POP SWAP2 SWAP1 POP JUMP JUMPDEST PUSH1 0x0 PUSH2 0x1832 DUP3 PUSH2 0x1807 JUMP JUMPDEST SWAP1 POP SWAP2 SWAP1 POP JUMP JUMPDEST PUSH2 0x1842 DUP2 PUSH2 0x1827 JUMP JUMPDEST DUP3 MSTORE POP POP JUMP JUMPDEST PUSH1 0x0 PUSH1 0x20 DUP3 ADD SWAP1 POP PUSH2 0x185D PUSH1 0x0 DUP4 ADD DUP5 PUSH2 0x1839 JUMP JUMPDEST SWAP3 SWAP2 POP POP JUMP JUMPDEST PUSH2 0x186C DUP2 PUSH2 0x1827 JUMP JUMPDEST DUP2 EQ PUSH2 0x1877 JUMPI PUSH1 0x0 DUP1 REVERT JUMPDEST POP JUMP JUMPDEST PUSH1 0x0 DUP2 CALLDATALOAD SWAP1 POP PUSH2 0x1889 DUP2 PUSH2 0x1863 JUMP JUMPDEST SWAP3 SWAP2 POP POP JUMP JUMPDEST PUSH1 0x0 DUP1 PUSH1 0x40 DUP4 DUP6 SUB SLT ISZERO PUSH2 0x18A6 JUMPI PUSH2 0x18A5 PUSH2 0x162D JUMP JUMPDEST JUMPDEST PUSH1 0x0 PUSH2 0x18B4 DUP6 DUP3 DUP7 ADD PUSH2 0x187A JUMP JUMPDEST SWAP3 POP POP PUSH1 0x20 PUSH2 0x18C5 DUP6 DUP3 DUP7 ADD PUSH2 0x17C5 JUMP JUMPDEST SWAP2 POP POP SWAP3 POP SWAP3 SWAP1 POP JUMP JUMPDEST PUSH1 0x0 DUP1 PUSH1 0x0 PUSH1 0x60 DUP5 DUP7 SUB SLT ISZERO PUSH2 0x18E8 JUMPI PUSH2 0x18E7 PUSH2 0x162D JUMP JUMPDEST JUMPDEST PUSH1 0x0 PUSH2 0x18F6 DUP7 DUP3 DUP8 ADD PUSH2 0x187A JUMP JUMPDEST SWAP4 POP POP PUSH1 0x20 PUSH2 0x1907 DUP7 DUP3 DUP8 ADD PUSH2 0x187A JUMP JUMPDEST SWAP3 POP POP PUSH1 0x40 PUSH2 0x1918 DUP7 DUP3 DUP8 ADD PUSH2 0x17C5 JUMP JUMPDEST SWAP2 POP POP SWAP3 POP SWAP3 POP SWAP3 JUMP JUMPDEST PUSH1 0x0 PUSH1 0x20 DUP3 DUP5 SUB SLT ISZERO PUSH2 0x1938 JUMPI PUSH2 0x1937 PUSH2 0x162D JUMP JUMPDEST JUMPDEST PUSH1 0x0 PUSH2 0x1946 DUP5 DUP3 DUP6 ADD PUSH2 0x187A JUMP JUMPDEST SWAP2 POP POP SWAP3 SWAP2 POP POP JUMP JUMPDEST PUSH2 0x1958 DUP2 PUSH2 0x17A4 JUMP JUMPDEST DUP3 MSTORE POP POP JUMP JUMPDEST PUSH1 0x0 PUSH1 0x20 DUP3 ADD SWAP1 POP PUSH2 0x1973 PUSH1 0x0 DUP4 ADD DUP5 PUSH2 0x194F JUMP JUMPDEST SWAP3 SWAP2 POP POP JUMP JUMPDEST PUSH2 0x1982 DUP2 PUSH2 0x16BC JUMP JUMPDEST DUP2 EQ PUSH2 0x198D JUMPI PUSH1 0x0 DUP1 REVERT JUMPDEST POP JUMP JUMPDEST PUSH1 0x0 DUP2 CALLDATALOAD SWAP1 POP PUSH2 0x199F DUP2 PUSH2 0x1979 JUMP JUMPDEST SWAP3 SWAP2 POP POP JUMP JUMPDEST PUSH1 0x0 DUP1 PUSH1 0x40 DUP4 DUP6 SUB SLT ISZERO PUSH2 0x19BC JUMPI PUSH2 0x19BB PUSH2 0x162D JUMP JUMPDEST JUMPDEST PUSH1 0x0 PUSH2 0x19CA DUP6 DUP3 DUP7 ADD PUSH2 0x187A JUMP JUMPDEST SWAP3 POP POP PUSH1 0x20 PUSH2 0x19DB DUP6 DUP3 DUP7 ADD PUSH2 0x1990 JUMP JUMPDEST SWAP2 POP POP SWAP3 POP SWAP3 SWAP1 POP JUMP JUMPDEST PUSH1 0x0 DUP1 REVERT JUMPDEST PUSH1 0x0 DUP1 REVERT JUMPDEST PUSH32 0x4E487B7100000000000000000000000000000000000000000000000000000000 PUSH1 0x0 MSTORE PUSH1 0x41 PUSH1 0x4 MSTORE PUSH1 0x24 PUSH1 0x0 REVERT JUMPDEST PUSH2 0x1A27 DUP3 PUSH2 0x1738 JUMP JUMPDEST DUP2 ADD DUP2 DUP2 LT PUSH8 0xFFFFFFFFFFFFFFFF DUP3 GT OR ISZERO PUSH2 0x1A46 JUMPI PUSH2 0x1A45 PUSH2 0x19EF JUMP JUMPDEST JUMPDEST DUP1 PUSH1 0x40 MSTORE POP POP POP JUMP JUMPDEST PUSH1 0x0 PUSH2 0x1A59 PUSH2 0x1623 JUMP JUMPDEST SWAP1 POP PUSH2 0x1A65 DUP3 DUP3 PUSH2 0x1A1E JUMP JUMPDEST SWAP2 SWAP1 POP JUMP JUMPDEST PUSH1 0x0 PUSH8 0xFFFFFFFFFFFFFFFF DUP3 GT ISZERO PUSH2 0x1A85 JUMPI PUSH2 0x1A84 PUSH2 0x19EF JUMP JUMPDEST JUMPDEST PUSH2 0x1A8E DUP3 PUSH2 0x1738 JUMP JUMPDEST SWAP1 POP PUSH1 0x20 DUP2 ADD SWAP1 POP SWAP2 SWAP1 POP JUMP JUMPDEST DUP3 DUP2 DUP4 CALLDATACOPY PUSH1 0x0 DUP4 DUP4 ADD MSTORE POP POP POP JUMP JUMPDEST PUSH1 0x0 PUSH2 0x1ABD PUSH2 0x1AB8 DUP5 PUSH2 0x1A6A JUMP JUMPDEST PUSH2 0x1A4F JUMP JUMPDEST SWAP1 POP DUP3 DUP2 MSTORE PUSH1 0x20 DUP2 ADD DUP5 DUP5 DUP5 ADD GT ISZERO PUSH2 0x1AD9 JUMPI PUSH2 0x1AD8 PUSH2 0x19EA JUMP JUMPDEST JUMPDEST PUSH2 0x1AE4 DUP5 DUP3 DUP6 PUSH2 0x1A9B JUMP JUMPDEST POP SWAP4 SWAP3 POP POP POP JUMP JUMPDEST PUSH1 0x0 DUP3 PUSH1 0x1F DUP4 ADD SLT PUSH2 0x1B01 JUMPI PUSH2 0x1B00 PUSH2 0x19E5 JUMP JUMPDEST JUMPDEST DUP2 CALLDATALOAD PUSH2 0x1B11 DUP5 DUP3 PUSH1 0x20 DUP7 ADD PUSH2 0x1AAA JUMP JUMPDEST SWAP2 POP POP SWAP3 SWAP2 POP POP JUMP JUMPDEST PUSH1 0x0 DUP1 PUSH1 0x0 DUP1 PUSH1 0x80 DUP6 DUP8 SUB SLT ISZERO PUSH2 0x1B34 JUMPI PUSH2 0x1B33 PUSH2 0x162D JUMP JUMPDEST JUMPDEST PUSH1 0x0 PUSH2 0x1B42 DUP8 DUP3 DUP9 ADD PUSH2 0x187A JUMP JUMPDEST SWAP5 POP POP PUSH1 0x20 PUSH2 0x1B53 DUP8 DUP3 DUP9 ADD PUSH2 0x187A JUMP JUMPDEST SWAP4 POP POP PUSH1 0x40 PUSH2 0x1B64 DUP8 DUP3 DUP9 ADD PUSH2 0x17C5 JUMP JUMPDEST SWAP3 POP POP PUSH1 0x60 DUP6 ADD CALLDATALOAD PUSH8 0xFFFFFFFFFFFFFFFF DUP2 GT ISZERO PUSH2 0x1B85 JUMPI PUSH2 0x1B84 PUSH2 0x1632 JUMP JUMPDEST JUMPDEST PUSH2 0x1B91 DUP8 DUP3 DUP9 ADD PUSH2 0x1AEC JUMP JUMPDEST SWAP2 POP POP SWAP3 SWAP6 SWAP2 SWAP5 POP SWAP3 POP JUMP JUMPDEST PUSH1 0x0 DUP1 PUSH1 0x40 DUP4 DUP6 SUB SLT ISZERO PUSH2 0x1BB4 JUMPI PUSH2 0x1BB3 PUSH2 0x162D JUMP JUMPDEST JUMPDEST PUSH1 0x0 PUSH2 0x1BC2 DUP6 DUP3 DUP7 ADD PUSH2 0x187A JUMP JUMPDEST SWAP3 POP POP PUSH1 0x20 PUSH2 0x1BD3 DUP6 DUP3 DUP7 ADD PUSH2 0x187A JUMP JUMPDEST SWAP2 POP POP SWAP3 POP SWAP3 SWAP1 POP JUMP JUMPDEST PUSH32 0x4E487B7100000000000000000000000000000000000000000000000000000000 PUSH1 0x0 MSTORE PUSH1 0x22 PUSH1 0x4 MSTORE PUSH1 0x24 PUSH1 0x0 REVERT JUMPDEST PUSH1 0x0 PUSH1 0x2 DUP3 DIV SWAP1 POP PUSH1 0x1 DUP3 AND DUP1 PUSH2 0x1C24 JUMPI PUSH1 0x7F DUP3 AND SWAP2 POP JUMPDEST PUSH1 0x20 DUP3 LT DUP2 SUB PUSH2 0x1C37 JUMPI PUSH2 0x1C36 PUSH2 0x1BDD JUMP JUMPDEST JUMPDEST POP SWAP2 SWAP1 POP JUMP JUMPDEST PUSH32 0x746F6B656E20646F65736E6F7420657869737400000000000000000000000000 PUSH1 0x0 DUP3 ADD MSTORE POP JUMP JUMPDEST PUSH1 0x0 PUSH2 0x1C73 PUSH1 0x13 DUP4 PUSH2 0x16FD JUMP JUMPDEST SWAP2 POP PUSH2 0x1C7E DUP3 PUSH2 0x1C3D JUMP JUMPDEST PUSH1 0x20 DUP3 ADD SWAP1 POP SWAP2 SWAP1 POP JUMP JUMPDEST PUSH1 0x0 PUSH1 0x20 DUP3 ADD SWAP1 POP DUP2 DUP2 SUB PUSH1 0x0 DUP4 ADD MSTORE PUSH2 0x1CA2 DUP2 PUSH2 0x1C66 JUMP JUMPDEST SWAP1 POP SWAP2 SWAP1 POP JUMP JUMPDEST PUSH32 0x6E6F74206F776E6572206E6F7220617070726F76656420666F7220616C6C0000 PUSH1 0x0 DUP3 ADD MSTORE POP JUMP JUMPDEST PUSH1 0x0 PUSH2 0x1CDF PUSH1 0x1E DUP4 PUSH2 0x16FD JUMP JUMPDEST SWAP2 POP PUSH2 0x1CEA DUP3 PUSH2 0x1CA9 JUMP JUMPDEST PUSH1 0x20 DUP3 ADD SWAP1 POP SWAP2 SWAP1 POP JUMP JUMPDEST PUSH1 0x0 PUSH1 0x20 DUP3 ADD SWAP1 POP DUP2 DUP2 SUB PUSH1 0x0 DUP4 ADD MSTORE PUSH2 0x1D0E DUP2 PUSH2 0x1CD2 JUMP JUMPDEST SWAP1 POP SWAP2 SWAP1 POP JUMP JUMPDEST PUSH32 0x6E6F74206F776E6572206E6F7220617070726F76656400000000000000000000 PUSH1 0x0 DUP3 ADD MSTORE POP JUMP JUMPDEST PUSH1 0x0 PUSH2 0x1D4B PUSH1 0x16 DUP4 PUSH2 0x16FD JUMP JUMPDEST SWAP2 POP PUSH2 0x1D56 DUP3 PUSH2 0x1D15 JUMP JUMPDEST PUSH1 0x20 DUP3 ADD SWAP1 POP SWAP2 SWAP1 POP JUMP JUMPDEST PUSH1 0x0 PUSH1 0x20 DUP3 ADD SWAP1 POP DUP2 DUP2 SUB PUSH1 0x0 DUP4 ADD MSTORE PUSH2 0x1D7A DUP2 PUSH2 0x1D3E JUMP JUMPDEST SWAP1 POP SWAP2 SWAP1 POP JUMP JUMPDEST PUSH32 0x746F6B656E4964206F7574206F662072616E6765000000000000000000000000 PUSH1 0x0 DUP3 ADD MSTORE POP JUMP JUMPDEST PUSH1 0x0 PUSH2 0x1DB7 PUSH1 0x14 DUP4 PUSH2 0x16FD JUMP JUMPDEST SWAP2 POP PUSH2 0x1DC2 DUP3 PUSH2 0x1D81 JUMP JUMPDEST PUSH1 0x20 DUP3 ADD SWAP1 POP SWAP2 SWAP1 POP JUMP JUMPDEST PUSH1 0x0 PUSH1 0x20 DUP3 ADD SWAP1 POP DUP2 DUP2 SUB PUSH1 0x0 DUP4 ADD MSTORE PUSH2 0x1DE6 DUP2 PUSH2 0x1DAA JUMP JUMPDEST SWAP1 POP SWAP2 SWAP1 POP JUMP JUMPDEST PUSH32 0x6F776E6572203D207A65726F2061646472657373000000000000000000000000 PUSH1 0x0 DUP3 ADD MSTORE POP JUMP JUMPDEST PUSH1 0x0 PUSH2 0x1E23 PUSH1 0x14 DUP4 PUSH2 0x16FD JUMP JUMPDEST SWAP2 POP PUSH2 0x1E2E DUP3 PUSH2 0x1DED JUMP JUMPDEST PUSH1 0x20 DUP3 ADD SWAP1 POP SWAP2 SWAP1 POP JUMP JUMPDEST PUSH1 0x0 PUSH1 0x20 DUP3 ADD SWAP1 POP DUP2 DUP2 SUB PUSH1 0x0 DUP4 ADD MSTORE PUSH2 0x1E52 DUP2 PUSH2 0x1E16 JUMP JUMPDEST SWAP1 POP SWAP2 SWAP1 POP JUMP JUMPDEST PUSH32 0x546F6B656E204E6F742045786973740000000000000000000000000000000000 PUSH1 0x0 DUP3 ADD MSTORE POP JUMP JUMPDEST PUSH1 0x0 PUSH2 0x1E8F PUSH1 0xF DUP4 PUSH2 0x16FD JUMP JUMPDEST SWAP2 POP PUSH2 0x1E9A DUP3 PUSH2 0x1E59 JUMP JUMPDEST PUSH1 0x20 DUP3 ADD SWAP1 POP SWAP2 SWAP1 POP JUMP JUMPDEST PUSH1 0x0 PUSH1 0x20 DUP3 ADD SWAP1 POP DUP2 DUP2 SUB PUSH1 0x0 DUP4 ADD MSTORE PUSH2 0x1EBE DUP2 PUSH2 0x1E82 JUMP JUMPDEST SWAP1 POP SWAP2 SWAP1 POP JUMP JUMPDEST PUSH1 0x0 DUP2 SWAP1 POP SWAP3 SWAP2 POP POP JUMP JUMPDEST PUSH1 0x0 PUSH2 0x1EDB DUP3 PUSH2 0x16F2 JUMP JUMPDEST PUSH2 0x1EE5 DUP2 DUP6 PUSH2 0x1EC5 JUMP JUMPDEST SWAP4 POP PUSH2 0x1EF5 DUP2 DUP6 PUSH1 0x20 DUP7 ADD PUSH2 0x170E JUMP JUMPDEST DUP1 DUP5 ADD SWAP2 POP POP SWAP3 SWAP2 POP POP JUMP JUMPDEST PUSH1 0x0 PUSH2 0x1F0D DUP3 DUP6 PUSH2 0x1ED0 JUMP JUMPDEST SWAP2 POP PUSH2 0x1F19 DUP3 DUP5 PUSH2 0x1ED0 JUMP JUMPDEST SWAP2 POP DUP2 SWAP1 POP SWAP4 SWAP3 POP POP POP JUMP JUMPDEST PUSH32 0x6E6F74206F776E65720000000000000000000000000000000000000000000000 PUSH1 0x0 DUP3 ADD MSTORE POP JUMP JUMPDEST PUSH1 0x0 PUSH2 0x1F5B PUSH1 0x9 DUP4 PUSH2 0x16FD JUMP JUMPDEST SWAP2 POP PUSH2 0x1F66 DUP3 PUSH2 0x1F25 JUMP JUMPDEST PUSH1 0x20 DUP3 ADD SWAP1 POP SWAP2 SWAP1 POP JUMP JUMPDEST PUSH1 0x0 PUSH1 0x20 DUP3 ADD SWAP1 POP DUP2 DUP2 SUB PUSH1 0x0 DUP4 ADD MSTORE PUSH2 0x1F8A DUP2 PUSH2 0x1F4E JUMP JUMPDEST SWAP1 POP SWAP2 SWAP1 POP JUMP JUMPDEST PUSH32 0x7472616E7366657220746F20746865207A65726F206164647265737300000000 PUSH1 0x0 DUP3 ADD MSTORE POP JUMP JUMPDEST PUSH1 0x0 PUSH2 0x1FC7 PUSH1 0x1C DUP4 PUSH2 0x16FD JUMP JUMPDEST SWAP2 POP PUSH2 0x1FD2 DUP3 PUSH2 0x1F91 JUMP JUMPDEST PUSH1 0x20 DUP3 ADD SWAP1 POP SWAP2 SWAP1 POP JUMP JUMPDEST PUSH1 0x0 PUSH1 0x20 DUP3 ADD SWAP1 POP DUP2 DUP2 SUB PUSH1 0x0 DUP4 ADD MSTORE PUSH2 0x1FF6 DUP2 PUSH2 0x1FBA JUMP JUMPDEST SWAP1 POP SWAP2 SWAP1 POP JUMP JUMPDEST PUSH32 0x4E487B7100000000000000000000000000000000000000000000000000000000 PUSH1 0x0 MSTORE PUSH1 0x11 PUSH1 0x4 MSTORE PUSH1 0x24 PUSH1 0x0 REVERT JUMPDEST PUSH1 0x0 PUSH2 0x2037 DUP3 PUSH2 0x17A4 JUMP JUMPDEST SWAP2 POP PUSH2 0x2042 DUP4 PUSH2 0x17A4 JUMP JUMPDEST SWAP3 POP DUP3 DUP3 ADD SWAP1 POP DUP1 DUP3 GT ISZERO PUSH2 0x205A JUMPI PUSH2 0x2059 PUSH2 0x1FFD JUMP JUMPDEST JUMPDEST SWAP3 SWAP2 POP POP JUMP JUMPDEST PUSH1 0x0 PUSH2 0x206B DUP3 PUSH2 0x17A4 JUMP JUMPDEST SWAP2 POP PUSH2 0x2076 DUP4 PUSH2 0x17A4 JUMP JUMPDEST SWAP3 POP DUP3 DUP3 SUB SWAP1 POP DUP2 DUP2 GT ISZERO PUSH2 0x208E JUMPI PUSH2 0x208D PUSH2 0x1FFD JUMP JUMPDEST JUMPDEST SWAP3 SWAP2 POP POP JUMP JUMPDEST PUSH32 0x6D696E7420746F207A65726F2061646472657373210000000000000000000000 PUSH1 0x0 DUP3 ADD MSTORE POP JUMP JUMPDEST PUSH1 0x0 PUSH2 0x20CA PUSH1 0x15 DUP4 PUSH2 0x16FD JUMP JUMPDEST SWAP2 POP PUSH2 0x20D5 DUP3 PUSH2 0x2094 JUMP JUMPDEST PUSH1 0x20 DUP3 ADD SWAP1 POP SWAP2 SWAP1 POP JUMP JUMPDEST PUSH1 0x0 PUSH1 0x20 DUP3 ADD SWAP1 POP DUP2 DUP2 SUB PUSH1 0x0 DUP4 ADD MSTORE PUSH2 0x20F9 DUP2 PUSH2 0x20BD JUMP JUMPDEST SWAP1 POP SWAP2 SWAP1 POP JUMP JUMPDEST PUSH32 0x746F6B656E20616C7265616479206D696E746564000000000000000000000000 PUSH1 0x0 DUP3 ADD MSTORE POP JUMP JUMPDEST PUSH1 0x0 PUSH2 0x2136 PUSH1 0x14 DUP4 PUSH2 0x16FD JUMP JUMPDEST SWAP2 POP PUSH2 0x2141 DUP3 PUSH2 0x2100 JUMP JUMPDEST PUSH1 0x20 DUP3 ADD SWAP1 POP SWAP2 SWAP1 POP JUMP JUMPDEST PUSH1 0x0 PUSH1 0x20 DUP3 ADD SWAP1 POP DUP2 DUP2 SUB PUSH1 0x0 DUP4 ADD MSTORE PUSH2 0x2165 DUP2 PUSH2 0x2129 JUMP JUMPDEST SWAP1 POP SWAP2 SWAP1 POP JUMP JUMPDEST PUSH32 0x6E6F742052656365697665720000000000000000000000000000000000000000 PUSH1 0x0 DUP3 ADD MSTORE POP JUMP JUMPDEST PUSH1 0x0 PUSH2 0x21A2 PUSH1 0xC DUP4 PUSH2 0x16FD JUMP JUMPDEST SWAP2 POP PUSH2 0x21AD DUP3 PUSH2 0x216C JUMP JUMPDEST PUSH1 0x20 DUP3 ADD SWAP1 POP SWAP2 SWAP1 POP JUMP JUMPDEST PUSH1 0x0 PUSH1 0x20 DUP3 ADD SWAP1 POP DUP2 DUP2 SUB PUSH1 0x0 DUP4 ADD MSTORE PUSH2 0x21D1 DUP2 PUSH2 0x2195 JUMP JUMPDEST SWAP1 POP SWAP2 SWAP1 POP JUMP JUMPDEST PUSH1 0x0 PUSH2 0x21E3 DUP3 PUSH2 0x17A4 JUMP JUMPDEST SWAP2 POP PUSH32 0xFFFFFFFFFFFFFFFFFFFFFFFFFFFFFFFFFFFFFFFFFFFFFFFFFFFFFFFFFFFFFFFF DUP3 SUB PUSH2 0x2215 JUMPI PUSH2 0x2214 PUSH2 0x1FFD JUMP JUMPDEST JUMPDEST PUSH1 0x1 DUP3 ADD SWAP1 POP SWAP2 SWAP1 POP JUMP JUMPDEST PUSH32 0x4E487B7100000000000000000000000000000000000000000000000000000000 PUSH1 0x0 MSTORE PUSH1 0x12 PUSH1 0x4 MSTORE PUSH1 0x24 PUSH1 0x0 REVERT JUMPDEST PUSH1 0x0 PUSH2 0x225A DUP3 PUSH2 0x17A4 JUMP JUMPDEST SWAP2 POP PUSH2 0x2265 DUP4 PUSH2 0x17A4 JUMP JUMPDEST SWAP3 POP DUP3 PUSH2 0x2275 JUMPI PUSH2 0x2274 PUSH2 0x2220 JUMP JUMPDEST JUMPDEST DUP3 DUP3 DIV SWAP1 POP SWAP3 SWAP2 POP POP JUMP JUMPDEST PUSH1 0x0 PUSH2 0x228B DUP3 PUSH2 0x17A4 JUMP JUMPDEST SWAP2 POP PUSH2 0x2296 DUP4 PUSH2 0x17A4 JUMP JUMPDEST SWAP3 POP DUP3 PUSH2 0x22A6 JUMPI PUSH2 0x22A5 PUSH2 0x2220 JUMP JUMPDEST JUMPDEST DUP3 DUP3 MOD SWAP1 POP SWAP3 SWAP2 POP POP JUMP JUMPDEST PUSH32 0x4E487B7100000000000000000000000000000000000000000000000000000000 PUSH1 0x0 MSTORE PUSH1 0x32 PUSH1 0x4 MSTORE PUSH1 0x24 PUSH1 0x0 REVERT JUMPDEST PUSH1 0x0 DUP2 MLOAD SWAP1 POP SWAP2 SWAP1 POP JUMP JUMPDEST PUSH1 0x0 DUP3 DUP3 MSTORE PUSH1 0x20 DUP3 ADD SWAP1 POP SWAP3 SWAP2 POP POP JUMP JUMPDEST PUSH1 0x0 PUSH2 0x2307 DUP3 PUSH2 0x22E0 JUMP JUMPDEST PUSH2 0x2311 DUP2 DUP6 PUSH2 0x22EB JUMP JUMPDEST SWAP4 POP PUSH2 0x2321 DUP2 DUP6 PUSH1 0x20 DUP7 ADD PUSH2 0x170E JUMP JUMPDEST PUSH2 0x232A DUP2 PUSH2 0x1738 JUMP JUMPDEST DUP5 ADD SWAP2 POP POP SWAP3 SWAP2 POP POP JUMP JUMPDEST PUSH1 0x0 PUSH1 0x80 DUP3 ADD SWAP1 POP PUSH2 0x234A PUSH1 0x0 DUP4 ADD DUP8 PUSH2 0x1839 JUMP JUMPDEST PUSH2 0x2357 PUSH1 0x20 DUP4 ADD DUP7 PUSH2 0x1839 JUMP JUMPDEST PUSH2 0x2364 PUSH1 0x40 DUP4 ADD DUP6 PUSH2 0x194F JUMP JUMPDEST DUP2 DUP2 SUB PUSH1 0x60 DUP4 ADD MSTORE PUSH2 0x2376 DUP2 DUP5 PUSH2 0x22FC JUMP JUMPDEST SWAP1 POP SWAP6 SWAP5 POP POP POP POP POP JUMP JUMPDEST PUSH1 0x0 DUP2 MLOAD SWAP1 POP PUSH2 0x2390 DUP2 PUSH2 0x1663 JUMP JUMPDEST SWAP3 SWAP2 POP POP JUMP JUMPDEST PUSH1 0x0 PUSH1 0x20 DUP3 DUP5 SUB SLT ISZERO PUSH2 0x23AC JUMPI PUSH2 0x23AB PUSH2 0x162D JUMP JUMPDEST JUMPDEST PUSH1 0x0 PUSH2 0x23BA DUP5 DUP3 DUP6 ADD PUSH2 0x2381 JUMP JUMPDEST SWAP2 POP POP SWAP3 SWAP2 POP POP JUMP INVALID PUSH10 0x7066733A2F2F516D6553 PUSH11 0x53696E4870506E6D586D73 PUSH17 0x4D6A776958794E367A533445397A636361 PUSH19 0x694752336A7863615774712FA2646970667358 0x22 SLT KECCAK256 0xB9 0xEA CODESIZE 0xA5 SGT SWAP10 0xFB 0xDC 0xEE DUP9 0xE7 SMOD SHR 0x4C 0xC5 0x2F 0xE1 AND 0xA8 GT GASLIMIT 0xB0 0xF6 0xC5 0x27 MLOAD 0xDB DUP3 SWAP4 0x1E 0xC9 PUSH7 0x64736F6C634300 ADDMOD GT STOP CALLER "
				},
				"gasEstimates": {
					"creation": {
						"codeDepositCost": "1852600",
						"executionCost": "infinite",
						"totalCost": "infinite"
					},
					"external": {
						"MAX_APES()": "2473",
						"approve(address,uint256)": "31556",
						"balanceOf(address)": "2921",
						"getApproved(uint256)": "5182",
						"isApprovedForAll(address,address)": "infinite",
						"mint(address,uint256)": "infinite",
						"name()": "infinite",
						"ownerOf(uint256)": "2976",
						"safeTransferFrom(address,address,uint256)": "infinite",
						"safeTransferFrom(address,address,uint256,bytes)": "infinite",
						"setApprovalForAll(address,bool)": "infinite",
						"supportsInterface(bytes4)": "754",
						"symbol()": "infinite",
						"tokenURI(uint256)": "infinite",
						"transferFrom(address,address,uint256)": "infinite"
					},
					"internal": {
						"_baseURI()": "infinite"
					}
				},
				"methodIdentifiers": {
					"MAX_APES()": "bb8a16bd",
					"approve(address,uint256)": "095ea7b3",
					"balanceOf(address)": "70a08231",
					"getApproved(uint256)": "081812fc",
					"isApprovedForAll(address,address)": "e985e9c5",
					"mint(address,uint256)": "40c10f19",
					"name()": "06fdde03",
					"ownerOf(uint256)": "6352211e",
					"safeTransferFrom(address,address,uint256)": "42842e0e",
					"safeTransferFrom(address,address,uint256,bytes)": "b88d4fde",
					"setApprovalForAll(address,bool)": "a22cb465",
					"supportsInterface(bytes4)": "01ffc9a7",
					"symbol()": "95d89b41",
					"tokenURI(uint256)": "c87b56dd",
					"transferFrom(address,address,uint256)": "23b872dd"
				}
			},
			"storageLayout": {
				"storage": [
					{
						"astId": 39,
						"contract": "WTFPractice/ERC721/WTFApe.sol:WTFApe",
						"label": "name",
						"offset": 0,
						"slot": "0",
						"type": "t_string_storage"
					},
					{
						"astId": 42,
						"contract": "WTFPractice/ERC721/WTFApe.sol:WTFApe",
						"label": "symbol",
						"offset": 0,
						"slot": "1",
						"type": "t_string_storage"
					},
					{
						"astId": 46,
						"contract": "WTFPractice/ERC721/WTFApe.sol:WTFApe",
						"label": "_owners",
						"offset": 0,
						"slot": "2",
						"type": "t_mapping(t_uint256,t_address)"
					},
					{
						"astId": 50,
						"contract": "WTFPractice/ERC721/WTFApe.sol:WTFApe",
						"label": "_balances",
						"offset": 0,
						"slot": "3",
						"type": "t_mapping(t_address,t_uint256)"
					},
					{
						"astId": 54,
						"contract": "WTFPractice/ERC721/WTFApe.sol:WTFApe",
						"label": "_tokenApprovals",
						"offset": 0,
						"slot": "4",
						"type": "t_mapping(t_uint256,t_address)"
					},
					{
						"astId": 60,
						"contract": "WTFPractice/ERC721/WTFApe.sol:WTFApe",
						"label": "_operatorApprovals",
						"offset": 0,
						"slot": "5",
						"type": "t_mapping(t_address,t_mapping(t_address,t_bool))"
					},
					{
						"astId": 1069,
						"contract": "WTFPractice/ERC721/WTFApe.sol:WTFApe",
						"label": "MAX_APES",
						"offset": 0,
						"slot": "6",
						"type": "t_uint256"
					}
				],
				"types": {
					"t_address": {
						"encoding": "inplace",
						"label": "address",
						"numberOfBytes": "20"
					},
					"t_bool": {
						"encoding": "inplace",
						"label": "bool",
						"numberOfBytes": "1"
					},
					"t_mapping(t_address,t_bool)": {
						"encoding": "mapping",
						"key": "t_address",
						"label": "mapping(address => bool)",
						"numberOfBytes": "32",
						"value": "t_bool"
					},
					"t_mapping(t_address,t_mapping(t_address,t_bool))": {
						"encoding": "mapping",
						"key": "t_address",
						"label": "mapping(address => mapping(address => bool))",
						"numberOfBytes": "32",
						"value": "t_mapping(t_address,t_bool)"
					},
					"t_mapping(t_address,t_uint256)": {
						"encoding": "mapping",
						"key": "t_address",
						"label": "mapping(address => uint256)",
						"numberOfBytes": "32",
						"value": "t_uint256"
					},
					"t_mapping(t_uint256,t_address)": {
						"encoding": "mapping",
						"key": "t_uint256",
						"label": "mapping(uint256 => address)",
						"numberOfBytes": "32",
						"value": "t_address"
					},
					"t_string_storage": {
						"encoding": "bytes",
						"label": "string",
						"numberOfBytes": "32"
					},
					"t_uint256": {
						"encoding": "inplace",
						"label": "uint256",
						"numberOfBytes": "32"
					}
				}
			},
			"userdoc": {
				"kind": "user",
				"methods": {},
				"version": 1
			}
		}
	}
}