{
	"SOLPractice/WTF001.sol": {
		"WTF001": {
			"abi": [
				{
					"inputs": [],
					"name": "enumToUint",
					"outputs": [
						{
							"internalType": "uint256",
							"name": "",
							"type": "uint256"
						}
					],
					"stateMutability": "view",
					"type": "function"
				},
				{
					"inputs": [],
					"name": "getEnum",
					"outputs": [
						{
							"internalType": "enum WTF001.ActionSet",
							"name": "",
							"type": "uint8"
						}
					],
					"stateMutability": "view",
					"type": "function"
				}
			],
			"devdoc": {
				"kind": "dev",
				"methods": {},
				"version": 1
			},
			"evm": {
				"assembly": "    /* \"SOLPractice/WTF001.sol\":35:482  contract WTF001 {... */\n  mstore(0x40, 0x80)\n    /* \"SOLPractice/WTF001.sol\":206:219  ActionSet.Buy */\n  0x00\n    /* \"SOLPractice/WTF001.sol\":187:219  ActionSet action = ActionSet.Buy */\n  dup1\n  exp(0x0100, 0x00)\n  dup2\n  sload\n  dup2\n  0xff\n  mul\n  not\n  and\n  swap1\n  dup4\n  0x02\n  dup2\n  gt\n  iszero\n  tag_1\n  jumpi\n  tag_2\n  tag_3\n  jump\t// in\ntag_2:\ntag_1:\n  mul\n  or\n  swap1\n  sstore\n  pop\n    /* \"SOLPractice/WTF001.sol\":245:259  ActionSet.Hold */\n  0x01\n    /* \"SOLPractice/WTF001.sol\":225:259  ActionSet action2 = ActionSet.Hold */\n  0x00\n  exp(0x0100, 0x01)\n  dup2\n  sload\n  dup2\n  0xff\n  mul\n  not\n  and\n  swap1\n  dup4\n  0x02\n  dup2\n  gt\n  iszero\n  tag_4\n  jumpi\n  tag_5\n  tag_3\n  jump\t// in\ntag_5:\ntag_4:\n  mul\n  or\n  swap1\n  sstore\n  pop\n    /* \"SOLPractice/WTF001.sol\":35:482  contract WTF001 {... */\n  callvalue\n  dup1\n  iszero\n  tag_6\n  jumpi\n  0x00\n  dup1\n  revert\ntag_6:\n  pop\n  jump(tag_7)\n    /* \"#utility.yul\":7:187   */\ntag_3:\n    /* \"#utility.yul\":55:132   */\n  0x4e487b7100000000000000000000000000000000000000000000000000000000\n    /* \"#utility.yul\":52:53   */\n  0x00\n    /* \"#utility.yul\":45:133   */\n  mstore\n    /* \"#utility.yul\":152:156   */\n  0x21\n    /* \"#utility.yul\":149:150   */\n  0x04\n    /* \"#utility.yul\":142:157   */\n  mstore\n    /* \"#utility.yul\":176:180   */\n  0x24\n    /* \"#utility.yul\":173:174   */\n  0x00\n    /* \"#utility.yul\":166:181   */\n  revert\n    /* \"SOLPractice/WTF001.sol\":35:482  contract WTF001 {... */\ntag_7:\n  dataSize(sub_0)\n  dup1\n  dataOffset(sub_0)\n  0x00\n  codecopy\n  0x00\n  return\nstop\n\nsub_0: assembly {\n        /* \"SOLPractice/WTF001.sol\":35:482  contract WTF001 {... */\n      mstore(0x40, 0x80)\n      callvalue\n      dup1\n      iszero\n      tag_1\n      jumpi\n      0x00\n      dup1\n      revert\n    tag_1:\n      pop\n      jumpi(tag_2, lt(calldatasize, 0x04))\n      shr(0xe0, calldataload(0x00))\n      dup1\n      0x01019958\n      eq\n      tag_3\n      jumpi\n      dup1\n      0xf0ebce5a\n      eq\n      tag_4\n      jumpi\n    tag_2:\n      0x00\n      dup1\n      revert\n        /* \"SOLPractice/WTF001.sol\":306:391  function enumToUint() external view returns(uint){... */\n    tag_3:\n      tag_5\n      tag_6\n      jump\t// in\n    tag_5:\n      mload(0x40)\n      tag_7\n      swap2\n      swap1\n      tag_8\n      jump\t// in\n    tag_7:\n      mload(0x40)\n      dup1\n      swap2\n      sub\n      swap1\n      return\n        /* \"SOLPractice/WTF001.sol\":397:479  function getEnum() external view returns(ActionSet){... */\n    tag_4:\n      tag_9\n      tag_10\n      jump\t// in\n    tag_9:\n      mload(0x40)\n      tag_11\n      swap2\n      swap1\n      tag_12\n      jump\t// in\n    tag_11:\n      mload(0x40)\n      dup1\n      swap2\n      sub\n      swap1\n      return\n        /* \"SOLPractice/WTF001.sol\":306:391  function enumToUint() external view returns(uint){... */\n    tag_6:\n        /* \"SOLPractice/WTF001.sol\":350:354  uint */\n      0x00\n        /* \"SOLPractice/WTF001.sol\":377:383  action */\n      dup1\n      0x00\n      swap1\n      sload\n      swap1\n      0x0100\n      exp\n      swap1\n      div\n      0xff\n      and\n        /* \"SOLPractice/WTF001.sol\":372:384  uint(action) */\n      0x02\n      dup2\n      gt\n      iszero\n      tag_14\n      jumpi\n      tag_15\n      tag_16\n      jump\t// in\n    tag_15:\n    tag_14:\n        /* \"SOLPractice/WTF001.sol\":365:384  return uint(action) */\n      swap1\n      pop\n        /* \"SOLPractice/WTF001.sol\":306:391  function enumToUint() external view returns(uint){... */\n      swap1\n      jump\t// out\n        /* \"SOLPractice/WTF001.sol\":397:479  function getEnum() external view returns(ActionSet){... */\n    tag_10:\n        /* \"SOLPractice/WTF001.sol\":438:447  ActionSet */\n      0x00\n        /* \"SOLPractice/WTF001.sol\":465:472  action2 */\n      dup1\n      0x01\n      swap1\n      sload\n      swap1\n      0x0100\n      exp\n      swap1\n      div\n      0xff\n      and\n        /* \"SOLPractice/WTF001.sol\":458:472  return action2 */\n      swap1\n      pop\n        /* \"SOLPractice/WTF001.sol\":397:479  function getEnum() external view returns(ActionSet){... */\n      swap1\n      jump\t// out\n        /* \"#utility.yul\":7:84   */\n    tag_18:\n        /* \"#utility.yul\":44:51   */\n      0x00\n        /* \"#utility.yul\":73:78   */\n      dup2\n        /* \"#utility.yul\":62:78   */\n      swap1\n      pop\n        /* \"#utility.yul\":7:84   */\n      swap2\n      swap1\n      pop\n      jump\t// out\n        /* \"#utility.yul\":90:208   */\n    tag_19:\n        /* \"#utility.yul\":177:201   */\n      tag_27\n        /* \"#utility.yul\":195:200   */\n      dup2\n        /* \"#utility.yul\":177:201   */\n      tag_18\n      jump\t// in\n    tag_27:\n        /* \"#utility.yul\":172:175   */\n      dup3\n        /* \"#utility.yul\":165:202   */\n      mstore\n        /* \"#utility.yul\":90:208   */\n      pop\n      pop\n      jump\t// out\n        /* \"#utility.yul\":214:436   */\n    tag_8:\n        /* \"#utility.yul\":307:311   */\n      0x00\n        /* \"#utility.yul\":345:347   */\n      0x20\n        /* \"#utility.yul\":334:343   */\n      dup3\n        /* \"#utility.yul\":330:348   */\n      add\n        /* \"#utility.yul\":322:348   */\n      swap1\n      pop\n        /* \"#utility.yul\":358:429   */\n      tag_29\n        /* \"#utility.yul\":426:427   */\n      0x00\n        /* \"#utility.yul\":415:424   */\n      dup4\n        /* \"#utility.yul\":411:428   */\n      add\n        /* \"#utility.yul\":402:408   */\n      dup5\n        /* \"#utility.yul\":358:429   */\n      tag_19\n      jump\t// in\n    tag_29:\n        /* \"#utility.yul\":214:436   */\n      swap3\n      swap2\n      pop\n      pop\n      jump\t// out\n        /* \"#utility.yul\":442:622   */\n    tag_16:\n        /* \"#utility.yul\":490:567   */\n      0x4e487b7100000000000000000000000000000000000000000000000000000000\n        /* \"#utility.yul\":487:488   */\n      0x00\n        /* \"#utility.yul\":480:568   */\n      mstore\n        /* \"#utility.yul\":587:591   */\n      0x21\n        /* \"#utility.yul\":584:585   */\n      0x04\n        /* \"#utility.yul\":577:592   */\n      mstore\n        /* \"#utility.yul\":611:615   */\n      0x24\n        /* \"#utility.yul\":608:609   */\n      0x00\n        /* \"#utility.yul\":601:616   */\n      revert\n        /* \"#utility.yul\":628:744   */\n    tag_20:\n        /* \"#utility.yul\":712:713   */\n      0x03\n        /* \"#utility.yul\":705:710   */\n      dup2\n        /* \"#utility.yul\":702:714   */\n      lt\n        /* \"#utility.yul\":692:738   */\n      tag_32\n      jumpi\n        /* \"#utility.yul\":718:736   */\n      tag_33\n      tag_16\n      jump\t// in\n    tag_33:\n        /* \"#utility.yul\":692:738   */\n    tag_32:\n        /* \"#utility.yul\":628:744   */\n      pop\n      jump\t// out\n        /* \"#utility.yul\":750:883   */\n    tag_21:\n        /* \"#utility.yul\":798:805   */\n      0x00\n        /* \"#utility.yul\":827:832   */\n      dup2\n        /* \"#utility.yul\":816:832   */\n      swap1\n      pop\n        /* \"#utility.yul\":833:877   */\n      tag_35\n        /* \"#utility.yul\":871:876   */\n      dup3\n        /* \"#utility.yul\":833:877   */\n      tag_20\n      jump\t// in\n    tag_35:\n        /* \"#utility.yul\":750:883   */\n      swap2\n      swap1\n      pop\n      jump\t// out\n        /* \"#utility.yul\":889:1022   */\n    tag_22:\n        /* \"#utility.yul\":948:957   */\n      0x00\n        /* \"#utility.yul\":981:1016   */\n      tag_37\n        /* \"#utility.yul\":1010:1015   */\n      dup3\n        /* \"#utility.yul\":981:1016   */\n      tag_21\n      jump\t// in\n    tag_37:\n        /* \"#utility.yul\":968:1016   */\n      swap1\n      pop\n        /* \"#utility.yul\":889:1022   */\n      swap2\n      swap1\n      pop\n      jump\t// out\n        /* \"#utility.yul\":1028:1177   */\n    tag_23:\n        /* \"#utility.yul\":1124:1170   */\n      tag_39\n        /* \"#utility.yul\":1164:1169   */\n      dup2\n        /* \"#utility.yul\":1124:1170   */\n      tag_22\n      jump\t// in\n    tag_39:\n        /* \"#utility.yul\":1119:1122   */\n      dup3\n        /* \"#utility.yul\":1112:1171   */\n      mstore\n        /* \"#utility.yul\":1028:1177   */\n      pop\n      pop\n      jump\t// out\n        /* \"#utility.yul\":1183:1423   */\n    tag_12:\n        /* \"#utility.yul\":1285:1289   */\n      0x00\n        /* \"#utility.yul\":1323:1325   */\n      0x20\n        /* \"#utility.yul\":1312:1321   */\n      dup3\n        /* \"#utility.yul\":1308:1326   */\n      add\n        /* \"#utility.yul\":1300:1326   */\n      swap1\n      pop\n        /* \"#utility.yul\":1336:1416   */\n      tag_41\n        /* \"#utility.yul\":1413:1414   */\n      0x00\n        /* \"#utility.yul\":1402:1411   */\n      dup4\n        /* \"#utility.yul\":1398:1415   */\n      add\n        /* \"#utility.yul\":1389:1395   */\n      dup5\n        /* \"#utility.yul\":1336:1416   */\n      tag_23\n      jump\t// in\n    tag_41:\n        /* \"#utility.yul\":1183:1423   */\n      swap3\n      swap2\n      pop\n      pop\n      jump\t// out\n\n    auxdata: 0xa26469706673582212206fc4c94310054dfc2159f25096d0823737f678c6e756e28d73fa002128478d6d64736f6c63430008110033\n}\n",
				"bytecode": {
					"linkReferences": {},
					"object": "608060405260008060006101000a81548160ff021916908360028111156100295761002861006b565b5b02179055506001600060016101000a81548160ff021916908360028111156100545761005361006b565b5b021790555034801561006557600080fd5b5061009a565b7f4e487b7100000000000000000000000000000000000000000000000000000000600052602160045260246000fd5b6101b1806100a96000396000f3fe608060405234801561001057600080fd5b50600436106100365760003560e01c8063010199581461003b578063f0ebce5a14610059575b600080fd5b610043610077565b60405161005091906100ce565b60405180910390f35b61006161009f565b60405161006e9190610160565b60405180910390f35b60008060009054906101000a900460ff16600281111561009a576100996100e9565b5b905090565b60008060019054906101000a900460ff16905090565b6000819050919050565b6100c8816100b5565b82525050565b60006020820190506100e360008301846100bf565b92915050565b7f4e487b7100000000000000000000000000000000000000000000000000000000600052602160045260246000fd5b60038110610129576101286100e9565b5b50565b600081905061013a82610118565b919050565b600061014a8261012c565b9050919050565b61015a8161013f565b82525050565b60006020820190506101756000830184610151565b9291505056fea26469706673582212206fc4c94310054dfc2159f25096d0823737f678c6e756e28d73fa002128478d6d64736f6c63430008110033",
					"opcodes": "PUSH1 0x80 PUSH1 0x40 MSTORE PUSH1 0x0 DUP1 PUSH1 0x0 PUSH2 0x100 EXP DUP2 SLOAD DUP2 PUSH1 0xFF MUL NOT AND SWAP1 DUP4 PUSH1 0x2 DUP2 GT ISZERO PUSH2 0x29 JUMPI PUSH2 0x28 PUSH2 0x6B JUMP JUMPDEST JUMPDEST MUL OR SWAP1 SSTORE POP PUSH1 0x1 PUSH1 0x0 PUSH1 0x1 PUSH2 0x100 EXP DUP2 SLOAD DUP2 PUSH1 0xFF MUL NOT AND SWAP1 DUP4 PUSH1 0x2 DUP2 GT ISZERO PUSH2 0x54 JUMPI PUSH2 0x53 PUSH2 0x6B JUMP JUMPDEST JUMPDEST MUL OR SWAP1 SSTORE POP CALLVALUE DUP1 ISZERO PUSH2 0x65 JUMPI PUSH1 0x0 DUP1 REVERT JUMPDEST POP PUSH2 0x9A JUMP JUMPDEST PUSH32 0x4E487B7100000000000000000000000000000000000000000000000000000000 PUSH1 0x0 MSTORE PUSH1 0x21 PUSH1 0x4 MSTORE PUSH1 0x24 PUSH1 0x0 REVERT JUMPDEST PUSH2 0x1B1 DUP1 PUSH2 0xA9 PUSH1 0x0 CODECOPY PUSH1 0x0 RETURN INVALID PUSH1 0x80 PUSH1 0x40 MSTORE CALLVALUE DUP1 ISZERO PUSH2 0x10 JUMPI PUSH1 0x0 DUP1 REVERT JUMPDEST POP PUSH1 0x4 CALLDATASIZE LT PUSH2 0x36 JUMPI PUSH1 0x0 CALLDATALOAD PUSH1 0xE0 SHR DUP1 PUSH4 0x1019958 EQ PUSH2 0x3B JUMPI DUP1 PUSH4 0xF0EBCE5A EQ PUSH2 0x59 JUMPI JUMPDEST PUSH1 0x0 DUP1 REVERT JUMPDEST PUSH2 0x43 PUSH2 0x77 JUMP JUMPDEST PUSH1 0x40 MLOAD PUSH2 0x50 SWAP2 SWAP1 PUSH2 0xCE JUMP JUMPDEST PUSH1 0x40 MLOAD DUP1 SWAP2 SUB SWAP1 RETURN JUMPDEST PUSH2 0x61 PUSH2 0x9F JUMP JUMPDEST PUSH1 0x40 MLOAD PUSH2 0x6E SWAP2 SWAP1 PUSH2 0x160 JUMP JUMPDEST PUSH1 0x40 MLOAD DUP1 SWAP2 SUB SWAP1 RETURN JUMPDEST PUSH1 0x0 DUP1 PUSH1 0x0 SWAP1 SLOAD SWAP1 PUSH2 0x100 EXP SWAP1 DIV PUSH1 0xFF AND PUSH1 0x2 DUP2 GT ISZERO PUSH2 0x9A JUMPI PUSH2 0x99 PUSH2 0xE9 JUMP JUMPDEST JUMPDEST SWAP1 POP SWAP1 JUMP JUMPDEST PUSH1 0x0 DUP1 PUSH1 0x1 SWAP1 SLOAD SWAP1 PUSH2 0x100 EXP SWAP1 DIV PUSH1 0xFF AND SWAP1 POP SWAP1 JUMP JUMPDEST PUSH1 0x0 DUP2 SWAP1 POP SWAP2 SWAP1 POP JUMP JUMPDEST PUSH2 0xC8 DUP2 PUSH2 0xB5 JUMP JUMPDEST DUP3 MSTORE POP POP JUMP JUMPDEST PUSH1 0x0 PUSH1 0x20 DUP3 ADD SWAP1 POP PUSH2 0xE3 PUSH1 0x0 DUP4 ADD DUP5 PUSH2 0xBF JUMP JUMPDEST SWAP3 SWAP2 POP POP JUMP JUMPDEST PUSH32 0x4E487B7100000000000000000000000000000000000000000000000000000000 PUSH1 0x0 MSTORE PUSH1 0x21 PUSH1 0x4 MSTORE PUSH1 0x24 PUSH1 0x0 REVERT JUMPDEST PUSH1 0x3 DUP2 LT PUSH2 0x129 JUMPI PUSH2 0x128 PUSH2 0xE9 JUMP JUMPDEST JUMPDEST POP JUMP JUMPDEST PUSH1 0x0 DUP2 SWAP1 POP PUSH2 0x13A DUP3 PUSH2 0x118 JUMP JUMPDEST SWAP2 SWAP1 POP JUMP JUMPDEST PUSH1 0x0 PUSH2 0x14A DUP3 PUSH2 0x12C JUMP JUMPDEST SWAP1 POP SWAP2 SWAP1 POP JUMP JUMPDEST PUSH2 0x15A DUP2 PUSH2 0x13F JUMP JUMPDEST DUP3 MSTORE POP POP JUMP JUMPDEST PUSH1 0x0 PUSH1 0x20 DUP3 ADD SWAP1 POP PUSH2 0x175 PUSH1 0x0 DUP4 ADD DUP5 PUSH2 0x151 JUMP JUMPDEST SWAP3 SWAP2 POP POP JUMP INVALID LOG2 PUSH5 0x6970667358 0x22 SLT KECCAK256 PUSH16 0xC4C94310054DFC2159F25096D0823737 0xF6 PUSH25 0xC6E756E28D73FA002128478D6D64736F6C6343000811003300 "
				},
				"gasEstimates": {
					"creation": {
						"codeDepositCost": "86600",
						"executionCost": "48771",
						"totalCost": "135371"
					},
					"external": {
						"enumToUint()": "2477",
						"getEnum()": "2618"
					}
				},
				"methodIdentifiers": {
					"enumToUint()": "01019958",
					"getEnum()": "f0ebce5a"
				}
			},
			"storageLayout": {
				"storage": [
					{
						"astId": 10,
						"contract": "SOLPractice/WTF001.sol:WTF001",
						"label": "action",
						"offset": 0,
						"slot": "0",
						"type": "t_enum(ActionSet)5"
					},
					{
						"astId": 15,
						"contract": "SOLPractice/WTF001.sol:WTF001",
						"label": "action2",
						"offset": 1,
						"slot": "0",
						"type": "t_enum(ActionSet)5"
					}
				],
				"types": {
					"t_enum(ActionSet)5": {
						"encoding": "inplace",
						"label": "enum WTF001.ActionSet",
						"numberOfBytes": "1"
					}
				}
			},
			"userdoc": {
				"kind": "user",
				"methods": {},
				"version": 1
			}
		}
	}
}