{
	"SOLPractice/WTF001.sol": {
		"WTF001": {
			"abi": [
				{
					"inputs": [],
					"name": "Ae",
					"outputs": [
						{
							"internalType": "uint256",
							"name": "balance",
							"type": "uint256"
						}
					],
					"stateMutability": "payable",
					"type": "function"
				},
				{
					"inputs": [],
					"name": "enumToUint",
					"outputs": [
						{
							"internalType": "uint256",
							"name": "",
							"type": "uint256"
						}
					],
					"stateMutability": "view",
					"type": "function"
				},
				{
					"inputs": [],
					"name": "getEnum",
					"outputs": [
						{
							"internalType": "enum WTF001.ActionSet",
							"name": "",
							"type": "uint8"
						}
					],
					"stateMutability": "view",
					"type": "function"
				},
				{
					"inputs": [],
					"name": "minusPayable",
					"outputs": [
						{
							"internalType": "uint256",
							"name": "balance",
							"type": "uint256"
						}
					],
					"stateMutability": "payable",
					"type": "function"
				}
			],
			"devdoc": {
				"kind": "dev",
				"methods": {},
				"version": 1
			},
			"evm": {
				"assembly": "    /* \"SOLPractice/WTF001.sol\":35:904  contract WTF001 {... */\n  mstore(0x40, 0x80)\n    /* \"SOLPractice/WTF001.sol\":206:219  ActionSet.Buy */\n  0x00\n    /* \"SOLPractice/WTF001.sol\":187:219  ActionSet action = ActionSet.Buy */\n  dup1\n  exp(0x0100, 0x00)\n  dup2\n  sload\n  dup2\n  0xff\n  mul\n  not\n  and\n  swap1\n  dup4\n  0x02\n  dup2\n  gt\n  iszero\n  tag_1\n  jumpi\n  tag_2\n  tag_3\n  jump\t// in\ntag_2:\ntag_1:\n  mul\n  or\n  swap1\n  sstore\n  pop\n    /* \"SOLPractice/WTF001.sol\":245:259  ActionSet.Hold */\n  0x01\n    /* \"SOLPractice/WTF001.sol\":225:259  ActionSet action2 = ActionSet.Hold */\n  0x00\n  exp(0x0100, 0x01)\n  dup2\n  sload\n  dup2\n  0xff\n  mul\n  not\n  and\n  swap1\n  dup4\n  0x02\n  dup2\n  gt\n  iszero\n  tag_4\n  jumpi\n  tag_5\n  tag_3\n  jump\t// in\ntag_5:\ntag_4:\n  mul\n  or\n  swap1\n  sstore\n  pop\n    /* \"SOLPractice/WTF001.sol\":35:904  contract WTF001 {... */\n  callvalue\n  dup1\n  iszero\n  tag_6\n  jumpi\n  0x00\n  dup1\n  revert\ntag_6:\n  pop\n  jump(tag_7)\n    /* \"#utility.yul\":7:187   */\ntag_3:\n    /* \"#utility.yul\":55:132   */\n  0x4e487b7100000000000000000000000000000000000000000000000000000000\n    /* \"#utility.yul\":52:53   */\n  0x00\n    /* \"#utility.yul\":45:133   */\n  mstore\n    /* \"#utility.yul\":152:156   */\n  0x21\n    /* \"#utility.yul\":149:150   */\n  0x04\n    /* \"#utility.yul\":142:157   */\n  mstore\n    /* \"#utility.yul\":176:180   */\n  0x24\n    /* \"#utility.yul\":173:174   */\n  0x00\n    /* \"#utility.yul\":166:181   */\n  revert\n    /* \"SOLPractice/WTF001.sol\":35:904  contract WTF001 {... */\ntag_7:\n  dataSize(sub_0)\n  dup1\n  dataOffset(sub_0)\n  0x00\n  codecopy\n  0x00\n  return\nstop\n\nsub_0: assembly {\n        /* \"SOLPractice/WTF001.sol\":35:904  contract WTF001 {... */\n      mstore(0x40, 0x80)\n      jumpi(tag_1, lt(calldatasize, 0x04))\n      shr(0xe0, calldataload(0x00))\n      dup1\n      0x01019958\n      eq\n      tag_2\n      jumpi\n      dup1\n      0x303810a6\n      eq\n      tag_3\n      jumpi\n      dup1\n      0x79247218\n      eq\n      tag_4\n      jumpi\n      dup1\n      0xf0ebce5a\n      eq\n      tag_5\n      jumpi\n    tag_1:\n      0x00\n      dup1\n      revert\n        /* \"SOLPractice/WTF001.sol\":341:426  function enumToUint() external view returns(uint){... */\n    tag_2:\n      callvalue\n      dup1\n      iszero\n      tag_6\n      jumpi\n      0x00\n      dup1\n      revert\n    tag_6:\n      pop\n      tag_7\n      tag_8\n      jump\t// in\n    tag_7:\n      mload(0x40)\n      tag_9\n      swap2\n      swap1\n      tag_10\n      jump\t// in\n    tag_9:\n      mload(0x40)\n      dup1\n      swap2\n      sub\n      swap1\n      return\n        /* \"SOLPractice/WTF001.sol\":585:743  function minusPayable() external payable returns(uint256 balance) {... */\n    tag_3:\n      tag_11\n      tag_12\n      jump\t// in\n    tag_11:\n      mload(0x40)\n      tag_13\n      swap2\n      swap1\n      tag_10\n      jump\t// in\n    tag_13:\n      mload(0x40)\n      dup1\n      swap2\n      sub\n      swap1\n      return\n        /* \"SOLPractice/WTF001.sol\":753:901  function Ae() external payable returns(uint256 balance) {... */\n    tag_4:\n      tag_14\n      tag_15\n      jump\t// in\n    tag_14:\n      mload(0x40)\n      tag_16\n      swap2\n      swap1\n      tag_10\n      jump\t// in\n    tag_16:\n      mload(0x40)\n      dup1\n      swap2\n      sub\n      swap1\n      return\n        /* \"SOLPractice/WTF001.sol\":432:523  function getEnum() external view returns(ActionSet){... */\n    tag_5:\n      callvalue\n      dup1\n      iszero\n      tag_17\n      jumpi\n      0x00\n      dup1\n      revert\n    tag_17:\n      pop\n      tag_18\n      tag_19\n      jump\t// in\n    tag_18:\n      mload(0x40)\n      tag_20\n      swap2\n      swap1\n      tag_21\n      jump\t// in\n    tag_20:\n      mload(0x40)\n      dup1\n      swap2\n      sub\n      swap1\n      return\n        /* \"SOLPractice/WTF001.sol\":341:426  function enumToUint() external view returns(uint){... */\n    tag_8:\n        /* \"SOLPractice/WTF001.sol\":385:389  uint */\n      0x00\n        /* \"SOLPractice/WTF001.sol\":412:418  action */\n      dup1\n      0x00\n      swap1\n      sload\n      swap1\n      0x0100\n      exp\n      swap1\n      div\n      0xff\n      and\n        /* \"SOLPractice/WTF001.sol\":407:419  uint(action) */\n      0x02\n      dup2\n      gt\n      iszero\n      tag_23\n      jumpi\n      tag_24\n      tag_25\n      jump\t// in\n    tag_24:\n    tag_23:\n        /* \"SOLPractice/WTF001.sol\":400:419  return uint(action) */\n      swap1\n      pop\n        /* \"SOLPractice/WTF001.sol\":341:426  function enumToUint() external view returns(uint){... */\n      swap1\n      jump\t// out\n        /* \"SOLPractice/WTF001.sol\":585:743  function minusPayable() external payable returns(uint256 balance) {... */\n    tag_12:\n        /* \"SOLPractice/WTF001.sol\":634:649  uint256 balance */\n      0x00\n        /* \"SOLPractice/WTF001.sol\":714:735  address(this).balance */\n      selfbalance\n        /* \"SOLPractice/WTF001.sol\":704:735  balance = address(this).balance */\n      swap1\n      pop\n        /* \"SOLPractice/WTF001.sol\":585:743  function minusPayable() external payable returns(uint256 balance) {... */\n      swap1\n      jump\t// out\n        /* \"SOLPractice/WTF001.sol\":753:901  function Ae() external payable returns(uint256 balance) {... */\n    tag_15:\n        /* \"SOLPractice/WTF001.sol\":792:807  uint256 balance */\n      0x00\n        /* \"SOLPractice/WTF001.sol\":872:893  address(this).balance */\n      selfbalance\n        /* \"SOLPractice/WTF001.sol\":862:893  balance = address(this).balance */\n      swap1\n      pop\n        /* \"SOLPractice/WTF001.sol\":753:901  function Ae() external payable returns(uint256 balance) {... */\n      swap1\n      jump\t// out\n        /* \"SOLPractice/WTF001.sol\":432:523  function getEnum() external view returns(ActionSet){... */\n    tag_19:\n        /* \"SOLPractice/WTF001.sol\":473:482  ActionSet */\n      0x00\n        /* \"SOLPractice/WTF001.sol\":509:516  action2 */\n      dup1\n      0x01\n      swap1\n      sload\n      swap1\n      0x0100\n      exp\n      swap1\n      div\n      0xff\n      and\n        /* \"SOLPractice/WTF001.sol\":502:516  return action2 */\n      swap1\n      pop\n        /* \"SOLPractice/WTF001.sol\":432:523  function getEnum() external view returns(ActionSet){... */\n      swap1\n      jump\t// out\n        /* \"#utility.yul\":7:84   */\n    tag_29:\n        /* \"#utility.yul\":44:51   */\n      0x00\n        /* \"#utility.yul\":73:78   */\n      dup2\n        /* \"#utility.yul\":62:78   */\n      swap1\n      pop\n        /* \"#utility.yul\":7:84   */\n      swap2\n      swap1\n      pop\n      jump\t// out\n        /* \"#utility.yul\":90:208   */\n    tag_30:\n        /* \"#utility.yul\":177:201   */\n      tag_38\n        /* \"#utility.yul\":195:200   */\n      dup2\n        /* \"#utility.yul\":177:201   */\n      tag_29\n      jump\t// in\n    tag_38:\n        /* \"#utility.yul\":172:175   */\n      dup3\n        /* \"#utility.yul\":165:202   */\n      mstore\n        /* \"#utility.yul\":90:208   */\n      pop\n      pop\n      jump\t// out\n        /* \"#utility.yul\":214:436   */\n    tag_10:\n        /* \"#utility.yul\":307:311   */\n      0x00\n        /* \"#utility.yul\":345:347   */\n      0x20\n        /* \"#utility.yul\":334:343   */\n      dup3\n        /* \"#utility.yul\":330:348   */\n      add\n        /* \"#utility.yul\":322:348   */\n      swap1\n      pop\n        /* \"#utility.yul\":358:429   */\n      tag_40\n        /* \"#utility.yul\":426:427   */\n      0x00\n        /* \"#utility.yul\":415:424   */\n      dup4\n        /* \"#utility.yul\":411:428   */\n      add\n        /* \"#utility.yul\":402:408   */\n      dup5\n        /* \"#utility.yul\":358:429   */\n      tag_30\n      jump\t// in\n    tag_40:\n        /* \"#utility.yul\":214:436   */\n      swap3\n      swap2\n      pop\n      pop\n      jump\t// out\n        /* \"#utility.yul\":442:622   */\n    tag_25:\n        /* \"#utility.yul\":490:567   */\n      0x4e487b7100000000000000000000000000000000000000000000000000000000\n        /* \"#utility.yul\":487:488   */\n      0x00\n        /* \"#utility.yul\":480:568   */\n      mstore\n        /* \"#utility.yul\":587:591   */\n      0x21\n        /* \"#utility.yul\":584:585   */\n      0x04\n        /* \"#utility.yul\":577:592   */\n      mstore\n        /* \"#utility.yul\":611:615   */\n      0x24\n        /* \"#utility.yul\":608:609   */\n      0x00\n        /* \"#utility.yul\":601:616   */\n      revert\n        /* \"#utility.yul\":628:744   */\n    tag_31:\n        /* \"#utility.yul\":712:713   */\n      0x03\n        /* \"#utility.yul\":705:710   */\n      dup2\n        /* \"#utility.yul\":702:714   */\n      lt\n        /* \"#utility.yul\":692:738   */\n      tag_43\n      jumpi\n        /* \"#utility.yul\":718:736   */\n      tag_44\n      tag_25\n      jump\t// in\n    tag_44:\n        /* \"#utility.yul\":692:738   */\n    tag_43:\n        /* \"#utility.yul\":628:744   */\n      pop\n      jump\t// out\n        /* \"#utility.yul\":750:883   */\n    tag_32:\n        /* \"#utility.yul\":798:805   */\n      0x00\n        /* \"#utility.yul\":827:832   */\n      dup2\n        /* \"#utility.yul\":816:832   */\n      swap1\n      pop\n        /* \"#utility.yul\":833:877   */\n      tag_46\n        /* \"#utility.yul\":871:876   */\n      dup3\n        /* \"#utility.yul\":833:877   */\n      tag_31\n      jump\t// in\n    tag_46:\n        /* \"#utility.yul\":750:883   */\n      swap2\n      swap1\n      pop\n      jump\t// out\n        /* \"#utility.yul\":889:1022   */\n    tag_33:\n        /* \"#utility.yul\":948:957   */\n      0x00\n        /* \"#utility.yul\":981:1016   */\n      tag_48\n        /* \"#utility.yul\":1010:1015   */\n      dup3\n        /* \"#utility.yul\":981:1016   */\n      tag_32\n      jump\t// in\n    tag_48:\n        /* \"#utility.yul\":968:1016   */\n      swap1\n      pop\n        /* \"#utility.yul\":889:1022   */\n      swap2\n      swap1\n      pop\n      jump\t// out\n        /* \"#utility.yul\":1028:1177   */\n    tag_34:\n        /* \"#utility.yul\":1124:1170   */\n      tag_50\n        /* \"#utility.yul\":1164:1169   */\n      dup2\n        /* \"#utility.yul\":1124:1170   */\n      tag_33\n      jump\t// in\n    tag_50:\n        /* \"#utility.yul\":1119:1122   */\n      dup3\n        /* \"#utility.yul\":1112:1171   */\n      mstore\n        /* \"#utility.yul\":1028:1177   */\n      pop\n      pop\n      jump\t// out\n        /* \"#utility.yul\":1183:1423   */\n    tag_21:\n        /* \"#utility.yul\":1285:1289   */\n      0x00\n        /* \"#utility.yul\":1323:1325   */\n      0x20\n        /* \"#utility.yul\":1312:1321   */\n      dup3\n        /* \"#utility.yul\":1308:1326   */\n      add\n        /* \"#utility.yul\":1300:1326   */\n      swap1\n      pop\n        /* \"#utility.yul\":1336:1416   */\n      tag_52\n        /* \"#utility.yul\":1413:1414   */\n      0x00\n        /* \"#utility.yul\":1402:1411   */\n      dup4\n        /* \"#utility.yul\":1398:1415   */\n      add\n        /* \"#utility.yul\":1389:1395   */\n      dup5\n        /* \"#utility.yul\":1336:1416   */\n      tag_34\n      jump\t// in\n    tag_52:\n        /* \"#utility.yul\":1183:1423   */\n      swap3\n      swap2\n      pop\n      pop\n      jump\t// out\n\n    auxdata: 0xa26469706673582212203e2c054958e99d031b855467841e62d380475ab096b3c39457b2bb80da5dff9964736f6c63430008110033\n}\n",
				"bytecode": {
					"linkReferences": {},
					"object": "608060405260008060006101000a81548160ff021916908360028111156100295761002861006b565b5b02179055506001600060016101000a81548160ff021916908360028111156100545761005361006b565b5b021790555034801561006557600080fd5b5061009a565b7f4e487b7100000000000000000000000000000000000000000000000000000000600052602160045260246000fd5b610220806100a96000396000f3fe60806040526004361061003f5760003560e01c80630101995814610044578063303810a61461006f578063792472181461008d578063f0ebce5a146100ab575b600080fd5b34801561005057600080fd5b506100596100d6565b604051610066919061013d565b60405180910390f35b6100776100fe565b604051610084919061013d565b60405180910390f35b610095610106565b6040516100a2919061013d565b60405180910390f35b3480156100b757600080fd5b506100c061010e565b6040516100cd91906101cf565b60405180910390f35b60008060009054906101000a900460ff1660028111156100f9576100f8610158565b5b905090565b600047905090565b600047905090565b60008060019054906101000a900460ff16905090565b6000819050919050565b61013781610124565b82525050565b6000602082019050610152600083018461012e565b92915050565b7f4e487b7100000000000000000000000000000000000000000000000000000000600052602160045260246000fd5b6003811061019857610197610158565b5b50565b60008190506101a982610187565b919050565b60006101b98261019b565b9050919050565b6101c9816101ae565b82525050565b60006020820190506101e460008301846101c0565b9291505056fea26469706673582212203e2c054958e99d031b855467841e62d380475ab096b3c39457b2bb80da5dff9964736f6c63430008110033",
					"opcodes": "PUSH1 0x80 PUSH1 0x40 MSTORE PUSH1 0x0 DUP1 PUSH1 0x0 PUSH2 0x100 EXP DUP2 SLOAD DUP2 PUSH1 0xFF MUL NOT AND SWAP1 DUP4 PUSH1 0x2 DUP2 GT ISZERO PUSH2 0x29 JUMPI PUSH2 0x28 PUSH2 0x6B JUMP JUMPDEST JUMPDEST MUL OR SWAP1 SSTORE POP PUSH1 0x1 PUSH1 0x0 PUSH1 0x1 PUSH2 0x100 EXP DUP2 SLOAD DUP2 PUSH1 0xFF MUL NOT AND SWAP1 DUP4 PUSH1 0x2 DUP2 GT ISZERO PUSH2 0x54 JUMPI PUSH2 0x53 PUSH2 0x6B JUMP JUMPDEST JUMPDEST MUL OR SWAP1 SSTORE POP CALLVALUE DUP1 ISZERO PUSH2 0x65 JUMPI PUSH1 0x0 DUP1 REVERT JUMPDEST POP PUSH2 0x9A JUMP JUMPDEST PUSH32 0x4E487B7100000000000000000000000000000000000000000000000000000000 PUSH1 0x0 MSTORE PUSH1 0x21 PUSH1 0x4 MSTORE PUSH1 0x24 PUSH1 0x0 REVERT JUMPDEST PUSH2 0x220 DUP1 PUSH2 0xA9 PUSH1 0x0 CODECOPY PUSH1 0x0 RETURN INVALID PUSH1 0x80 PUSH1 0x40 MSTORE PUSH1 0x4 CALLDATASIZE LT PUSH2 0x3F JUMPI PUSH1 0x0 CALLDATALOAD PUSH1 0xE0 SHR DUP1 PUSH4 0x1019958 EQ PUSH2 0x44 JUMPI DUP1 PUSH4 0x303810A6 EQ PUSH2 0x6F JUMPI DUP1 PUSH4 0x79247218 EQ PUSH2 0x8D JUMPI DUP1 PUSH4 0xF0EBCE5A EQ PUSH2 0xAB JUMPI JUMPDEST PUSH1 0x0 DUP1 REVERT JUMPDEST CALLVALUE DUP1 ISZERO PUSH2 0x50 JUMPI PUSH1 0x0 DUP1 REVERT JUMPDEST POP PUSH2 0x59 PUSH2 0xD6 JUMP JUMPDEST PUSH1 0x40 MLOAD PUSH2 0x66 SWAP2 SWAP1 PUSH2 0x13D JUMP JUMPDEST PUSH1 0x40 MLOAD DUP1 SWAP2 SUB SWAP1 RETURN JUMPDEST PUSH2 0x77 PUSH2 0xFE JUMP JUMPDEST PUSH1 0x40 MLOAD PUSH2 0x84 SWAP2 SWAP1 PUSH2 0x13D JUMP JUMPDEST PUSH1 0x40 MLOAD DUP1 SWAP2 SUB SWAP1 RETURN JUMPDEST PUSH2 0x95 PUSH2 0x106 JUMP JUMPDEST PUSH1 0x40 MLOAD PUSH2 0xA2 SWAP2 SWAP1 PUSH2 0x13D JUMP JUMPDEST PUSH1 0x40 MLOAD DUP1 SWAP2 SUB SWAP1 RETURN JUMPDEST CALLVALUE DUP1 ISZERO PUSH2 0xB7 JUMPI PUSH1 0x0 DUP1 REVERT JUMPDEST POP PUSH2 0xC0 PUSH2 0x10E JUMP JUMPDEST PUSH1 0x40 MLOAD PUSH2 0xCD SWAP2 SWAP1 PUSH2 0x1CF JUMP JUMPDEST PUSH1 0x40 MLOAD DUP1 SWAP2 SUB SWAP1 RETURN JUMPDEST PUSH1 0x0 DUP1 PUSH1 0x0 SWAP1 SLOAD SWAP1 PUSH2 0x100 EXP SWAP1 DIV PUSH1 0xFF AND PUSH1 0x2 DUP2 GT ISZERO PUSH2 0xF9 JUMPI PUSH2 0xF8 PUSH2 0x158 JUMP JUMPDEST JUMPDEST SWAP1 POP SWAP1 JUMP JUMPDEST PUSH1 0x0 SELFBALANCE SWAP1 POP SWAP1 JUMP JUMPDEST PUSH1 0x0 SELFBALANCE SWAP1 POP SWAP1 JUMP JUMPDEST PUSH1 0x0 DUP1 PUSH1 0x1 SWAP1 SLOAD SWAP1 PUSH2 0x100 EXP SWAP1 DIV PUSH1 0xFF AND SWAP1 POP SWAP1 JUMP JUMPDEST PUSH1 0x0 DUP2 SWAP1 POP SWAP2 SWAP1 POP JUMP JUMPDEST PUSH2 0x137 DUP2 PUSH2 0x124 JUMP JUMPDEST DUP3 MSTORE POP POP JUMP JUMPDEST PUSH1 0x0 PUSH1 0x20 DUP3 ADD SWAP1 POP PUSH2 0x152 PUSH1 0x0 DUP4 ADD DUP5 PUSH2 0x12E JUMP JUMPDEST SWAP3 SWAP2 POP POP JUMP JUMPDEST PUSH32 0x4E487B7100000000000000000000000000000000000000000000000000000000 PUSH1 0x0 MSTORE PUSH1 0x21 PUSH1 0x4 MSTORE PUSH1 0x24 PUSH1 0x0 REVERT JUMPDEST PUSH1 0x3 DUP2 LT PUSH2 0x198 JUMPI PUSH2 0x197 PUSH2 0x158 JUMP JUMPDEST JUMPDEST POP JUMP JUMPDEST PUSH1 0x0 DUP2 SWAP1 POP PUSH2 0x1A9 DUP3 PUSH2 0x187 JUMP JUMPDEST SWAP2 SWAP1 POP JUMP JUMPDEST PUSH1 0x0 PUSH2 0x1B9 DUP3 PUSH2 0x19B JUMP JUMPDEST SWAP1 POP SWAP2 SWAP1 POP JUMP JUMPDEST PUSH2 0x1C9 DUP2 PUSH2 0x1AE JUMP JUMPDEST DUP3 MSTORE POP POP JUMP JUMPDEST PUSH1 0x0 PUSH1 0x20 DUP3 ADD SWAP1 POP PUSH2 0x1E4 PUSH1 0x0 DUP4 ADD DUP5 PUSH2 0x1C0 JUMP JUMPDEST SWAP3 SWAP2 POP POP JUMP INVALID LOG2 PUSH5 0x6970667358 0x22 SLT KECCAK256 RETURNDATACOPY 0x2C SDIV 0x49 PC 0xE9 SWAP14 SUB SHL DUP6 SLOAD PUSH8 0x841E62D380475AB0 SWAP7 0xB3 0xC3 SWAP5 JUMPI 0xB2 0xBB DUP1 0xDA 0x5D SELFDESTRUCT SWAP10 PUSH5 0x736F6C6343 STOP ADDMOD GT STOP CALLER "
				},
				"gasEstimates": {
					"creation": {
						"codeDepositCost": "108800",
						"executionCost": "48789",
						"totalCost": "157589"
					},
					"external": {
						"Ae()": "337",
						"enumToUint()": "2477",
						"getEnum()": "2662",
						"minusPayable()": "315"
					}
				},
				"methodIdentifiers": {
					"Ae()": "79247218",
					"enumToUint()": "01019958",
					"getEnum()": "f0ebce5a",
					"minusPayable()": "303810a6"
				}
			},
			"storageLayout": {
				"storage": [
					{
						"astId": 10,
						"contract": "SOLPractice/WTF001.sol:WTF001",
						"label": "action",
						"offset": 0,
						"slot": "0",
						"type": "t_enum(ActionSet)5"
					},
					{
						"astId": 15,
						"contract": "SOLPractice/WTF001.sol:WTF001",
						"label": "action2",
						"offset": 1,
						"slot": "0",
						"type": "t_enum(ActionSet)5"
					}
				],
				"types": {
					"t_enum(ActionSet)5": {
						"encoding": "inplace",
						"label": "enum WTF001.ActionSet",
						"numberOfBytes": "1"
					}
				}
			},
			"userdoc": {
				"kind": "user",
				"methods": {},
				"version": 1
			}
		}
	}
}