{
	"SOLPractice/WTF001.sol": {
		"WTF001": {
			"abi": [
				{
					"inputs": [],
					"name": "enumToUint",
					"outputs": [
						{
							"internalType": "uint256",
							"name": "",
							"type": "uint256"
						}
					],
					"stateMutability": "view",
					"type": "function"
				},
				{
					"inputs": [],
					"name": "getEnum",
					"outputs": [
						{
							"internalType": "enum WTF001.ActionSet",
							"name": "",
							"type": "uint8"
						}
					],
					"stateMutability": "view",
					"type": "function"
				},
				{
					"inputs": [],
					"name": "minusPayable",
					"outputs": [
						{
							"internalType": "uint256",
							"name": "balance",
							"type": "uint256"
						}
					],
					"stateMutability": "payable",
					"type": "function"
				}
			],
			"devdoc": {
				"kind": "dev",
				"methods": {},
				"version": 1
			},
			"evm": {
				"assembly": "    /* \"SOLPractice/WTF001.sol\":35:742  contract WTF001 {... */\n  mstore(0x40, 0x80)\n    /* \"SOLPractice/WTF001.sol\":206:219  ActionSet.Buy */\n  0x00\n    /* \"SOLPractice/WTF001.sol\":187:219  ActionSet action = ActionSet.Buy */\n  dup1\n  exp(0x0100, 0x00)\n  dup2\n  sload\n  dup2\n  0xff\n  mul\n  not\n  and\n  swap1\n  dup4\n  0x02\n  dup2\n  gt\n  iszero\n  tag_1\n  jumpi\n  tag_2\n  tag_3\n  jump\t// in\ntag_2:\ntag_1:\n  mul\n  or\n  swap1\n  sstore\n  pop\n    /* \"SOLPractice/WTF001.sol\":245:259  ActionSet.Hold */\n  0x01\n    /* \"SOLPractice/WTF001.sol\":225:259  ActionSet action2 = ActionSet.Hold */\n  0x00\n  exp(0x0100, 0x01)\n  dup2\n  sload\n  dup2\n  0xff\n  mul\n  not\n  and\n  swap1\n  dup4\n  0x02\n  dup2\n  gt\n  iszero\n  tag_4\n  jumpi\n  tag_5\n  tag_3\n  jump\t// in\ntag_5:\ntag_4:\n  mul\n  or\n  swap1\n  sstore\n  pop\n    /* \"SOLPractice/WTF001.sol\":35:742  contract WTF001 {... */\n  callvalue\n  dup1\n  iszero\n  tag_6\n  jumpi\n  0x00\n  dup1\n  revert\ntag_6:\n  pop\n  jump(tag_7)\n    /* \"#utility.yul\":7:187   */\ntag_3:\n    /* \"#utility.yul\":55:132   */\n  0x4e487b7100000000000000000000000000000000000000000000000000000000\n    /* \"#utility.yul\":52:53   */\n  0x00\n    /* \"#utility.yul\":45:133   */\n  mstore\n    /* \"#utility.yul\":152:156   */\n  0x21\n    /* \"#utility.yul\":149:150   */\n  0x04\n    /* \"#utility.yul\":142:157   */\n  mstore\n    /* \"#utility.yul\":176:180   */\n  0x24\n    /* \"#utility.yul\":173:174   */\n  0x00\n    /* \"#utility.yul\":166:181   */\n  revert\n    /* \"SOLPractice/WTF001.sol\":35:742  contract WTF001 {... */\ntag_7:\n  dataSize(sub_0)\n  dup1\n  dataOffset(sub_0)\n  0x00\n  codecopy\n  0x00\n  return\nstop\n\nsub_0: assembly {\n        /* \"SOLPractice/WTF001.sol\":35:742  contract WTF001 {... */\n      mstore(0x40, 0x80)\n      jumpi(tag_1, lt(calldatasize, 0x04))\n      shr(0xe0, calldataload(0x00))\n      dup1\n      0x01019958\n      eq\n      tag_2\n      jumpi\n      dup1\n      0x303810a6\n      eq\n      tag_3\n      jumpi\n      dup1\n      0xf0ebce5a\n      eq\n      tag_4\n      jumpi\n    tag_1:\n      0x00\n      dup1\n      revert\n        /* \"SOLPractice/WTF001.sol\":341:426  function enumToUint() external view returns(uint){... */\n    tag_2:\n      callvalue\n      dup1\n      iszero\n      tag_5\n      jumpi\n      0x00\n      dup1\n      revert\n    tag_5:\n      pop\n      tag_6\n      tag_7\n      jump\t// in\n    tag_6:\n      mload(0x40)\n      tag_8\n      swap2\n      swap1\n      tag_9\n      jump\t// in\n    tag_8:\n      mload(0x40)\n      dup1\n      swap2\n      sub\n      swap1\n      return\n        /* \"SOLPractice/WTF001.sol\":585:740  function minusPayable() external payable returns(uint256 balance) {... */\n    tag_3:\n      tag_10\n      tag_11\n      jump\t// in\n    tag_10:\n      mload(0x40)\n      tag_12\n      swap2\n      swap1\n      tag_9\n      jump\t// in\n    tag_12:\n      mload(0x40)\n      dup1\n      swap2\n      sub\n      swap1\n      return\n        /* \"SOLPractice/WTF001.sol\":432:523  function getEnum() external view returns(ActionSet){... */\n    tag_4:\n      callvalue\n      dup1\n      iszero\n      tag_13\n      jumpi\n      0x00\n      dup1\n      revert\n    tag_13:\n      pop\n      tag_14\n      tag_15\n      jump\t// in\n    tag_14:\n      mload(0x40)\n      tag_16\n      swap2\n      swap1\n      tag_17\n      jump\t// in\n    tag_16:\n      mload(0x40)\n      dup1\n      swap2\n      sub\n      swap1\n      return\n        /* \"SOLPractice/WTF001.sol\":341:426  function enumToUint() external view returns(uint){... */\n    tag_7:\n        /* \"SOLPractice/WTF001.sol\":385:389  uint */\n      0x00\n        /* \"SOLPractice/WTF001.sol\":412:418  action */\n      dup1\n      0x00\n      swap1\n      sload\n      swap1\n      0x0100\n      exp\n      swap1\n      div\n      0xff\n      and\n        /* \"SOLPractice/WTF001.sol\":407:419  uint(action) */\n      0x02\n      dup2\n      gt\n      iszero\n      tag_19\n      jumpi\n      tag_20\n      tag_21\n      jump\t// in\n    tag_20:\n    tag_19:\n        /* \"SOLPractice/WTF001.sol\":400:419  return uint(action) */\n      swap1\n      pop\n        /* \"SOLPractice/WTF001.sol\":341:426  function enumToUint() external view returns(uint){... */\n      swap1\n      jump\t// out\n        /* \"SOLPractice/WTF001.sol\":585:740  function minusPayable() external payable returns(uint256 balance) {... */\n    tag_11:\n        /* \"SOLPractice/WTF001.sol\":634:649  uint256 balance */\n      0x00\n        /* \"SOLPractice/WTF001.sol\":661:676  uint[] memory x */\n      dup1\n        /* \"SOLPractice/WTF001.sol\":690:691  3 */\n      0x03\n        /* \"SOLPractice/WTF001.sol\":679:692  new uint[](3) */\n      0xffffffffffffffff\n      dup2\n      gt\n      iszero\n      tag_23\n      jumpi\n      tag_24\n      tag_25\n      jump\t// in\n    tag_24:\n    tag_23:\n      mload(0x40)\n      swap1\n      dup1\n      dup3\n      mstore\n      dup1\n      0x20\n      mul\n      0x20\n      add\n      dup3\n      add\n      0x40\n      mstore\n      dup1\n      iszero\n      tag_26\n      jumpi\n      dup2\n      0x20\n      add\n      0x20\n      dup3\n      mul\n      dup1\n      calldatasize\n      dup4\n      calldatacopy\n      dup1\n      dup3\n      add\n      swap2\n      pop\n      pop\n      swap1\n      pop\n    tag_26:\n      pop\n        /* \"SOLPractice/WTF001.sol\":661:692  uint[] memory x = new uint[](3) */\n      swap1\n      pop\n        /* \"SOLPractice/WTF001.sol\":712:733  address(this).balance */\n      selfbalance\n        /* \"SOLPractice/WTF001.sol\":702:733  balance = address(this).balance */\n      swap2\n      pop\n        /* \"SOLPractice/WTF001.sol\":651:740  {... */\n      pop\n        /* \"SOLPractice/WTF001.sol\":585:740  function minusPayable() external payable returns(uint256 balance) {... */\n      swap1\n      jump\t// out\n        /* \"SOLPractice/WTF001.sol\":432:523  function getEnum() external view returns(ActionSet){... */\n    tag_15:\n        /* \"SOLPractice/WTF001.sol\":473:482  ActionSet */\n      0x00\n        /* \"SOLPractice/WTF001.sol\":509:516  action2 */\n      dup1\n      0x01\n      swap1\n      sload\n      swap1\n      0x0100\n      exp\n      swap1\n      div\n      0xff\n      and\n        /* \"SOLPractice/WTF001.sol\":502:516  return action2 */\n      swap1\n      pop\n        /* \"SOLPractice/WTF001.sol\":432:523  function getEnum() external view returns(ActionSet){... */\n      swap1\n      jump\t// out\n        /* \"#utility.yul\":7:84   */\n    tag_28:\n        /* \"#utility.yul\":44:51   */\n      0x00\n        /* \"#utility.yul\":73:78   */\n      dup2\n        /* \"#utility.yul\":62:78   */\n      swap1\n      pop\n        /* \"#utility.yul\":7:84   */\n      swap2\n      swap1\n      pop\n      jump\t// out\n        /* \"#utility.yul\":90:208   */\n    tag_29:\n        /* \"#utility.yul\":177:201   */\n      tag_37\n        /* \"#utility.yul\":195:200   */\n      dup2\n        /* \"#utility.yul\":177:201   */\n      tag_28\n      jump\t// in\n    tag_37:\n        /* \"#utility.yul\":172:175   */\n      dup3\n        /* \"#utility.yul\":165:202   */\n      mstore\n        /* \"#utility.yul\":90:208   */\n      pop\n      pop\n      jump\t// out\n        /* \"#utility.yul\":214:436   */\n    tag_9:\n        /* \"#utility.yul\":307:311   */\n      0x00\n        /* \"#utility.yul\":345:347   */\n      0x20\n        /* \"#utility.yul\":334:343   */\n      dup3\n        /* \"#utility.yul\":330:348   */\n      add\n        /* \"#utility.yul\":322:348   */\n      swap1\n      pop\n        /* \"#utility.yul\":358:429   */\n      tag_39\n        /* \"#utility.yul\":426:427   */\n      0x00\n        /* \"#utility.yul\":415:424   */\n      dup4\n        /* \"#utility.yul\":411:428   */\n      add\n        /* \"#utility.yul\":402:408   */\n      dup5\n        /* \"#utility.yul\":358:429   */\n      tag_29\n      jump\t// in\n    tag_39:\n        /* \"#utility.yul\":214:436   */\n      swap3\n      swap2\n      pop\n      pop\n      jump\t// out\n        /* \"#utility.yul\":442:622   */\n    tag_21:\n        /* \"#utility.yul\":490:567   */\n      0x4e487b7100000000000000000000000000000000000000000000000000000000\n        /* \"#utility.yul\":487:488   */\n      0x00\n        /* \"#utility.yul\":480:568   */\n      mstore\n        /* \"#utility.yul\":587:591   */\n      0x21\n        /* \"#utility.yul\":584:585   */\n      0x04\n        /* \"#utility.yul\":577:592   */\n      mstore\n        /* \"#utility.yul\":611:615   */\n      0x24\n        /* \"#utility.yul\":608:609   */\n      0x00\n        /* \"#utility.yul\":601:616   */\n      revert\n        /* \"#utility.yul\":628:744   */\n    tag_30:\n        /* \"#utility.yul\":712:713   */\n      0x03\n        /* \"#utility.yul\":705:710   */\n      dup2\n        /* \"#utility.yul\":702:714   */\n      lt\n        /* \"#utility.yul\":692:738   */\n      tag_42\n      jumpi\n        /* \"#utility.yul\":718:736   */\n      tag_43\n      tag_21\n      jump\t// in\n    tag_43:\n        /* \"#utility.yul\":692:738   */\n    tag_42:\n        /* \"#utility.yul\":628:744   */\n      pop\n      jump\t// out\n        /* \"#utility.yul\":750:883   */\n    tag_31:\n        /* \"#utility.yul\":798:805   */\n      0x00\n        /* \"#utility.yul\":827:832   */\n      dup2\n        /* \"#utility.yul\":816:832   */\n      swap1\n      pop\n        /* \"#utility.yul\":833:877   */\n      tag_45\n        /* \"#utility.yul\":871:876   */\n      dup3\n        /* \"#utility.yul\":833:877   */\n      tag_30\n      jump\t// in\n    tag_45:\n        /* \"#utility.yul\":750:883   */\n      swap2\n      swap1\n      pop\n      jump\t// out\n        /* \"#utility.yul\":889:1022   */\n    tag_32:\n        /* \"#utility.yul\":948:957   */\n      0x00\n        /* \"#utility.yul\":981:1016   */\n      tag_47\n        /* \"#utility.yul\":1010:1015   */\n      dup3\n        /* \"#utility.yul\":981:1016   */\n      tag_31\n      jump\t// in\n    tag_47:\n        /* \"#utility.yul\":968:1016   */\n      swap1\n      pop\n        /* \"#utility.yul\":889:1022   */\n      swap2\n      swap1\n      pop\n      jump\t// out\n        /* \"#utility.yul\":1028:1177   */\n    tag_33:\n        /* \"#utility.yul\":1124:1170   */\n      tag_49\n        /* \"#utility.yul\":1164:1169   */\n      dup2\n        /* \"#utility.yul\":1124:1170   */\n      tag_32\n      jump\t// in\n    tag_49:\n        /* \"#utility.yul\":1119:1122   */\n      dup3\n        /* \"#utility.yul\":1112:1171   */\n      mstore\n        /* \"#utility.yul\":1028:1177   */\n      pop\n      pop\n      jump\t// out\n        /* \"#utility.yul\":1183:1423   */\n    tag_17:\n        /* \"#utility.yul\":1285:1289   */\n      0x00\n        /* \"#utility.yul\":1323:1325   */\n      0x20\n        /* \"#utility.yul\":1312:1321   */\n      dup3\n        /* \"#utility.yul\":1308:1326   */\n      add\n        /* \"#utility.yul\":1300:1326   */\n      swap1\n      pop\n        /* \"#utility.yul\":1336:1416   */\n      tag_51\n        /* \"#utility.yul\":1413:1414   */\n      0x00\n        /* \"#utility.yul\":1402:1411   */\n      dup4\n        /* \"#utility.yul\":1398:1415   */\n      add\n        /* \"#utility.yul\":1389:1395   */\n      dup5\n        /* \"#utility.yul\":1336:1416   */\n      tag_33\n      jump\t// in\n    tag_51:\n        /* \"#utility.yul\":1183:1423   */\n      swap3\n      swap2\n      pop\n      pop\n      jump\t// out\n        /* \"#utility.yul\":1429:1609   */\n    tag_25:\n        /* \"#utility.yul\":1477:1554   */\n      0x4e487b7100000000000000000000000000000000000000000000000000000000\n        /* \"#utility.yul\":1474:1475   */\n      0x00\n        /* \"#utility.yul\":1467:1555   */\n      mstore\n        /* \"#utility.yul\":1574:1578   */\n      0x41\n        /* \"#utility.yul\":1571:1572   */\n      0x04\n        /* \"#utility.yul\":1564:1579   */\n      mstore\n        /* \"#utility.yul\":1598:1602   */\n      0x24\n        /* \"#utility.yul\":1595:1596   */\n      0x00\n        /* \"#utility.yul\":1588:1603   */\n      revert\n\n    auxdata: 0xa2646970667358221220481ce2f6a48a9140b8dc8b97654dc3ceb988500e11daf71ce31c71a4769d5c5564736f6c63430008110033\n}\n",
				"bytecode": {
					"linkReferences": {},
					"object": "608060405260008060006101000a81548160ff021916908360028111156100295761002861006b565b5b02179055506001600060016101000a81548160ff021916908360028111156100545761005361006b565b5b021790555034801561006557600080fd5b5061009a565b7f4e487b7100000000000000000000000000000000000000000000000000000000600052602160045260246000fd5b61026c806100a96000396000f3fe6080604052600436106100345760003560e01c80630101995814610039578063303810a614610064578063f0ebce5a14610082575b600080fd5b34801561004557600080fd5b5061004e6100ad565b60405161005b919061015a565b60405180910390f35b61006c6100d5565b604051610079919061015a565b60405180910390f35b34801561008e57600080fd5b5061009761012b565b6040516100a491906101ec565b60405180910390f35b60008060009054906101000a900460ff1660028111156100d0576100cf610175565b5b905090565b600080600367ffffffffffffffff8111156100f3576100f2610207565b5b6040519080825280602002602001820160405280156101215781602001602082028036833780820191505090505b5090504791505090565b60008060019054906101000a900460ff16905090565b6000819050919050565b61015481610141565b82525050565b600060208201905061016f600083018461014b565b92915050565b7f4e487b7100000000000000000000000000000000000000000000000000000000600052602160045260246000fd5b600381106101b5576101b4610175565b5b50565b60008190506101c6826101a4565b919050565b60006101d6826101b8565b9050919050565b6101e6816101cb565b82525050565b600060208201905061020160008301846101dd565b92915050565b7f4e487b7100000000000000000000000000000000000000000000000000000000600052604160045260246000fdfea2646970667358221220481ce2f6a48a9140b8dc8b97654dc3ceb988500e11daf71ce31c71a4769d5c5564736f6c63430008110033",
					"opcodes": "PUSH1 0x80 PUSH1 0x40 MSTORE PUSH1 0x0 DUP1 PUSH1 0x0 PUSH2 0x100 EXP DUP2 SLOAD DUP2 PUSH1 0xFF MUL NOT AND SWAP1 DUP4 PUSH1 0x2 DUP2 GT ISZERO PUSH2 0x29 JUMPI PUSH2 0x28 PUSH2 0x6B JUMP JUMPDEST JUMPDEST MUL OR SWAP1 SSTORE POP PUSH1 0x1 PUSH1 0x0 PUSH1 0x1 PUSH2 0x100 EXP DUP2 SLOAD DUP2 PUSH1 0xFF MUL NOT AND SWAP1 DUP4 PUSH1 0x2 DUP2 GT ISZERO PUSH2 0x54 JUMPI PUSH2 0x53 PUSH2 0x6B JUMP JUMPDEST JUMPDEST MUL OR SWAP1 SSTORE POP CALLVALUE DUP1 ISZERO PUSH2 0x65 JUMPI PUSH1 0x0 DUP1 REVERT JUMPDEST POP PUSH2 0x9A JUMP JUMPDEST PUSH32 0x4E487B7100000000000000000000000000000000000000000000000000000000 PUSH1 0x0 MSTORE PUSH1 0x21 PUSH1 0x4 MSTORE PUSH1 0x24 PUSH1 0x0 REVERT JUMPDEST PUSH2 0x26C DUP1 PUSH2 0xA9 PUSH1 0x0 CODECOPY PUSH1 0x0 RETURN INVALID PUSH1 0x80 PUSH1 0x40 MSTORE PUSH1 0x4 CALLDATASIZE LT PUSH2 0x34 JUMPI PUSH1 0x0 CALLDATALOAD PUSH1 0xE0 SHR DUP1 PUSH4 0x1019958 EQ PUSH2 0x39 JUMPI DUP1 PUSH4 0x303810A6 EQ PUSH2 0x64 JUMPI DUP1 PUSH4 0xF0EBCE5A EQ PUSH2 0x82 JUMPI JUMPDEST PUSH1 0x0 DUP1 REVERT JUMPDEST CALLVALUE DUP1 ISZERO PUSH2 0x45 JUMPI PUSH1 0x0 DUP1 REVERT JUMPDEST POP PUSH2 0x4E PUSH2 0xAD JUMP JUMPDEST PUSH1 0x40 MLOAD PUSH2 0x5B SWAP2 SWAP1 PUSH2 0x15A JUMP JUMPDEST PUSH1 0x40 MLOAD DUP1 SWAP2 SUB SWAP1 RETURN JUMPDEST PUSH2 0x6C PUSH2 0xD5 JUMP JUMPDEST PUSH1 0x40 MLOAD PUSH2 0x79 SWAP2 SWAP1 PUSH2 0x15A JUMP JUMPDEST PUSH1 0x40 MLOAD DUP1 SWAP2 SUB SWAP1 RETURN JUMPDEST CALLVALUE DUP1 ISZERO PUSH2 0x8E JUMPI PUSH1 0x0 DUP1 REVERT JUMPDEST POP PUSH2 0x97 PUSH2 0x12B JUMP JUMPDEST PUSH1 0x40 MLOAD PUSH2 0xA4 SWAP2 SWAP1 PUSH2 0x1EC JUMP JUMPDEST PUSH1 0x40 MLOAD DUP1 SWAP2 SUB SWAP1 RETURN JUMPDEST PUSH1 0x0 DUP1 PUSH1 0x0 SWAP1 SLOAD SWAP1 PUSH2 0x100 EXP SWAP1 DIV PUSH1 0xFF AND PUSH1 0x2 DUP2 GT ISZERO PUSH2 0xD0 JUMPI PUSH2 0xCF PUSH2 0x175 JUMP JUMPDEST JUMPDEST SWAP1 POP SWAP1 JUMP JUMPDEST PUSH1 0x0 DUP1 PUSH1 0x3 PUSH8 0xFFFFFFFFFFFFFFFF DUP2 GT ISZERO PUSH2 0xF3 JUMPI PUSH2 0xF2 PUSH2 0x207 JUMP JUMPDEST JUMPDEST PUSH1 0x40 MLOAD SWAP1 DUP1 DUP3 MSTORE DUP1 PUSH1 0x20 MUL PUSH1 0x20 ADD DUP3 ADD PUSH1 0x40 MSTORE DUP1 ISZERO PUSH2 0x121 JUMPI DUP2 PUSH1 0x20 ADD PUSH1 0x20 DUP3 MUL DUP1 CALLDATASIZE DUP4 CALLDATACOPY DUP1 DUP3 ADD SWAP2 POP POP SWAP1 POP JUMPDEST POP SWAP1 POP SELFBALANCE SWAP2 POP POP SWAP1 JUMP JUMPDEST PUSH1 0x0 DUP1 PUSH1 0x1 SWAP1 SLOAD SWAP1 PUSH2 0x100 EXP SWAP1 DIV PUSH1 0xFF AND SWAP1 POP SWAP1 JUMP JUMPDEST PUSH1 0x0 DUP2 SWAP1 POP SWAP2 SWAP1 POP JUMP JUMPDEST PUSH2 0x154 DUP2 PUSH2 0x141 JUMP JUMPDEST DUP3 MSTORE POP POP JUMP JUMPDEST PUSH1 0x0 PUSH1 0x20 DUP3 ADD SWAP1 POP PUSH2 0x16F PUSH1 0x0 DUP4 ADD DUP5 PUSH2 0x14B JUMP JUMPDEST SWAP3 SWAP2 POP POP JUMP JUMPDEST PUSH32 0x4E487B7100000000000000000000000000000000000000000000000000000000 PUSH1 0x0 MSTORE PUSH1 0x21 PUSH1 0x4 MSTORE PUSH1 0x24 PUSH1 0x0 REVERT JUMPDEST PUSH1 0x3 DUP2 LT PUSH2 0x1B5 JUMPI PUSH2 0x1B4 PUSH2 0x175 JUMP JUMPDEST JUMPDEST POP JUMP JUMPDEST PUSH1 0x0 DUP2 SWAP1 POP PUSH2 0x1C6 DUP3 PUSH2 0x1A4 JUMP JUMPDEST SWAP2 SWAP1 POP JUMP JUMPDEST PUSH1 0x0 PUSH2 0x1D6 DUP3 PUSH2 0x1B8 JUMP JUMPDEST SWAP1 POP SWAP2 SWAP1 POP JUMP JUMPDEST PUSH2 0x1E6 DUP2 PUSH2 0x1CB JUMP JUMPDEST DUP3 MSTORE POP POP JUMP JUMPDEST PUSH1 0x0 PUSH1 0x20 DUP3 ADD SWAP1 POP PUSH2 0x201 PUSH1 0x0 DUP4 ADD DUP5 PUSH2 0x1DD JUMP JUMPDEST SWAP3 SWAP2 POP POP JUMP JUMPDEST PUSH32 0x4E487B7100000000000000000000000000000000000000000000000000000000 PUSH1 0x0 MSTORE PUSH1 0x41 PUSH1 0x4 MSTORE PUSH1 0x24 PUSH1 0x0 REVERT INVALID LOG2 PUSH5 0x6970667358 0x22 SLT KECCAK256 BASEFEE SHR 0xE2 0xF6 LOG4 DUP11 SWAP2 BLOCKHASH 0xB8 0xDC DUP12 SWAP8 PUSH6 0x4DC3CEB98850 0xE GT 0xDA 0xF7 SHR 0xE3 SHR PUSH18 0xA4769D5C5564736F6C634300081100330000 "
				},
				"gasEstimates": {
					"creation": {
						"codeDepositCost": "124000",
						"executionCost": "48807",
						"totalCost": "172807"
					},
					"external": {
						"enumToUint()": "2477",
						"getEnum()": "2640",
						"minusPayable()": "infinite"
					}
				},
				"methodIdentifiers": {
					"enumToUint()": "01019958",
					"getEnum()": "f0ebce5a",
					"minusPayable()": "303810a6"
				}
			},
			"storageLayout": {
				"storage": [
					{
						"astId": 10,
						"contract": "SOLPractice/WTF001.sol:WTF001",
						"label": "action",
						"offset": 0,
						"slot": "0",
						"type": "t_enum(ActionSet)5"
					},
					{
						"astId": 15,
						"contract": "SOLPractice/WTF001.sol:WTF001",
						"label": "action2",
						"offset": 1,
						"slot": "0",
						"type": "t_enum(ActionSet)5"
					}
				],
				"types": {
					"t_enum(ActionSet)5": {
						"encoding": "inplace",
						"label": "enum WTF001.ActionSet",
						"numberOfBytes": "1"
					}
				}
			},
			"userdoc": {
				"kind": "user",
				"methods": {},
				"version": 1
			}
		}
	}
}