{
	"UdemySolPractice/WTF001.sol": {
		"WTF001": {
			"abi": [
				{
					"inputs": [],
					"name": "Array",
					"outputs": [
						{
							"internalType": "uint256[]",
							"name": "",
							"type": "uint256[]"
						}
					],
					"stateMutability": "nonpayable",
					"type": "function"
				},
				{
					"inputs": [],
					"name": "enumToUint",
					"outputs": [
						{
							"internalType": "uint256",
							"name": "",
							"type": "uint256"
						}
					],
					"stateMutability": "view",
					"type": "function"
				},
				{
					"inputs": [],
					"name": "getEnum",
					"outputs": [
						{
							"internalType": "enum WTF001.ActionSet",
							"name": "",
							"type": "uint8"
						}
					],
					"stateMutability": "view",
					"type": "function"
				},
				{
					"inputs": [],
					"name": "minusPayable",
					"outputs": [
						{
							"internalType": "uint256",
							"name": "balance",
							"type": "uint256"
						}
					],
					"stateMutability": "payable",
					"type": "function"
				}
			],
			"devdoc": {
				"kind": "dev",
				"methods": {},
				"version": 1
			},
			"evm": {
				"assembly": "    /* \"UdemySolPractice/WTF001.sol\":35:888  contract WTF001 {... */\n  mstore(0x40, 0x80)\n    /* \"UdemySolPractice/WTF001.sol\":206:219  ActionSet.Buy */\n  0x00\n    /* \"UdemySolPractice/WTF001.sol\":187:219  ActionSet action = ActionSet.Buy */\n  dup1\n  exp(0x0100, 0x00)\n  dup2\n  sload\n  dup2\n  0xff\n  mul\n  not\n  and\n  swap1\n  dup4\n  0x02\n  dup2\n  gt\n  iszero\n  tag_1\n  jumpi\n  tag_2\n  tag_3\n  jump\t// in\ntag_2:\ntag_1:\n  mul\n  or\n  swap1\n  sstore\n  pop\n    /* \"UdemySolPractice/WTF001.sol\":245:259  ActionSet.Hold */\n  0x01\n    /* \"UdemySolPractice/WTF001.sol\":225:259  ActionSet action2 = ActionSet.Hold */\n  0x00\n  exp(0x0100, 0x01)\n  dup2\n  sload\n  dup2\n  0xff\n  mul\n  not\n  and\n  swap1\n  dup4\n  0x02\n  dup2\n  gt\n  iszero\n  tag_4\n  jumpi\n  tag_5\n  tag_3\n  jump\t// in\ntag_5:\ntag_4:\n  mul\n  or\n  swap1\n  sstore\n  pop\n    /* \"UdemySolPractice/WTF001.sol\":35:888  contract WTF001 {... */\n  callvalue\n  dup1\n  iszero\n  tag_6\n  jumpi\n  0x00\n  dup1\n  revert\ntag_6:\n  pop\n  jump(tag_7)\n    /* \"#utility.yul\":7:187   */\ntag_3:\n    /* \"#utility.yul\":55:132   */\n  0x4e487b7100000000000000000000000000000000000000000000000000000000\n    /* \"#utility.yul\":52:53   */\n  0x00\n    /* \"#utility.yul\":45:133   */\n  mstore\n    /* \"#utility.yul\":152:156   */\n  0x21\n    /* \"#utility.yul\":149:150   */\n  0x04\n    /* \"#utility.yul\":142:157   */\n  mstore\n    /* \"#utility.yul\":176:180   */\n  0x24\n    /* \"#utility.yul\":173:174   */\n  0x00\n    /* \"#utility.yul\":166:181   */\n  revert\n    /* \"UdemySolPractice/WTF001.sol\":35:888  contract WTF001 {... */\ntag_7:\n  dataSize(sub_0)\n  dup1\n  dataOffset(sub_0)\n  0x00\n  codecopy\n  0x00\n  return\nstop\n\nsub_0: assembly {\n        /* \"UdemySolPractice/WTF001.sol\":35:888  contract WTF001 {... */\n      mstore(0x40, 0x80)\n      jumpi(tag_1, lt(calldatasize, 0x04))\n      shr(0xe0, calldataload(0x00))\n      dup1\n      0x01019958\n      eq\n      tag_2\n      jumpi\n      dup1\n      0x303810a6\n      eq\n      tag_3\n      jumpi\n      dup1\n      0x9607b362\n      eq\n      tag_4\n      jumpi\n      dup1\n      0xf0ebce5a\n      eq\n      tag_5\n      jumpi\n    tag_1:\n      0x00\n      dup1\n      revert\n        /* \"UdemySolPractice/WTF001.sol\":341:426  function enumToUint() external view returns(uint){... */\n    tag_2:\n      callvalue\n      dup1\n      iszero\n      tag_6\n      jumpi\n      0x00\n      dup1\n      revert\n    tag_6:\n      pop\n      tag_7\n      tag_8\n      jump\t// in\n    tag_7:\n      mload(0x40)\n      tag_9\n      swap2\n      swap1\n      tag_10\n      jump\t// in\n    tag_9:\n      mload(0x40)\n      dup1\n      swap2\n      sub\n      swap1\n      return\n        /* \"UdemySolPractice/WTF001.sol\":585:743  function minusPayable() external payable returns(uint256 balance) {... */\n    tag_3:\n      tag_11\n      tag_12\n      jump\t// in\n    tag_11:\n      mload(0x40)\n      tag_13\n      swap2\n      swap1\n      tag_10\n      jump\t// in\n    tag_13:\n      mload(0x40)\n      dup1\n      swap2\n      sub\n      swap1\n      return\n        /* \"UdemySolPractice/WTF001.sol\":753:885  function Array() public returns(uint[] memory) {... */\n    tag_4:\n      callvalue\n      dup1\n      iszero\n      tag_14\n      jumpi\n      0x00\n      dup1\n      revert\n    tag_14:\n      pop\n      tag_15\n      tag_16\n      jump\t// in\n    tag_15:\n      mload(0x40)\n      tag_17\n      swap2\n      swap1\n      tag_18\n      jump\t// in\n    tag_17:\n      mload(0x40)\n      dup1\n      swap2\n      sub\n      swap1\n      return\n        /* \"UdemySolPractice/WTF001.sol\":432:523  function getEnum() external view returns(ActionSet){... */\n    tag_5:\n      callvalue\n      dup1\n      iszero\n      tag_19\n      jumpi\n      0x00\n      dup1\n      revert\n    tag_19:\n      pop\n      tag_20\n      tag_21\n      jump\t// in\n    tag_20:\n      mload(0x40)\n      tag_22\n      swap2\n      swap1\n      tag_23\n      jump\t// in\n    tag_22:\n      mload(0x40)\n      dup1\n      swap2\n      sub\n      swap1\n      return\n        /* \"UdemySolPractice/WTF001.sol\":341:426  function enumToUint() external view returns(uint){... */\n    tag_8:\n        /* \"UdemySolPractice/WTF001.sol\":385:389  uint */\n      0x00\n        /* \"UdemySolPractice/WTF001.sol\":412:418  action */\n      dup1\n      0x00\n      swap1\n      sload\n      swap1\n      0x0100\n      exp\n      swap1\n      div\n      0xff\n      and\n        /* \"UdemySolPractice/WTF001.sol\":407:419  uint(action) */\n      0x02\n      dup2\n      gt\n      iszero\n      tag_25\n      jumpi\n      tag_26\n      tag_27\n      jump\t// in\n    tag_26:\n    tag_25:\n        /* \"UdemySolPractice/WTF001.sol\":400:419  return uint(action) */\n      swap1\n      pop\n        /* \"UdemySolPractice/WTF001.sol\":341:426  function enumToUint() external view returns(uint){... */\n      swap1\n      jump\t// out\n        /* \"UdemySolPractice/WTF001.sol\":585:743  function minusPayable() external payable returns(uint256 balance) {... */\n    tag_12:\n        /* \"UdemySolPractice/WTF001.sol\":634:649  uint256 balance */\n      0x00\n        /* \"UdemySolPractice/WTF001.sol\":714:735  address(this).balance */\n      selfbalance\n        /* \"UdemySolPractice/WTF001.sol\":704:735  balance = address(this).balance */\n      swap1\n      pop\n        /* \"UdemySolPractice/WTF001.sol\":585:743  function minusPayable() external payable returns(uint256 balance) {... */\n      swap1\n      jump\t// out\n        /* \"UdemySolPractice/WTF001.sol\":753:885  function Array() public returns(uint[] memory) {... */\n    tag_16:\n        /* \"UdemySolPractice/WTF001.sol\":785:798  uint[] memory */\n      0x60\n        /* \"UdemySolPractice/WTF001.sol\":810:825  uint[] memory x */\n      0x00\n        /* \"UdemySolPractice/WTF001.sol\":839:840  3 */\n      0x03\n        /* \"UdemySolPractice/WTF001.sol\":828:841  new uint[](3) */\n      0xffffffffffffffff\n      dup2\n      gt\n      iszero\n      tag_30\n      jumpi\n      tag_31\n      tag_32\n      jump\t// in\n    tag_31:\n    tag_30:\n      mload(0x40)\n      swap1\n      dup1\n      dup3\n      mstore\n      dup1\n      0x20\n      mul\n      0x20\n      add\n      dup3\n      add\n      0x40\n      mstore\n      dup1\n      iszero\n      tag_33\n      jumpi\n      dup2\n      0x20\n      add\n      0x20\n      dup3\n      mul\n      dup1\n      calldatasize\n      dup4\n      calldatacopy\n      dup1\n      dup3\n      add\n      swap2\n      pop\n      pop\n      swap1\n      pop\n    tag_33:\n      pop\n        /* \"UdemySolPractice/WTF001.sol\":810:841  uint[] memory x = new uint[](3) */\n      swap1\n      pop\n        /* \"UdemySolPractice/WTF001.sol\":858:859  1 */\n      0x01\n        /* \"UdemySolPractice/WTF001.sol\":851:852  x */\n      dup2\n        /* \"UdemySolPractice/WTF001.sol\":853:854  0 */\n      0x00\n        /* \"UdemySolPractice/WTF001.sol\":851:855  x[0] */\n      dup2\n      mload\n      dup2\n      lt\n      tag_34\n      jumpi\n      tag_35\n      tag_36\n      jump\t// in\n    tag_35:\n    tag_34:\n      0x20\n      mul\n      0x20\n      add\n      add\n        /* \"UdemySolPractice/WTF001.sol\":851:859  x[0] = 1 */\n      dup2\n      dup2\n      mstore\n      pop\n      pop\n        /* \"UdemySolPractice/WTF001.sol\":876:877  x */\n      dup1\n        /* \"UdemySolPractice/WTF001.sol\":869:877  return x */\n      swap2\n      pop\n      pop\n        /* \"UdemySolPractice/WTF001.sol\":753:885  function Array() public returns(uint[] memory) {... */\n      swap1\n      jump\t// out\n        /* \"UdemySolPractice/WTF001.sol\":432:523  function getEnum() external view returns(ActionSet){... */\n    tag_21:\n        /* \"UdemySolPractice/WTF001.sol\":473:482  ActionSet */\n      0x00\n        /* \"UdemySolPractice/WTF001.sol\":509:516  action2 */\n      dup1\n      0x01\n      swap1\n      sload\n      swap1\n      0x0100\n      exp\n      swap1\n      div\n      0xff\n      and\n        /* \"UdemySolPractice/WTF001.sol\":502:516  return action2 */\n      swap1\n      pop\n        /* \"UdemySolPractice/WTF001.sol\":432:523  function getEnum() external view returns(ActionSet){... */\n      swap1\n      jump\t// out\n        /* \"#utility.yul\":7:84   */\n    tag_38:\n        /* \"#utility.yul\":44:51   */\n      0x00\n        /* \"#utility.yul\":73:78   */\n      dup2\n        /* \"#utility.yul\":62:78   */\n      swap1\n      pop\n        /* \"#utility.yul\":7:84   */\n      swap2\n      swap1\n      pop\n      jump\t// out\n        /* \"#utility.yul\":90:208   */\n    tag_39:\n        /* \"#utility.yul\":177:201   */\n      tag_54\n        /* \"#utility.yul\":195:200   */\n      dup2\n        /* \"#utility.yul\":177:201   */\n      tag_38\n      jump\t// in\n    tag_54:\n        /* \"#utility.yul\":172:175   */\n      dup3\n        /* \"#utility.yul\":165:202   */\n      mstore\n        /* \"#utility.yul\":90:208   */\n      pop\n      pop\n      jump\t// out\n        /* \"#utility.yul\":214:436   */\n    tag_10:\n        /* \"#utility.yul\":307:311   */\n      0x00\n        /* \"#utility.yul\":345:347   */\n      0x20\n        /* \"#utility.yul\":334:343   */\n      dup3\n        /* \"#utility.yul\":330:348   */\n      add\n        /* \"#utility.yul\":322:348   */\n      swap1\n      pop\n        /* \"#utility.yul\":358:429   */\n      tag_56\n        /* \"#utility.yul\":426:427   */\n      0x00\n        /* \"#utility.yul\":415:424   */\n      dup4\n        /* \"#utility.yul\":411:428   */\n      add\n        /* \"#utility.yul\":402:408   */\n      dup5\n        /* \"#utility.yul\":358:429   */\n      tag_39\n      jump\t// in\n    tag_56:\n        /* \"#utility.yul\":214:436   */\n      swap3\n      swap2\n      pop\n      pop\n      jump\t// out\n        /* \"#utility.yul\":442:556   */\n    tag_40:\n        /* \"#utility.yul\":509:515   */\n      0x00\n        /* \"#utility.yul\":543:548   */\n      dup2\n        /* \"#utility.yul\":537:549   */\n      mload\n        /* \"#utility.yul\":527:549   */\n      swap1\n      pop\n        /* \"#utility.yul\":442:556   */\n      swap2\n      swap1\n      pop\n      jump\t// out\n        /* \"#utility.yul\":562:746   */\n    tag_41:\n        /* \"#utility.yul\":661:672   */\n      0x00\n        /* \"#utility.yul\":695:701   */\n      dup3\n        /* \"#utility.yul\":690:693   */\n      dup3\n        /* \"#utility.yul\":683:702   */\n      mstore\n        /* \"#utility.yul\":735:739   */\n      0x20\n        /* \"#utility.yul\":730:733   */\n      dup3\n        /* \"#utility.yul\":726:740   */\n      add\n        /* \"#utility.yul\":711:740   */\n      swap1\n      pop\n        /* \"#utility.yul\":562:746   */\n      swap3\n      swap2\n      pop\n      pop\n      jump\t// out\n        /* \"#utility.yul\":752:884   */\n    tag_42:\n        /* \"#utility.yul\":819:823   */\n      0x00\n        /* \"#utility.yul\":842:845   */\n      dup2\n        /* \"#utility.yul\":834:845   */\n      swap1\n      pop\n        /* \"#utility.yul\":872:876   */\n      0x20\n        /* \"#utility.yul\":867:870   */\n      dup3\n        /* \"#utility.yul\":863:877   */\n      add\n        /* \"#utility.yul\":855:877   */\n      swap1\n      pop\n        /* \"#utility.yul\":752:884   */\n      swap2\n      swap1\n      pop\n      jump\t// out\n        /* \"#utility.yul\":890:998   */\n    tag_43:\n        /* \"#utility.yul\":967:991   */\n      tag_61\n        /* \"#utility.yul\":985:990   */\n      dup2\n        /* \"#utility.yul\":967:991   */\n      tag_38\n      jump\t// in\n    tag_61:\n        /* \"#utility.yul\":962:965   */\n      dup3\n        /* \"#utility.yul\":955:992   */\n      mstore\n        /* \"#utility.yul\":890:998   */\n      pop\n      pop\n      jump\t// out\n        /* \"#utility.yul\":1004:1183   */\n    tag_44:\n        /* \"#utility.yul\":1073:1083   */\n      0x00\n        /* \"#utility.yul\":1094:1140   */\n      tag_63\n        /* \"#utility.yul\":1136:1139   */\n      dup4\n        /* \"#utility.yul\":1128:1134   */\n      dup4\n        /* \"#utility.yul\":1094:1140   */\n      tag_43\n      jump\t// in\n    tag_63:\n        /* \"#utility.yul\":1172:1176   */\n      0x20\n        /* \"#utility.yul\":1167:1170   */\n      dup4\n        /* \"#utility.yul\":1163:1177   */\n      add\n        /* \"#utility.yul\":1149:1177   */\n      swap1\n      pop\n        /* \"#utility.yul\":1004:1183   */\n      swap3\n      swap2\n      pop\n      pop\n      jump\t// out\n        /* \"#utility.yul\":1189:1302   */\n    tag_45:\n        /* \"#utility.yul\":1259:1263   */\n      0x00\n        /* \"#utility.yul\":1291:1295   */\n      0x20\n        /* \"#utility.yul\":1286:1289   */\n      dup3\n        /* \"#utility.yul\":1282:1296   */\n      add\n        /* \"#utility.yul\":1274:1296   */\n      swap1\n      pop\n        /* \"#utility.yul\":1189:1302   */\n      swap2\n      swap1\n      pop\n      jump\t// out\n        /* \"#utility.yul\":1338:2070   */\n    tag_46:\n        /* \"#utility.yul\":1457:1460   */\n      0x00\n        /* \"#utility.yul\":1486:1540   */\n      tag_66\n        /* \"#utility.yul\":1534:1539   */\n      dup3\n        /* \"#utility.yul\":1486:1540   */\n      tag_40\n      jump\t// in\n    tag_66:\n        /* \"#utility.yul\":1556:1642   */\n      tag_67\n        /* \"#utility.yul\":1635:1641   */\n      dup2\n        /* \"#utility.yul\":1630:1633   */\n      dup6\n        /* \"#utility.yul\":1556:1642   */\n      tag_41\n      jump\t// in\n    tag_67:\n        /* \"#utility.yul\":1549:1642   */\n      swap4\n      pop\n        /* \"#utility.yul\":1666:1722   */\n      tag_68\n        /* \"#utility.yul\":1716:1721   */\n      dup4\n        /* \"#utility.yul\":1666:1722   */\n      tag_42\n      jump\t// in\n    tag_68:\n        /* \"#utility.yul\":1745:1752   */\n      dup1\n        /* \"#utility.yul\":1776:1777   */\n      0x00\n        /* \"#utility.yul\":1761:2045   */\n    tag_69:\n        /* \"#utility.yul\":1786:1792   */\n      dup4\n        /* \"#utility.yul\":1783:1784   */\n      dup2\n        /* \"#utility.yul\":1780:1793   */\n      lt\n        /* \"#utility.yul\":1761:2045   */\n      iszero\n      tag_71\n      jumpi\n        /* \"#utility.yul\":1862:1868   */\n      dup2\n        /* \"#utility.yul\":1856:1869   */\n      mload\n        /* \"#utility.yul\":1889:1952   */\n      tag_72\n        /* \"#utility.yul\":1948:1951   */\n      dup9\n        /* \"#utility.yul\":1933:1946   */\n      dup3\n        /* \"#utility.yul\":1889:1952   */\n      tag_44\n      jump\t// in\n    tag_72:\n        /* \"#utility.yul\":1882:1952   */\n      swap8\n      pop\n        /* \"#utility.yul\":1975:2035   */\n      tag_73\n        /* \"#utility.yul\":2028:2034   */\n      dup4\n        /* \"#utility.yul\":1975:2035   */\n      tag_45\n      jump\t// in\n    tag_73:\n        /* \"#utility.yul\":1965:2035   */\n      swap3\n      pop\n        /* \"#utility.yul\":1821:2045   */\n      pop\n        /* \"#utility.yul\":1808:1809   */\n      0x01\n        /* \"#utility.yul\":1805:1806   */\n      dup2\n        /* \"#utility.yul\":1801:1810   */\n      add\n        /* \"#utility.yul\":1796:1810   */\n      swap1\n      pop\n        /* \"#utility.yul\":1761:2045   */\n      jump(tag_69)\n    tag_71:\n        /* \"#utility.yul\":1765:1779   */\n      pop\n        /* \"#utility.yul\":2061:2064   */\n      dup6\n        /* \"#utility.yul\":2054:2064   */\n      swap4\n      pop\n        /* \"#utility.yul\":1462:2070   */\n      pop\n      pop\n      pop\n        /* \"#utility.yul\":1338:2070   */\n      swap3\n      swap2\n      pop\n      pop\n      jump\t// out\n        /* \"#utility.yul\":2076:2449   */\n    tag_18:\n        /* \"#utility.yul\":2219:2223   */\n      0x00\n        /* \"#utility.yul\":2257:2259   */\n      0x20\n        /* \"#utility.yul\":2246:2255   */\n      dup3\n        /* \"#utility.yul\":2242:2260   */\n      add\n        /* \"#utility.yul\":2234:2260   */\n      swap1\n      pop\n        /* \"#utility.yul\":2306:2315   */\n      dup2\n        /* \"#utility.yul\":2300:2304   */\n      dup2\n        /* \"#utility.yul\":2296:2316   */\n      sub\n        /* \"#utility.yul\":2292:2293   */\n      0x00\n        /* \"#utility.yul\":2281:2290   */\n      dup4\n        /* \"#utility.yul\":2277:2294   */\n      add\n        /* \"#utility.yul\":2270:2317   */\n      mstore\n        /* \"#utility.yul\":2334:2442   */\n      tag_75\n        /* \"#utility.yul\":2437:2441   */\n      dup2\n        /* \"#utility.yul\":2428:2434   */\n      dup5\n        /* \"#utility.yul\":2334:2442   */\n      tag_46\n      jump\t// in\n    tag_75:\n        /* \"#utility.yul\":2326:2442   */\n      swap1\n      pop\n        /* \"#utility.yul\":2076:2449   */\n      swap3\n      swap2\n      pop\n      pop\n      jump\t// out\n        /* \"#utility.yul\":2455:2635   */\n    tag_27:\n        /* \"#utility.yul\":2503:2580   */\n      0x4e487b7100000000000000000000000000000000000000000000000000000000\n        /* \"#utility.yul\":2500:2501   */\n      0x00\n        /* \"#utility.yul\":2493:2581   */\n      mstore\n        /* \"#utility.yul\":2600:2604   */\n      0x21\n        /* \"#utility.yul\":2597:2598   */\n      0x04\n        /* \"#utility.yul\":2590:2605   */\n      mstore\n        /* \"#utility.yul\":2624:2628   */\n      0x24\n        /* \"#utility.yul\":2621:2622   */\n      0x00\n        /* \"#utility.yul\":2614:2629   */\n      revert\n        /* \"#utility.yul\":2641:2757   */\n    tag_47:\n        /* \"#utility.yul\":2725:2726   */\n      0x03\n        /* \"#utility.yul\":2718:2723   */\n      dup2\n        /* \"#utility.yul\":2715:2727   */\n      lt\n        /* \"#utility.yul\":2705:2751   */\n      tag_78\n      jumpi\n        /* \"#utility.yul\":2731:2749   */\n      tag_79\n      tag_27\n      jump\t// in\n    tag_79:\n        /* \"#utility.yul\":2705:2751   */\n    tag_78:\n        /* \"#utility.yul\":2641:2757   */\n      pop\n      jump\t// out\n        /* \"#utility.yul\":2763:2896   */\n    tag_48:\n        /* \"#utility.yul\":2811:2818   */\n      0x00\n        /* \"#utility.yul\":2840:2845   */\n      dup2\n        /* \"#utility.yul\":2829:2845   */\n      swap1\n      pop\n        /* \"#utility.yul\":2846:2890   */\n      tag_81\n        /* \"#utility.yul\":2884:2889   */\n      dup3\n        /* \"#utility.yul\":2846:2890   */\n      tag_47\n      jump\t// in\n    tag_81:\n        /* \"#utility.yul\":2763:2896   */\n      swap2\n      swap1\n      pop\n      jump\t// out\n        /* \"#utility.yul\":2902:3035   */\n    tag_49:\n        /* \"#utility.yul\":2961:2970   */\n      0x00\n        /* \"#utility.yul\":2994:3029   */\n      tag_83\n        /* \"#utility.yul\":3023:3028   */\n      dup3\n        /* \"#utility.yul\":2994:3029   */\n      tag_48\n      jump\t// in\n    tag_83:\n        /* \"#utility.yul\":2981:3029   */\n      swap1\n      pop\n        /* \"#utility.yul\":2902:3035   */\n      swap2\n      swap1\n      pop\n      jump\t// out\n        /* \"#utility.yul\":3041:3190   */\n    tag_50:\n        /* \"#utility.yul\":3137:3183   */\n      tag_85\n        /* \"#utility.yul\":3177:3182   */\n      dup2\n        /* \"#utility.yul\":3137:3183   */\n      tag_49\n      jump\t// in\n    tag_85:\n        /* \"#utility.yul\":3132:3135   */\n      dup3\n        /* \"#utility.yul\":3125:3184   */\n      mstore\n        /* \"#utility.yul\":3041:3190   */\n      pop\n      pop\n      jump\t// out\n        /* \"#utility.yul\":3196:3436   */\n    tag_23:\n        /* \"#utility.yul\":3298:3302   */\n      0x00\n        /* \"#utility.yul\":3336:3338   */\n      0x20\n        /* \"#utility.yul\":3325:3334   */\n      dup3\n        /* \"#utility.yul\":3321:3339   */\n      add\n        /* \"#utility.yul\":3313:3339   */\n      swap1\n      pop\n        /* \"#utility.yul\":3349:3429   */\n      tag_87\n        /* \"#utility.yul\":3426:3427   */\n      0x00\n        /* \"#utility.yul\":3415:3424   */\n      dup4\n        /* \"#utility.yul\":3411:3428   */\n      add\n        /* \"#utility.yul\":3402:3408   */\n      dup5\n        /* \"#utility.yul\":3349:3429   */\n      tag_50\n      jump\t// in\n    tag_87:\n        /* \"#utility.yul\":3196:3436   */\n      swap3\n      swap2\n      pop\n      pop\n      jump\t// out\n        /* \"#utility.yul\":3442:3622   */\n    tag_32:\n        /* \"#utility.yul\":3490:3567   */\n      0x4e487b7100000000000000000000000000000000000000000000000000000000\n        /* \"#utility.yul\":3487:3488   */\n      0x00\n        /* \"#utility.yul\":3480:3568   */\n      mstore\n        /* \"#utility.yul\":3587:3591   */\n      0x41\n        /* \"#utility.yul\":3584:3585   */\n      0x04\n        /* \"#utility.yul\":3577:3592   */\n      mstore\n        /* \"#utility.yul\":3611:3615   */\n      0x24\n        /* \"#utility.yul\":3608:3609   */\n      0x00\n        /* \"#utility.yul\":3601:3616   */\n      revert\n        /* \"#utility.yul\":3628:3808   */\n    tag_36:\n        /* \"#utility.yul\":3676:3753   */\n      0x4e487b7100000000000000000000000000000000000000000000000000000000\n        /* \"#utility.yul\":3673:3674   */\n      0x00\n        /* \"#utility.yul\":3666:3754   */\n      mstore\n        /* \"#utility.yul\":3773:3777   */\n      0x32\n        /* \"#utility.yul\":3770:3771   */\n      0x04\n        /* \"#utility.yul\":3763:3778   */\n      mstore\n        /* \"#utility.yul\":3797:3801   */\n      0x24\n        /* \"#utility.yul\":3794:3795   */\n      0x00\n        /* \"#utility.yul\":3787:3802   */\n      revert\n\n    auxdata: 0xa2646970667358221220488edcfab545f3d1e0b659641fb35b854680cf062c33b543f59f1cef0a30c6e164736f6c63430008110033\n}\n",
				"bytecode": {
					"linkReferences": {},
					"object": "608060405260008060006101000a81548160ff021916908360028111156100295761002861006b565b5b02179055506001600060016101000a81548160ff021916908360028111156100545761005361006b565b5b021790555034801561006557600080fd5b5061009a565b7f4e487b7100000000000000000000000000000000000000000000000000000000600052602160045260246000fd5b6103dc806100a96000396000f3fe60806040526004361061003f5760003560e01c80630101995814610044578063303810a61461006f5780639607b3621461008d578063f0ebce5a146100b8575b600080fd5b34801561005057600080fd5b506100596100e3565b60405161006691906101bb565b60405180910390f35b61007761010b565b60405161008491906101bb565b60405180910390f35b34801561009957600080fd5b506100a2610113565b6040516100af9190610294565b60405180910390f35b3480156100c457600080fd5b506100cd61018c565b6040516100da919061032d565b60405180910390f35b60008060009054906101000a900460ff166002811115610106576101056102b6565b5b905090565b600047905090565b60606000600367ffffffffffffffff81111561013257610131610348565b5b6040519080825280602002602001820160405280156101605781602001602082028036833780820191505090505b50905060018160008151811061017957610178610377565b5b6020026020010181815250508091505090565b60008060019054906101000a900460ff16905090565b6000819050919050565b6101b5816101a2565b82525050565b60006020820190506101d060008301846101ac565b92915050565b600081519050919050565b600082825260208201905092915050565b6000819050602082019050919050565b61020b816101a2565b82525050565b600061021d8383610202565b60208301905092915050565b6000602082019050919050565b6000610241826101d6565b61024b81856101e1565b9350610256836101f2565b8060005b8381101561028757815161026e8882610211565b975061027983610229565b92505060018101905061025a565b5085935050505092915050565b600060208201905081810360008301526102ae8184610236565b905092915050565b7f4e487b7100000000000000000000000000000000000000000000000000000000600052602160045260246000fd5b600381106102f6576102f56102b6565b5b50565b6000819050610307826102e5565b919050565b6000610317826102f9565b9050919050565b6103278161030c565b82525050565b6000602082019050610342600083018461031e565b92915050565b7f4e487b7100000000000000000000000000000000000000000000000000000000600052604160045260246000fd5b7f4e487b7100000000000000000000000000000000000000000000000000000000600052603260045260246000fdfea2646970667358221220488edcfab545f3d1e0b659641fb35b854680cf062c33b543f59f1cef0a30c6e164736f6c63430008110033",
					"opcodes": "PUSH1 0x80 PUSH1 0x40 MSTORE PUSH1 0x0 DUP1 PUSH1 0x0 PUSH2 0x100 EXP DUP2 SLOAD DUP2 PUSH1 0xFF MUL NOT AND SWAP1 DUP4 PUSH1 0x2 DUP2 GT ISZERO PUSH2 0x29 JUMPI PUSH2 0x28 PUSH2 0x6B JUMP JUMPDEST JUMPDEST MUL OR SWAP1 SSTORE POP PUSH1 0x1 PUSH1 0x0 PUSH1 0x1 PUSH2 0x100 EXP DUP2 SLOAD DUP2 PUSH1 0xFF MUL NOT AND SWAP1 DUP4 PUSH1 0x2 DUP2 GT ISZERO PUSH2 0x54 JUMPI PUSH2 0x53 PUSH2 0x6B JUMP JUMPDEST JUMPDEST MUL OR SWAP1 SSTORE POP CALLVALUE DUP1 ISZERO PUSH2 0x65 JUMPI PUSH1 0x0 DUP1 REVERT JUMPDEST POP PUSH2 0x9A JUMP JUMPDEST PUSH32 0x4E487B7100000000000000000000000000000000000000000000000000000000 PUSH1 0x0 MSTORE PUSH1 0x21 PUSH1 0x4 MSTORE PUSH1 0x24 PUSH1 0x0 REVERT JUMPDEST PUSH2 0x3DC DUP1 PUSH2 0xA9 PUSH1 0x0 CODECOPY PUSH1 0x0 RETURN INVALID PUSH1 0x80 PUSH1 0x40 MSTORE PUSH1 0x4 CALLDATASIZE LT PUSH2 0x3F JUMPI PUSH1 0x0 CALLDATALOAD PUSH1 0xE0 SHR DUP1 PUSH4 0x1019958 EQ PUSH2 0x44 JUMPI DUP1 PUSH4 0x303810A6 EQ PUSH2 0x6F JUMPI DUP1 PUSH4 0x9607B362 EQ PUSH2 0x8D JUMPI DUP1 PUSH4 0xF0EBCE5A EQ PUSH2 0xB8 JUMPI JUMPDEST PUSH1 0x0 DUP1 REVERT JUMPDEST CALLVALUE DUP1 ISZERO PUSH2 0x50 JUMPI PUSH1 0x0 DUP1 REVERT JUMPDEST POP PUSH2 0x59 PUSH2 0xE3 JUMP JUMPDEST PUSH1 0x40 MLOAD PUSH2 0x66 SWAP2 SWAP1 PUSH2 0x1BB JUMP JUMPDEST PUSH1 0x40 MLOAD DUP1 SWAP2 SUB SWAP1 RETURN JUMPDEST PUSH2 0x77 PUSH2 0x10B JUMP JUMPDEST PUSH1 0x40 MLOAD PUSH2 0x84 SWAP2 SWAP1 PUSH2 0x1BB JUMP JUMPDEST PUSH1 0x40 MLOAD DUP1 SWAP2 SUB SWAP1 RETURN JUMPDEST CALLVALUE DUP1 ISZERO PUSH2 0x99 JUMPI PUSH1 0x0 DUP1 REVERT JUMPDEST POP PUSH2 0xA2 PUSH2 0x113 JUMP JUMPDEST PUSH1 0x40 MLOAD PUSH2 0xAF SWAP2 SWAP1 PUSH2 0x294 JUMP JUMPDEST PUSH1 0x40 MLOAD DUP1 SWAP2 SUB SWAP1 RETURN JUMPDEST CALLVALUE DUP1 ISZERO PUSH2 0xC4 JUMPI PUSH1 0x0 DUP1 REVERT JUMPDEST POP PUSH2 0xCD PUSH2 0x18C JUMP JUMPDEST PUSH1 0x40 MLOAD PUSH2 0xDA SWAP2 SWAP1 PUSH2 0x32D JUMP JUMPDEST PUSH1 0x40 MLOAD DUP1 SWAP2 SUB SWAP1 RETURN JUMPDEST PUSH1 0x0 DUP1 PUSH1 0x0 SWAP1 SLOAD SWAP1 PUSH2 0x100 EXP SWAP1 DIV PUSH1 0xFF AND PUSH1 0x2 DUP2 GT ISZERO PUSH2 0x106 JUMPI PUSH2 0x105 PUSH2 0x2B6 JUMP JUMPDEST JUMPDEST SWAP1 POP SWAP1 JUMP JUMPDEST PUSH1 0x0 SELFBALANCE SWAP1 POP SWAP1 JUMP JUMPDEST PUSH1 0x60 PUSH1 0x0 PUSH1 0x3 PUSH8 0xFFFFFFFFFFFFFFFF DUP2 GT ISZERO PUSH2 0x132 JUMPI PUSH2 0x131 PUSH2 0x348 JUMP JUMPDEST JUMPDEST PUSH1 0x40 MLOAD SWAP1 DUP1 DUP3 MSTORE DUP1 PUSH1 0x20 MUL PUSH1 0x20 ADD DUP3 ADD PUSH1 0x40 MSTORE DUP1 ISZERO PUSH2 0x160 JUMPI DUP2 PUSH1 0x20 ADD PUSH1 0x20 DUP3 MUL DUP1 CALLDATASIZE DUP4 CALLDATACOPY DUP1 DUP3 ADD SWAP2 POP POP SWAP1 POP JUMPDEST POP SWAP1 POP PUSH1 0x1 DUP2 PUSH1 0x0 DUP2 MLOAD DUP2 LT PUSH2 0x179 JUMPI PUSH2 0x178 PUSH2 0x377 JUMP JUMPDEST JUMPDEST PUSH1 0x20 MUL PUSH1 0x20 ADD ADD DUP2 DUP2 MSTORE POP POP DUP1 SWAP2 POP POP SWAP1 JUMP JUMPDEST PUSH1 0x0 DUP1 PUSH1 0x1 SWAP1 SLOAD SWAP1 PUSH2 0x100 EXP SWAP1 DIV PUSH1 0xFF AND SWAP1 POP SWAP1 JUMP JUMPDEST PUSH1 0x0 DUP2 SWAP1 POP SWAP2 SWAP1 POP JUMP JUMPDEST PUSH2 0x1B5 DUP2 PUSH2 0x1A2 JUMP JUMPDEST DUP3 MSTORE POP POP JUMP JUMPDEST PUSH1 0x0 PUSH1 0x20 DUP3 ADD SWAP1 POP PUSH2 0x1D0 PUSH1 0x0 DUP4 ADD DUP5 PUSH2 0x1AC JUMP JUMPDEST SWAP3 SWAP2 POP POP JUMP JUMPDEST PUSH1 0x0 DUP2 MLOAD SWAP1 POP SWAP2 SWAP1 POP JUMP JUMPDEST PUSH1 0x0 DUP3 DUP3 MSTORE PUSH1 0x20 DUP3 ADD SWAP1 POP SWAP3 SWAP2 POP POP JUMP JUMPDEST PUSH1 0x0 DUP2 SWAP1 POP PUSH1 0x20 DUP3 ADD SWAP1 POP SWAP2 SWAP1 POP JUMP JUMPDEST PUSH2 0x20B DUP2 PUSH2 0x1A2 JUMP JUMPDEST DUP3 MSTORE POP POP JUMP JUMPDEST PUSH1 0x0 PUSH2 0x21D DUP4 DUP4 PUSH2 0x202 JUMP JUMPDEST PUSH1 0x20 DUP4 ADD SWAP1 POP SWAP3 SWAP2 POP POP JUMP JUMPDEST PUSH1 0x0 PUSH1 0x20 DUP3 ADD SWAP1 POP SWAP2 SWAP1 POP JUMP JUMPDEST PUSH1 0x0 PUSH2 0x241 DUP3 PUSH2 0x1D6 JUMP JUMPDEST PUSH2 0x24B DUP2 DUP6 PUSH2 0x1E1 JUMP JUMPDEST SWAP4 POP PUSH2 0x256 DUP4 PUSH2 0x1F2 JUMP JUMPDEST DUP1 PUSH1 0x0 JUMPDEST DUP4 DUP2 LT ISZERO PUSH2 0x287 JUMPI DUP2 MLOAD PUSH2 0x26E DUP9 DUP3 PUSH2 0x211 JUMP JUMPDEST SWAP8 POP PUSH2 0x279 DUP4 PUSH2 0x229 JUMP JUMPDEST SWAP3 POP POP PUSH1 0x1 DUP2 ADD SWAP1 POP PUSH2 0x25A JUMP JUMPDEST POP DUP6 SWAP4 POP POP POP POP SWAP3 SWAP2 POP POP JUMP JUMPDEST PUSH1 0x0 PUSH1 0x20 DUP3 ADD SWAP1 POP DUP2 DUP2 SUB PUSH1 0x0 DUP4 ADD MSTORE PUSH2 0x2AE DUP2 DUP5 PUSH2 0x236 JUMP JUMPDEST SWAP1 POP SWAP3 SWAP2 POP POP JUMP JUMPDEST PUSH32 0x4E487B7100000000000000000000000000000000000000000000000000000000 PUSH1 0x0 MSTORE PUSH1 0x21 PUSH1 0x4 MSTORE PUSH1 0x24 PUSH1 0x0 REVERT JUMPDEST PUSH1 0x3 DUP2 LT PUSH2 0x2F6 JUMPI PUSH2 0x2F5 PUSH2 0x2B6 JUMP JUMPDEST JUMPDEST POP JUMP JUMPDEST PUSH1 0x0 DUP2 SWAP1 POP PUSH2 0x307 DUP3 PUSH2 0x2E5 JUMP JUMPDEST SWAP2 SWAP1 POP JUMP JUMPDEST PUSH1 0x0 PUSH2 0x317 DUP3 PUSH2 0x2F9 JUMP JUMPDEST SWAP1 POP SWAP2 SWAP1 POP JUMP JUMPDEST PUSH2 0x327 DUP2 PUSH2 0x30C JUMP JUMPDEST DUP3 MSTORE POP POP JUMP JUMPDEST PUSH1 0x0 PUSH1 0x20 DUP3 ADD SWAP1 POP PUSH2 0x342 PUSH1 0x0 DUP4 ADD DUP5 PUSH2 0x31E JUMP JUMPDEST SWAP3 SWAP2 POP POP JUMP JUMPDEST PUSH32 0x4E487B7100000000000000000000000000000000000000000000000000000000 PUSH1 0x0 MSTORE PUSH1 0x41 PUSH1 0x4 MSTORE PUSH1 0x24 PUSH1 0x0 REVERT JUMPDEST PUSH32 0x4E487B7100000000000000000000000000000000000000000000000000000000 PUSH1 0x0 MSTORE PUSH1 0x32 PUSH1 0x4 MSTORE PUSH1 0x24 PUSH1 0x0 REVERT INVALID LOG2 PUSH5 0x6970667358 0x22 SLT KECCAK256 BASEFEE DUP15 0xDC STATICCALL 0xB5 GASLIMIT RETURN 0xD1 0xE0 0xB6 MSIZE PUSH5 0x1FB35B8546 DUP1 0xCF MOD 0x2C CALLER 0xB5 NUMBER CREATE2 SWAP16 SHR 0xEF EXP ADDRESS 0xC6 0xE1 PUSH5 0x736F6C6343 STOP ADDMOD GT STOP CALLER "
				},
				"gasEstimates": {
					"creation": {
						"codeDepositCost": "197600",
						"executionCost": "48874",
						"totalCost": "246474"
					},
					"external": {
						"Array()": "infinite",
						"enumToUint()": "2477",
						"getEnum()": "2662",
						"minusPayable()": "315"
					}
				},
				"methodIdentifiers": {
					"Array()": "9607b362",
					"enumToUint()": "01019958",
					"getEnum()": "f0ebce5a",
					"minusPayable()": "303810a6"
				}
			},
			"storageLayout": {
				"storage": [
					{
						"astId": 10,
						"contract": "UdemySolPractice/WTF001.sol:WTF001",
						"label": "action",
						"offset": 0,
						"slot": "0",
						"type": "t_enum(ActionSet)5"
					},
					{
						"astId": 15,
						"contract": "UdemySolPractice/WTF001.sol:WTF001",
						"label": "action2",
						"offset": 1,
						"slot": "0",
						"type": "t_enum(ActionSet)5"
					}
				],
				"types": {
					"t_enum(ActionSet)5": {
						"encoding": "inplace",
						"label": "enum WTF001.ActionSet",
						"numberOfBytes": "1"
					}
				}
			},
			"userdoc": {
				"kind": "user",
				"methods": {},
				"version": 1
			}
		}
	}
}